{
	"RideDaoContract_flat.sol": {
		"RideDaoContract": {
			"abi": [
				{
					"inputs": [],
					"stateMutability": "nonpayable",
					"type": "constructor"
				},
				{
					"anonymous": false,
					"inputs": [
						{
							"indexed": true,
							"internalType": "address",
							"name": "owner",
							"type": "address"
						},
						{
							"indexed": true,
							"internalType": "address",
							"name": "spender",
							"type": "address"
						},
						{
							"indexed": false,
							"internalType": "uint256",
							"name": "value",
							"type": "uint256"
						}
					],
					"name": "Approval",
					"type": "event"
				},
				{
					"anonymous": false,
					"inputs": [
						{
							"indexed": true,
							"internalType": "address",
							"name": "previousOwner",
							"type": "address"
						},
						{
							"indexed": true,
							"internalType": "address",
							"name": "newOwner",
							"type": "address"
						}
					],
					"name": "OwnershipTransferred",
					"type": "event"
				},
				{
					"anonymous": false,
					"inputs": [
						{
							"indexed": false,
							"internalType": "address",
							"name": "account",
							"type": "address"
						}
					],
					"name": "Paused",
					"type": "event"
				},
				{
					"anonymous": false,
					"inputs": [
						{
							"indexed": true,
							"internalType": "address",
							"name": "from",
							"type": "address"
						},
						{
							"indexed": true,
							"internalType": "address",
							"name": "to",
							"type": "address"
						},
						{
							"indexed": false,
							"internalType": "uint256",
							"name": "value",
							"type": "uint256"
						}
					],
					"name": "Transfer",
					"type": "event"
				},
				{
					"anonymous": false,
					"inputs": [
						{
							"indexed": false,
							"internalType": "address",
							"name": "account",
							"type": "address"
						}
					],
					"name": "Unpaused",
					"type": "event"
				},
				{
					"inputs": [
						{
							"internalType": "address",
							"name": "owner",
							"type": "address"
						},
						{
							"internalType": "address",
							"name": "spender",
							"type": "address"
						}
					],
					"name": "allowance",
					"outputs": [
						{
							"internalType": "uint256",
							"name": "",
							"type": "uint256"
						}
					],
					"stateMutability": "view",
					"type": "function"
				},
				{
					"inputs": [
						{
							"internalType": "address",
							"name": "spender",
							"type": "address"
						},
						{
							"internalType": "uint256",
							"name": "amount",
							"type": "uint256"
						}
					],
					"name": "approve",
					"outputs": [
						{
							"internalType": "bool",
							"name": "",
							"type": "bool"
						}
					],
					"stateMutability": "nonpayable",
					"type": "function"
				},
				{
					"inputs": [
						{
							"internalType": "address",
							"name": "account",
							"type": "address"
						}
					],
					"name": "balanceOf",
					"outputs": [
						{
							"internalType": "uint256",
							"name": "",
							"type": "uint256"
						}
					],
					"stateMutability": "view",
					"type": "function"
				},
				{
					"inputs": [],
					"name": "balanceOf",
					"outputs": [
						{
							"internalType": "uint256",
							"name": "",
							"type": "uint256"
						}
					],
					"stateMutability": "view",
					"type": "function"
				},
				{
					"inputs": [
						{
							"internalType": "uint256",
							"name": "amount",
							"type": "uint256"
						}
					],
					"name": "burn",
					"outputs": [],
					"stateMutability": "nonpayable",
					"type": "function"
				},
				{
					"inputs": [
						{
							"internalType": "address",
							"name": "account",
							"type": "address"
						},
						{
							"internalType": "uint256",
							"name": "amount",
							"type": "uint256"
						}
					],
					"name": "burnFrom",
					"outputs": [],
					"stateMutability": "nonpayable",
					"type": "function"
				},
				{
					"inputs": [],
					"name": "decimals",
					"outputs": [
						{
							"internalType": "uint8",
							"name": "",
							"type": "uint8"
						}
					],
					"stateMutability": "view",
					"type": "function"
				},
				{
					"inputs": [
						{
							"internalType": "address",
							"name": "spender",
							"type": "address"
						},
						{
							"internalType": "uint256",
							"name": "subtractedValue",
							"type": "uint256"
						}
					],
					"name": "decreaseAllowance",
					"outputs": [
						{
							"internalType": "bool",
							"name": "",
							"type": "bool"
						}
					],
					"stateMutability": "nonpayable",
					"type": "function"
				},
				{
					"inputs": [
						{
							"internalType": "address",
							"name": "spender",
							"type": "address"
						},
						{
							"internalType": "uint256",
							"name": "addedValue",
							"type": "uint256"
						}
					],
					"name": "increaseAllowance",
					"outputs": [
						{
							"internalType": "bool",
							"name": "",
							"type": "bool"
						}
					],
					"stateMutability": "nonpayable",
					"type": "function"
				},
				{
					"inputs": [],
					"name": "invest",
					"outputs": [],
					"stateMutability": "payable",
					"type": "function"
				},
				{
					"inputs": [],
					"name": "name",
					"outputs": [
						{
							"internalType": "string",
							"name": "",
							"type": "string"
						}
					],
					"stateMutability": "view",
					"type": "function"
				},
				{
					"inputs": [],
					"name": "owner",
					"outputs": [
						{
							"internalType": "address",
							"name": "",
							"type": "address"
						}
					],
					"stateMutability": "view",
					"type": "function"
				},
				{
					"inputs": [],
					"name": "pause",
					"outputs": [],
					"stateMutability": "nonpayable",
					"type": "function"
				},
				{
					"inputs": [],
					"name": "paused",
					"outputs": [
						{
							"internalType": "bool",
							"name": "",
							"type": "bool"
						}
					],
					"stateMutability": "view",
					"type": "function"
				},
				{
					"inputs": [],
					"name": "renounceOwnership",
					"outputs": [],
					"stateMutability": "nonpayable",
					"type": "function"
				},
				{
					"inputs": [],
					"name": "symbol",
					"outputs": [
						{
							"internalType": "string",
							"name": "",
							"type": "string"
						}
					],
					"stateMutability": "view",
					"type": "function"
				},
				{
					"inputs": [],
					"name": "totalSupply",
					"outputs": [
						{
							"internalType": "uint256",
							"name": "",
							"type": "uint256"
						}
					],
					"stateMutability": "view",
					"type": "function"
				},
				{
					"inputs": [
						{
							"internalType": "address",
							"name": "to",
							"type": "address"
						},
						{
							"internalType": "uint256",
							"name": "amount",
							"type": "uint256"
						}
					],
					"name": "transfer",
					"outputs": [
						{
							"internalType": "bool",
							"name": "",
							"type": "bool"
						}
					],
					"stateMutability": "nonpayable",
					"type": "function"
				},
				{
					"inputs": [
						{
							"internalType": "address",
							"name": "from",
							"type": "address"
						},
						{
							"internalType": "address",
							"name": "to",
							"type": "address"
						},
						{
							"internalType": "uint256",
							"name": "amount",
							"type": "uint256"
						}
					],
					"name": "transferFrom",
					"outputs": [
						{
							"internalType": "bool",
							"name": "",
							"type": "bool"
						}
					],
					"stateMutability": "nonpayable",
					"type": "function"
				},
				{
					"inputs": [
						{
							"internalType": "address",
							"name": "newOwner",
							"type": "address"
						}
					],
					"name": "transferOwnership",
					"outputs": [],
					"stateMutability": "nonpayable",
					"type": "function"
				},
				{
					"inputs": [
						{
							"internalType": "address payable",
							"name": "recepient",
							"type": "address"
						},
						{
							"internalType": "uint256",
							"name": "_amount",
							"type": "uint256"
						}
					],
					"name": "transferToken",
					"outputs": [],
					"stateMutability": "nonpayable",
					"type": "function"
				},
				{
					"inputs": [],
					"name": "unpause",
					"outputs": [],
					"stateMutability": "nonpayable",
					"type": "function"
				}
			],
			"devdoc": {
				"kind": "dev",
				"methods": {
					"allowance(address,address)": {
						"details": "See {IERC20-allowance}."
					},
					"approve(address,uint256)": {
						"details": "See {IERC20-approve}. NOTE: If `amount` is the maximum `uint256`, the allowance is not updated on `transferFrom`. This is semantically equivalent to an infinite approval. Requirements: - `spender` cannot be the zero address."
					},
					"balanceOf(address)": {
						"details": "See {IERC20-balanceOf}."
					},
					"burn(uint256)": {
						"details": "Destroys `amount` tokens from the caller. See {ERC20-_burn}."
					},
					"burnFrom(address,uint256)": {
						"details": "Destroys `amount` tokens from `account`, deducting from the caller's allowance. See {ERC20-_burn} and {ERC20-allowance}. Requirements: - the caller must have allowance for ``accounts``'s tokens of at least `amount`."
					},
					"decimals()": {
						"details": "Returns the number of decimals used to get its user representation. For example, if `decimals` equals `2`, a balance of `505` tokens should be displayed to a user as `5.05` (`505 / 10 ** 2`). Tokens usually opt for a value of 18, imitating the relationship between Ether and Wei. This is the value {ERC20} uses, unless this function is overridden; NOTE: This information is only used for _display_ purposes: it in no way affects any of the arithmetic of the contract, including {IERC20-balanceOf} and {IERC20-transfer}."
					},
					"decreaseAllowance(address,uint256)": {
						"details": "Atomically decreases the allowance granted to `spender` by the caller. This is an alternative to {approve} that can be used as a mitigation for problems described in {IERC20-approve}. Emits an {Approval} event indicating the updated allowance. Requirements: - `spender` cannot be the zero address. - `spender` must have allowance for the caller of at least `subtractedValue`."
					},
					"increaseAllowance(address,uint256)": {
						"details": "Atomically increases the allowance granted to `spender` by the caller. This is an alternative to {approve} that can be used as a mitigation for problems described in {IERC20-approve}. Emits an {Approval} event indicating the updated allowance. Requirements: - `spender` cannot be the zero address."
					},
					"name()": {
						"details": "Returns the name of the token."
					},
					"owner()": {
						"details": "Returns the address of the current owner."
					},
					"paused()": {
						"details": "Returns true if the contract is paused, and false otherwise."
					},
					"renounceOwnership()": {
						"details": "Leaves the contract without owner. It will not be possible to call `onlyOwner` functions anymore. Can only be called by the current owner. NOTE: Renouncing ownership will leave the contract without an owner, thereby removing any functionality that is only available to the owner."
					},
					"symbol()": {
						"details": "Returns the symbol of the token, usually a shorter version of the name."
					},
					"totalSupply()": {
						"details": "See {IERC20-totalSupply}."
					},
					"transfer(address,uint256)": {
						"details": "See {IERC20-transfer}. Requirements: - `to` cannot be the zero address. - the caller must have a balance of at least `amount`."
					},
					"transferFrom(address,address,uint256)": {
						"details": "See {IERC20-transferFrom}. Emits an {Approval} event indicating the updated allowance. This is not required by the EIP. See the note at the beginning of {ERC20}. NOTE: Does not update the allowance if the current allowance is the maximum `uint256`. Requirements: - `from` and `to` cannot be the zero address. - `from` must have a balance of at least `amount`. - the caller must have allowance for ``from``'s tokens of at least `amount`."
					},
					"transferOwnership(address)": {
						"details": "Transfers ownership of the contract to a new account (`newOwner`). Can only be called by the current owner."
					}
				},
				"version": 1
			},
			"evm": {
				"assembly": "    /* \"RideDaoContract_flat.sol\":23663:24704  contract RideDaoContract is ERC20, ERC20Burnable, Pausable, Ownable {... */\n  mstore(0x40, 0x80)\n    /* \"RideDaoContract_flat.sol\":23737:23865  constructor() ERC20(\"RideDaoContract\", \"RIDO\") {... */\n  callvalue\n  dup1\n  iszero\n  tag_1\n  jumpi\n  0x00\n  dup1\n  revert\ntag_1:\n  pop\n    /* \"RideDaoContract_flat.sol\":11433:11546  constructor(string memory name_, string memory symbol_) {... */\n  mload(0x40)\n  dup1\n  0x40\n  add\n  0x40\n  mstore\n  dup1\n  0x0f\n  dup2\n  mstore\n  0x20\n  add\n  0x5269646544616f436f6e74726163740000000000000000000000000000000000\n  dup2\n  mstore\n  pop\n  mload(0x40)\n  dup1\n  0x40\n  add\n  0x40\n  mstore\n  dup1\n  0x04\n  dup2\n  mstore\n  0x20\n  add\n  0x5249444f00000000000000000000000000000000000000000000000000000000\n  dup2\n  mstore\n  pop\n    /* \"RideDaoContract_flat.sol\":11507:11512  name_ */\n  dup2\n    /* \"RideDaoContract_flat.sol\":11499:11504  _name */\n  0x03\n    /* \"RideDaoContract_flat.sol\":11499:11512  _name = name_ */\n  swap1\n  dup1\n  mload\n  swap1\n  0x20\n  add\n  swap1\n  tag_7\n  swap3\n  swap2\n  swap1\n  tag_8\n  jump\t// in\ntag_7:\n  pop\n    /* \"RideDaoContract_flat.sol\":11532:11539  symbol_ */\n  dup1\n    /* \"RideDaoContract_flat.sol\":11522:11529  _symbol */\n  0x04\n    /* \"RideDaoContract_flat.sol\":11522:11539  _symbol = symbol_ */\n  swap1\n  dup1\n  mload\n  swap1\n  0x20\n  add\n  swap1\n  tag_9\n  swap3\n  swap2\n  swap1\n  tag_8\n  jump\t// in\ntag_9:\n  pop\n    /* \"RideDaoContract_flat.sol\":11433:11546  constructor(string memory name_, string memory symbol_) {... */\n  pop\n  pop\n    /* \"RideDaoContract_flat.sol\":4482:4487  false */\n  0x00\n    /* \"RideDaoContract_flat.sol\":4472:4479  _paused */\n  0x05\n  0x00\n    /* \"RideDaoContract_flat.sol\":4472:4487  _paused = false */\n  0x0100\n  exp\n  dup2\n  sload\n  dup2\n  0xff\n  mul\n  not\n  and\n  swap1\n  dup4\n  iszero\n  iszero\n  mul\n  or\n  swap1\n  sstore\n  pop\n    /* \"RideDaoContract_flat.sol\":1794:1826  _transferOwnership(_msgSender()) */\n  tag_12\n    /* \"RideDaoContract_flat.sol\":1813:1825  _msgSender() */\n  tag_13\n    /* \"RideDaoContract_flat.sol\":1813:1823  _msgSender */\n  shl(0x20, tag_14)\n    /* \"RideDaoContract_flat.sol\":1813:1825  _msgSender() */\n  0x20\n  shr\n  jump\t// in\ntag_13:\n    /* \"RideDaoContract_flat.sol\":1794:1812  _transferOwnership */\n  shl(0x20, tag_15)\n    /* \"RideDaoContract_flat.sol\":1794:1826  _transferOwnership(_msgSender()) */\n  0x20\n  shr\n  jump\t// in\ntag_12:\n    /* \"RideDaoContract_flat.sol\":23794:23858  _mint(msg.sender, 50000000000000000000000000 * 16 ** decimals()) */\n  tag_17\n    /* \"RideDaoContract_flat.sol\":23800:23810  msg.sender */\n  caller\n    /* \"RideDaoContract_flat.sol\":23847:23857  decimals() */\n  tag_18\n    /* \"RideDaoContract_flat.sol\":23847:23855  decimals */\n  shl(0x20, tag_19)\n    /* \"RideDaoContract_flat.sol\":23847:23857  decimals() */\n  0x20\n  shr\n  jump\t// in\ntag_18:\n    /* \"RideDaoContract_flat.sol\":23841:23843  16 */\n  0x10\n    /* \"RideDaoContract_flat.sol\":23841:23857  16 ** decimals() */\n  tag_20\n  swap2\n  swap1\n  tag_21\n  jump\t// in\ntag_20:\n    /* \"RideDaoContract_flat.sol\":23812:23838  50000000000000000000000000 */\n  0x295be96e64066972000000\n    /* \"RideDaoContract_flat.sol\":23812:23857  50000000000000000000000000 * 16 ** decimals() */\n  tag_22\n  swap2\n  swap1\n  tag_23\n  jump\t// in\ntag_22:\n    /* \"RideDaoContract_flat.sol\":23794:23799  _mint */\n  shl(0x20, tag_24)\n    /* \"RideDaoContract_flat.sol\":23794:23858  _mint(msg.sender, 50000000000000000000000000 * 16 ** decimals()) */\n  0x20\n  shr\n  jump\t// in\ntag_17:\n    /* \"RideDaoContract_flat.sol\":23663:24704  contract RideDaoContract is ERC20, ERC20Burnable, Pausable, Ownable {... */\n  jump(tag_25)\n    /* \"RideDaoContract_flat.sol\":662:758  function _msgSender() internal view virtual returns (address) {... */\ntag_14:\n    /* \"RideDaoContract_flat.sol\":715:722  address */\n  0x00\n    /* \"RideDaoContract_flat.sol\":741:751  msg.sender */\n  caller\n    /* \"RideDaoContract_flat.sol\":734:751  return msg.sender */\n  swap1\n  pop\n    /* \"RideDaoContract_flat.sol\":662:758  function _msgSender() internal view virtual returns (address) {... */\n  swap1\n  jump\t// out\n    /* \"RideDaoContract_flat.sol\":3291:3478  function _transferOwnership(address newOwner) internal virtual {... */\ntag_15:\n    /* \"RideDaoContract_flat.sol\":3364:3380  address oldOwner */\n  0x00\n    /* \"RideDaoContract_flat.sol\":3383:3389  _owner */\n  0x05\n  0x01\n  swap1\n  sload\n  swap1\n  0x0100\n  exp\n  swap1\n  div\n  0xffffffffffffffffffffffffffffffffffffffff\n  and\n    /* \"RideDaoContract_flat.sol\":3364:3389  address oldOwner = _owner */\n  swap1\n  pop\n    /* \"RideDaoContract_flat.sol\":3408:3416  newOwner */\n  dup2\n    /* \"RideDaoContract_flat.sol\":3399:3405  _owner */\n  0x05\n  0x01\n    /* \"RideDaoContract_flat.sol\":3399:3416  _owner = newOwner */\n  0x0100\n  exp\n  dup2\n  sload\n  dup2\n  0xffffffffffffffffffffffffffffffffffffffff\n  mul\n  not\n  and\n  swap1\n  dup4\n  0xffffffffffffffffffffffffffffffffffffffff\n  and\n  mul\n  or\n  swap1\n  sstore\n  pop\n    /* \"RideDaoContract_flat.sol\":3462:3470  newOwner */\n  dup2\n    /* \"RideDaoContract_flat.sol\":3431:3471  OwnershipTransferred(oldOwner, newOwner) */\n  0xffffffffffffffffffffffffffffffffffffffff\n  and\n    /* \"RideDaoContract_flat.sol\":3452:3460  oldOwner */\n  dup2\n    /* \"RideDaoContract_flat.sol\":3431:3471  OwnershipTransferred(oldOwner, newOwner) */\n  0xffffffffffffffffffffffffffffffffffffffff\n  and\n  0x8be0079c531659141344cd1fd0a4f28419497f9722a3daafe3b4186f6b6457e0\n  mload(0x40)\n  mload(0x40)\n  dup1\n  swap2\n  sub\n  swap1\n  log3\n    /* \"RideDaoContract_flat.sol\":3354:3478  {... */\n  pop\n    /* \"RideDaoContract_flat.sol\":3291:3478  function _transferOwnership(address newOwner) internal virtual {... */\n  pop\n  jump\t// out\n    /* \"RideDaoContract_flat.sol\":12548:12639  function decimals() public view virtual override returns (uint8) {... */\ntag_19:\n    /* \"RideDaoContract_flat.sol\":12606:12611  uint8 */\n  0x00\n    /* \"RideDaoContract_flat.sol\":12630:12632  18 */\n  0x12\n    /* \"RideDaoContract_flat.sol\":12623:12632  return 18 */\n  swap1\n  pop\n    /* \"RideDaoContract_flat.sol\":12548:12639  function decimals() public view virtual override returns (uint8) {... */\n  swap1\n  jump\t// out\n    /* \"RideDaoContract_flat.sol\":18024:18559  function _mint(address account, uint256 amount) internal virtual {... */\ntag_24:\n    /* \"RideDaoContract_flat.sol\":18126:18127  0 */\n  0x00\n    /* \"RideDaoContract_flat.sol\":18107:18128  account != address(0) */\n  0xffffffffffffffffffffffffffffffffffffffff\n  and\n    /* \"RideDaoContract_flat.sol\":18107:18114  account */\n  dup3\n    /* \"RideDaoContract_flat.sol\":18107:18128  account != address(0) */\n  0xffffffffffffffffffffffffffffffffffffffff\n  and\n  eq\n  iszero\n    /* \"RideDaoContract_flat.sol\":18099:18164  require(account != address(0), \"ERC20: mint to the zero address\") */\n  tag_30\n  jumpi\n  mload(0x40)\n  0x08c379a000000000000000000000000000000000000000000000000000000000\n  dup2\n  mstore\n  0x04\n  add\n  tag_31\n  swap1\n  tag_32\n  jump\t// in\ntag_31:\n  mload(0x40)\n  dup1\n  swap2\n  sub\n  swap1\n  revert\ntag_30:\n    /* \"RideDaoContract_flat.sol\":18175:18224  _beforeTokenTransfer(address(0), account, amount) */\n  tag_33\n    /* \"RideDaoContract_flat.sol\":18204:18205  0 */\n  0x00\n    /* \"RideDaoContract_flat.sol\":18208:18215  account */\n  dup4\n    /* \"RideDaoContract_flat.sol\":18217:18223  amount */\n  dup4\n    /* \"RideDaoContract_flat.sol\":18175:18195  _beforeTokenTransfer */\n  shl(0x20, tag_34)\n    /* \"RideDaoContract_flat.sol\":18175:18224  _beforeTokenTransfer(address(0), account, amount) */\n  0x20\n  shr\n  jump\t// in\ntag_33:\n    /* \"RideDaoContract_flat.sol\":18251:18257  amount */\n  dup1\n    /* \"RideDaoContract_flat.sol\":18235:18247  _totalSupply */\n  0x02\n  0x00\n    /* \"RideDaoContract_flat.sol\":18235:18257  _totalSupply += amount */\n  dup3\n  dup3\n  sload\n  tag_35\n  swap2\n  swap1\n  tag_36\n  jump\t// in\ntag_35:\n  swap3\n  pop\n  pop\n  dup2\n  swap1\n  sstore\n  pop\n    /* \"RideDaoContract_flat.sol\":18425:18431  amount */\n  dup1\n    /* \"RideDaoContract_flat.sol\":18403:18412  _balances */\n  0x00\n    /* \"RideDaoContract_flat.sol\":18403:18421  _balances[account] */\n  dup1\n    /* \"RideDaoContract_flat.sol\":18413:18420  account */\n  dup5\n    /* \"RideDaoContract_flat.sol\":18403:18421  _balances[account] */\n  0xffffffffffffffffffffffffffffffffffffffff\n  and\n  0xffffffffffffffffffffffffffffffffffffffff\n  and\n  dup2\n  mstore\n  0x20\n  add\n  swap1\n  dup2\n  mstore\n  0x20\n  add\n  0x00\n  keccak256\n  0x00\n    /* \"RideDaoContract_flat.sol\":18403:18431  _balances[account] += amount */\n  dup3\n  dup3\n  sload\n  add\n  swap3\n  pop\n  pop\n  dup2\n  swap1\n  sstore\n  pop\n    /* \"RideDaoContract_flat.sol\":18477:18484  account */\n  dup2\n    /* \"RideDaoContract_flat.sol\":18456:18493  Transfer(address(0), account, amount) */\n  0xffffffffffffffffffffffffffffffffffffffff\n  and\n    /* \"RideDaoContract_flat.sol\":18473:18474  0 */\n  0x00\n    /* \"RideDaoContract_flat.sol\":18456:18493  Transfer(address(0), account, amount) */\n  0xffffffffffffffffffffffffffffffffffffffff\n  and\n  0xddf252ad1be2c89b69c2b068fc378daa952ba7f163c4a11628f55a4df523b3ef\n    /* \"RideDaoContract_flat.sol\":18486:18492  amount */\n  dup4\n    /* \"RideDaoContract_flat.sol\":18456:18493  Transfer(address(0), account, amount) */\n  mload(0x40)\n  tag_37\n  swap2\n  swap1\n  tag_38\n  jump\t// in\ntag_37:\n  mload(0x40)\n  dup1\n  swap2\n  sub\n  swap1\n  log3\n    /* \"RideDaoContract_flat.sol\":18504:18552  _afterTokenTransfer(address(0), account, amount) */\n  tag_39\n    /* \"RideDaoContract_flat.sol\":18532:18533  0 */\n  0x00\n    /* \"RideDaoContract_flat.sol\":18536:18543  account */\n  dup4\n    /* \"RideDaoContract_flat.sol\":18545:18551  amount */\n  dup4\n    /* \"RideDaoContract_flat.sol\":18504:18523  _afterTokenTransfer */\n  shl(0x20, tag_40)\n    /* \"RideDaoContract_flat.sol\":18504:18552  _afterTokenTransfer(address(0), account, amount) */\n  0x20\n  shr\n  jump\t// in\ntag_39:\n    /* \"RideDaoContract_flat.sol\":18024:18559  function _mint(address account, uint256 amount) internal virtual {... */\n  pop\n  pop\n  jump\t// out\n    /* \"RideDaoContract_flat.sol\":24079:24274  function _beforeTokenTransfer(... */\ntag_34:\n    /* \"RideDaoContract_flat.sol\":4715:4734  _requireNotPaused() */\n  tag_42\n    /* \"RideDaoContract_flat.sol\":4715:4732  _requireNotPaused */\n  shl(0x20, tag_43)\n    /* \"RideDaoContract_flat.sol\":4715:4734  _requireNotPaused() */\n  0x20\n  shr\n  jump\t// in\ntag_42:\n    /* \"RideDaoContract_flat.sol\":24223:24267  super._beforeTokenTransfer(from, to, amount) */\n  tag_45\n    /* \"RideDaoContract_flat.sol\":24250:24254  from */\n  dup4\n    /* \"RideDaoContract_flat.sol\":24256:24258  to */\n  dup4\n    /* \"RideDaoContract_flat.sol\":24260:24266  amount */\n  dup4\n    /* \"RideDaoContract_flat.sol\":24223:24249  super._beforeTokenTransfer */\n  or(tag_0_128, shl(0x20, tag_46))\n    /* \"RideDaoContract_flat.sol\":24223:24267  super._beforeTokenTransfer(from, to, amount) */\n  0x20\n  shr\n  jump\t// in\ntag_45:\n    /* \"RideDaoContract_flat.sol\":24079:24274  function _beforeTokenTransfer(... */\n  pop\n  pop\n  pop\n  jump\t// out\n    /* \"RideDaoContract_flat.sol\":22346:22466  function _afterTokenTransfer(... */\ntag_40:\n  pop\n  pop\n  pop\n  jump\t// out\n    /* \"RideDaoContract_flat.sol\":5243:5349  function _requireNotPaused() internal view virtual {... */\ntag_43:\n    /* \"RideDaoContract_flat.sol\":5313:5321  paused() */\n  tag_49\n    /* \"RideDaoContract_flat.sol\":5313:5319  paused */\n  shl(0x20, tag_50)\n    /* \"RideDaoContract_flat.sol\":5313:5321  paused() */\n  0x20\n  shr\n  jump\t// in\ntag_49:\n    /* \"RideDaoContract_flat.sol\":5312:5321  !paused() */\n  iszero\n    /* \"RideDaoContract_flat.sol\":5304:5342  require(!paused(), \"Pausable: paused\") */\n  tag_51\n  jumpi\n  mload(0x40)\n  0x08c379a000000000000000000000000000000000000000000000000000000000\n  dup2\n  mstore\n  0x04\n  add\n  tag_52\n  swap1\n  tag_53\n  jump\t// in\ntag_52:\n  mload(0x40)\n  dup1\n  swap2\n  sub\n  swap1\n  revert\ntag_51:\n    /* \"RideDaoContract_flat.sol\":5243:5349  function _requireNotPaused() internal view virtual {... */\n  jump\t// out\n    /* \"RideDaoContract_flat.sol\":21637:21758  function _beforeTokenTransfer(... */\ntag_46:\n  pop\n  pop\n  pop\n  jump\t// out\n    /* \"RideDaoContract_flat.sol\":5091:5175  function paused() public view virtual returns (bool) {... */\ntag_50:\n    /* \"RideDaoContract_flat.sol\":5138:5142  bool */\n  0x00\n    /* \"RideDaoContract_flat.sol\":5161:5168  _paused */\n  0x05\n  0x00\n  swap1\n  sload\n  swap1\n  0x0100\n  exp\n  swap1\n  div\n  0xff\n  and\n    /* \"RideDaoContract_flat.sol\":5154:5168  return _paused */\n  swap1\n  pop\n    /* \"RideDaoContract_flat.sol\":5091:5175  function paused() public view virtual returns (bool) {... */\n  swap1\n  jump\t// out\n    /* \"RideDaoContract_flat.sol\":23663:24704  contract RideDaoContract is ERC20, ERC20Burnable, Pausable, Ownable {... */\ntag_8:\n  dup3\n  dup1\n  sload\n  tag_56\n  swap1\n  tag_57\n  jump\t// in\ntag_56:\n  swap1\n  0x00\n  mstore\n  keccak256(0x00, 0x20)\n  swap1\n  0x1f\n  add\n  0x20\n  swap1\n  div\n  dup2\n  add\n  swap3\n  dup3\n  tag_59\n  jumpi\n  0x00\n  dup6\n  sstore\n  jump(tag_58)\ntag_59:\n  dup3\n  0x1f\n  lt\n  tag_60\n  jumpi\n  dup1\n  mload\n  not(0xff)\n  and\n  dup4\n  dup1\n  add\n  or\n  dup6\n  sstore\n  jump(tag_58)\ntag_60:\n  dup3\n  dup1\n  add\n  0x01\n  add\n  dup6\n  sstore\n  dup3\n  iszero\n  tag_58\n  jumpi\n  swap2\n  dup3\n  add\ntag_61:\n  dup3\n  dup2\n  gt\n  iszero\n  tag_62\n  jumpi\n  dup3\n  mload\n  dup3\n  sstore\n  swap2\n  0x20\n  add\n  swap2\n  swap1\n  0x01\n  add\n  swap1\n  jump(tag_61)\ntag_62:\ntag_58:\n  pop\n  swap1\n  pop\n  tag_63\n  swap2\n  swap1\n  tag_64\n  jump\t// in\ntag_63:\n  pop\n  swap1\n  jump\t// out\ntag_64:\ntag_65:\n  dup1\n  dup3\n  gt\n  iszero\n  tag_66\n  jumpi\n  0x00\n  dup2\n  0x00\n  swap1\n  sstore\n  pop\n  0x01\n  add\n  jump(tag_65)\ntag_66:\n  pop\n  swap1\n  jump\t// out\n    /* \"#utility.yul\":7:187   */\ntag_67:\n    /* \"#utility.yul\":55:132   */\n  0x4e487b7100000000000000000000000000000000000000000000000000000000\n    /* \"#utility.yul\":52:53   */\n  0x00\n    /* \"#utility.yul\":45:133   */\n  mstore\n    /* \"#utility.yul\":152:156   */\n  0x11\n    /* \"#utility.yul\":149:150   */\n  0x04\n    /* \"#utility.yul\":142:157   */\n  mstore\n    /* \"#utility.yul\":176:180   */\n  0x24\n    /* \"#utility.yul\":173:174   */\n  0x00\n    /* \"#utility.yul\":166:181   */\n  revert\n    /* \"#utility.yul\":193:295   */\ntag_68:\n    /* \"#utility.yul\":235:243   */\n  0x00\n    /* \"#utility.yul\":282:287   */\n  dup2\n    /* \"#utility.yul\":279:280   */\n  0x01\n    /* \"#utility.yul\":275:288   */\n  shr\n    /* \"#utility.yul\":254:288   */\n  swap1\n  pop\n    /* \"#utility.yul\":193:295   */\n  swap2\n  swap1\n  pop\n  jump\t// out\n    /* \"#utility.yul\":301:1149   */\ntag_69:\n    /* \"#utility.yul\":362:367   */\n  0x00\n    /* \"#utility.yul\":369:373   */\n  dup1\n    /* \"#utility.yul\":393:399   */\n  dup3\n    /* \"#utility.yul\":384:399   */\n  swap2\n  pop\n    /* \"#utility.yul\":417:422   */\n  dup4\n    /* \"#utility.yul\":408:422   */\n  swap1\n  pop\n    /* \"#utility.yul\":431:1143   */\ntag_84:\n    /* \"#utility.yul\":452:453   */\n  0x01\n    /* \"#utility.yul\":442:450   */\n  dup6\n    /* \"#utility.yul\":439:454   */\n  gt\n    /* \"#utility.yul\":431:1143   */\n  iszero\n  tag_86\n  jumpi\n    /* \"#utility.yul\":547:551   */\n  dup1\n    /* \"#utility.yul\":542:545   */\n  dup7\n    /* \"#utility.yul\":538:552   */\n  div\n    /* \"#utility.yul\":532:536   */\n  dup2\n    /* \"#utility.yul\":529:553   */\n  gt\n    /* \"#utility.yul\":526:576   */\n  iszero\n  tag_87\n  jumpi\n    /* \"#utility.yul\":556:574   */\n  tag_88\n  tag_67\n  jump\t// in\ntag_88:\n    /* \"#utility.yul\":526:576   */\ntag_87:\n    /* \"#utility.yul\":606:607   */\n  0x01\n    /* \"#utility.yul\":596:604   */\n  dup6\n    /* \"#utility.yul\":592:608   */\n  and\n    /* \"#utility.yul\":589:1040   */\n  iszero\n  tag_89\n  jumpi\n    /* \"#utility.yul\":1021:1025   */\n  dup1\n    /* \"#utility.yul\":1014:1019   */\n  dup3\n    /* \"#utility.yul\":1010:1026   */\n  mul\n    /* \"#utility.yul\":1001:1026   */\n  swap2\n  pop\n    /* \"#utility.yul\":589:1040   */\ntag_89:\n    /* \"#utility.yul\":1071:1075   */\n  dup1\n    /* \"#utility.yul\":1065:1069   */\n  dup2\n    /* \"#utility.yul\":1061:1076   */\n  mul\n    /* \"#utility.yul\":1053:1076   */\n  swap1\n  pop\n    /* \"#utility.yul\":1101:1133   */\n  tag_90\n    /* \"#utility.yul\":1124:1132   */\n  dup6\n    /* \"#utility.yul\":1101:1133   */\n  tag_68\n  jump\t// in\ntag_90:\n    /* \"#utility.yul\":1089:1133   */\n  swap5\n  pop\n    /* \"#utility.yul\":431:1143   */\n  jump(tag_84)\ntag_86:\n    /* \"#utility.yul\":301:1149   */\n  swap5\n  pop\n  swap5\n  swap3\n  pop\n  pop\n  pop\n  jump\t// out\n    /* \"#utility.yul\":1155:2228   */\ntag_70:\n    /* \"#utility.yul\":1209:1214   */\n  0x00\n    /* \"#utility.yul\":1400:1408   */\n  dup3\n    /* \"#utility.yul\":1390:1430   */\n  tag_92\n  jumpi\n    /* \"#utility.yul\":1421:1422   */\n  0x01\n    /* \"#utility.yul\":1412:1422   */\n  swap1\n  pop\n    /* \"#utility.yul\":1423:1428   */\n  jump(tag_91)\n    /* \"#utility.yul\":1390:1430   */\ntag_92:\n    /* \"#utility.yul\":1449:1453   */\n  dup2\n    /* \"#utility.yul\":1439:1475   */\n  tag_93\n  jumpi\n    /* \"#utility.yul\":1466:1467   */\n  0x00\n    /* \"#utility.yul\":1457:1467   */\n  swap1\n  pop\n    /* \"#utility.yul\":1468:1473   */\n  jump(tag_91)\n    /* \"#utility.yul\":1439:1475   */\ntag_93:\n    /* \"#utility.yul\":1535:1539   */\n  dup2\n    /* \"#utility.yul\":1583:1584   */\n  0x01\n    /* \"#utility.yul\":1578:1605   */\n  dup2\n  eq\n  tag_95\n  jumpi\n    /* \"#utility.yul\":1619:1620   */\n  0x02\n    /* \"#utility.yul\":1614:1805   */\n  dup2\n  eq\n  tag_96\n  jumpi\n    /* \"#utility.yul\":1528:1805   */\n  jump(tag_94)\n    /* \"#utility.yul\":1578:1605   */\ntag_95:\n    /* \"#utility.yul\":1596:1597   */\n  0x01\n    /* \"#utility.yul\":1587:1597   */\n  swap2\n  pop\n    /* \"#utility.yul\":1598:1603   */\n  pop\n  jump(tag_91)\n    /* \"#utility.yul\":1614:1805   */\ntag_96:\n    /* \"#utility.yul\":1659:1662   */\n  0xff\n    /* \"#utility.yul\":1649:1657   */\n  dup5\n    /* \"#utility.yul\":1646:1663   */\n  gt\n    /* \"#utility.yul\":1643:1686   */\n  iszero\n  tag_97\n  jumpi\n    /* \"#utility.yul\":1666:1684   */\n  tag_98\n  tag_67\n  jump\t// in\ntag_98:\n    /* \"#utility.yul\":1643:1686   */\ntag_97:\n    /* \"#utility.yul\":1715:1723   */\n  dup4\n    /* \"#utility.yul\":1712:1713   */\n  0x02\n    /* \"#utility.yul\":1708:1724   */\n  exp\n    /* \"#utility.yul\":1699:1724   */\n  swap2\n  pop\n    /* \"#utility.yul\":1750:1753   */\n  dup5\n    /* \"#utility.yul\":1743:1748   */\n  dup3\n    /* \"#utility.yul\":1740:1754   */\n  gt\n    /* \"#utility.yul\":1737:1777   */\n  iszero\n  tag_99\n  jumpi\n    /* \"#utility.yul\":1757:1775   */\n  tag_100\n  tag_67\n  jump\t// in\ntag_100:\n    /* \"#utility.yul\":1737:1777   */\ntag_99:\n    /* \"#utility.yul\":1790:1795   */\n  pop\n  jump(tag_91)\n    /* \"#utility.yul\":1528:1805   */\ntag_94:\n  pop\n    /* \"#utility.yul\":1914:1916   */\n  0x20\n    /* \"#utility.yul\":1904:1912   */\n  dup4\n    /* \"#utility.yul\":1901:1917   */\n  lt\n    /* \"#utility.yul\":1895:1898   */\n  0x0133\n    /* \"#utility.yul\":1889:1893   */\n  dup4\n    /* \"#utility.yul\":1886:1899   */\n  lt\n    /* \"#utility.yul\":1882:1918   */\n  and\n    /* \"#utility.yul\":1864:1866   */\n  0x4e\n    /* \"#utility.yul\":1854:1862   */\n  dup5\n    /* \"#utility.yul\":1851:1867   */\n  lt\n    /* \"#utility.yul\":1846:1848   */\n  0x0b\n    /* \"#utility.yul\":1840:1844   */\n  dup5\n    /* \"#utility.yul\":1837:1849   */\n  lt\n    /* \"#utility.yul\":1833:1868   */\n  and\n    /* \"#utility.yul\":1817:1928   */\n  or\n    /* \"#utility.yul\":1814:2060   */\n  iszero\n  tag_101\n  jumpi\n    /* \"#utility.yul\":1970:1978   */\n  dup3\n    /* \"#utility.yul\":1964:1968   */\n  dup3\n    /* \"#utility.yul\":1960:1979   */\n  exp\n    /* \"#utility.yul\":1951:1979   */\n  swap1\n  pop\n    /* \"#utility.yul\":2005:2008   */\n  dup4\n    /* \"#utility.yul\":1998:2003   */\n  dup2\n    /* \"#utility.yul\":1995:2009   */\n  gt\n    /* \"#utility.yul\":1992:2032   */\n  iszero\n  tag_102\n  jumpi\n    /* \"#utility.yul\":2012:2030   */\n  tag_103\n  tag_67\n  jump\t// in\ntag_103:\n    /* \"#utility.yul\":1992:2032   */\ntag_102:\n    /* \"#utility.yul\":2045:2050   */\n  jump(tag_91)\n    /* \"#utility.yul\":1814:2060   */\ntag_101:\n    /* \"#utility.yul\":2085:2127   */\n  tag_104\n    /* \"#utility.yul\":2123:2126   */\n  dup5\n    /* \"#utility.yul\":2113:2121   */\n  dup5\n    /* \"#utility.yul\":2107:2111   */\n  dup5\n    /* \"#utility.yul\":2104:2105   */\n  0x01\n    /* \"#utility.yul\":2085:2127   */\n  tag_69\n  jump\t// in\ntag_104:\n    /* \"#utility.yul\":2070:2127   */\n  swap3\n  pop\n  swap1\n  pop\n    /* \"#utility.yul\":2159:2163   */\n  dup2\n    /* \"#utility.yul\":2154:2157   */\n  dup5\n    /* \"#utility.yul\":2150:2164   */\n  div\n    /* \"#utility.yul\":2143:2148   */\n  dup2\n    /* \"#utility.yul\":2140:2165   */\n  gt\n    /* \"#utility.yul\":2137:2188   */\n  iszero\n  tag_105\n  jumpi\n    /* \"#utility.yul\":2168:2186   */\n  tag_106\n  tag_67\n  jump\t// in\ntag_106:\n    /* \"#utility.yul\":2137:2188   */\ntag_105:\n    /* \"#utility.yul\":2217:2221   */\n  dup2\n    /* \"#utility.yul\":2210:2215   */\n  dup2\n    /* \"#utility.yul\":2206:2222   */\n  mul\n    /* \"#utility.yul\":2197:2222   */\n  swap1\n  pop\n    /* \"#utility.yul\":1155:2228   */\ntag_91:\n  swap4\n  swap3\n  pop\n  pop\n  pop\n  jump\t// out\n    /* \"#utility.yul\":2234:2311   */\ntag_71:\n    /* \"#utility.yul\":2271:2278   */\n  0x00\n    /* \"#utility.yul\":2300:2305   */\n  dup2\n    /* \"#utility.yul\":2289:2305   */\n  swap1\n  pop\n    /* \"#utility.yul\":2234:2311   */\n  swap2\n  swap1\n  pop\n  jump\t// out\n    /* \"#utility.yul\":2317:2403   */\ntag_72:\n    /* \"#utility.yul\":2352:2359   */\n  0x00\n    /* \"#utility.yul\":2392:2396   */\n  0xff\n    /* \"#utility.yul\":2385:2390   */\n  dup3\n    /* \"#utility.yul\":2381:2397   */\n  and\n    /* \"#utility.yul\":2370:2397   */\n  swap1\n  pop\n    /* \"#utility.yul\":2317:2403   */\n  swap2\n  swap1\n  pop\n  jump\t// out\n    /* \"#utility.yul\":2409:2690   */\ntag_21:\n    /* \"#utility.yul\":2467:2472   */\n  0x00\n    /* \"#utility.yul\":2491:2514   */\n  tag_110\n    /* \"#utility.yul\":2509:2513   */\n  dup3\n    /* \"#utility.yul\":2491:2514   */\n  tag_71\n  jump\t// in\ntag_110:\n    /* \"#utility.yul\":2483:2514   */\n  swap2\n  pop\n    /* \"#utility.yul\":2535:2560   */\n  tag_111\n    /* \"#utility.yul\":2551:2559   */\n  dup4\n    /* \"#utility.yul\":2535:2560   */\n  tag_72\n  jump\t// in\ntag_111:\n    /* \"#utility.yul\":2523:2560   */\n  swap3\n  pop\n    /* \"#utility.yul\":2579:2683   */\n  tag_112\n    /* \"#utility.yul\":2616:2682   */\n  0xffffffffffffffffffffffffffffffffffffffffffffffffffffffffffffffff\n    /* \"#utility.yul\":2606:2614   */\n  dup5\n    /* \"#utility.yul\":2600:2604   */\n  dup5\n    /* \"#utility.yul\":2579:2683   */\n  tag_70\n  jump\t// in\ntag_112:\n    /* \"#utility.yul\":2570:2683   */\n  swap1\n  pop\n    /* \"#utility.yul\":2409:2690   */\n  swap3\n  swap2\n  pop\n  pop\n  jump\t// out\n    /* \"#utility.yul\":2696:3044   */\ntag_23:\n    /* \"#utility.yul\":2736:2743   */\n  0x00\n    /* \"#utility.yul\":2759:2779   */\n  tag_114\n    /* \"#utility.yul\":2777:2778   */\n  dup3\n    /* \"#utility.yul\":2759:2779   */\n  tag_71\n  jump\t// in\ntag_114:\n    /* \"#utility.yul\":2754:2779   */\n  swap2\n  pop\n    /* \"#utility.yul\":2793:2813   */\n  tag_115\n    /* \"#utility.yul\":2811:2812   */\n  dup4\n    /* \"#utility.yul\":2793:2813   */\n  tag_71\n  jump\t// in\ntag_115:\n    /* \"#utility.yul\":2788:2813   */\n  swap3\n  pop\n    /* \"#utility.yul\":2981:2982   */\n  dup2\n    /* \"#utility.yul\":2913:2979   */\n  0xffffffffffffffffffffffffffffffffffffffffffffffffffffffffffffffff\n    /* \"#utility.yul\":2909:2983   */\n  div\n    /* \"#utility.yul\":2906:2907   */\n  dup4\n    /* \"#utility.yul\":2903:2984   */\n  gt\n    /* \"#utility.yul\":2898:2899   */\n  dup3\n    /* \"#utility.yul\":2891:2900   */\n  iszero\n    /* \"#utility.yul\":2884:2901   */\n  iszero\n    /* \"#utility.yul\":2880:2985   */\n  and\n    /* \"#utility.yul\":2877:3008   */\n  iszero\n  tag_116\n  jumpi\n    /* \"#utility.yul\":2988:3006   */\n  tag_117\n  tag_67\n  jump\t// in\ntag_117:\n    /* \"#utility.yul\":2877:3008   */\ntag_116:\n    /* \"#utility.yul\":3036:3037   */\n  dup3\n    /* \"#utility.yul\":3033:3034   */\n  dup3\n    /* \"#utility.yul\":3029:3038   */\n  mul\n    /* \"#utility.yul\":3018:3038   */\n  swap1\n  pop\n    /* \"#utility.yul\":2696:3044   */\n  swap3\n  swap2\n  pop\n  pop\n  jump\t// out\n    /* \"#utility.yul\":3050:3219   */\ntag_73:\n    /* \"#utility.yul\":3134:3145   */\n  0x00\n    /* \"#utility.yul\":3168:3174   */\n  dup3\n    /* \"#utility.yul\":3163:3166   */\n  dup3\n    /* \"#utility.yul\":3156:3175   */\n  mstore\n    /* \"#utility.yul\":3208:3212   */\n  0x20\n    /* \"#utility.yul\":3203:3206   */\n  dup3\n    /* \"#utility.yul\":3199:3213   */\n  add\n    /* \"#utility.yul\":3184:3213   */\n  swap1\n  pop\n    /* \"#utility.yul\":3050:3219   */\n  swap3\n  swap2\n  pop\n  pop\n  jump\t// out\n    /* \"#utility.yul\":3225:3406   */\ntag_74:\n    /* \"#utility.yul\":3365:3398   */\n  0x45524332303a206d696e7420746f20746865207a65726f206164647265737300\n    /* \"#utility.yul\":3361:3362   */\n  0x00\n    /* \"#utility.yul\":3353:3359   */\n  dup3\n    /* \"#utility.yul\":3349:3363   */\n  add\n    /* \"#utility.yul\":3342:3399   */\n  mstore\n    /* \"#utility.yul\":3225:3406   */\n  pop\n  jump\t// out\n    /* \"#utility.yul\":3412:3778   */\ntag_75:\n    /* \"#utility.yul\":3554:3557   */\n  0x00\n    /* \"#utility.yul\":3575:3642   */\n  tag_121\n    /* \"#utility.yul\":3639:3641   */\n  0x1f\n    /* \"#utility.yul\":3634:3637   */\n  dup4\n    /* \"#utility.yul\":3575:3642   */\n  tag_73\n  jump\t// in\ntag_121:\n    /* \"#utility.yul\":3568:3642   */\n  swap2\n  pop\n    /* \"#utility.yul\":3651:3744   */\n  tag_122\n    /* \"#utility.yul\":3740:3743   */\n  dup3\n    /* \"#utility.yul\":3651:3744   */\n  tag_74\n  jump\t// in\ntag_122:\n    /* \"#utility.yul\":3769:3771   */\n  0x20\n    /* \"#utility.yul\":3764:3767   */\n  dup3\n    /* \"#utility.yul\":3760:3772   */\n  add\n    /* \"#utility.yul\":3753:3772   */\n  swap1\n  pop\n    /* \"#utility.yul\":3412:3778   */\n  swap2\n  swap1\n  pop\n  jump\t// out\n    /* \"#utility.yul\":3784:4203   */\ntag_32:\n    /* \"#utility.yul\":3950:3954   */\n  0x00\n    /* \"#utility.yul\":3988:3990   */\n  0x20\n    /* \"#utility.yul\":3977:3986   */\n  dup3\n    /* \"#utility.yul\":3973:3991   */\n  add\n    /* \"#utility.yul\":3965:3991   */\n  swap1\n  pop\n    /* \"#utility.yul\":4037:4046   */\n  dup2\n    /* \"#utility.yul\":4031:4035   */\n  dup2\n    /* \"#utility.yul\":4027:4047   */\n  sub\n    /* \"#utility.yul\":4023:4024   */\n  0x00\n    /* \"#utility.yul\":4012:4021   */\n  dup4\n    /* \"#utility.yul\":4008:4025   */\n  add\n    /* \"#utility.yul\":4001:4048   */\n  mstore\n    /* \"#utility.yul\":4065:4196   */\n  tag_124\n    /* \"#utility.yul\":4191:4195   */\n  dup2\n    /* \"#utility.yul\":4065:4196   */\n  tag_75\n  jump\t// in\ntag_124:\n    /* \"#utility.yul\":4057:4196   */\n  swap1\n  pop\n    /* \"#utility.yul\":3784:4203   */\n  swap2\n  swap1\n  pop\n  jump\t// out\n    /* \"#utility.yul\":4209:4514   */\ntag_36:\n    /* \"#utility.yul\":4249:4252   */\n  0x00\n    /* \"#utility.yul\":4268:4288   */\n  tag_126\n    /* \"#utility.yul\":4286:4287   */\n  dup3\n    /* \"#utility.yul\":4268:4288   */\n  tag_71\n  jump\t// in\ntag_126:\n    /* \"#utility.yul\":4263:4288   */\n  swap2\n  pop\n    /* \"#utility.yul\":4302:4322   */\n  tag_127\n    /* \"#utility.yul\":4320:4321   */\n  dup4\n    /* \"#utility.yul\":4302:4322   */\n  tag_71\n  jump\t// in\ntag_127:\n    /* \"#utility.yul\":4297:4322   */\n  swap3\n  pop\n    /* \"#utility.yul\":4456:4457   */\n  dup3\n    /* \"#utility.yul\":4388:4454   */\n  0xffffffffffffffffffffffffffffffffffffffffffffffffffffffffffffffff\n    /* \"#utility.yul\":4384:4458   */\n  sub\n    /* \"#utility.yul\":4381:4382   */\n  dup3\n    /* \"#utility.yul\":4378:4459   */\n  gt\n    /* \"#utility.yul\":4375:4482   */\n  iszero\n  tag_128\n  jumpi\n    /* \"#utility.yul\":4462:4480   */\n  tag_129\n  tag_67\n  jump\t// in\ntag_129:\n    /* \"#utility.yul\":4375:4482   */\ntag_128:\n    /* \"#utility.yul\":4506:4507   */\n  dup3\n    /* \"#utility.yul\":4503:4504   */\n  dup3\n    /* \"#utility.yul\":4499:4508   */\n  add\n    /* \"#utility.yul\":4492:4508   */\n  swap1\n  pop\n    /* \"#utility.yul\":4209:4514   */\n  swap3\n  swap2\n  pop\n  pop\n  jump\t// out\n    /* \"#utility.yul\":4520:4638   */\ntag_76:\n    /* \"#utility.yul\":4607:4631   */\n  tag_131\n    /* \"#utility.yul\":4625:4630   */\n  dup2\n    /* \"#utility.yul\":4607:4631   */\n  tag_71\n  jump\t// in\ntag_131:\n    /* \"#utility.yul\":4602:4605   */\n  dup3\n    /* \"#utility.yul\":4595:4632   */\n  mstore\n    /* \"#utility.yul\":4520:4638   */\n  pop\n  pop\n  jump\t// out\n    /* \"#utility.yul\":4644:4866   */\ntag_38:\n    /* \"#utility.yul\":4737:4741   */\n  0x00\n    /* \"#utility.yul\":4775:4777   */\n  0x20\n    /* \"#utility.yul\":4764:4773   */\n  dup3\n    /* \"#utility.yul\":4760:4778   */\n  add\n    /* \"#utility.yul\":4752:4778   */\n  swap1\n  pop\n    /* \"#utility.yul\":4788:4859   */\n  tag_133\n    /* \"#utility.yul\":4856:4857   */\n  0x00\n    /* \"#utility.yul\":4845:4854   */\n  dup4\n    /* \"#utility.yul\":4841:4858   */\n  add\n    /* \"#utility.yul\":4832:4838   */\n  dup5\n    /* \"#utility.yul\":4788:4859   */\n  tag_76\n  jump\t// in\ntag_133:\n    /* \"#utility.yul\":4644:4866   */\n  swap3\n  swap2\n  pop\n  pop\n  jump\t// out\n    /* \"#utility.yul\":4872:5038   */\ntag_77:\n    /* \"#utility.yul\":5012:5030   */\n  0x5061757361626c653a2070617573656400000000000000000000000000000000\n    /* \"#utility.yul\":5008:5009   */\n  0x00\n    /* \"#utility.yul\":5000:5006   */\n  dup3\n    /* \"#utility.yul\":4996:5010   */\n  add\n    /* \"#utility.yul\":4989:5031   */\n  mstore\n    /* \"#utility.yul\":4872:5038   */\n  pop\n  jump\t// out\n    /* \"#utility.yul\":5044:5410   */\ntag_78:\n    /* \"#utility.yul\":5186:5189   */\n  0x00\n    /* \"#utility.yul\":5207:5274   */\n  tag_136\n    /* \"#utility.yul\":5271:5273   */\n  0x10\n    /* \"#utility.yul\":5266:5269   */\n  dup4\n    /* \"#utility.yul\":5207:5274   */\n  tag_73\n  jump\t// in\ntag_136:\n    /* \"#utility.yul\":5200:5274   */\n  swap2\n  pop\n    /* \"#utility.yul\":5283:5376   */\n  tag_137\n    /* \"#utility.yul\":5372:5375   */\n  dup3\n    /* \"#utility.yul\":5283:5376   */\n  tag_77\n  jump\t// in\ntag_137:\n    /* \"#utility.yul\":5401:5403   */\n  0x20\n    /* \"#utility.yul\":5396:5399   */\n  dup3\n    /* \"#utility.yul\":5392:5404   */\n  add\n    /* \"#utility.yul\":5385:5404   */\n  swap1\n  pop\n    /* \"#utility.yul\":5044:5410   */\n  swap2\n  swap1\n  pop\n  jump\t// out\n    /* \"#utility.yul\":5416:5835   */\ntag_53:\n    /* \"#utility.yul\":5582:5586   */\n  0x00\n    /* \"#utility.yul\":5620:5622   */\n  0x20\n    /* \"#utility.yul\":5609:5618   */\n  dup3\n    /* \"#utility.yul\":5605:5623   */\n  add\n    /* \"#utility.yul\":5597:5623   */\n  swap1\n  pop\n    /* \"#utility.yul\":5669:5678   */\n  dup2\n    /* \"#utility.yul\":5663:5667   */\n  dup2\n    /* \"#utility.yul\":5659:5679   */\n  sub\n    /* \"#utility.yul\":5655:5656   */\n  0x00\n    /* \"#utility.yul\":5644:5653   */\n  dup4\n    /* \"#utility.yul\":5640:5657   */\n  add\n    /* \"#utility.yul\":5633:5680   */\n  mstore\n    /* \"#utility.yul\":5697:5828   */\n  tag_139\n    /* \"#utility.yul\":5823:5827   */\n  dup2\n    /* \"#utility.yul\":5697:5828   */\n  tag_78\n  jump\t// in\ntag_139:\n    /* \"#utility.yul\":5689:5828   */\n  swap1\n  pop\n    /* \"#utility.yul\":5416:5835   */\n  swap2\n  swap1\n  pop\n  jump\t// out\n    /* \"#utility.yul\":5841:6021   */\ntag_79:\n    /* \"#utility.yul\":5889:5966   */\n  0x4e487b7100000000000000000000000000000000000000000000000000000000\n    /* \"#utility.yul\":5886:5887   */\n  0x00\n    /* \"#utility.yul\":5879:5967   */\n  mstore\n    /* \"#utility.yul\":5986:5990   */\n  0x22\n    /* \"#utility.yul\":5983:5984   */\n  0x04\n    /* \"#utility.yul\":5976:5991   */\n  mstore\n    /* \"#utility.yul\":6010:6014   */\n  0x24\n    /* \"#utility.yul\":6007:6008   */\n  0x00\n    /* \"#utility.yul\":6000:6015   */\n  revert\n    /* \"#utility.yul\":6027:6347   */\ntag_57:\n    /* \"#utility.yul\":6071:6077   */\n  0x00\n    /* \"#utility.yul\":6108:6109   */\n  0x02\n    /* \"#utility.yul\":6102:6106   */\n  dup3\n    /* \"#utility.yul\":6098:6110   */\n  div\n    /* \"#utility.yul\":6088:6110   */\n  swap1\n  pop\n    /* \"#utility.yul\":6155:6156   */\n  0x01\n    /* \"#utility.yul\":6149:6153   */\n  dup3\n    /* \"#utility.yul\":6145:6157   */\n  and\n    /* \"#utility.yul\":6176:6194   */\n  dup1\n    /* \"#utility.yul\":6166:6247   */\n  tag_142\n  jumpi\n    /* \"#utility.yul\":6232:6236   */\n  0x7f\n    /* \"#utility.yul\":6224:6230   */\n  dup3\n    /* \"#utility.yul\":6220:6237   */\n  and\n    /* \"#utility.yul\":6210:6237   */\n  swap2\n  pop\n    /* \"#utility.yul\":6166:6247   */\ntag_142:\n    /* \"#utility.yul\":6294:6296   */\n  0x20\n    /* \"#utility.yul\":6286:6292   */\n  dup3\n    /* \"#utility.yul\":6283:6297   */\n  lt\n    /* \"#utility.yul\":6263:6281   */\n  dup2\n    /* \"#utility.yul\":6260:6298   */\n  eq\n    /* \"#utility.yul\":6257:6341   */\n  iszero\n  tag_143\n  jumpi\n    /* \"#utility.yul\":6313:6331   */\n  tag_144\n  tag_79\n  jump\t// in\ntag_144:\n    /* \"#utility.yul\":6257:6341   */\ntag_143:\n    /* \"#utility.yul\":6078:6347   */\n  pop\n    /* \"#utility.yul\":6027:6347   */\n  swap2\n  swap1\n  pop\n  jump\t// out\n    /* \"RideDaoContract_flat.sol\":23663:24704  contract RideDaoContract is ERC20, ERC20Burnable, Pausable, Ownable {... */\ntag_25:\n  dataSize(sub_0)\n  dup1\n  dataOffset(sub_0)\n  0x00\n  codecopy\n  0x00\n  return\nstop\n\nsub_0: assembly {\n        /* \"RideDaoContract_flat.sol\":23663:24704  contract RideDaoContract is ERC20, ERC20Burnable, Pausable, Ownable {... */\n      mstore(0x40, 0x80)\n      jumpi(tag_1, lt(calldatasize, 0x04))\n      shr(0xe0, calldataload(0x00))\n      dup1\n      0x715018a6\n      gt\n      tag_24\n      jumpi\n      dup1\n      0x95d89b41\n      gt\n      tag_25\n      jumpi\n      dup1\n      0x95d89b41\n      eq\n      tag_18\n      jumpi\n      dup1\n      0xa457c2d7\n      eq\n      tag_19\n      jumpi\n      dup1\n      0xa9059cbb\n      eq\n      tag_20\n      jumpi\n      dup1\n      0xdd62ed3e\n      eq\n      tag_21\n      jumpi\n      dup1\n      0xe8b5e51f\n      eq\n      tag_22\n      jumpi\n      dup1\n      0xf2fde38b\n      eq\n      tag_23\n      jumpi\n      jump(tag_1)\n    tag_25:\n      dup1\n      0x715018a6\n      eq\n      tag_13\n      jumpi\n      dup1\n      0x722713f7\n      eq\n      tag_14\n      jumpi\n      dup1\n      0x79cc6790\n      eq\n      tag_15\n      jumpi\n      dup1\n      0x8456cb59\n      eq\n      tag_16\n      jumpi\n      dup1\n      0x8da5cb5b\n      eq\n      tag_17\n      jumpi\n      jump(tag_1)\n    tag_24:\n      dup1\n      0x313ce567\n      gt\n      tag_26\n      jumpi\n      dup1\n      0x313ce567\n      eq\n      tag_7\n      jumpi\n      dup1\n      0x39509351\n      eq\n      tag_8\n      jumpi\n      dup1\n      0x3f4ba83a\n      eq\n      tag_9\n      jumpi\n      dup1\n      0x42966c68\n      eq\n      tag_10\n      jumpi\n      dup1\n      0x5c975abb\n      eq\n      tag_11\n      jumpi\n      dup1\n      0x70a08231\n      eq\n      tag_12\n      jumpi\n      jump(tag_1)\n    tag_26:\n      dup1\n      0x06fdde03\n      eq\n      tag_2\n      jumpi\n      dup1\n      0x095ea7b3\n      eq\n      tag_3\n      jumpi\n      dup1\n      0x1072cbea\n      eq\n      tag_4\n      jumpi\n      dup1\n      0x18160ddd\n      eq\n      tag_5\n      jumpi\n      dup1\n      0x23b872dd\n      eq\n      tag_6\n      jumpi\n    tag_1:\n      0x00\n      dup1\n      revert\n        /* \"RideDaoContract_flat.sol\":11611:11709  function name() public view virtual override returns (string memory) {... */\n    tag_2:\n      callvalue\n      dup1\n      iszero\n      tag_27\n      jumpi\n      0x00\n      dup1\n      revert\n    tag_27:\n      pop\n      tag_28\n      tag_29\n      jump\t// in\n    tag_28:\n      mload(0x40)\n      tag_30\n      swap2\n      swap1\n      tag_31\n      jump\t// in\n    tag_30:\n      mload(0x40)\n      dup1\n      swap2\n      sub\n      swap1\n      return\n        /* \"RideDaoContract_flat.sol\":13888:14085  function approve(address spender, uint256 amount) public virtual override returns (bool) {... */\n    tag_3:\n      callvalue\n      dup1\n      iszero\n      tag_32\n      jumpi\n      0x00\n      dup1\n      revert\n    tag_32:\n      pop\n      tag_33\n      0x04\n      dup1\n      calldatasize\n      sub\n      dup2\n      add\n      swap1\n      tag_34\n      swap2\n      swap1\n      tag_35\n      jump\t// in\n    tag_34:\n      tag_36\n      jump\t// in\n    tag_33:\n      mload(0x40)\n      tag_37\n      swap2\n      swap1\n      tag_38\n      jump\t// in\n    tag_37:\n      mload(0x40)\n      dup1\n      swap2\n      sub\n      swap1\n      return\n        /* \"RideDaoContract_flat.sol\":24581:24701  function transferToken(address payable recepient, uint256 _amount) external {... */\n    tag_4:\n      callvalue\n      dup1\n      iszero\n      tag_39\n      jumpi\n      0x00\n      dup1\n      revert\n    tag_39:\n      pop\n      tag_40\n      0x04\n      dup1\n      calldatasize\n      sub\n      dup2\n      add\n      swap1\n      tag_41\n      swap2\n      swap1\n      tag_42\n      jump\t// in\n    tag_41:\n      tag_43\n      jump\t// in\n    tag_40:\n      stop\n        /* \"RideDaoContract_flat.sol\":12699:12805  function totalSupply() public view virtual override returns (uint256) {... */\n    tag_5:\n      callvalue\n      dup1\n      iszero\n      tag_44\n      jumpi\n      0x00\n      dup1\n      revert\n    tag_44:\n      pop\n      tag_45\n      tag_46\n      jump\t// in\n    tag_45:\n      mload(0x40)\n      tag_47\n      swap2\n      swap1\n      tag_48\n      jump\t// in\n    tag_47:\n      mload(0x40)\n      dup1\n      swap2\n      sub\n      swap1\n      return\n        /* \"RideDaoContract_flat.sol\":14647:14933  function transferFrom(... */\n    tag_6:\n      callvalue\n      dup1\n      iszero\n      tag_49\n      jumpi\n      0x00\n      dup1\n      revert\n    tag_49:\n      pop\n      tag_50\n      0x04\n      dup1\n      calldatasize\n      sub\n      dup2\n      add\n      swap1\n      tag_51\n      swap2\n      swap1\n      tag_52\n      jump\t// in\n    tag_51:\n      tag_53\n      jump\t// in\n    tag_50:\n      mload(0x40)\n      tag_54\n      swap2\n      swap1\n      tag_38\n      jump\t// in\n    tag_54:\n      mload(0x40)\n      dup1\n      swap2\n      sub\n      swap1\n      return\n        /* \"RideDaoContract_flat.sol\":12548:12639  function decimals() public view virtual override returns (uint8) {... */\n    tag_7:\n      callvalue\n      dup1\n      iszero\n      tag_55\n      jumpi\n      0x00\n      dup1\n      revert\n    tag_55:\n      pop\n      tag_56\n      tag_57\n      jump\t// in\n    tag_56:\n      mload(0x40)\n      tag_58\n      swap2\n      swap1\n      tag_59\n      jump\t// in\n    tag_58:\n      mload(0x40)\n      dup1\n      swap2\n      sub\n      swap1\n      return\n        /* \"RideDaoContract_flat.sol\":15328:15562  function increaseAllowance(address spender, uint256 addedValue) public virtual returns (bool) {... */\n    tag_8:\n      callvalue\n      dup1\n      iszero\n      tag_60\n      jumpi\n      0x00\n      dup1\n      revert\n    tag_60:\n      pop\n      tag_61\n      0x04\n      dup1\n      calldatasize\n      sub\n      dup2\n      add\n      swap1\n      tag_62\n      swap2\n      swap1\n      tag_35\n      jump\t// in\n    tag_62:\n      tag_63\n      jump\t// in\n    tag_61:\n      mload(0x40)\n      tag_64\n      swap2\n      swap1\n      tag_38\n      jump\t// in\n    tag_64:\n      mload(0x40)\n      dup1\n      swap2\n      sub\n      swap1\n      return\n        /* \"RideDaoContract_flat.sol\":24010:24073  function unpause() public onlyOwner {... */\n    tag_9:\n      callvalue\n      dup1\n      iszero\n      tag_65\n      jumpi\n      0x00\n      dup1\n      revert\n    tag_65:\n      pop\n      tag_66\n      tag_67\n      jump\t// in\n    tag_66:\n      stop\n        /* \"RideDaoContract_flat.sol\":24371:24471  function burn(uint256 amount) public override onlyOwner {... */\n    tag_10:\n      callvalue\n      dup1\n      iszero\n      tag_68\n      jumpi\n      0x00\n      dup1\n      revert\n    tag_68:\n      pop\n      tag_69\n      0x04\n      dup1\n      calldatasize\n      sub\n      dup2\n      add\n      swap1\n      tag_70\n      swap2\n      swap1\n      tag_71\n      jump\t// in\n    tag_70:\n      tag_72\n      jump\t// in\n    tag_69:\n      stop\n        /* \"RideDaoContract_flat.sol\":5091:5175  function paused() public view virtual returns (bool) {... */\n    tag_11:\n      callvalue\n      dup1\n      iszero\n      tag_73\n      jumpi\n      0x00\n      dup1\n      revert\n    tag_73:\n      pop\n      tag_74\n      tag_75\n      jump\t// in\n    tag_74:\n      mload(0x40)\n      tag_76\n      swap2\n      swap1\n      tag_38\n      jump\t// in\n    tag_76:\n      mload(0x40)\n      dup1\n      swap2\n      sub\n      swap1\n      return\n        /* \"RideDaoContract_flat.sol\":12863:12988  function balanceOf(address account) public view virtual override returns (uint256) {... */\n    tag_12:\n      callvalue\n      dup1\n      iszero\n      tag_77\n      jumpi\n      0x00\n      dup1\n      revert\n    tag_77:\n      pop\n      tag_78\n      0x04\n      dup1\n      calldatasize\n      sub\n      dup2\n      add\n      swap1\n      tag_79\n      swap2\n      swap1\n      tag_80\n      jump\t// in\n    tag_79:\n      tag_81\n      jump\t// in\n    tag_78:\n      mload(0x40)\n      tag_82\n      swap2\n      swap1\n      tag_48\n      jump\t// in\n    tag_82:\n      mload(0x40)\n      dup1\n      swap2\n      sub\n      swap1\n      return\n        /* \"RideDaoContract_flat.sol\":2689:2790  function renounceOwnership() public virtual onlyOwner {... */\n    tag_13:\n      callvalue\n      dup1\n      iszero\n      tag_83\n      jumpi\n      0x00\n      dup1\n      revert\n    tag_83:\n      pop\n      tag_84\n      tag_85\n      jump\t// in\n    tag_84:\n      stop\n        /* \"RideDaoContract_flat.sol\":24477:24575  function balanceOf() external view returns (uint256) {... */\n    tag_14:\n      callvalue\n      dup1\n      iszero\n      tag_86\n      jumpi\n      0x00\n      dup1\n      revert\n    tag_86:\n      pop\n      tag_87\n      tag_88\n      jump\t// in\n    tag_87:\n      mload(0x40)\n      tag_89\n      swap2\n      swap1\n      tag_48\n      jump\t// in\n    tag_89:\n      mload(0x40)\n      dup1\n      swap2\n      sub\n      swap1\n      return\n        /* \"RideDaoContract_flat.sol\":23428:23589  function burnFrom(address account, uint256 amount) public virtual {... */\n    tag_15:\n      callvalue\n      dup1\n      iszero\n      tag_90\n      jumpi\n      0x00\n      dup1\n      revert\n    tag_90:\n      pop\n      tag_91\n      0x04\n      dup1\n      calldatasize\n      sub\n      dup2\n      add\n      swap1\n      tag_92\n      swap2\n      swap1\n      tag_35\n      jump\t// in\n    tag_92:\n      tag_93\n      jump\t// in\n    tag_91:\n      stop\n        /* \"RideDaoContract_flat.sol\":23945:24004  function pause() public onlyOwner {... */\n    tag_16:\n      callvalue\n      dup1\n      iszero\n      tag_94\n      jumpi\n      0x00\n      dup1\n      revert\n    tag_94:\n      pop\n      tag_95\n      tag_96\n      jump\t// in\n    tag_95:\n      stop\n        /* \"RideDaoContract_flat.sol\":2059:2144  function owner() public view virtual returns (address) {... */\n    tag_17:\n      callvalue\n      dup1\n      iszero\n      tag_97\n      jumpi\n      0x00\n      dup1\n      revert\n    tag_97:\n      pop\n      tag_98\n      tag_99\n      jump\t// in\n    tag_98:\n      mload(0x40)\n      tag_100\n      swap2\n      swap1\n      tag_101\n      jump\t// in\n    tag_100:\n      mload(0x40)\n      dup1\n      swap2\n      sub\n      swap1\n      return\n        /* \"RideDaoContract_flat.sol\":11822:11924  function symbol() public view virtual override returns (string memory) {... */\n    tag_18:\n      callvalue\n      dup1\n      iszero\n      tag_102\n      jumpi\n      0x00\n      dup1\n      revert\n    tag_102:\n      pop\n      tag_103\n      tag_104\n      jump\t// in\n    tag_103:\n      mload(0x40)\n      tag_105\n      swap2\n      swap1\n      tag_31\n      jump\t// in\n    tag_105:\n      mload(0x40)\n      dup1\n      swap2\n      sub\n      swap1\n      return\n        /* \"RideDaoContract_flat.sol\":16049:16476  function decreaseAllowance(address spender, uint256 subtractedValue) public virtual returns (bool) {... */\n    tag_19:\n      callvalue\n      dup1\n      iszero\n      tag_106\n      jumpi\n      0x00\n      dup1\n      revert\n    tag_106:\n      pop\n      tag_107\n      0x04\n      dup1\n      calldatasize\n      sub\n      dup2\n      add\n      swap1\n      tag_108\n      swap2\n      swap1\n      tag_35\n      jump\t// in\n    tag_108:\n      tag_109\n      jump\t// in\n    tag_107:\n      mload(0x40)\n      tag_110\n      swap2\n      swap1\n      tag_38\n      jump\t// in\n    tag_110:\n      mload(0x40)\n      dup1\n      swap2\n      sub\n      swap1\n      return\n        /* \"RideDaoContract_flat.sol\":13184:13373  function transfer(address to, uint256 amount) public virtual override returns (bool) {... */\n    tag_20:\n      callvalue\n      dup1\n      iszero\n      tag_111\n      jumpi\n      0x00\n      dup1\n      revert\n    tag_111:\n      pop\n      tag_112\n      0x04\n      dup1\n      calldatasize\n      sub\n      dup2\n      add\n      swap1\n      tag_113\n      swap2\n      swap1\n      tag_35\n      jump\t// in\n    tag_113:\n      tag_114\n      jump\t// in\n    tag_112:\n      mload(0x40)\n      tag_115\n      swap2\n      swap1\n      tag_38\n      jump\t// in\n    tag_115:\n      mload(0x40)\n      dup1\n      swap2\n      sub\n      swap1\n      return\n        /* \"RideDaoContract_flat.sol\":13431:13580  function allowance(address owner, address spender) public view virtual override returns (uint256) {... */\n    tag_21:\n      callvalue\n      dup1\n      iszero\n      tag_116\n      jumpi\n      0x00\n      dup1\n      revert\n    tag_116:\n      pop\n      tag_117\n      0x04\n      dup1\n      calldatasize\n      sub\n      dup2\n      add\n      swap1\n      tag_118\n      swap2\n      swap1\n      tag_119\n      jump\t// in\n    tag_118:\n      tag_120\n      jump\t// in\n    tag_117:\n      mload(0x40)\n      tag_121\n      swap2\n      swap1\n      tag_48\n      jump\t// in\n    tag_121:\n      mload(0x40)\n      dup1\n      swap2\n      sub\n      swap1\n      return\n        /* \"RideDaoContract_flat.sol\":24280:24365  function invest() external payable {... */\n    tag_22:\n      tag_122\n      tag_123\n      jump\t// in\n    tag_122:\n      stop\n        /* \"RideDaoContract_flat.sol\":2939:3137  function transferOwnership(address newOwner) public virtual onlyOwner {... */\n    tag_23:\n      callvalue\n      dup1\n      iszero\n      tag_124\n      jumpi\n      0x00\n      dup1\n      revert\n    tag_124:\n      pop\n      tag_125\n      0x04\n      dup1\n      calldatasize\n      sub\n      dup2\n      add\n      swap1\n      tag_126\n      swap2\n      swap1\n      tag_80\n      jump\t// in\n    tag_126:\n      tag_127\n      jump\t// in\n    tag_125:\n      stop\n        /* \"RideDaoContract_flat.sol\":11611:11709  function name() public view virtual override returns (string memory) {... */\n    tag_29:\n        /* \"RideDaoContract_flat.sol\":11665:11678  string memory */\n      0x60\n        /* \"RideDaoContract_flat.sol\":11697:11702  _name */\n      0x03\n        /* \"RideDaoContract_flat.sol\":11690:11702  return _name */\n      dup1\n      sload\n      tag_130\n      swap1\n      tag_131\n      jump\t// in\n    tag_130:\n      dup1\n      0x1f\n      add\n      0x20\n      dup1\n      swap2\n      div\n      mul\n      0x20\n      add\n      mload(0x40)\n      swap1\n      dup2\n      add\n      0x40\n      mstore\n      dup1\n      swap3\n      swap2\n      swap1\n      dup2\n      dup2\n      mstore\n      0x20\n      add\n      dup3\n      dup1\n      sload\n      tag_132\n      swap1\n      tag_131\n      jump\t// in\n    tag_132:\n      dup1\n      iszero\n      tag_133\n      jumpi\n      dup1\n      0x1f\n      lt\n      tag_134\n      jumpi\n      0x0100\n      dup1\n      dup4\n      sload\n      div\n      mul\n      dup4\n      mstore\n      swap2\n      0x20\n      add\n      swap2\n      jump(tag_133)\n    tag_134:\n      dup3\n      add\n      swap2\n      swap1\n      0x00\n      mstore\n      keccak256(0x00, 0x20)\n      swap1\n    tag_135:\n      dup2\n      sload\n      dup2\n      mstore\n      swap1\n      0x01\n      add\n      swap1\n      0x20\n      add\n      dup1\n      dup4\n      gt\n      tag_135\n      jumpi\n      dup3\n      swap1\n      sub\n      0x1f\n      and\n      dup3\n      add\n      swap2\n    tag_133:\n      pop\n      pop\n      pop\n      pop\n      pop\n      swap1\n      pop\n        /* \"RideDaoContract_flat.sol\":11611:11709  function name() public view virtual override returns (string memory) {... */\n      swap1\n      jump\t// out\n        /* \"RideDaoContract_flat.sol\":13888:14085  function approve(address spender, uint256 amount) public virtual override returns (bool) {... */\n    tag_36:\n        /* \"RideDaoContract_flat.sol\":13971:13975  bool */\n      0x00\n        /* \"RideDaoContract_flat.sol\":13987:14000  address owner */\n      dup1\n        /* \"RideDaoContract_flat.sol\":14003:14015  _msgSender() */\n      tag_137\n        /* \"RideDaoContract_flat.sol\":14003:14013  _msgSender */\n      tag_138\n        /* \"RideDaoContract_flat.sol\":14003:14015  _msgSender() */\n      jump\t// in\n    tag_137:\n        /* \"RideDaoContract_flat.sol\":13987:14015  address owner = _msgSender() */\n      swap1\n      pop\n        /* \"RideDaoContract_flat.sol\":14025:14057  _approve(owner, spender, amount) */\n      tag_139\n        /* \"RideDaoContract_flat.sol\":14034:14039  owner */\n      dup2\n        /* \"RideDaoContract_flat.sol\":14041:14048  spender */\n      dup6\n        /* \"RideDaoContract_flat.sol\":14050:14056  amount */\n      dup6\n        /* \"RideDaoContract_flat.sol\":14025:14033  _approve */\n      tag_140\n        /* \"RideDaoContract_flat.sol\":14025:14057  _approve(owner, spender, amount) */\n      jump\t// in\n    tag_139:\n        /* \"RideDaoContract_flat.sol\":14074:14078  true */\n      0x01\n        /* \"RideDaoContract_flat.sol\":14067:14078  return true */\n      swap2\n      pop\n      pop\n        /* \"RideDaoContract_flat.sol\":13888:14085  function approve(address spender, uint256 amount) public virtual override returns (bool) {... */\n      swap3\n      swap2\n      pop\n      pop\n      jump\t// out\n        /* \"RideDaoContract_flat.sol\":24581:24701  function transferToken(address payable recepient, uint256 _amount) external {... */\n    tag_43:\n        /* \"RideDaoContract_flat.sol\":24667:24676  recepient */\n      dup2\n        /* \"RideDaoContract_flat.sol\":24667:24685  recepient.transfer */\n      0xffffffffffffffffffffffffffffffffffffffff\n      and\n        /* \"RideDaoContract_flat.sol\":24667:24694  recepient.transfer(_amount) */\n      0x08fc\n        /* \"RideDaoContract_flat.sol\":24686:24693  _amount */\n      dup3\n        /* \"RideDaoContract_flat.sol\":24667:24694  recepient.transfer(_amount) */\n      swap1\n      dup2\n      iszero\n      mul\n      swap1\n      mload(0x40)\n      0x00\n      mload(0x40)\n      dup1\n      dup4\n      sub\n      dup2\n      dup6\n      dup9\n      dup9\n      call\n      swap4\n      pop\n      pop\n      pop\n      pop\n      iszero\n      dup1\n      iszero\n      tag_143\n      jumpi\n      returndatasize\n      0x00\n      dup1\n      returndatacopy\n      revert(0x00, returndatasize)\n    tag_143:\n      pop\n        /* \"RideDaoContract_flat.sol\":24581:24701  function transferToken(address payable recepient, uint256 _amount) external {... */\n      pop\n      pop\n      jump\t// out\n        /* \"RideDaoContract_flat.sol\":12699:12805  function totalSupply() public view virtual override returns (uint256) {... */\n    tag_46:\n        /* \"RideDaoContract_flat.sol\":12760:12767  uint256 */\n      0x00\n        /* \"RideDaoContract_flat.sol\":12786:12798  _totalSupply */\n      sload(0x02)\n        /* \"RideDaoContract_flat.sol\":12779:12798  return _totalSupply */\n      swap1\n      pop\n        /* \"RideDaoContract_flat.sol\":12699:12805  function totalSupply() public view virtual override returns (uint256) {... */\n      swap1\n      jump\t// out\n        /* \"RideDaoContract_flat.sol\":14647:14933  function transferFrom(... */\n    tag_53:\n        /* \"RideDaoContract_flat.sol\":14774:14778  bool */\n      0x00\n        /* \"RideDaoContract_flat.sol\":14790:14805  address spender */\n      dup1\n        /* \"RideDaoContract_flat.sol\":14808:14820  _msgSender() */\n      tag_146\n        /* \"RideDaoContract_flat.sol\":14808:14818  _msgSender */\n      tag_138\n        /* \"RideDaoContract_flat.sol\":14808:14820  _msgSender() */\n      jump\t// in\n    tag_146:\n        /* \"RideDaoContract_flat.sol\":14790:14820  address spender = _msgSender() */\n      swap1\n      pop\n        /* \"RideDaoContract_flat.sol\":14830:14868  _spendAllowance(from, spender, amount) */\n      tag_147\n        /* \"RideDaoContract_flat.sol\":14846:14850  from */\n      dup6\n        /* \"RideDaoContract_flat.sol\":14852:14859  spender */\n      dup3\n        /* \"RideDaoContract_flat.sol\":14861:14867  amount */\n      dup6\n        /* \"RideDaoContract_flat.sol\":14830:14845  _spendAllowance */\n      tag_148\n        /* \"RideDaoContract_flat.sol\":14830:14868  _spendAllowance(from, spender, amount) */\n      jump\t// in\n    tag_147:\n        /* \"RideDaoContract_flat.sol\":14878:14905  _transfer(from, to, amount) */\n      tag_149\n        /* \"RideDaoContract_flat.sol\":14888:14892  from */\n      dup6\n        /* \"RideDaoContract_flat.sol\":14894:14896  to */\n      dup6\n        /* \"RideDaoContract_flat.sol\":14898:14904  amount */\n      dup6\n        /* \"RideDaoContract_flat.sol\":14878:14887  _transfer */\n      tag_150\n        /* \"RideDaoContract_flat.sol\":14878:14905  _transfer(from, to, amount) */\n      jump\t// in\n    tag_149:\n        /* \"RideDaoContract_flat.sol\":14922:14926  true */\n      0x01\n        /* \"RideDaoContract_flat.sol\":14915:14926  return true */\n      swap2\n      pop\n      pop\n        /* \"RideDaoContract_flat.sol\":14647:14933  function transferFrom(... */\n      swap4\n      swap3\n      pop\n      pop\n      pop\n      jump\t// out\n        /* \"RideDaoContract_flat.sol\":12548:12639  function decimals() public view virtual override returns (uint8) {... */\n    tag_57:\n        /* \"RideDaoContract_flat.sol\":12606:12611  uint8 */\n      0x00\n        /* \"RideDaoContract_flat.sol\":12630:12632  18 */\n      0x12\n        /* \"RideDaoContract_flat.sol\":12623:12632  return 18 */\n      swap1\n      pop\n        /* \"RideDaoContract_flat.sol\":12548:12639  function decimals() public view virtual override returns (uint8) {... */\n      swap1\n      jump\t// out\n        /* \"RideDaoContract_flat.sol\":15328:15562  function increaseAllowance(address spender, uint256 addedValue) public virtual returns (bool) {... */\n    tag_63:\n        /* \"RideDaoContract_flat.sol\":15416:15420  bool */\n      0x00\n        /* \"RideDaoContract_flat.sol\":15432:15445  address owner */\n      dup1\n        /* \"RideDaoContract_flat.sol\":15448:15460  _msgSender() */\n      tag_153\n        /* \"RideDaoContract_flat.sol\":15448:15458  _msgSender */\n      tag_138\n        /* \"RideDaoContract_flat.sol\":15448:15460  _msgSender() */\n      jump\t// in\n    tag_153:\n        /* \"RideDaoContract_flat.sol\":15432:15460  address owner = _msgSender() */\n      swap1\n      pop\n        /* \"RideDaoContract_flat.sol\":15470:15534  _approve(owner, spender, allowance(owner, spender) + addedValue) */\n      tag_154\n        /* \"RideDaoContract_flat.sol\":15479:15484  owner */\n      dup2\n        /* \"RideDaoContract_flat.sol\":15486:15493  spender */\n      dup6\n        /* \"RideDaoContract_flat.sol\":15523:15533  addedValue */\n      dup6\n        /* \"RideDaoContract_flat.sol\":15495:15520  allowance(owner, spender) */\n      tag_155\n        /* \"RideDaoContract_flat.sol\":15505:15510  owner */\n      dup6\n        /* \"RideDaoContract_flat.sol\":15512:15519  spender */\n      dup10\n        /* \"RideDaoContract_flat.sol\":15495:15504  allowance */\n      tag_120\n        /* \"RideDaoContract_flat.sol\":15495:15520  allowance(owner, spender) */\n      jump\t// in\n    tag_155:\n        /* \"RideDaoContract_flat.sol\":15495:15533  allowance(owner, spender) + addedValue */\n      tag_156\n      swap2\n      swap1\n      tag_157\n      jump\t// in\n    tag_156:\n        /* \"RideDaoContract_flat.sol\":15470:15478  _approve */\n      tag_140\n        /* \"RideDaoContract_flat.sol\":15470:15534  _approve(owner, spender, allowance(owner, spender) + addedValue) */\n      jump\t// in\n    tag_154:\n        /* \"RideDaoContract_flat.sol\":15551:15555  true */\n      0x01\n        /* \"RideDaoContract_flat.sol\":15544:15555  return true */\n      swap2\n      pop\n      pop\n        /* \"RideDaoContract_flat.sol\":15328:15562  function increaseAllowance(address spender, uint256 addedValue) public virtual returns (bool) {... */\n      swap3\n      swap2\n      pop\n      pop\n      jump\t// out\n        /* \"RideDaoContract_flat.sol\":24010:24073  function unpause() public onlyOwner {... */\n    tag_67:\n        /* \"RideDaoContract_flat.sol\":1952:1965  _checkOwner() */\n      tag_159\n        /* \"RideDaoContract_flat.sol\":1952:1963  _checkOwner */\n      tag_160\n        /* \"RideDaoContract_flat.sol\":1952:1965  _checkOwner() */\n      jump\t// in\n    tag_159:\n        /* \"RideDaoContract_flat.sol\":24056:24066  _unpause() */\n      tag_162\n        /* \"RideDaoContract_flat.sol\":24056:24064  _unpause */\n      tag_163\n        /* \"RideDaoContract_flat.sol\":24056:24066  _unpause() */\n      jump\t// in\n    tag_162:\n        /* \"RideDaoContract_flat.sol\":24010:24073  function unpause() public onlyOwner {... */\n      jump\t// out\n        /* \"RideDaoContract_flat.sol\":24371:24471  function burn(uint256 amount) public override onlyOwner {... */\n    tag_72:\n        /* \"RideDaoContract_flat.sol\":1952:1965  _checkOwner() */\n      tag_165\n        /* \"RideDaoContract_flat.sol\":1952:1963  _checkOwner */\n      tag_160\n        /* \"RideDaoContract_flat.sol\":1952:1965  _checkOwner() */\n      jump\t// in\n    tag_165:\n        /* \"RideDaoContract_flat.sol\":24437:24464  _burn(_msgSender(), amount) */\n      tag_167\n        /* \"RideDaoContract_flat.sol\":24443:24455  _msgSender() */\n      tag_168\n        /* \"RideDaoContract_flat.sol\":24443:24453  _msgSender */\n      tag_138\n        /* \"RideDaoContract_flat.sol\":24443:24455  _msgSender() */\n      jump\t// in\n    tag_168:\n        /* \"RideDaoContract_flat.sol\":24457:24463  amount */\n      dup3\n        /* \"RideDaoContract_flat.sol\":24437:24442  _burn */\n      tag_169\n        /* \"RideDaoContract_flat.sol\":24437:24464  _burn(_msgSender(), amount) */\n      jump\t// in\n    tag_167:\n        /* \"RideDaoContract_flat.sol\":24371:24471  function burn(uint256 amount) public override onlyOwner {... */\n      pop\n      jump\t// out\n        /* \"RideDaoContract_flat.sol\":5091:5175  function paused() public view virtual returns (bool) {... */\n    tag_75:\n        /* \"RideDaoContract_flat.sol\":5138:5142  bool */\n      0x00\n        /* \"RideDaoContract_flat.sol\":5161:5168  _paused */\n      0x05\n      0x00\n      swap1\n      sload\n      swap1\n      0x0100\n      exp\n      swap1\n      div\n      0xff\n      and\n        /* \"RideDaoContract_flat.sol\":5154:5168  return _paused */\n      swap1\n      pop\n        /* \"RideDaoContract_flat.sol\":5091:5175  function paused() public view virtual returns (bool) {... */\n      swap1\n      jump\t// out\n        /* \"RideDaoContract_flat.sol\":12863:12988  function balanceOf(address account) public view virtual override returns (uint256) {... */\n    tag_81:\n        /* \"RideDaoContract_flat.sol\":12937:12944  uint256 */\n      0x00\n        /* \"RideDaoContract_flat.sol\":12963:12972  _balances */\n      dup1\n        /* \"RideDaoContract_flat.sol\":12963:12981  _balances[account] */\n      0x00\n        /* \"RideDaoContract_flat.sol\":12973:12980  account */\n      dup4\n        /* \"RideDaoContract_flat.sol\":12963:12981  _balances[account] */\n      0xffffffffffffffffffffffffffffffffffffffff\n      and\n      0xffffffffffffffffffffffffffffffffffffffff\n      and\n      dup2\n      mstore\n      0x20\n      add\n      swap1\n      dup2\n      mstore\n      0x20\n      add\n      0x00\n      keccak256\n      sload\n        /* \"RideDaoContract_flat.sol\":12956:12981  return _balances[account] */\n      swap1\n      pop\n        /* \"RideDaoContract_flat.sol\":12863:12988  function balanceOf(address account) public view virtual override returns (uint256) {... */\n      swap2\n      swap1\n      pop\n      jump\t// out\n        /* \"RideDaoContract_flat.sol\":2689:2790  function renounceOwnership() public virtual onlyOwner {... */\n    tag_85:\n        /* \"RideDaoContract_flat.sol\":1952:1965  _checkOwner() */\n      tag_173\n        /* \"RideDaoContract_flat.sol\":1952:1963  _checkOwner */\n      tag_160\n        /* \"RideDaoContract_flat.sol\":1952:1965  _checkOwner() */\n      jump\t// in\n    tag_173:\n        /* \"RideDaoContract_flat.sol\":2753:2783  _transferOwnership(address(0)) */\n      tag_175\n        /* \"RideDaoContract_flat.sol\":2780:2781  0 */\n      0x00\n        /* \"RideDaoContract_flat.sol\":2753:2771  _transferOwnership */\n      tag_176\n        /* \"RideDaoContract_flat.sol\":2753:2783  _transferOwnership(address(0)) */\n      jump\t// in\n    tag_175:\n        /* \"RideDaoContract_flat.sol\":2689:2790  function renounceOwnership() public virtual onlyOwner {... */\n      jump\t// out\n        /* \"RideDaoContract_flat.sol\":24477:24575  function balanceOf() external view returns (uint256) {... */\n    tag_88:\n        /* \"RideDaoContract_flat.sol\":24521:24528  uint256 */\n      0x00\n        /* \"RideDaoContract_flat.sol\":24547:24568  address(this).balance */\n      selfbalance\n        /* \"RideDaoContract_flat.sol\":24540:24568  return address(this).balance */\n      swap1\n      pop\n        /* \"RideDaoContract_flat.sol\":24477:24575  function balanceOf() external view returns (uint256) {... */\n      swap1\n      jump\t// out\n        /* \"RideDaoContract_flat.sol\":23428:23589  function burnFrom(address account, uint256 amount) public virtual {... */\n    tag_93:\n        /* \"RideDaoContract_flat.sol\":23504:23550  _spendAllowance(account, _msgSender(), amount) */\n      tag_179\n        /* \"RideDaoContract_flat.sol\":23520:23527  account */\n      dup3\n        /* \"RideDaoContract_flat.sol\":23529:23541  _msgSender() */\n      tag_180\n        /* \"RideDaoContract_flat.sol\":23529:23539  _msgSender */\n      tag_138\n        /* \"RideDaoContract_flat.sol\":23529:23541  _msgSender() */\n      jump\t// in\n    tag_180:\n        /* \"RideDaoContract_flat.sol\":23543:23549  amount */\n      dup4\n        /* \"RideDaoContract_flat.sol\":23504:23519  _spendAllowance */\n      tag_148\n        /* \"RideDaoContract_flat.sol\":23504:23550  _spendAllowance(account, _msgSender(), amount) */\n      jump\t// in\n    tag_179:\n        /* \"RideDaoContract_flat.sol\":23560:23582  _burn(account, amount) */\n      tag_181\n        /* \"RideDaoContract_flat.sol\":23566:23573  account */\n      dup3\n        /* \"RideDaoContract_flat.sol\":23575:23581  amount */\n      dup3\n        /* \"RideDaoContract_flat.sol\":23560:23565  _burn */\n      tag_169\n        /* \"RideDaoContract_flat.sol\":23560:23582  _burn(account, amount) */\n      jump\t// in\n    tag_181:\n        /* \"RideDaoContract_flat.sol\":23428:23589  function burnFrom(address account, uint256 amount) public virtual {... */\n      pop\n      pop\n      jump\t// out\n        /* \"RideDaoContract_flat.sol\":23945:24004  function pause() public onlyOwner {... */\n    tag_96:\n        /* \"RideDaoContract_flat.sol\":1952:1965  _checkOwner() */\n      tag_183\n        /* \"RideDaoContract_flat.sol\":1952:1963  _checkOwner */\n      tag_160\n        /* \"RideDaoContract_flat.sol\":1952:1965  _checkOwner() */\n      jump\t// in\n    tag_183:\n        /* \"RideDaoContract_flat.sol\":23989:23997  _pause() */\n      tag_185\n        /* \"RideDaoContract_flat.sol\":23989:23995  _pause */\n      tag_186\n        /* \"RideDaoContract_flat.sol\":23989:23997  _pause() */\n      jump\t// in\n    tag_185:\n        /* \"RideDaoContract_flat.sol\":23945:24004  function pause() public onlyOwner {... */\n      jump\t// out\n        /* \"RideDaoContract_flat.sol\":2059:2144  function owner() public view virtual returns (address) {... */\n    tag_99:\n        /* \"RideDaoContract_flat.sol\":2105:2112  address */\n      0x00\n        /* \"RideDaoContract_flat.sol\":2131:2137  _owner */\n      0x05\n      0x01\n      swap1\n      sload\n      swap1\n      0x0100\n      exp\n      swap1\n      div\n      0xffffffffffffffffffffffffffffffffffffffff\n      and\n        /* \"RideDaoContract_flat.sol\":2124:2137  return _owner */\n      swap1\n      pop\n        /* \"RideDaoContract_flat.sol\":2059:2144  function owner() public view virtual returns (address) {... */\n      swap1\n      jump\t// out\n        /* \"RideDaoContract_flat.sol\":11822:11924  function symbol() public view virtual override returns (string memory) {... */\n    tag_104:\n        /* \"RideDaoContract_flat.sol\":11878:11891  string memory */\n      0x60\n        /* \"RideDaoContract_flat.sol\":11910:11917  _symbol */\n      0x04\n        /* \"RideDaoContract_flat.sol\":11903:11917  return _symbol */\n      dup1\n      sload\n      tag_189\n      swap1\n      tag_131\n      jump\t// in\n    tag_189:\n      dup1\n      0x1f\n      add\n      0x20\n      dup1\n      swap2\n      div\n      mul\n      0x20\n      add\n      mload(0x40)\n      swap1\n      dup2\n      add\n      0x40\n      mstore\n      dup1\n      swap3\n      swap2\n      swap1\n      dup2\n      dup2\n      mstore\n      0x20\n      add\n      dup3\n      dup1\n      sload\n      tag_190\n      swap1\n      tag_131\n      jump\t// in\n    tag_190:\n      dup1\n      iszero\n      tag_191\n      jumpi\n      dup1\n      0x1f\n      lt\n      tag_192\n      jumpi\n      0x0100\n      dup1\n      dup4\n      sload\n      div\n      mul\n      dup4\n      mstore\n      swap2\n      0x20\n      add\n      swap2\n      jump(tag_191)\n    tag_192:\n      dup3\n      add\n      swap2\n      swap1\n      0x00\n      mstore\n      keccak256(0x00, 0x20)\n      swap1\n    tag_193:\n      dup2\n      sload\n      dup2\n      mstore\n      swap1\n      0x01\n      add\n      swap1\n      0x20\n      add\n      dup1\n      dup4\n      gt\n      tag_193\n      jumpi\n      dup3\n      swap1\n      sub\n      0x1f\n      and\n      dup3\n      add\n      swap2\n    tag_191:\n      pop\n      pop\n      pop\n      pop\n      pop\n      swap1\n      pop\n        /* \"RideDaoContract_flat.sol\":11822:11924  function symbol() public view virtual override returns (string memory) {... */\n      swap1\n      jump\t// out\n        /* \"RideDaoContract_flat.sol\":16049:16476  function decreaseAllowance(address spender, uint256 subtractedValue) public virtual returns (bool) {... */\n    tag_109:\n        /* \"RideDaoContract_flat.sol\":16142:16146  bool */\n      0x00\n        /* \"RideDaoContract_flat.sol\":16158:16171  address owner */\n      dup1\n        /* \"RideDaoContract_flat.sol\":16174:16186  _msgSender() */\n      tag_195\n        /* \"RideDaoContract_flat.sol\":16174:16184  _msgSender */\n      tag_138\n        /* \"RideDaoContract_flat.sol\":16174:16186  _msgSender() */\n      jump\t// in\n    tag_195:\n        /* \"RideDaoContract_flat.sol\":16158:16186  address owner = _msgSender() */\n      swap1\n      pop\n        /* \"RideDaoContract_flat.sol\":16196:16220  uint256 currentAllowance */\n      0x00\n        /* \"RideDaoContract_flat.sol\":16223:16248  allowance(owner, spender) */\n      tag_196\n        /* \"RideDaoContract_flat.sol\":16233:16238  owner */\n      dup3\n        /* \"RideDaoContract_flat.sol\":16240:16247  spender */\n      dup7\n        /* \"RideDaoContract_flat.sol\":16223:16232  allowance */\n      tag_120\n        /* \"RideDaoContract_flat.sol\":16223:16248  allowance(owner, spender) */\n      jump\t// in\n    tag_196:\n        /* \"RideDaoContract_flat.sol\":16196:16248  uint256 currentAllowance = allowance(owner, spender) */\n      swap1\n      pop\n        /* \"RideDaoContract_flat.sol\":16286:16301  subtractedValue */\n      dup4\n        /* \"RideDaoContract_flat.sol\":16266:16282  currentAllowance */\n      dup2\n        /* \"RideDaoContract_flat.sol\":16266:16301  currentAllowance >= subtractedValue */\n      lt\n      iszero\n        /* \"RideDaoContract_flat.sol\":16258:16343  require(currentAllowance >= subtractedValue, \"ERC20: decreased allowance below zero\") */\n      tag_197\n      jumpi\n      mload(0x40)\n      0x08c379a000000000000000000000000000000000000000000000000000000000\n      dup2\n      mstore\n      0x04\n      add\n      tag_198\n      swap1\n      tag_199\n      jump\t// in\n    tag_198:\n      mload(0x40)\n      dup1\n      swap2\n      sub\n      swap1\n      revert\n    tag_197:\n        /* \"RideDaoContract_flat.sol\":16377:16437  _approve(owner, spender, currentAllowance - subtractedValue) */\n      tag_200\n        /* \"RideDaoContract_flat.sol\":16386:16391  owner */\n      dup3\n        /* \"RideDaoContract_flat.sol\":16393:16400  spender */\n      dup7\n        /* \"RideDaoContract_flat.sol\":16421:16436  subtractedValue */\n      dup7\n        /* \"RideDaoContract_flat.sol\":16402:16418  currentAllowance */\n      dup5\n        /* \"RideDaoContract_flat.sol\":16402:16436  currentAllowance - subtractedValue */\n      sub\n        /* \"RideDaoContract_flat.sol\":16377:16385  _approve */\n      tag_140\n        /* \"RideDaoContract_flat.sol\":16377:16437  _approve(owner, spender, currentAllowance - subtractedValue) */\n      jump\t// in\n    tag_200:\n        /* \"RideDaoContract_flat.sol\":16465:16469  true */\n      0x01\n        /* \"RideDaoContract_flat.sol\":16458:16469  return true */\n      swap3\n      pop\n      pop\n      pop\n        /* \"RideDaoContract_flat.sol\":16049:16476  function decreaseAllowance(address spender, uint256 subtractedValue) public virtual returns (bool) {... */\n      swap3\n      swap2\n      pop\n      pop\n      jump\t// out\n        /* \"RideDaoContract_flat.sol\":13184:13373  function transfer(address to, uint256 amount) public virtual override returns (bool) {... */\n    tag_114:\n        /* \"RideDaoContract_flat.sol\":13263:13267  bool */\n      0x00\n        /* \"RideDaoContract_flat.sol\":13279:13292  address owner */\n      dup1\n        /* \"RideDaoContract_flat.sol\":13295:13307  _msgSender() */\n      tag_202\n        /* \"RideDaoContract_flat.sol\":13295:13305  _msgSender */\n      tag_138\n        /* \"RideDaoContract_flat.sol\":13295:13307  _msgSender() */\n      jump\t// in\n    tag_202:\n        /* \"RideDaoContract_flat.sol\":13279:13307  address owner = _msgSender() */\n      swap1\n      pop\n        /* \"RideDaoContract_flat.sol\":13317:13345  _transfer(owner, to, amount) */\n      tag_203\n        /* \"RideDaoContract_flat.sol\":13327:13332  owner */\n      dup2\n        /* \"RideDaoContract_flat.sol\":13334:13336  to */\n      dup6\n        /* \"RideDaoContract_flat.sol\":13338:13344  amount */\n      dup6\n        /* \"RideDaoContract_flat.sol\":13317:13326  _transfer */\n      tag_150\n        /* \"RideDaoContract_flat.sol\":13317:13345  _transfer(owner, to, amount) */\n      jump\t// in\n    tag_203:\n        /* \"RideDaoContract_flat.sol\":13362:13366  true */\n      0x01\n        /* \"RideDaoContract_flat.sol\":13355:13366  return true */\n      swap2\n      pop\n      pop\n        /* \"RideDaoContract_flat.sol\":13184:13373  function transfer(address to, uint256 amount) public virtual override returns (bool) {... */\n      swap3\n      swap2\n      pop\n      pop\n      jump\t// out\n        /* \"RideDaoContract_flat.sol\":13431:13580  function allowance(address owner, address spender) public view virtual override returns (uint256) {... */\n    tag_120:\n        /* \"RideDaoContract_flat.sol\":13520:13527  uint256 */\n      0x00\n        /* \"RideDaoContract_flat.sol\":13546:13557  _allowances */\n      0x01\n        /* \"RideDaoContract_flat.sol\":13546:13564  _allowances[owner] */\n      0x00\n        /* \"RideDaoContract_flat.sol\":13558:13563  owner */\n      dup5\n        /* \"RideDaoContract_flat.sol\":13546:13564  _allowances[owner] */\n      0xffffffffffffffffffffffffffffffffffffffff\n      and\n      0xffffffffffffffffffffffffffffffffffffffff\n      and\n      dup2\n      mstore\n      0x20\n      add\n      swap1\n      dup2\n      mstore\n      0x20\n      add\n      0x00\n      keccak256\n        /* \"RideDaoContract_flat.sol\":13546:13573  _allowances[owner][spender] */\n      0x00\n        /* \"RideDaoContract_flat.sol\":13565:13572  spender */\n      dup4\n        /* \"RideDaoContract_flat.sol\":13546:13573  _allowances[owner][spender] */\n      0xffffffffffffffffffffffffffffffffffffffff\n      and\n      0xffffffffffffffffffffffffffffffffffffffff\n      and\n      dup2\n      mstore\n      0x20\n      add\n      swap1\n      dup2\n      mstore\n      0x20\n      add\n      0x00\n      keccak256\n      sload\n        /* \"RideDaoContract_flat.sol\":13539:13573  return _allowances[owner][spender] */\n      swap1\n      pop\n        /* \"RideDaoContract_flat.sol\":13431:13580  function allowance(address owner, address spender) public view virtual override returns (uint256) {... */\n      swap3\n      swap2\n      pop\n      pop\n      jump\t// out\n        /* \"RideDaoContract_flat.sol\":24280:24365  function invest() external payable {... */\n    tag_123:\n        /* \"RideDaoContract_flat.sol\":24349:24358  msg.value */\n      callvalue\n        /* \"RideDaoContract_flat.sol\":24325:24333  balances */\n      0x06\n        /* \"RideDaoContract_flat.sol\":24325:24345  balances[msg.sender] */\n      0x00\n        /* \"RideDaoContract_flat.sol\":24334:24344  msg.sender */\n      caller\n        /* \"RideDaoContract_flat.sol\":24325:24345  balances[msg.sender] */\n      0xffffffffffffffffffffffffffffffffffffffff\n      and\n      0xffffffffffffffffffffffffffffffffffffffff\n      and\n      dup2\n      mstore\n      0x20\n      add\n      swap1\n      dup2\n      mstore\n      0x20\n      add\n      0x00\n      keccak256\n      0x00\n        /* \"RideDaoContract_flat.sol\":24325:24358  balances[msg.sender] += msg.value */\n      dup3\n      dup3\n      sload\n      tag_206\n      swap2\n      swap1\n      tag_157\n      jump\t// in\n    tag_206:\n      swap3\n      pop\n      pop\n      dup2\n      swap1\n      sstore\n      pop\n        /* \"RideDaoContract_flat.sol\":24280:24365  function invest() external payable {... */\n      jump\t// out\n        /* \"RideDaoContract_flat.sol\":2939:3137  function transferOwnership(address newOwner) public virtual onlyOwner {... */\n    tag_127:\n        /* \"RideDaoContract_flat.sol\":1952:1965  _checkOwner() */\n      tag_208\n        /* \"RideDaoContract_flat.sol\":1952:1963  _checkOwner */\n      tag_160\n        /* \"RideDaoContract_flat.sol\":1952:1965  _checkOwner() */\n      jump\t// in\n    tag_208:\n        /* \"RideDaoContract_flat.sol\":3047:3048  0 */\n      0x00\n        /* \"RideDaoContract_flat.sol\":3027:3049  newOwner != address(0) */\n      0xffffffffffffffffffffffffffffffffffffffff\n      and\n        /* \"RideDaoContract_flat.sol\":3027:3035  newOwner */\n      dup2\n        /* \"RideDaoContract_flat.sol\":3027:3049  newOwner != address(0) */\n      0xffffffffffffffffffffffffffffffffffffffff\n      and\n      eq\n      iszero\n        /* \"RideDaoContract_flat.sol\":3019:3092  require(newOwner != address(0), \"Ownable: new owner is the zero address\") */\n      tag_210\n      jumpi\n      mload(0x40)\n      0x08c379a000000000000000000000000000000000000000000000000000000000\n      dup2\n      mstore\n      0x04\n      add\n      tag_211\n      swap1\n      tag_212\n      jump\t// in\n    tag_211:\n      mload(0x40)\n      dup1\n      swap2\n      sub\n      swap1\n      revert\n    tag_210:\n        /* \"RideDaoContract_flat.sol\":3102:3130  _transferOwnership(newOwner) */\n      tag_213\n        /* \"RideDaoContract_flat.sol\":3121:3129  newOwner */\n      dup2\n        /* \"RideDaoContract_flat.sol\":3102:3120  _transferOwnership */\n      tag_176\n        /* \"RideDaoContract_flat.sol\":3102:3130  _transferOwnership(newOwner) */\n      jump\t// in\n    tag_213:\n        /* \"RideDaoContract_flat.sol\":2939:3137  function transferOwnership(address newOwner) public virtual onlyOwner {... */\n      pop\n      jump\t// out\n        /* \"RideDaoContract_flat.sol\":21637:21758  function _beforeTokenTransfer(... */\n    tag_128:\n      pop\n      pop\n      pop\n      jump\t// out\n        /* \"RideDaoContract_flat.sol\":662:758  function _msgSender() internal view virtual returns (address) {... */\n    tag_138:\n        /* \"RideDaoContract_flat.sol\":715:722  address */\n      0x00\n        /* \"RideDaoContract_flat.sol\":741:751  msg.sender */\n      caller\n        /* \"RideDaoContract_flat.sol\":734:751  return msg.sender */\n      swap1\n      pop\n        /* \"RideDaoContract_flat.sol\":662:758  function _msgSender() internal view virtual returns (address) {... */\n      swap1\n      jump\t// out\n        /* \"RideDaoContract_flat.sol\":19961:20331  function _approve(... */\n    tag_140:\n        /* \"RideDaoContract_flat.sol\":20109:20110  0 */\n      0x00\n        /* \"RideDaoContract_flat.sol\":20092:20111  owner != address(0) */\n      0xffffffffffffffffffffffffffffffffffffffff\n      and\n        /* \"RideDaoContract_flat.sol\":20092:20097  owner */\n      dup4\n        /* \"RideDaoContract_flat.sol\":20092:20111  owner != address(0) */\n      0xffffffffffffffffffffffffffffffffffffffff\n      and\n      eq\n      iszero\n        /* \"RideDaoContract_flat.sol\":20084:20152  require(owner != address(0), \"ERC20: approve from the zero address\") */\n      tag_217\n      jumpi\n      mload(0x40)\n      0x08c379a000000000000000000000000000000000000000000000000000000000\n      dup2\n      mstore\n      0x04\n      add\n      tag_218\n      swap1\n      tag_219\n      jump\t// in\n    tag_218:\n      mload(0x40)\n      dup1\n      swap2\n      sub\n      swap1\n      revert\n    tag_217:\n        /* \"RideDaoContract_flat.sol\":20189:20190  0 */\n      0x00\n        /* \"RideDaoContract_flat.sol\":20170:20191  spender != address(0) */\n      0xffffffffffffffffffffffffffffffffffffffff\n      and\n        /* \"RideDaoContract_flat.sol\":20170:20177  spender */\n      dup3\n        /* \"RideDaoContract_flat.sol\":20170:20191  spender != address(0) */\n      0xffffffffffffffffffffffffffffffffffffffff\n      and\n      eq\n      iszero\n        /* \"RideDaoContract_flat.sol\":20162:20230  require(spender != address(0), \"ERC20: approve to the zero address\") */\n      tag_220\n      jumpi\n      mload(0x40)\n      0x08c379a000000000000000000000000000000000000000000000000000000000\n      dup2\n      mstore\n      0x04\n      add\n      tag_221\n      swap1\n      tag_222\n      jump\t// in\n    tag_221:\n      mload(0x40)\n      dup1\n      swap2\n      sub\n      swap1\n      revert\n    tag_220:\n        /* \"RideDaoContract_flat.sol\":20271:20277  amount */\n      dup1\n        /* \"RideDaoContract_flat.sol\":20241:20252  _allowances */\n      0x01\n        /* \"RideDaoContract_flat.sol\":20241:20259  _allowances[owner] */\n      0x00\n        /* \"RideDaoContract_flat.sol\":20253:20258  owner */\n      dup6\n        /* \"RideDaoContract_flat.sol\":20241:20259  _allowances[owner] */\n      0xffffffffffffffffffffffffffffffffffffffff\n      and\n      0xffffffffffffffffffffffffffffffffffffffff\n      and\n      dup2\n      mstore\n      0x20\n      add\n      swap1\n      dup2\n      mstore\n      0x20\n      add\n      0x00\n      keccak256\n        /* \"RideDaoContract_flat.sol\":20241:20268  _allowances[owner][spender] */\n      0x00\n        /* \"RideDaoContract_flat.sol\":20260:20267  spender */\n      dup5\n        /* \"RideDaoContract_flat.sol\":20241:20268  _allowances[owner][spender] */\n      0xffffffffffffffffffffffffffffffffffffffff\n      and\n      0xffffffffffffffffffffffffffffffffffffffff\n      and\n      dup2\n      mstore\n      0x20\n      add\n      swap1\n      dup2\n      mstore\n      0x20\n      add\n      0x00\n      keccak256\n        /* \"RideDaoContract_flat.sol\":20241:20277  _allowances[owner][spender] = amount */\n      dup2\n      swap1\n      sstore\n      pop\n        /* \"RideDaoContract_flat.sol\":20308:20315  spender */\n      dup2\n        /* \"RideDaoContract_flat.sol\":20292:20324  Approval(owner, spender, amount) */\n      0xffffffffffffffffffffffffffffffffffffffff\n      and\n        /* \"RideDaoContract_flat.sol\":20301:20306  owner */\n      dup4\n        /* \"RideDaoContract_flat.sol\":20292:20324  Approval(owner, spender, amount) */\n      0xffffffffffffffffffffffffffffffffffffffff\n      and\n      0x8c5be1e5ebec7d5bd14f71427d1e84f3dd0314c0f7b2291e5b200ac8c7c3b925\n        /* \"RideDaoContract_flat.sol\":20317:20323  amount */\n      dup4\n        /* \"RideDaoContract_flat.sol\":20292:20324  Approval(owner, spender, amount) */\n      mload(0x40)\n      tag_223\n      swap2\n      swap1\n      tag_48\n      jump\t// in\n    tag_223:\n      mload(0x40)\n      dup1\n      swap2\n      sub\n      swap1\n      log3\n        /* \"RideDaoContract_flat.sol\":19961:20331  function _approve(... */\n      pop\n      pop\n      pop\n      jump\t// out\n        /* \"RideDaoContract_flat.sol\":20612:21053  function _spendAllowance(... */\n    tag_148:\n        /* \"RideDaoContract_flat.sol\":20742:20766  uint256 currentAllowance */\n      0x00\n        /* \"RideDaoContract_flat.sol\":20769:20794  allowance(owner, spender) */\n      tag_225\n        /* \"RideDaoContract_flat.sol\":20779:20784  owner */\n      dup5\n        /* \"RideDaoContract_flat.sol\":20786:20793  spender */\n      dup5\n        /* \"RideDaoContract_flat.sol\":20769:20778  allowance */\n      tag_120\n        /* \"RideDaoContract_flat.sol\":20769:20794  allowance(owner, spender) */\n      jump\t// in\n    tag_225:\n        /* \"RideDaoContract_flat.sol\":20742:20794  uint256 currentAllowance = allowance(owner, spender) */\n      swap1\n      pop\n        /* \"RideDaoContract_flat.sol\":20828:20845  type(uint256).max */\n      0xffffffffffffffffffffffffffffffffffffffffffffffffffffffffffffffff\n        /* \"RideDaoContract_flat.sol\":20808:20824  currentAllowance */\n      dup2\n        /* \"RideDaoContract_flat.sol\":20808:20845  currentAllowance != type(uint256).max */\n      eq\n        /* \"RideDaoContract_flat.sol\":20804:21047  if (currentAllowance != type(uint256).max) {... */\n      tag_226\n      jumpi\n        /* \"RideDaoContract_flat.sol\":20889:20895  amount */\n      dup2\n        /* \"RideDaoContract_flat.sol\":20869:20885  currentAllowance */\n      dup2\n        /* \"RideDaoContract_flat.sol\":20869:20895  currentAllowance >= amount */\n      lt\n      iszero\n        /* \"RideDaoContract_flat.sol\":20861:20929  require(currentAllowance >= amount, \"ERC20: insufficient allowance\") */\n      tag_227\n      jumpi\n      mload(0x40)\n      0x08c379a000000000000000000000000000000000000000000000000000000000\n      dup2\n      mstore\n      0x04\n      add\n      tag_228\n      swap1\n      tag_229\n      jump\t// in\n    tag_228:\n      mload(0x40)\n      dup1\n      swap2\n      sub\n      swap1\n      revert\n    tag_227:\n        /* \"RideDaoContract_flat.sol\":20971:21022  _approve(owner, spender, currentAllowance - amount) */\n      tag_230\n        /* \"RideDaoContract_flat.sol\":20980:20985  owner */\n      dup5\n        /* \"RideDaoContract_flat.sol\":20987:20994  spender */\n      dup5\n        /* \"RideDaoContract_flat.sol\":21015:21021  amount */\n      dup5\n        /* \"RideDaoContract_flat.sol\":20996:21012  currentAllowance */\n      dup5\n        /* \"RideDaoContract_flat.sol\":20996:21021  currentAllowance - amount */\n      sub\n        /* \"RideDaoContract_flat.sol\":20971:20979  _approve */\n      tag_140\n        /* \"RideDaoContract_flat.sol\":20971:21022  _approve(owner, spender, currentAllowance - amount) */\n      jump\t// in\n    tag_230:\n        /* \"RideDaoContract_flat.sol\":20804:21047  if (currentAllowance != type(uint256).max) {... */\n    tag_226:\n        /* \"RideDaoContract_flat.sol\":20732:21053  {... */\n      pop\n        /* \"RideDaoContract_flat.sol\":20612:21053  function _spendAllowance(... */\n      pop\n      pop\n      pop\n      jump\t// out\n        /* \"RideDaoContract_flat.sol\":16930:17748  function _transfer(... */\n    tag_150:\n        /* \"RideDaoContract_flat.sol\":17072:17073  0 */\n      0x00\n        /* \"RideDaoContract_flat.sol\":17056:17074  from != address(0) */\n      0xffffffffffffffffffffffffffffffffffffffff\n      and\n        /* \"RideDaoContract_flat.sol\":17056:17060  from */\n      dup4\n        /* \"RideDaoContract_flat.sol\":17056:17074  from != address(0) */\n      0xffffffffffffffffffffffffffffffffffffffff\n      and\n      eq\n      iszero\n        /* \"RideDaoContract_flat.sol\":17048:17116  require(from != address(0), \"ERC20: transfer from the zero address\") */\n      tag_232\n      jumpi\n      mload(0x40)\n      0x08c379a000000000000000000000000000000000000000000000000000000000\n      dup2\n      mstore\n      0x04\n      add\n      tag_233\n      swap1\n      tag_234\n      jump\t// in\n    tag_233:\n      mload(0x40)\n      dup1\n      swap2\n      sub\n      swap1\n      revert\n    tag_232:\n        /* \"RideDaoContract_flat.sol\":17148:17149  0 */\n      0x00\n        /* \"RideDaoContract_flat.sol\":17134:17150  to != address(0) */\n      0xffffffffffffffffffffffffffffffffffffffff\n      and\n        /* \"RideDaoContract_flat.sol\":17134:17136  to */\n      dup3\n        /* \"RideDaoContract_flat.sol\":17134:17150  to != address(0) */\n      0xffffffffffffffffffffffffffffffffffffffff\n      and\n      eq\n      iszero\n        /* \"RideDaoContract_flat.sol\":17126:17190  require(to != address(0), \"ERC20: transfer to the zero address\") */\n      tag_235\n      jumpi\n      mload(0x40)\n      0x08c379a000000000000000000000000000000000000000000000000000000000\n      dup2\n      mstore\n      0x04\n      add\n      tag_236\n      swap1\n      tag_237\n      jump\t// in\n    tag_236:\n      mload(0x40)\n      dup1\n      swap2\n      sub\n      swap1\n      revert\n    tag_235:\n        /* \"RideDaoContract_flat.sol\":17201:17239  _beforeTokenTransfer(from, to, amount) */\n      tag_238\n        /* \"RideDaoContract_flat.sol\":17222:17226  from */\n      dup4\n        /* \"RideDaoContract_flat.sol\":17228:17230  to */\n      dup4\n        /* \"RideDaoContract_flat.sol\":17232:17238  amount */\n      dup4\n        /* \"RideDaoContract_flat.sol\":17201:17221  _beforeTokenTransfer */\n      tag_239\n        /* \"RideDaoContract_flat.sol\":17201:17239  _beforeTokenTransfer(from, to, amount) */\n      jump\t// in\n    tag_238:\n        /* \"RideDaoContract_flat.sol\":17250:17269  uint256 fromBalance */\n      0x00\n        /* \"RideDaoContract_flat.sol\":17272:17281  _balances */\n      dup1\n        /* \"RideDaoContract_flat.sol\":17272:17287  _balances[from] */\n      0x00\n        /* \"RideDaoContract_flat.sol\":17282:17286  from */\n      dup6\n        /* \"RideDaoContract_flat.sol\":17272:17287  _balances[from] */\n      0xffffffffffffffffffffffffffffffffffffffff\n      and\n      0xffffffffffffffffffffffffffffffffffffffff\n      and\n      dup2\n      mstore\n      0x20\n      add\n      swap1\n      dup2\n      mstore\n      0x20\n      add\n      0x00\n      keccak256\n      sload\n        /* \"RideDaoContract_flat.sol\":17250:17287  uint256 fromBalance = _balances[from] */\n      swap1\n      pop\n        /* \"RideDaoContract_flat.sol\":17320:17326  amount */\n      dup2\n        /* \"RideDaoContract_flat.sol\":17305:17316  fromBalance */\n      dup2\n        /* \"RideDaoContract_flat.sol\":17305:17326  fromBalance >= amount */\n      lt\n      iszero\n        /* \"RideDaoContract_flat.sol\":17297:17369  require(fromBalance >= amount, \"ERC20: transfer amount exceeds balance\") */\n      tag_240\n      jumpi\n      mload(0x40)\n      0x08c379a000000000000000000000000000000000000000000000000000000000\n      dup2\n      mstore\n      0x04\n      add\n      tag_241\n      swap1\n      tag_242\n      jump\t// in\n    tag_241:\n      mload(0x40)\n      dup1\n      swap2\n      sub\n      swap1\n      revert\n    tag_240:\n        /* \"RideDaoContract_flat.sol\":17435:17441  amount */\n      dup2\n        /* \"RideDaoContract_flat.sol\":17421:17432  fromBalance */\n      dup2\n        /* \"RideDaoContract_flat.sol\":17421:17441  fromBalance - amount */\n      sub\n        /* \"RideDaoContract_flat.sol\":17403:17412  _balances */\n      0x00\n        /* \"RideDaoContract_flat.sol\":17403:17418  _balances[from] */\n      dup1\n        /* \"RideDaoContract_flat.sol\":17413:17417  from */\n      dup7\n        /* \"RideDaoContract_flat.sol\":17403:17418  _balances[from] */\n      0xffffffffffffffffffffffffffffffffffffffff\n      and\n      0xffffffffffffffffffffffffffffffffffffffff\n      and\n      dup2\n      mstore\n      0x20\n      add\n      swap1\n      dup2\n      mstore\n      0x20\n      add\n      0x00\n      keccak256\n        /* \"RideDaoContract_flat.sol\":17403:17441  _balances[from] = fromBalance - amount */\n      dup2\n      swap1\n      sstore\n      pop\n        /* \"RideDaoContract_flat.sol\":17635:17641  amount */\n      dup2\n        /* \"RideDaoContract_flat.sol\":17618:17627  _balances */\n      0x00\n        /* \"RideDaoContract_flat.sol\":17618:17631  _balances[to] */\n      dup1\n        /* \"RideDaoContract_flat.sol\":17628:17630  to */\n      dup6\n        /* \"RideDaoContract_flat.sol\":17618:17631  _balances[to] */\n      0xffffffffffffffffffffffffffffffffffffffff\n      and\n      0xffffffffffffffffffffffffffffffffffffffff\n      and\n      dup2\n      mstore\n      0x20\n      add\n      swap1\n      dup2\n      mstore\n      0x20\n      add\n      0x00\n      keccak256\n      0x00\n        /* \"RideDaoContract_flat.sol\":17618:17641  _balances[to] += amount */\n      dup3\n      dup3\n      sload\n      add\n      swap3\n      pop\n      pop\n      dup2\n      swap1\n      sstore\n      pop\n        /* \"RideDaoContract_flat.sol\":17682:17684  to */\n      dup3\n        /* \"RideDaoContract_flat.sol\":17667:17693  Transfer(from, to, amount) */\n      0xffffffffffffffffffffffffffffffffffffffff\n      and\n        /* \"RideDaoContract_flat.sol\":17676:17680  from */\n      dup5\n        /* \"RideDaoContract_flat.sol\":17667:17693  Transfer(from, to, amount) */\n      0xffffffffffffffffffffffffffffffffffffffff\n      and\n      0xddf252ad1be2c89b69c2b068fc378daa952ba7f163c4a11628f55a4df523b3ef\n        /* \"RideDaoContract_flat.sol\":17686:17692  amount */\n      dup5\n        /* \"RideDaoContract_flat.sol\":17667:17693  Transfer(from, to, amount) */\n      mload(0x40)\n      tag_243\n      swap2\n      swap1\n      tag_48\n      jump\t// in\n    tag_243:\n      mload(0x40)\n      dup1\n      swap2\n      sub\n      swap1\n      log3\n        /* \"RideDaoContract_flat.sol\":17704:17741  _afterTokenTransfer(from, to, amount) */\n      tag_244\n        /* \"RideDaoContract_flat.sol\":17724:17728  from */\n      dup5\n        /* \"RideDaoContract_flat.sol\":17730:17732  to */\n      dup5\n        /* \"RideDaoContract_flat.sol\":17734:17740  amount */\n      dup5\n        /* \"RideDaoContract_flat.sol\":17704:17723  _afterTokenTransfer */\n      tag_245\n        /* \"RideDaoContract_flat.sol\":17704:17741  _afterTokenTransfer(from, to, amount) */\n      jump\t// in\n    tag_244:\n        /* \"RideDaoContract_flat.sol\":17038:17748  {... */\n      pop\n        /* \"RideDaoContract_flat.sol\":16930:17748  function _transfer(... */\n      pop\n      pop\n      pop\n      jump\t// out\n        /* \"RideDaoContract_flat.sol\":2217:2347  function _checkOwner() internal view virtual {... */\n    tag_160:\n        /* \"RideDaoContract_flat.sol\":2291:2303  _msgSender() */\n      tag_247\n        /* \"RideDaoContract_flat.sol\":2291:2301  _msgSender */\n      tag_138\n        /* \"RideDaoContract_flat.sol\":2291:2303  _msgSender() */\n      jump\t// in\n    tag_247:\n        /* \"RideDaoContract_flat.sol\":2280:2303  owner() == _msgSender() */\n      0xffffffffffffffffffffffffffffffffffffffff\n      and\n        /* \"RideDaoContract_flat.sol\":2280:2287  owner() */\n      tag_248\n        /* \"RideDaoContract_flat.sol\":2280:2285  owner */\n      tag_99\n        /* \"RideDaoContract_flat.sol\":2280:2287  owner() */\n      jump\t// in\n    tag_248:\n        /* \"RideDaoContract_flat.sol\":2280:2303  owner() == _msgSender() */\n      0xffffffffffffffffffffffffffffffffffffffff\n      and\n      eq\n        /* \"RideDaoContract_flat.sol\":2272:2340  require(owner() == _msgSender(), \"Ownable: caller is not the owner\") */\n      tag_249\n      jumpi\n      mload(0x40)\n      0x08c379a000000000000000000000000000000000000000000000000000000000\n      dup2\n      mstore\n      0x04\n      add\n      tag_250\n      swap1\n      tag_251\n      jump\t// in\n    tag_250:\n      mload(0x40)\n      dup1\n      swap2\n      sub\n      swap1\n      revert\n    tag_249:\n        /* \"RideDaoContract_flat.sol\":2217:2347  function _checkOwner() internal view virtual {... */\n      jump\t// out\n        /* \"RideDaoContract_flat.sol\":5909:6026  function _unpause() internal virtual whenPaused {... */\n    tag_163:\n        /* \"RideDaoContract_flat.sol\":4962:4978  _requirePaused() */\n      tag_253\n        /* \"RideDaoContract_flat.sol\":4962:4976  _requirePaused */\n      tag_254\n        /* \"RideDaoContract_flat.sol\":4962:4978  _requirePaused() */\n      jump\t// in\n    tag_253:\n        /* \"RideDaoContract_flat.sol\":5977:5982  false */\n      0x00\n        /* \"RideDaoContract_flat.sol\":5967:5974  _paused */\n      0x05\n      0x00\n        /* \"RideDaoContract_flat.sol\":5967:5982  _paused = false */\n      0x0100\n      exp\n      dup2\n      sload\n      dup2\n      0xff\n      mul\n      not\n      and\n      swap1\n      dup4\n      iszero\n      iszero\n      mul\n      or\n      swap1\n      sstore\n      pop\n        /* \"RideDaoContract_flat.sol\":5997:6019  Unpaused(_msgSender()) */\n      0x5db9ee0a495bf2e6ff9c91a7834c1ba4fdd244a5e8aa4e537bd38aeae4b073aa\n        /* \"RideDaoContract_flat.sol\":6006:6018  _msgSender() */\n      tag_256\n        /* \"RideDaoContract_flat.sol\":6006:6016  _msgSender */\n      tag_138\n        /* \"RideDaoContract_flat.sol\":6006:6018  _msgSender() */\n      jump\t// in\n    tag_256:\n        /* \"RideDaoContract_flat.sol\":5997:6019  Unpaused(_msgSender()) */\n      mload(0x40)\n      tag_257\n      swap2\n      swap1\n      tag_101\n      jump\t// in\n    tag_257:\n      mload(0x40)\n      dup1\n      swap2\n      sub\n      swap1\n      log1\n        /* \"RideDaoContract_flat.sol\":5909:6026  function _unpause() internal virtual whenPaused {... */\n      jump\t// out\n        /* \"RideDaoContract_flat.sol\":18879:19538  function _burn(address account, uint256 amount) internal virtual {... */\n    tag_169:\n        /* \"RideDaoContract_flat.sol\":18981:18982  0 */\n      0x00\n        /* \"RideDaoContract_flat.sol\":18962:18983  account != address(0) */\n      0xffffffffffffffffffffffffffffffffffffffff\n      and\n        /* \"RideDaoContract_flat.sol\":18962:18969  account */\n      dup3\n        /* \"RideDaoContract_flat.sol\":18962:18983  account != address(0) */\n      0xffffffffffffffffffffffffffffffffffffffff\n      and\n      eq\n      iszero\n        /* \"RideDaoContract_flat.sol\":18954:19021  require(account != address(0), \"ERC20: burn from the zero address\") */\n      tag_259\n      jumpi\n      mload(0x40)\n      0x08c379a000000000000000000000000000000000000000000000000000000000\n      dup2\n      mstore\n      0x04\n      add\n      tag_260\n      swap1\n      tag_261\n      jump\t// in\n    tag_260:\n      mload(0x40)\n      dup1\n      swap2\n      sub\n      swap1\n      revert\n    tag_259:\n        /* \"RideDaoContract_flat.sol\":19032:19081  _beforeTokenTransfer(account, address(0), amount) */\n      tag_262\n        /* \"RideDaoContract_flat.sol\":19053:19060  account */\n      dup3\n        /* \"RideDaoContract_flat.sol\":19070:19071  0 */\n      0x00\n        /* \"RideDaoContract_flat.sol\":19074:19080  amount */\n      dup4\n        /* \"RideDaoContract_flat.sol\":19032:19052  _beforeTokenTransfer */\n      tag_239\n        /* \"RideDaoContract_flat.sol\":19032:19081  _beforeTokenTransfer(account, address(0), amount) */\n      jump\t// in\n    tag_262:\n        /* \"RideDaoContract_flat.sol\":19092:19114  uint256 accountBalance */\n      0x00\n        /* \"RideDaoContract_flat.sol\":19117:19126  _balances */\n      dup1\n        /* \"RideDaoContract_flat.sol\":19117:19135  _balances[account] */\n      0x00\n        /* \"RideDaoContract_flat.sol\":19127:19134  account */\n      dup5\n        /* \"RideDaoContract_flat.sol\":19117:19135  _balances[account] */\n      0xffffffffffffffffffffffffffffffffffffffff\n      and\n      0xffffffffffffffffffffffffffffffffffffffff\n      and\n      dup2\n      mstore\n      0x20\n      add\n      swap1\n      dup2\n      mstore\n      0x20\n      add\n      0x00\n      keccak256\n      sload\n        /* \"RideDaoContract_flat.sol\":19092:19135  uint256 accountBalance = _balances[account] */\n      swap1\n      pop\n        /* \"RideDaoContract_flat.sol\":19171:19177  amount */\n      dup2\n        /* \"RideDaoContract_flat.sol\":19153:19167  accountBalance */\n      dup2\n        /* \"RideDaoContract_flat.sol\":19153:19177  accountBalance >= amount */\n      lt\n      iszero\n        /* \"RideDaoContract_flat.sol\":19145:19216  require(accountBalance >= amount, \"ERC20: burn amount exceeds balance\") */\n      tag_263\n      jumpi\n      mload(0x40)\n      0x08c379a000000000000000000000000000000000000000000000000000000000\n      dup2\n      mstore\n      0x04\n      add\n      tag_264\n      swap1\n      tag_265\n      jump\t// in\n    tag_264:\n      mload(0x40)\n      dup1\n      swap2\n      sub\n      swap1\n      revert\n    tag_263:\n        /* \"RideDaoContract_flat.sol\":19288:19294  amount */\n      dup2\n        /* \"RideDaoContract_flat.sol\":19271:19285  accountBalance */\n      dup2\n        /* \"RideDaoContract_flat.sol\":19271:19294  accountBalance - amount */\n      sub\n        /* \"RideDaoContract_flat.sol\":19250:19259  _balances */\n      0x00\n        /* \"RideDaoContract_flat.sol\":19250:19268  _balances[account] */\n      dup1\n        /* \"RideDaoContract_flat.sol\":19260:19267  account */\n      dup6\n        /* \"RideDaoContract_flat.sol\":19250:19268  _balances[account] */\n      0xffffffffffffffffffffffffffffffffffffffff\n      and\n      0xffffffffffffffffffffffffffffffffffffffff\n      and\n      dup2\n      mstore\n      0x20\n      add\n      swap1\n      dup2\n      mstore\n      0x20\n      add\n      0x00\n      keccak256\n        /* \"RideDaoContract_flat.sol\":19250:19294  _balances[account] = accountBalance - amount */\n      dup2\n      swap1\n      sstore\n      pop\n        /* \"RideDaoContract_flat.sol\":19403:19409  amount */\n      dup2\n        /* \"RideDaoContract_flat.sol\":19387:19399  _totalSupply */\n      0x02\n      0x00\n        /* \"RideDaoContract_flat.sol\":19387:19409  _totalSupply -= amount */\n      dup3\n      dup3\n      sload\n      sub\n      swap3\n      pop\n      pop\n      dup2\n      swap1\n      sstore\n      pop\n        /* \"RideDaoContract_flat.sol\":19461:19462  0 */\n      0x00\n        /* \"RideDaoContract_flat.sol\":19435:19472  Transfer(account, address(0), amount) */\n      0xffffffffffffffffffffffffffffffffffffffff\n      and\n        /* \"RideDaoContract_flat.sol\":19444:19451  account */\n      dup4\n        /* \"RideDaoContract_flat.sol\":19435:19472  Transfer(account, address(0), amount) */\n      0xffffffffffffffffffffffffffffffffffffffff\n      and\n      0xddf252ad1be2c89b69c2b068fc378daa952ba7f163c4a11628f55a4df523b3ef\n        /* \"RideDaoContract_flat.sol\":19465:19471  amount */\n      dup5\n        /* \"RideDaoContract_flat.sol\":19435:19472  Transfer(account, address(0), amount) */\n      mload(0x40)\n      tag_266\n      swap2\n      swap1\n      tag_48\n      jump\t// in\n    tag_266:\n      mload(0x40)\n      dup1\n      swap2\n      sub\n      swap1\n      log3\n        /* \"RideDaoContract_flat.sol\":19483:19531  _afterTokenTransfer(account, address(0), amount) */\n      tag_267\n        /* \"RideDaoContract_flat.sol\":19503:19510  account */\n      dup4\n        /* \"RideDaoContract_flat.sol\":19520:19521  0 */\n      0x00\n        /* \"RideDaoContract_flat.sol\":19524:19530  amount */\n      dup5\n        /* \"RideDaoContract_flat.sol\":19483:19502  _afterTokenTransfer */\n      tag_245\n        /* \"RideDaoContract_flat.sol\":19483:19531  _afterTokenTransfer(account, address(0), amount) */\n      jump\t// in\n    tag_267:\n        /* \"RideDaoContract_flat.sol\":18944:19538  {... */\n      pop\n        /* \"RideDaoContract_flat.sol\":18879:19538  function _burn(address account, uint256 amount) internal virtual {... */\n      pop\n      pop\n      jump\t// out\n        /* \"RideDaoContract_flat.sol\":3291:3478  function _transferOwnership(address newOwner) internal virtual {... */\n    tag_176:\n        /* \"RideDaoContract_flat.sol\":3364:3380  address oldOwner */\n      0x00\n        /* \"RideDaoContract_flat.sol\":3383:3389  _owner */\n      0x05\n      0x01\n      swap1\n      sload\n      swap1\n      0x0100\n      exp\n      swap1\n      div\n      0xffffffffffffffffffffffffffffffffffffffff\n      and\n        /* \"RideDaoContract_flat.sol\":3364:3389  address oldOwner = _owner */\n      swap1\n      pop\n        /* \"RideDaoContract_flat.sol\":3408:3416  newOwner */\n      dup2\n        /* \"RideDaoContract_flat.sol\":3399:3405  _owner */\n      0x05\n      0x01\n        /* \"RideDaoContract_flat.sol\":3399:3416  _owner = newOwner */\n      0x0100\n      exp\n      dup2\n      sload\n      dup2\n      0xffffffffffffffffffffffffffffffffffffffff\n      mul\n      not\n      and\n      swap1\n      dup4\n      0xffffffffffffffffffffffffffffffffffffffff\n      and\n      mul\n      or\n      swap1\n      sstore\n      pop\n        /* \"RideDaoContract_flat.sol\":3462:3470  newOwner */\n      dup2\n        /* \"RideDaoContract_flat.sol\":3431:3471  OwnershipTransferred(oldOwner, newOwner) */\n      0xffffffffffffffffffffffffffffffffffffffff\n      and\n        /* \"RideDaoContract_flat.sol\":3452:3460  oldOwner */\n      dup2\n        /* \"RideDaoContract_flat.sol\":3431:3471  OwnershipTransferred(oldOwner, newOwner) */\n      0xffffffffffffffffffffffffffffffffffffffff\n      and\n      0x8be0079c531659141344cd1fd0a4f28419497f9722a3daafe3b4186f6b6457e0\n      mload(0x40)\n      mload(0x40)\n      dup1\n      swap2\n      sub\n      swap1\n      log3\n        /* \"RideDaoContract_flat.sol\":3354:3478  {... */\n      pop\n        /* \"RideDaoContract_flat.sol\":3291:3478  function _transferOwnership(address newOwner) internal virtual {... */\n      pop\n      jump\t// out\n        /* \"RideDaoContract_flat.sol\":5662:5777  function _pause() internal virtual whenNotPaused {... */\n    tag_186:\n        /* \"RideDaoContract_flat.sol\":4715:4734  _requireNotPaused() */\n      tag_270\n        /* \"RideDaoContract_flat.sol\":4715:4732  _requireNotPaused */\n      tag_271\n        /* \"RideDaoContract_flat.sol\":4715:4734  _requireNotPaused() */\n      jump\t// in\n    tag_270:\n        /* \"RideDaoContract_flat.sol\":5731:5735  true */\n      0x01\n        /* \"RideDaoContract_flat.sol\":5721:5728  _paused */\n      0x05\n      0x00\n        /* \"RideDaoContract_flat.sol\":5721:5735  _paused = true */\n      0x0100\n      exp\n      dup2\n      sload\n      dup2\n      0xff\n      mul\n      not\n      and\n      swap1\n      dup4\n      iszero\n      iszero\n      mul\n      or\n      swap1\n      sstore\n      pop\n        /* \"RideDaoContract_flat.sol\":5750:5770  Paused(_msgSender()) */\n      0x62e78cea01bee320cd4e420270b5ea74000d11b0c9f74754ebdbfc544b05a258\n        /* \"RideDaoContract_flat.sol\":5757:5769  _msgSender() */\n      tag_273\n        /* \"RideDaoContract_flat.sol\":5757:5767  _msgSender */\n      tag_138\n        /* \"RideDaoContract_flat.sol\":5757:5769  _msgSender() */\n      jump\t// in\n    tag_273:\n        /* \"RideDaoContract_flat.sol\":5750:5770  Paused(_msgSender()) */\n      mload(0x40)\n      tag_274\n      swap2\n      swap1\n      tag_101\n      jump\t// in\n    tag_274:\n      mload(0x40)\n      dup1\n      swap2\n      sub\n      swap1\n      log1\n        /* \"RideDaoContract_flat.sol\":5662:5777  function _pause() internal virtual whenNotPaused {... */\n      jump\t// out\n        /* \"RideDaoContract_flat.sol\":24079:24274  function _beforeTokenTransfer(... */\n    tag_239:\n        /* \"RideDaoContract_flat.sol\":4715:4734  _requireNotPaused() */\n      tag_276\n        /* \"RideDaoContract_flat.sol\":4715:4732  _requireNotPaused */\n      tag_271\n        /* \"RideDaoContract_flat.sol\":4715:4734  _requireNotPaused() */\n      jump\t// in\n    tag_276:\n        /* \"RideDaoContract_flat.sol\":24223:24267  super._beforeTokenTransfer(from, to, amount) */\n      tag_278\n        /* \"RideDaoContract_flat.sol\":24250:24254  from */\n      dup4\n        /* \"RideDaoContract_flat.sol\":24256:24258  to */\n      dup4\n        /* \"RideDaoContract_flat.sol\":24260:24266  amount */\n      dup4\n        /* \"RideDaoContract_flat.sol\":24223:24249  super._beforeTokenTransfer */\n      tag_128\n        /* \"RideDaoContract_flat.sol\":24223:24267  super._beforeTokenTransfer(from, to, amount) */\n      jump\t// in\n    tag_278:\n        /* \"RideDaoContract_flat.sol\":24079:24274  function _beforeTokenTransfer(... */\n      pop\n      pop\n      pop\n      jump\t// out\n        /* \"RideDaoContract_flat.sol\":22346:22466  function _afterTokenTransfer(... */\n    tag_245:\n      pop\n      pop\n      pop\n      jump\t// out\n        /* \"RideDaoContract_flat.sol\":5421:5527  function _requirePaused() internal view virtual {... */\n    tag_254:\n        /* \"RideDaoContract_flat.sol\":5487:5495  paused() */\n      tag_281\n        /* \"RideDaoContract_flat.sol\":5487:5493  paused */\n      tag_75\n        /* \"RideDaoContract_flat.sol\":5487:5495  paused() */\n      jump\t// in\n    tag_281:\n        /* \"RideDaoContract_flat.sol\":5479:5520  require(paused(), \"Pausable: not paused\") */\n      tag_282\n      jumpi\n      mload(0x40)\n      0x08c379a000000000000000000000000000000000000000000000000000000000\n      dup2\n      mstore\n      0x04\n      add\n      tag_283\n      swap1\n      tag_284\n      jump\t// in\n    tag_283:\n      mload(0x40)\n      dup1\n      swap2\n      sub\n      swap1\n      revert\n    tag_282:\n        /* \"RideDaoContract_flat.sol\":5421:5527  function _requirePaused() internal view virtual {... */\n      jump\t// out\n        /* \"RideDaoContract_flat.sol\":5243:5349  function _requireNotPaused() internal view virtual {... */\n    tag_271:\n        /* \"RideDaoContract_flat.sol\":5313:5321  paused() */\n      tag_286\n        /* \"RideDaoContract_flat.sol\":5313:5319  paused */\n      tag_75\n        /* \"RideDaoContract_flat.sol\":5313:5321  paused() */\n      jump\t// in\n    tag_286:\n        /* \"RideDaoContract_flat.sol\":5312:5321  !paused() */\n      iszero\n        /* \"RideDaoContract_flat.sol\":5304:5342  require(!paused(), \"Pausable: paused\") */\n      tag_287\n      jumpi\n      mload(0x40)\n      0x08c379a000000000000000000000000000000000000000000000000000000000\n      dup2\n      mstore\n      0x04\n      add\n      tag_288\n      swap1\n      tag_289\n      jump\t// in\n    tag_288:\n      mload(0x40)\n      dup1\n      swap2\n      sub\n      swap1\n      revert\n    tag_287:\n        /* \"RideDaoContract_flat.sol\":5243:5349  function _requireNotPaused() internal view virtual {... */\n      jump\t// out\n        /* \"#utility.yul\":7:106   */\n    tag_290:\n        /* \"#utility.yul\":59:65   */\n      0x00\n        /* \"#utility.yul\":93:98   */\n      dup2\n        /* \"#utility.yul\":87:99   */\n      mload\n        /* \"#utility.yul\":77:99   */\n      swap1\n      pop\n        /* \"#utility.yul\":7:106   */\n      swap2\n      swap1\n      pop\n      jump\t// out\n        /* \"#utility.yul\":112:281   */\n    tag_291:\n        /* \"#utility.yul\":196:207   */\n      0x00\n        /* \"#utility.yul\":230:236   */\n      dup3\n        /* \"#utility.yul\":225:228   */\n      dup3\n        /* \"#utility.yul\":218:237   */\n      mstore\n        /* \"#utility.yul\":270:274   */\n      0x20\n        /* \"#utility.yul\":265:268   */\n      dup3\n        /* \"#utility.yul\":261:275   */\n      add\n        /* \"#utility.yul\":246:275   */\n      swap1\n      pop\n        /* \"#utility.yul\":112:281   */\n      swap3\n      swap2\n      pop\n      pop\n      jump\t// out\n        /* \"#utility.yul\":287:594   */\n    tag_292:\n        /* \"#utility.yul\":355:356   */\n      0x00\n        /* \"#utility.yul\":365:478   */\n    tag_346:\n        /* \"#utility.yul\":379:385   */\n      dup4\n        /* \"#utility.yul\":376:377   */\n      dup2\n        /* \"#utility.yul\":373:386   */\n      lt\n        /* \"#utility.yul\":365:478   */\n      iszero\n      tag_348\n      jumpi\n        /* \"#utility.yul\":464:465   */\n      dup1\n        /* \"#utility.yul\":459:462   */\n      dup3\n        /* \"#utility.yul\":455:466   */\n      add\n        /* \"#utility.yul\":449:467   */\n      mload\n        /* \"#utility.yul\":445:446   */\n      dup2\n        /* \"#utility.yul\":440:443   */\n      dup5\n        /* \"#utility.yul\":436:447   */\n      add\n        /* \"#utility.yul\":429:468   */\n      mstore\n        /* \"#utility.yul\":401:403   */\n      0x20\n        /* \"#utility.yul\":398:399   */\n      dup2\n        /* \"#utility.yul\":394:404   */\n      add\n        /* \"#utility.yul\":389:404   */\n      swap1\n      pop\n        /* \"#utility.yul\":365:478   */\n      jump(tag_346)\n    tag_348:\n        /* \"#utility.yul\":496:502   */\n      dup4\n        /* \"#utility.yul\":493:494   */\n      dup2\n        /* \"#utility.yul\":490:503   */\n      gt\n        /* \"#utility.yul\":487:588   */\n      iszero\n      tag_349\n      jumpi\n        /* \"#utility.yul\":576:577   */\n      0x00\n        /* \"#utility.yul\":567:573   */\n      dup5\n        /* \"#utility.yul\":562:565   */\n      dup5\n        /* \"#utility.yul\":558:574   */\n      add\n        /* \"#utility.yul\":551:578   */\n      mstore\n        /* \"#utility.yul\":487:588   */\n    tag_349:\n        /* \"#utility.yul\":336:594   */\n      pop\n        /* \"#utility.yul\":287:594   */\n      pop\n      pop\n      pop\n      jump\t// out\n        /* \"#utility.yul\":600:702   */\n    tag_293:\n        /* \"#utility.yul\":641:647   */\n      0x00\n        /* \"#utility.yul\":692:694   */\n      0x1f\n        /* \"#utility.yul\":688:695   */\n      not\n        /* \"#utility.yul\":683:685   */\n      0x1f\n        /* \"#utility.yul\":676:681   */\n      dup4\n        /* \"#utility.yul\":672:686   */\n      add\n        /* \"#utility.yul\":668:696   */\n      and\n        /* \"#utility.yul\":658:696   */\n      swap1\n      pop\n        /* \"#utility.yul\":600:702   */\n      swap2\n      swap1\n      pop\n      jump\t// out\n        /* \"#utility.yul\":708:1072   */\n    tag_294:\n        /* \"#utility.yul\":796:799   */\n      0x00\n        /* \"#utility.yul\":824:863   */\n      tag_352\n        /* \"#utility.yul\":857:862   */\n      dup3\n        /* \"#utility.yul\":824:863   */\n      tag_290\n      jump\t// in\n    tag_352:\n        /* \"#utility.yul\":879:950   */\n      tag_353\n        /* \"#utility.yul\":943:949   */\n      dup2\n        /* \"#utility.yul\":938:941   */\n      dup6\n        /* \"#utility.yul\":879:950   */\n      tag_291\n      jump\t// in\n    tag_353:\n        /* \"#utility.yul\":872:950   */\n      swap4\n      pop\n        /* \"#utility.yul\":959:1011   */\n      tag_354\n        /* \"#utility.yul\":1004:1010   */\n      dup2\n        /* \"#utility.yul\":999:1002   */\n      dup6\n        /* \"#utility.yul\":992:996   */\n      0x20\n        /* \"#utility.yul\":985:990   */\n      dup7\n        /* \"#utility.yul\":981:997   */\n      add\n        /* \"#utility.yul\":959:1011   */\n      tag_292\n      jump\t// in\n    tag_354:\n        /* \"#utility.yul\":1036:1065   */\n      tag_355\n        /* \"#utility.yul\":1058:1064   */\n      dup2\n        /* \"#utility.yul\":1036:1065   */\n      tag_293\n      jump\t// in\n    tag_355:\n        /* \"#utility.yul\":1031:1034   */\n      dup5\n        /* \"#utility.yul\":1027:1066   */\n      add\n        /* \"#utility.yul\":1020:1066   */\n      swap2\n      pop\n        /* \"#utility.yul\":800:1072   */\n      pop\n        /* \"#utility.yul\":708:1072   */\n      swap3\n      swap2\n      pop\n      pop\n      jump\t// out\n        /* \"#utility.yul\":1078:1391   */\n    tag_31:\n        /* \"#utility.yul\":1191:1195   */\n      0x00\n        /* \"#utility.yul\":1229:1231   */\n      0x20\n        /* \"#utility.yul\":1218:1227   */\n      dup3\n        /* \"#utility.yul\":1214:1232   */\n      add\n        /* \"#utility.yul\":1206:1232   */\n      swap1\n      pop\n        /* \"#utility.yul\":1278:1287   */\n      dup2\n        /* \"#utility.yul\":1272:1276   */\n      dup2\n        /* \"#utility.yul\":1268:1288   */\n      sub\n        /* \"#utility.yul\":1264:1265   */\n      0x00\n        /* \"#utility.yul\":1253:1262   */\n      dup4\n        /* \"#utility.yul\":1249:1266   */\n      add\n        /* \"#utility.yul\":1242:1289   */\n      mstore\n        /* \"#utility.yul\":1306:1384   */\n      tag_357\n        /* \"#utility.yul\":1379:1383   */\n      dup2\n        /* \"#utility.yul\":1370:1376   */\n      dup5\n        /* \"#utility.yul\":1306:1384   */\n      tag_294\n      jump\t// in\n    tag_357:\n        /* \"#utility.yul\":1298:1384   */\n      swap1\n      pop\n        /* \"#utility.yul\":1078:1391   */\n      swap3\n      swap2\n      pop\n      pop\n      jump\t// out\n        /* \"#utility.yul\":1478:1595   */\n    tag_296:\n        /* \"#utility.yul\":1587:1588   */\n      0x00\n        /* \"#utility.yul\":1584:1585   */\n      dup1\n        /* \"#utility.yul\":1577:1589   */\n      revert\n        /* \"#utility.yul\":1724:1850   */\n    tag_298:\n        /* \"#utility.yul\":1761:1768   */\n      0x00\n        /* \"#utility.yul\":1801:1843   */\n      0xffffffffffffffffffffffffffffffffffffffff\n        /* \"#utility.yul\":1794:1799   */\n      dup3\n        /* \"#utility.yul\":1790:1844   */\n      and\n        /* \"#utility.yul\":1779:1844   */\n      swap1\n      pop\n        /* \"#utility.yul\":1724:1850   */\n      swap2\n      swap1\n      pop\n      jump\t// out\n        /* \"#utility.yul\":1856:1952   */\n    tag_299:\n        /* \"#utility.yul\":1893:1900   */\n      0x00\n        /* \"#utility.yul\":1922:1946   */\n      tag_363\n        /* \"#utility.yul\":1940:1945   */\n      dup3\n        /* \"#utility.yul\":1922:1946   */\n      tag_298\n      jump\t// in\n    tag_363:\n        /* \"#utility.yul\":1911:1946   */\n      swap1\n      pop\n        /* \"#utility.yul\":1856:1952   */\n      swap2\n      swap1\n      pop\n      jump\t// out\n        /* \"#utility.yul\":1958:2080   */\n    tag_300:\n        /* \"#utility.yul\":2031:2055   */\n      tag_365\n        /* \"#utility.yul\":2049:2054   */\n      dup2\n        /* \"#utility.yul\":2031:2055   */\n      tag_299\n      jump\t// in\n    tag_365:\n        /* \"#utility.yul\":2024:2029   */\n      dup2\n        /* \"#utility.yul\":2021:2056   */\n      eq\n        /* \"#utility.yul\":2011:2074   */\n      tag_366\n      jumpi\n        /* \"#utility.yul\":2070:2071   */\n      0x00\n        /* \"#utility.yul\":2067:2068   */\n      dup1\n        /* \"#utility.yul\":2060:2072   */\n      revert\n        /* \"#utility.yul\":2011:2074   */\n    tag_366:\n        /* \"#utility.yul\":1958:2080   */\n      pop\n      jump\t// out\n        /* \"#utility.yul\":2086:2225   */\n    tag_301:\n        /* \"#utility.yul\":2132:2137   */\n      0x00\n        /* \"#utility.yul\":2170:2176   */\n      dup2\n        /* \"#utility.yul\":2157:2177   */\n      calldataload\n        /* \"#utility.yul\":2148:2177   */\n      swap1\n      pop\n        /* \"#utility.yul\":2186:2219   */\n      tag_368\n        /* \"#utility.yul\":2213:2218   */\n      dup2\n        /* \"#utility.yul\":2186:2219   */\n      tag_300\n      jump\t// in\n    tag_368:\n        /* \"#utility.yul\":2086:2225   */\n      swap3\n      swap2\n      pop\n      pop\n      jump\t// out\n        /* \"#utility.yul\":2231:2308   */\n    tag_302:\n        /* \"#utility.yul\":2268:2275   */\n      0x00\n        /* \"#utility.yul\":2297:2302   */\n      dup2\n        /* \"#utility.yul\":2286:2302   */\n      swap1\n      pop\n        /* \"#utility.yul\":2231:2308   */\n      swap2\n      swap1\n      pop\n      jump\t// out\n        /* \"#utility.yul\":2314:2436   */\n    tag_303:\n        /* \"#utility.yul\":2387:2411   */\n      tag_371\n        /* \"#utility.yul\":2405:2410   */\n      dup2\n        /* \"#utility.yul\":2387:2411   */\n      tag_302\n      jump\t// in\n    tag_371:\n        /* \"#utility.yul\":2380:2385   */\n      dup2\n        /* \"#utility.yul\":2377:2412   */\n      eq\n        /* \"#utility.yul\":2367:2430   */\n      tag_372\n      jumpi\n        /* \"#utility.yul\":2426:2427   */\n      0x00\n        /* \"#utility.yul\":2423:2424   */\n      dup1\n        /* \"#utility.yul\":2416:2428   */\n      revert\n        /* \"#utility.yul\":2367:2430   */\n    tag_372:\n        /* \"#utility.yul\":2314:2436   */\n      pop\n      jump\t// out\n        /* \"#utility.yul\":2442:2581   */\n    tag_304:\n        /* \"#utility.yul\":2488:2493   */\n      0x00\n        /* \"#utility.yul\":2526:2532   */\n      dup2\n        /* \"#utility.yul\":2513:2533   */\n      calldataload\n        /* \"#utility.yul\":2504:2533   */\n      swap1\n      pop\n        /* \"#utility.yul\":2542:2575   */\n      tag_374\n        /* \"#utility.yul\":2569:2574   */\n      dup2\n        /* \"#utility.yul\":2542:2575   */\n      tag_303\n      jump\t// in\n    tag_374:\n        /* \"#utility.yul\":2442:2581   */\n      swap3\n      swap2\n      pop\n      pop\n      jump\t// out\n        /* \"#utility.yul\":2587:3061   */\n    tag_35:\n        /* \"#utility.yul\":2655:2661   */\n      0x00\n        /* \"#utility.yul\":2663:2669   */\n      dup1\n        /* \"#utility.yul\":2712:2714   */\n      0x40\n        /* \"#utility.yul\":2700:2709   */\n      dup4\n        /* \"#utility.yul\":2691:2698   */\n      dup6\n        /* \"#utility.yul\":2687:2710   */\n      sub\n        /* \"#utility.yul\":2683:2715   */\n      slt\n        /* \"#utility.yul\":2680:2799   */\n      iszero\n      tag_376\n      jumpi\n        /* \"#utility.yul\":2718:2797   */\n      tag_377\n      tag_296\n      jump\t// in\n    tag_377:\n        /* \"#utility.yul\":2680:2799   */\n    tag_376:\n        /* \"#utility.yul\":2838:2839   */\n      0x00\n        /* \"#utility.yul\":2863:2916   */\n      tag_378\n        /* \"#utility.yul\":2908:2915   */\n      dup6\n        /* \"#utility.yul\":2899:2905   */\n      dup3\n        /* \"#utility.yul\":2888:2897   */\n      dup7\n        /* \"#utility.yul\":2884:2906   */\n      add\n        /* \"#utility.yul\":2863:2916   */\n      tag_301\n      jump\t// in\n    tag_378:\n        /* \"#utility.yul\":2853:2916   */\n      swap3\n      pop\n        /* \"#utility.yul\":2809:2926   */\n      pop\n        /* \"#utility.yul\":2965:2967   */\n      0x20\n        /* \"#utility.yul\":2991:3044   */\n      tag_379\n        /* \"#utility.yul\":3036:3043   */\n      dup6\n        /* \"#utility.yul\":3027:3033   */\n      dup3\n        /* \"#utility.yul\":3016:3025   */\n      dup7\n        /* \"#utility.yul\":3012:3034   */\n      add\n        /* \"#utility.yul\":2991:3044   */\n      tag_304\n      jump\t// in\n    tag_379:\n        /* \"#utility.yul\":2981:3044   */\n      swap2\n      pop\n        /* \"#utility.yul\":2936:3054   */\n      pop\n        /* \"#utility.yul\":2587:3061   */\n      swap3\n      pop\n      swap3\n      swap1\n      pop\n      jump\t// out\n        /* \"#utility.yul\":3067:3157   */\n    tag_305:\n        /* \"#utility.yul\":3101:3108   */\n      0x00\n        /* \"#utility.yul\":3144:3149   */\n      dup2\n        /* \"#utility.yul\":3137:3150   */\n      iszero\n        /* \"#utility.yul\":3130:3151   */\n      iszero\n        /* \"#utility.yul\":3119:3151   */\n      swap1\n      pop\n        /* \"#utility.yul\":3067:3157   */\n      swap2\n      swap1\n      pop\n      jump\t// out\n        /* \"#utility.yul\":3163:3272   */\n    tag_306:\n        /* \"#utility.yul\":3244:3265   */\n      tag_382\n        /* \"#utility.yul\":3259:3264   */\n      dup2\n        /* \"#utility.yul\":3244:3265   */\n      tag_305\n      jump\t// in\n    tag_382:\n        /* \"#utility.yul\":3239:3242   */\n      dup3\n        /* \"#utility.yul\":3232:3266   */\n      mstore\n        /* \"#utility.yul\":3163:3272   */\n      pop\n      pop\n      jump\t// out\n        /* \"#utility.yul\":3278:3488   */\n    tag_38:\n        /* \"#utility.yul\":3365:3369   */\n      0x00\n        /* \"#utility.yul\":3403:3405   */\n      0x20\n        /* \"#utility.yul\":3392:3401   */\n      dup3\n        /* \"#utility.yul\":3388:3406   */\n      add\n        /* \"#utility.yul\":3380:3406   */\n      swap1\n      pop\n        /* \"#utility.yul\":3416:3481   */\n      tag_384\n        /* \"#utility.yul\":3478:3479   */\n      0x00\n        /* \"#utility.yul\":3467:3476   */\n      dup4\n        /* \"#utility.yul\":3463:3480   */\n      add\n        /* \"#utility.yul\":3454:3460   */\n      dup5\n        /* \"#utility.yul\":3416:3481   */\n      tag_306\n      jump\t// in\n    tag_384:\n        /* \"#utility.yul\":3278:3488   */\n      swap3\n      swap2\n      pop\n      pop\n      jump\t// out\n        /* \"#utility.yul\":3494:3598   */\n    tag_307:\n        /* \"#utility.yul\":3539:3546   */\n      0x00\n        /* \"#utility.yul\":3568:3592   */\n      tag_386\n        /* \"#utility.yul\":3586:3591   */\n      dup3\n        /* \"#utility.yul\":3568:3592   */\n      tag_298\n      jump\t// in\n    tag_386:\n        /* \"#utility.yul\":3557:3592   */\n      swap1\n      pop\n        /* \"#utility.yul\":3494:3598   */\n      swap2\n      swap1\n      pop\n      jump\t// out\n        /* \"#utility.yul\":3604:3742   */\n    tag_308:\n        /* \"#utility.yul\":3685:3717   */\n      tag_388\n        /* \"#utility.yul\":3711:3716   */\n      dup2\n        /* \"#utility.yul\":3685:3717   */\n      tag_307\n      jump\t// in\n    tag_388:\n        /* \"#utility.yul\":3678:3683   */\n      dup2\n        /* \"#utility.yul\":3675:3718   */\n      eq\n        /* \"#utility.yul\":3665:3736   */\n      tag_389\n      jumpi\n        /* \"#utility.yul\":3732:3733   */\n      0x00\n        /* \"#utility.yul\":3729:3730   */\n      dup1\n        /* \"#utility.yul\":3722:3734   */\n      revert\n        /* \"#utility.yul\":3665:3736   */\n    tag_389:\n        /* \"#utility.yul\":3604:3742   */\n      pop\n      jump\t// out\n        /* \"#utility.yul\":3748:3903   */\n    tag_309:\n        /* \"#utility.yul\":3802:3807   */\n      0x00\n        /* \"#utility.yul\":3840:3846   */\n      dup2\n        /* \"#utility.yul\":3827:3847   */\n      calldataload\n        /* \"#utility.yul\":3818:3847   */\n      swap1\n      pop\n        /* \"#utility.yul\":3856:3897   */\n      tag_391\n        /* \"#utility.yul\":3891:3896   */\n      dup2\n        /* \"#utility.yul\":3856:3897   */\n      tag_308\n      jump\t// in\n    tag_391:\n        /* \"#utility.yul\":3748:3903   */\n      swap3\n      swap2\n      pop\n      pop\n      jump\t// out\n        /* \"#utility.yul\":3909:4399   */\n    tag_42:\n        /* \"#utility.yul\":3985:3991   */\n      0x00\n        /* \"#utility.yul\":3993:3999   */\n      dup1\n        /* \"#utility.yul\":4042:4044   */\n      0x40\n        /* \"#utility.yul\":4030:4039   */\n      dup4\n        /* \"#utility.yul\":4021:4028   */\n      dup6\n        /* \"#utility.yul\":4017:4040   */\n      sub\n        /* \"#utility.yul\":4013:4045   */\n      slt\n        /* \"#utility.yul\":4010:4129   */\n      iszero\n      tag_393\n      jumpi\n        /* \"#utility.yul\":4048:4127   */\n      tag_394\n      tag_296\n      jump\t// in\n    tag_394:\n        /* \"#utility.yul\":4010:4129   */\n    tag_393:\n        /* \"#utility.yul\":4168:4169   */\n      0x00\n        /* \"#utility.yul\":4193:4254   */\n      tag_395\n        /* \"#utility.yul\":4246:4253   */\n      dup6\n        /* \"#utility.yul\":4237:4243   */\n      dup3\n        /* \"#utility.yul\":4226:4235   */\n      dup7\n        /* \"#utility.yul\":4222:4244   */\n      add\n        /* \"#utility.yul\":4193:4254   */\n      tag_309\n      jump\t// in\n    tag_395:\n        /* \"#utility.yul\":4183:4254   */\n      swap3\n      pop\n        /* \"#utility.yul\":4139:4264   */\n      pop\n        /* \"#utility.yul\":4303:4305   */\n      0x20\n        /* \"#utility.yul\":4329:4382   */\n      tag_396\n        /* \"#utility.yul\":4374:4381   */\n      dup6\n        /* \"#utility.yul\":4365:4371   */\n      dup3\n        /* \"#utility.yul\":4354:4363   */\n      dup7\n        /* \"#utility.yul\":4350:4372   */\n      add\n        /* \"#utility.yul\":4329:4382   */\n      tag_304\n      jump\t// in\n    tag_396:\n        /* \"#utility.yul\":4319:4382   */\n      swap2\n      pop\n        /* \"#utility.yul\":4274:4392   */\n      pop\n        /* \"#utility.yul\":3909:4399   */\n      swap3\n      pop\n      swap3\n      swap1\n      pop\n      jump\t// out\n        /* \"#utility.yul\":4405:4523   */\n    tag_310:\n        /* \"#utility.yul\":4492:4516   */\n      tag_398\n        /* \"#utility.yul\":4510:4515   */\n      dup2\n        /* \"#utility.yul\":4492:4516   */\n      tag_302\n      jump\t// in\n    tag_398:\n        /* \"#utility.yul\":4487:4490   */\n      dup3\n        /* \"#utility.yul\":4480:4517   */\n      mstore\n        /* \"#utility.yul\":4405:4523   */\n      pop\n      pop\n      jump\t// out\n        /* \"#utility.yul\":4529:4751   */\n    tag_48:\n        /* \"#utility.yul\":4622:4626   */\n      0x00\n        /* \"#utility.yul\":4660:4662   */\n      0x20\n        /* \"#utility.yul\":4649:4658   */\n      dup3\n        /* \"#utility.yul\":4645:4663   */\n      add\n        /* \"#utility.yul\":4637:4663   */\n      swap1\n      pop\n        /* \"#utility.yul\":4673:4744   */\n      tag_400\n        /* \"#utility.yul\":4741:4742   */\n      0x00\n        /* \"#utility.yul\":4730:4739   */\n      dup4\n        /* \"#utility.yul\":4726:4743   */\n      add\n        /* \"#utility.yul\":4717:4723   */\n      dup5\n        /* \"#utility.yul\":4673:4744   */\n      tag_310\n      jump\t// in\n    tag_400:\n        /* \"#utility.yul\":4529:4751   */\n      swap3\n      swap2\n      pop\n      pop\n      jump\t// out\n        /* \"#utility.yul\":4757:5376   */\n    tag_52:\n        /* \"#utility.yul\":4834:4840   */\n      0x00\n        /* \"#utility.yul\":4842:4848   */\n      dup1\n        /* \"#utility.yul\":4850:4856   */\n      0x00\n        /* \"#utility.yul\":4899:4901   */\n      0x60\n        /* \"#utility.yul\":4887:4896   */\n      dup5\n        /* \"#utility.yul\":4878:4885   */\n      dup7\n        /* \"#utility.yul\":4874:4897   */\n      sub\n        /* \"#utility.yul\":4870:4902   */\n      slt\n        /* \"#utility.yul\":4867:4986   */\n      iszero\n      tag_402\n      jumpi\n        /* \"#utility.yul\":4905:4984   */\n      tag_403\n      tag_296\n      jump\t// in\n    tag_403:\n        /* \"#utility.yul\":4867:4986   */\n    tag_402:\n        /* \"#utility.yul\":5025:5026   */\n      0x00\n        /* \"#utility.yul\":5050:5103   */\n      tag_404\n        /* \"#utility.yul\":5095:5102   */\n      dup7\n        /* \"#utility.yul\":5086:5092   */\n      dup3\n        /* \"#utility.yul\":5075:5084   */\n      dup8\n        /* \"#utility.yul\":5071:5093   */\n      add\n        /* \"#utility.yul\":5050:5103   */\n      tag_301\n      jump\t// in\n    tag_404:\n        /* \"#utility.yul\":5040:5103   */\n      swap4\n      pop\n        /* \"#utility.yul\":4996:5113   */\n      pop\n        /* \"#utility.yul\":5152:5154   */\n      0x20\n        /* \"#utility.yul\":5178:5231   */\n      tag_405\n        /* \"#utility.yul\":5223:5230   */\n      dup7\n        /* \"#utility.yul\":5214:5220   */\n      dup3\n        /* \"#utility.yul\":5203:5212   */\n      dup8\n        /* \"#utility.yul\":5199:5221   */\n      add\n        /* \"#utility.yul\":5178:5231   */\n      tag_301\n      jump\t// in\n    tag_405:\n        /* \"#utility.yul\":5168:5231   */\n      swap3\n      pop\n        /* \"#utility.yul\":5123:5241   */\n      pop\n        /* \"#utility.yul\":5280:5282   */\n      0x40\n        /* \"#utility.yul\":5306:5359   */\n      tag_406\n        /* \"#utility.yul\":5351:5358   */\n      dup7\n        /* \"#utility.yul\":5342:5348   */\n      dup3\n        /* \"#utility.yul\":5331:5340   */\n      dup8\n        /* \"#utility.yul\":5327:5349   */\n      add\n        /* \"#utility.yul\":5306:5359   */\n      tag_304\n      jump\t// in\n    tag_406:\n        /* \"#utility.yul\":5296:5359   */\n      swap2\n      pop\n        /* \"#utility.yul\":5251:5369   */\n      pop\n        /* \"#utility.yul\":4757:5376   */\n      swap3\n      pop\n      swap3\n      pop\n      swap3\n      jump\t// out\n        /* \"#utility.yul\":5382:5468   */\n    tag_311:\n        /* \"#utility.yul\":5417:5424   */\n      0x00\n        /* \"#utility.yul\":5457:5461   */\n      0xff\n        /* \"#utility.yul\":5450:5455   */\n      dup3\n        /* \"#utility.yul\":5446:5462   */\n      and\n        /* \"#utility.yul\":5435:5462   */\n      swap1\n      pop\n        /* \"#utility.yul\":5382:5468   */\n      swap2\n      swap1\n      pop\n      jump\t// out\n        /* \"#utility.yul\":5474:5586   */\n    tag_312:\n        /* \"#utility.yul\":5557:5579   */\n      tag_409\n        /* \"#utility.yul\":5573:5578   */\n      dup2\n        /* \"#utility.yul\":5557:5579   */\n      tag_311\n      jump\t// in\n    tag_409:\n        /* \"#utility.yul\":5552:5555   */\n      dup3\n        /* \"#utility.yul\":5545:5580   */\n      mstore\n        /* \"#utility.yul\":5474:5586   */\n      pop\n      pop\n      jump\t// out\n        /* \"#utility.yul\":5592:5806   */\n    tag_59:\n        /* \"#utility.yul\":5681:5685   */\n      0x00\n        /* \"#utility.yul\":5719:5721   */\n      0x20\n        /* \"#utility.yul\":5708:5717   */\n      dup3\n        /* \"#utility.yul\":5704:5722   */\n      add\n        /* \"#utility.yul\":5696:5722   */\n      swap1\n      pop\n        /* \"#utility.yul\":5732:5799   */\n      tag_411\n        /* \"#utility.yul\":5796:5797   */\n      0x00\n        /* \"#utility.yul\":5785:5794   */\n      dup4\n        /* \"#utility.yul\":5781:5798   */\n      add\n        /* \"#utility.yul\":5772:5778   */\n      dup5\n        /* \"#utility.yul\":5732:5799   */\n      tag_312\n      jump\t// in\n    tag_411:\n        /* \"#utility.yul\":5592:5806   */\n      swap3\n      swap2\n      pop\n      pop\n      jump\t// out\n        /* \"#utility.yul\":5812:6141   */\n    tag_71:\n        /* \"#utility.yul\":5871:5877   */\n      0x00\n        /* \"#utility.yul\":5920:5922   */\n      0x20\n        /* \"#utility.yul\":5908:5917   */\n      dup3\n        /* \"#utility.yul\":5899:5906   */\n      dup5\n        /* \"#utility.yul\":5895:5918   */\n      sub\n        /* \"#utility.yul\":5891:5923   */\n      slt\n        /* \"#utility.yul\":5888:6007   */\n      iszero\n      tag_413\n      jumpi\n        /* \"#utility.yul\":5926:6005   */\n      tag_414\n      tag_296\n      jump\t// in\n    tag_414:\n        /* \"#utility.yul\":5888:6007   */\n    tag_413:\n        /* \"#utility.yul\":6046:6047   */\n      0x00\n        /* \"#utility.yul\":6071:6124   */\n      tag_415\n        /* \"#utility.yul\":6116:6123   */\n      dup5\n        /* \"#utility.yul\":6107:6113   */\n      dup3\n        /* \"#utility.yul\":6096:6105   */\n      dup6\n        /* \"#utility.yul\":6092:6114   */\n      add\n        /* \"#utility.yul\":6071:6124   */\n      tag_304\n      jump\t// in\n    tag_415:\n        /* \"#utility.yul\":6061:6124   */\n      swap2\n      pop\n        /* \"#utility.yul\":6017:6134   */\n      pop\n        /* \"#utility.yul\":5812:6141   */\n      swap3\n      swap2\n      pop\n      pop\n      jump\t// out\n        /* \"#utility.yul\":6147:6476   */\n    tag_80:\n        /* \"#utility.yul\":6206:6212   */\n      0x00\n        /* \"#utility.yul\":6255:6257   */\n      0x20\n        /* \"#utility.yul\":6243:6252   */\n      dup3\n        /* \"#utility.yul\":6234:6241   */\n      dup5\n        /* \"#utility.yul\":6230:6253   */\n      sub\n        /* \"#utility.yul\":6226:6258   */\n      slt\n        /* \"#utility.yul\":6223:6342   */\n      iszero\n      tag_417\n      jumpi\n        /* \"#utility.yul\":6261:6340   */\n      tag_418\n      tag_296\n      jump\t// in\n    tag_418:\n        /* \"#utility.yul\":6223:6342   */\n    tag_417:\n        /* \"#utility.yul\":6381:6382   */\n      0x00\n        /* \"#utility.yul\":6406:6459   */\n      tag_419\n        /* \"#utility.yul\":6451:6458   */\n      dup5\n        /* \"#utility.yul\":6442:6448   */\n      dup3\n        /* \"#utility.yul\":6431:6440   */\n      dup6\n        /* \"#utility.yul\":6427:6449   */\n      add\n        /* \"#utility.yul\":6406:6459   */\n      tag_301\n      jump\t// in\n    tag_419:\n        /* \"#utility.yul\":6396:6459   */\n      swap2\n      pop\n        /* \"#utility.yul\":6352:6469   */\n      pop\n        /* \"#utility.yul\":6147:6476   */\n      swap3\n      swap2\n      pop\n      pop\n      jump\t// out\n        /* \"#utility.yul\":6482:6600   */\n    tag_313:\n        /* \"#utility.yul\":6569:6593   */\n      tag_421\n        /* \"#utility.yul\":6587:6592   */\n      dup2\n        /* \"#utility.yul\":6569:6593   */\n      tag_299\n      jump\t// in\n    tag_421:\n        /* \"#utility.yul\":6564:6567   */\n      dup3\n        /* \"#utility.yul\":6557:6594   */\n      mstore\n        /* \"#utility.yul\":6482:6600   */\n      pop\n      pop\n      jump\t// out\n        /* \"#utility.yul\":6606:6828   */\n    tag_101:\n        /* \"#utility.yul\":6699:6703   */\n      0x00\n        /* \"#utility.yul\":6737:6739   */\n      0x20\n        /* \"#utility.yul\":6726:6735   */\n      dup3\n        /* \"#utility.yul\":6722:6740   */\n      add\n        /* \"#utility.yul\":6714:6740   */\n      swap1\n      pop\n        /* \"#utility.yul\":6750:6821   */\n      tag_423\n        /* \"#utility.yul\":6818:6819   */\n      0x00\n        /* \"#utility.yul\":6807:6816   */\n      dup4\n        /* \"#utility.yul\":6803:6820   */\n      add\n        /* \"#utility.yul\":6794:6800   */\n      dup5\n        /* \"#utility.yul\":6750:6821   */\n      tag_313\n      jump\t// in\n    tag_423:\n        /* \"#utility.yul\":6606:6828   */\n      swap3\n      swap2\n      pop\n      pop\n      jump\t// out\n        /* \"#utility.yul\":6834:7308   */\n    tag_119:\n        /* \"#utility.yul\":6902:6908   */\n      0x00\n        /* \"#utility.yul\":6910:6916   */\n      dup1\n        /* \"#utility.yul\":6959:6961   */\n      0x40\n        /* \"#utility.yul\":6947:6956   */\n      dup4\n        /* \"#utility.yul\":6938:6945   */\n      dup6\n        /* \"#utility.yul\":6934:6957   */\n      sub\n        /* \"#utility.yul\":6930:6962   */\n      slt\n        /* \"#utility.yul\":6927:7046   */\n      iszero\n      tag_425\n      jumpi\n        /* \"#utility.yul\":6965:7044   */\n      tag_426\n      tag_296\n      jump\t// in\n    tag_426:\n        /* \"#utility.yul\":6927:7046   */\n    tag_425:\n        /* \"#utility.yul\":7085:7086   */\n      0x00\n        /* \"#utility.yul\":7110:7163   */\n      tag_427\n        /* \"#utility.yul\":7155:7162   */\n      dup6\n        /* \"#utility.yul\":7146:7152   */\n      dup3\n        /* \"#utility.yul\":7135:7144   */\n      dup7\n        /* \"#utility.yul\":7131:7153   */\n      add\n        /* \"#utility.yul\":7110:7163   */\n      tag_301\n      jump\t// in\n    tag_427:\n        /* \"#utility.yul\":7100:7163   */\n      swap3\n      pop\n        /* \"#utility.yul\":7056:7173   */\n      pop\n        /* \"#utility.yul\":7212:7214   */\n      0x20\n        /* \"#utility.yul\":7238:7291   */\n      tag_428\n        /* \"#utility.yul\":7283:7290   */\n      dup6\n        /* \"#utility.yul\":7274:7280   */\n      dup3\n        /* \"#utility.yul\":7263:7272   */\n      dup7\n        /* \"#utility.yul\":7259:7281   */\n      add\n        /* \"#utility.yul\":7238:7291   */\n      tag_301\n      jump\t// in\n    tag_428:\n        /* \"#utility.yul\":7228:7291   */\n      swap2\n      pop\n        /* \"#utility.yul\":7183:7301   */\n      pop\n        /* \"#utility.yul\":6834:7308   */\n      swap3\n      pop\n      swap3\n      swap1\n      pop\n      jump\t// out\n        /* \"#utility.yul\":7314:7494   */\n    tag_314:\n        /* \"#utility.yul\":7362:7439   */\n      0x4e487b7100000000000000000000000000000000000000000000000000000000\n        /* \"#utility.yul\":7359:7360   */\n      0x00\n        /* \"#utility.yul\":7352:7440   */\n      mstore\n        /* \"#utility.yul\":7459:7463   */\n      0x22\n        /* \"#utility.yul\":7456:7457   */\n      0x04\n        /* \"#utility.yul\":7449:7464   */\n      mstore\n        /* \"#utility.yul\":7483:7487   */\n      0x24\n        /* \"#utility.yul\":7480:7481   */\n      0x00\n        /* \"#utility.yul\":7473:7488   */\n      revert\n        /* \"#utility.yul\":7500:7820   */\n    tag_131:\n        /* \"#utility.yul\":7544:7550   */\n      0x00\n        /* \"#utility.yul\":7581:7582   */\n      0x02\n        /* \"#utility.yul\":7575:7579   */\n      dup3\n        /* \"#utility.yul\":7571:7583   */\n      div\n        /* \"#utility.yul\":7561:7583   */\n      swap1\n      pop\n        /* \"#utility.yul\":7628:7629   */\n      0x01\n        /* \"#utility.yul\":7622:7626   */\n      dup3\n        /* \"#utility.yul\":7618:7630   */\n      and\n        /* \"#utility.yul\":7649:7667   */\n      dup1\n        /* \"#utility.yul\":7639:7720   */\n      tag_431\n      jumpi\n        /* \"#utility.yul\":7705:7709   */\n      0x7f\n        /* \"#utility.yul\":7697:7703   */\n      dup3\n        /* \"#utility.yul\":7693:7710   */\n      and\n        /* \"#utility.yul\":7683:7710   */\n      swap2\n      pop\n        /* \"#utility.yul\":7639:7720   */\n    tag_431:\n        /* \"#utility.yul\":7767:7769   */\n      0x20\n        /* \"#utility.yul\":7759:7765   */\n      dup3\n        /* \"#utility.yul\":7756:7770   */\n      lt\n        /* \"#utility.yul\":7736:7754   */\n      dup2\n        /* \"#utility.yul\":7733:7771   */\n      eq\n        /* \"#utility.yul\":7730:7814   */\n      iszero\n      tag_432\n      jumpi\n        /* \"#utility.yul\":7786:7804   */\n      tag_433\n      tag_314\n      jump\t// in\n    tag_433:\n        /* \"#utility.yul\":7730:7814   */\n    tag_432:\n        /* \"#utility.yul\":7551:7820   */\n      pop\n        /* \"#utility.yul\":7500:7820   */\n      swap2\n      swap1\n      pop\n      jump\t// out\n        /* \"#utility.yul\":7826:8006   */\n    tag_315:\n        /* \"#utility.yul\":7874:7951   */\n      0x4e487b7100000000000000000000000000000000000000000000000000000000\n        /* \"#utility.yul\":7871:7872   */\n      0x00\n        /* \"#utility.yul\":7864:7952   */\n      mstore\n        /* \"#utility.yul\":7971:7975   */\n      0x11\n        /* \"#utility.yul\":7968:7969   */\n      0x04\n        /* \"#utility.yul\":7961:7976   */\n      mstore\n        /* \"#utility.yul\":7995:7999   */\n      0x24\n        /* \"#utility.yul\":7992:7993   */\n      0x00\n        /* \"#utility.yul\":7985:8000   */\n      revert\n        /* \"#utility.yul\":8012:8317   */\n    tag_157:\n        /* \"#utility.yul\":8052:8055   */\n      0x00\n        /* \"#utility.yul\":8071:8091   */\n      tag_436\n        /* \"#utility.yul\":8089:8090   */\n      dup3\n        /* \"#utility.yul\":8071:8091   */\n      tag_302\n      jump\t// in\n    tag_436:\n        /* \"#utility.yul\":8066:8091   */\n      swap2\n      pop\n        /* \"#utility.yul\":8105:8125   */\n      tag_437\n        /* \"#utility.yul\":8123:8124   */\n      dup4\n        /* \"#utility.yul\":8105:8125   */\n      tag_302\n      jump\t// in\n    tag_437:\n        /* \"#utility.yul\":8100:8125   */\n      swap3\n      pop\n        /* \"#utility.yul\":8259:8260   */\n      dup3\n        /* \"#utility.yul\":8191:8257   */\n      0xffffffffffffffffffffffffffffffffffffffffffffffffffffffffffffffff\n        /* \"#utility.yul\":8187:8261   */\n      sub\n        /* \"#utility.yul\":8184:8185   */\n      dup3\n        /* \"#utility.yul\":8181:8262   */\n      gt\n        /* \"#utility.yul\":8178:8285   */\n      iszero\n      tag_438\n      jumpi\n        /* \"#utility.yul\":8265:8283   */\n      tag_439\n      tag_315\n      jump\t// in\n    tag_439:\n        /* \"#utility.yul\":8178:8285   */\n    tag_438:\n        /* \"#utility.yul\":8309:8310   */\n      dup3\n        /* \"#utility.yul\":8306:8307   */\n      dup3\n        /* \"#utility.yul\":8302:8311   */\n      add\n        /* \"#utility.yul\":8295:8311   */\n      swap1\n      pop\n        /* \"#utility.yul\":8012:8317   */\n      swap3\n      swap2\n      pop\n      pop\n      jump\t// out\n        /* \"#utility.yul\":8323:8547   */\n    tag_316:\n        /* \"#utility.yul\":8463:8497   */\n      0x45524332303a2064656372656173656420616c6c6f77616e63652062656c6f77\n        /* \"#utility.yul\":8459:8460   */\n      0x00\n        /* \"#utility.yul\":8451:8457   */\n      dup3\n        /* \"#utility.yul\":8447:8461   */\n      add\n        /* \"#utility.yul\":8440:8498   */\n      mstore\n        /* \"#utility.yul\":8532:8539   */\n      0x207a65726f000000000000000000000000000000000000000000000000000000\n        /* \"#utility.yul\":8527:8529   */\n      0x20\n        /* \"#utility.yul\":8519:8525   */\n      dup3\n        /* \"#utility.yul\":8515:8530   */\n      add\n        /* \"#utility.yul\":8508:8540   */\n      mstore\n        /* \"#utility.yul\":8323:8547   */\n      pop\n      jump\t// out\n        /* \"#utility.yul\":8553:8919   */\n    tag_317:\n        /* \"#utility.yul\":8695:8698   */\n      0x00\n        /* \"#utility.yul\":8716:8783   */\n      tag_442\n        /* \"#utility.yul\":8780:8782   */\n      0x25\n        /* \"#utility.yul\":8775:8778   */\n      dup4\n        /* \"#utility.yul\":8716:8783   */\n      tag_291\n      jump\t// in\n    tag_442:\n        /* \"#utility.yul\":8709:8783   */\n      swap2\n      pop\n        /* \"#utility.yul\":8792:8885   */\n      tag_443\n        /* \"#utility.yul\":8881:8884   */\n      dup3\n        /* \"#utility.yul\":8792:8885   */\n      tag_316\n      jump\t// in\n    tag_443:\n        /* \"#utility.yul\":8910:8912   */\n      0x40\n        /* \"#utility.yul\":8905:8908   */\n      dup3\n        /* \"#utility.yul\":8901:8913   */\n      add\n        /* \"#utility.yul\":8894:8913   */\n      swap1\n      pop\n        /* \"#utility.yul\":8553:8919   */\n      swap2\n      swap1\n      pop\n      jump\t// out\n        /* \"#utility.yul\":8925:9344   */\n    tag_199:\n        /* \"#utility.yul\":9091:9095   */\n      0x00\n        /* \"#utility.yul\":9129:9131   */\n      0x20\n        /* \"#utility.yul\":9118:9127   */\n      dup3\n        /* \"#utility.yul\":9114:9132   */\n      add\n        /* \"#utility.yul\":9106:9132   */\n      swap1\n      pop\n        /* \"#utility.yul\":9178:9187   */\n      dup2\n        /* \"#utility.yul\":9172:9176   */\n      dup2\n        /* \"#utility.yul\":9168:9188   */\n      sub\n        /* \"#utility.yul\":9164:9165   */\n      0x00\n        /* \"#utility.yul\":9153:9162   */\n      dup4\n        /* \"#utility.yul\":9149:9166   */\n      add\n        /* \"#utility.yul\":9142:9189   */\n      mstore\n        /* \"#utility.yul\":9206:9337   */\n      tag_445\n        /* \"#utility.yul\":9332:9336   */\n      dup2\n        /* \"#utility.yul\":9206:9337   */\n      tag_317\n      jump\t// in\n    tag_445:\n        /* \"#utility.yul\":9198:9337   */\n      swap1\n      pop\n        /* \"#utility.yul\":8925:9344   */\n      swap2\n      swap1\n      pop\n      jump\t// out\n        /* \"#utility.yul\":9350:9575   */\n    tag_318:\n        /* \"#utility.yul\":9490:9524   */\n      0x4f776e61626c653a206e6577206f776e657220697320746865207a65726f2061\n        /* \"#utility.yul\":9486:9487   */\n      0x00\n        /* \"#utility.yul\":9478:9484   */\n      dup3\n        /* \"#utility.yul\":9474:9488   */\n      add\n        /* \"#utility.yul\":9467:9525   */\n      mstore\n        /* \"#utility.yul\":9559:9567   */\n      0x6464726573730000000000000000000000000000000000000000000000000000\n        /* \"#utility.yul\":9554:9556   */\n      0x20\n        /* \"#utility.yul\":9546:9552   */\n      dup3\n        /* \"#utility.yul\":9542:9557   */\n      add\n        /* \"#utility.yul\":9535:9568   */\n      mstore\n        /* \"#utility.yul\":9350:9575   */\n      pop\n      jump\t// out\n        /* \"#utility.yul\":9581:9947   */\n    tag_319:\n        /* \"#utility.yul\":9723:9726   */\n      0x00\n        /* \"#utility.yul\":9744:9811   */\n      tag_448\n        /* \"#utility.yul\":9808:9810   */\n      0x26\n        /* \"#utility.yul\":9803:9806   */\n      dup4\n        /* \"#utility.yul\":9744:9811   */\n      tag_291\n      jump\t// in\n    tag_448:\n        /* \"#utility.yul\":9737:9811   */\n      swap2\n      pop\n        /* \"#utility.yul\":9820:9913   */\n      tag_449\n        /* \"#utility.yul\":9909:9912   */\n      dup3\n        /* \"#utility.yul\":9820:9913   */\n      tag_318\n      jump\t// in\n    tag_449:\n        /* \"#utility.yul\":9938:9940   */\n      0x40\n        /* \"#utility.yul\":9933:9936   */\n      dup3\n        /* \"#utility.yul\":9929:9941   */\n      add\n        /* \"#utility.yul\":9922:9941   */\n      swap1\n      pop\n        /* \"#utility.yul\":9581:9947   */\n      swap2\n      swap1\n      pop\n      jump\t// out\n        /* \"#utility.yul\":9953:10372   */\n    tag_212:\n        /* \"#utility.yul\":10119:10123   */\n      0x00\n        /* \"#utility.yul\":10157:10159   */\n      0x20\n        /* \"#utility.yul\":10146:10155   */\n      dup3\n        /* \"#utility.yul\":10142:10160   */\n      add\n        /* \"#utility.yul\":10134:10160   */\n      swap1\n      pop\n        /* \"#utility.yul\":10206:10215   */\n      dup2\n        /* \"#utility.yul\":10200:10204   */\n      dup2\n        /* \"#utility.yul\":10196:10216   */\n      sub\n        /* \"#utility.yul\":10192:10193   */\n      0x00\n        /* \"#utility.yul\":10181:10190   */\n      dup4\n        /* \"#utility.yul\":10177:10194   */\n      add\n        /* \"#utility.yul\":10170:10217   */\n      mstore\n        /* \"#utility.yul\":10234:10365   */\n      tag_451\n        /* \"#utility.yul\":10360:10364   */\n      dup2\n        /* \"#utility.yul\":10234:10365   */\n      tag_319\n      jump\t// in\n    tag_451:\n        /* \"#utility.yul\":10226:10365   */\n      swap1\n      pop\n        /* \"#utility.yul\":9953:10372   */\n      swap2\n      swap1\n      pop\n      jump\t// out\n        /* \"#utility.yul\":10378:10601   */\n    tag_320:\n        /* \"#utility.yul\":10518:10552   */\n      0x45524332303a20617070726f76652066726f6d20746865207a65726f20616464\n        /* \"#utility.yul\":10514:10515   */\n      0x00\n        /* \"#utility.yul\":10506:10512   */\n      dup3\n        /* \"#utility.yul\":10502:10516   */\n      add\n        /* \"#utility.yul\":10495:10553   */\n      mstore\n        /* \"#utility.yul\":10587:10593   */\n      0x7265737300000000000000000000000000000000000000000000000000000000\n        /* \"#utility.yul\":10582:10584   */\n      0x20\n        /* \"#utility.yul\":10574:10580   */\n      dup3\n        /* \"#utility.yul\":10570:10585   */\n      add\n        /* \"#utility.yul\":10563:10594   */\n      mstore\n        /* \"#utility.yul\":10378:10601   */\n      pop\n      jump\t// out\n        /* \"#utility.yul\":10607:10973   */\n    tag_321:\n        /* \"#utility.yul\":10749:10752   */\n      0x00\n        /* \"#utility.yul\":10770:10837   */\n      tag_454\n        /* \"#utility.yul\":10834:10836   */\n      0x24\n        /* \"#utility.yul\":10829:10832   */\n      dup4\n        /* \"#utility.yul\":10770:10837   */\n      tag_291\n      jump\t// in\n    tag_454:\n        /* \"#utility.yul\":10763:10837   */\n      swap2\n      pop\n        /* \"#utility.yul\":10846:10939   */\n      tag_455\n        /* \"#utility.yul\":10935:10938   */\n      dup3\n        /* \"#utility.yul\":10846:10939   */\n      tag_320\n      jump\t// in\n    tag_455:\n        /* \"#utility.yul\":10964:10966   */\n      0x40\n        /* \"#utility.yul\":10959:10962   */\n      dup3\n        /* \"#utility.yul\":10955:10967   */\n      add\n        /* \"#utility.yul\":10948:10967   */\n      swap1\n      pop\n        /* \"#utility.yul\":10607:10973   */\n      swap2\n      swap1\n      pop\n      jump\t// out\n        /* \"#utility.yul\":10979:11398   */\n    tag_219:\n        /* \"#utility.yul\":11145:11149   */\n      0x00\n        /* \"#utility.yul\":11183:11185   */\n      0x20\n        /* \"#utility.yul\":11172:11181   */\n      dup3\n        /* \"#utility.yul\":11168:11186   */\n      add\n        /* \"#utility.yul\":11160:11186   */\n      swap1\n      pop\n        /* \"#utility.yul\":11232:11241   */\n      dup2\n        /* \"#utility.yul\":11226:11230   */\n      dup2\n        /* \"#utility.yul\":11222:11242   */\n      sub\n        /* \"#utility.yul\":11218:11219   */\n      0x00\n        /* \"#utility.yul\":11207:11216   */\n      dup4\n        /* \"#utility.yul\":11203:11220   */\n      add\n        /* \"#utility.yul\":11196:11243   */\n      mstore\n        /* \"#utility.yul\":11260:11391   */\n      tag_457\n        /* \"#utility.yul\":11386:11390   */\n      dup2\n        /* \"#utility.yul\":11260:11391   */\n      tag_321\n      jump\t// in\n    tag_457:\n        /* \"#utility.yul\":11252:11391   */\n      swap1\n      pop\n        /* \"#utility.yul\":10979:11398   */\n      swap2\n      swap1\n      pop\n      jump\t// out\n        /* \"#utility.yul\":11404:11625   */\n    tag_322:\n        /* \"#utility.yul\":11544:11578   */\n      0x45524332303a20617070726f766520746f20746865207a65726f206164647265\n        /* \"#utility.yul\":11540:11541   */\n      0x00\n        /* \"#utility.yul\":11532:11538   */\n      dup3\n        /* \"#utility.yul\":11528:11542   */\n      add\n        /* \"#utility.yul\":11521:11579   */\n      mstore\n        /* \"#utility.yul\":11613:11617   */\n      0x7373000000000000000000000000000000000000000000000000000000000000\n        /* \"#utility.yul\":11608:11610   */\n      0x20\n        /* \"#utility.yul\":11600:11606   */\n      dup3\n        /* \"#utility.yul\":11596:11611   */\n      add\n        /* \"#utility.yul\":11589:11618   */\n      mstore\n        /* \"#utility.yul\":11404:11625   */\n      pop\n      jump\t// out\n        /* \"#utility.yul\":11631:11997   */\n    tag_323:\n        /* \"#utility.yul\":11773:11776   */\n      0x00\n        /* \"#utility.yul\":11794:11861   */\n      tag_460\n        /* \"#utility.yul\":11858:11860   */\n      0x22\n        /* \"#utility.yul\":11853:11856   */\n      dup4\n        /* \"#utility.yul\":11794:11861   */\n      tag_291\n      jump\t// in\n    tag_460:\n        /* \"#utility.yul\":11787:11861   */\n      swap2\n      pop\n        /* \"#utility.yul\":11870:11963   */\n      tag_461\n        /* \"#utility.yul\":11959:11962   */\n      dup3\n        /* \"#utility.yul\":11870:11963   */\n      tag_322\n      jump\t// in\n    tag_461:\n        /* \"#utility.yul\":11988:11990   */\n      0x40\n        /* \"#utility.yul\":11983:11986   */\n      dup3\n        /* \"#utility.yul\":11979:11991   */\n      add\n        /* \"#utility.yul\":11972:11991   */\n      swap1\n      pop\n        /* \"#utility.yul\":11631:11997   */\n      swap2\n      swap1\n      pop\n      jump\t// out\n        /* \"#utility.yul\":12003:12422   */\n    tag_222:\n        /* \"#utility.yul\":12169:12173   */\n      0x00\n        /* \"#utility.yul\":12207:12209   */\n      0x20\n        /* \"#utility.yul\":12196:12205   */\n      dup3\n        /* \"#utility.yul\":12192:12210   */\n      add\n        /* \"#utility.yul\":12184:12210   */\n      swap1\n      pop\n        /* \"#utility.yul\":12256:12265   */\n      dup2\n        /* \"#utility.yul\":12250:12254   */\n      dup2\n        /* \"#utility.yul\":12246:12266   */\n      sub\n        /* \"#utility.yul\":12242:12243   */\n      0x00\n        /* \"#utility.yul\":12231:12240   */\n      dup4\n        /* \"#utility.yul\":12227:12244   */\n      add\n        /* \"#utility.yul\":12220:12267   */\n      mstore\n        /* \"#utility.yul\":12284:12415   */\n      tag_463\n        /* \"#utility.yul\":12410:12414   */\n      dup2\n        /* \"#utility.yul\":12284:12415   */\n      tag_323\n      jump\t// in\n    tag_463:\n        /* \"#utility.yul\":12276:12415   */\n      swap1\n      pop\n        /* \"#utility.yul\":12003:12422   */\n      swap2\n      swap1\n      pop\n      jump\t// out\n        /* \"#utility.yul\":12428:12607   */\n    tag_324:\n        /* \"#utility.yul\":12568:12599   */\n      0x45524332303a20696e73756666696369656e7420616c6c6f77616e6365000000\n        /* \"#utility.yul\":12564:12565   */\n      0x00\n        /* \"#utility.yul\":12556:12562   */\n      dup3\n        /* \"#utility.yul\":12552:12566   */\n      add\n        /* \"#utility.yul\":12545:12600   */\n      mstore\n        /* \"#utility.yul\":12428:12607   */\n      pop\n      jump\t// out\n        /* \"#utility.yul\":12613:12979   */\n    tag_325:\n        /* \"#utility.yul\":12755:12758   */\n      0x00\n        /* \"#utility.yul\":12776:12843   */\n      tag_466\n        /* \"#utility.yul\":12840:12842   */\n      0x1d\n        /* \"#utility.yul\":12835:12838   */\n      dup4\n        /* \"#utility.yul\":12776:12843   */\n      tag_291\n      jump\t// in\n    tag_466:\n        /* \"#utility.yul\":12769:12843   */\n      swap2\n      pop\n        /* \"#utility.yul\":12852:12945   */\n      tag_467\n        /* \"#utility.yul\":12941:12944   */\n      dup3\n        /* \"#utility.yul\":12852:12945   */\n      tag_324\n      jump\t// in\n    tag_467:\n        /* \"#utility.yul\":12970:12972   */\n      0x20\n        /* \"#utility.yul\":12965:12968   */\n      dup3\n        /* \"#utility.yul\":12961:12973   */\n      add\n        /* \"#utility.yul\":12954:12973   */\n      swap1\n      pop\n        /* \"#utility.yul\":12613:12979   */\n      swap2\n      swap1\n      pop\n      jump\t// out\n        /* \"#utility.yul\":12985:13404   */\n    tag_229:\n        /* \"#utility.yul\":13151:13155   */\n      0x00\n        /* \"#utility.yul\":13189:13191   */\n      0x20\n        /* \"#utility.yul\":13178:13187   */\n      dup3\n        /* \"#utility.yul\":13174:13192   */\n      add\n        /* \"#utility.yul\":13166:13192   */\n      swap1\n      pop\n        /* \"#utility.yul\":13238:13247   */\n      dup2\n        /* \"#utility.yul\":13232:13236   */\n      dup2\n        /* \"#utility.yul\":13228:13248   */\n      sub\n        /* \"#utility.yul\":13224:13225   */\n      0x00\n        /* \"#utility.yul\":13213:13222   */\n      dup4\n        /* \"#utility.yul\":13209:13226   */\n      add\n        /* \"#utility.yul\":13202:13249   */\n      mstore\n        /* \"#utility.yul\":13266:13397   */\n      tag_469\n        /* \"#utility.yul\":13392:13396   */\n      dup2\n        /* \"#utility.yul\":13266:13397   */\n      tag_325\n      jump\t// in\n    tag_469:\n        /* \"#utility.yul\":13258:13397   */\n      swap1\n      pop\n        /* \"#utility.yul\":12985:13404   */\n      swap2\n      swap1\n      pop\n      jump\t// out\n        /* \"#utility.yul\":13410:13634   */\n    tag_326:\n        /* \"#utility.yul\":13550:13584   */\n      0x45524332303a207472616e736665722066726f6d20746865207a65726f206164\n        /* \"#utility.yul\":13546:13547   */\n      0x00\n        /* \"#utility.yul\":13538:13544   */\n      dup3\n        /* \"#utility.yul\":13534:13548   */\n      add\n        /* \"#utility.yul\":13527:13585   */\n      mstore\n        /* \"#utility.yul\":13619:13626   */\n      0x6472657373000000000000000000000000000000000000000000000000000000\n        /* \"#utility.yul\":13614:13616   */\n      0x20\n        /* \"#utility.yul\":13606:13612   */\n      dup3\n        /* \"#utility.yul\":13602:13617   */\n      add\n        /* \"#utility.yul\":13595:13627   */\n      mstore\n        /* \"#utility.yul\":13410:13634   */\n      pop\n      jump\t// out\n        /* \"#utility.yul\":13640:14006   */\n    tag_327:\n        /* \"#utility.yul\":13782:13785   */\n      0x00\n        /* \"#utility.yul\":13803:13870   */\n      tag_472\n        /* \"#utility.yul\":13867:13869   */\n      0x25\n        /* \"#utility.yul\":13862:13865   */\n      dup4\n        /* \"#utility.yul\":13803:13870   */\n      tag_291\n      jump\t// in\n    tag_472:\n        /* \"#utility.yul\":13796:13870   */\n      swap2\n      pop\n        /* \"#utility.yul\":13879:13972   */\n      tag_473\n        /* \"#utility.yul\":13968:13971   */\n      dup3\n        /* \"#utility.yul\":13879:13972   */\n      tag_326\n      jump\t// in\n    tag_473:\n        /* \"#utility.yul\":13997:13999   */\n      0x40\n        /* \"#utility.yul\":13992:13995   */\n      dup3\n        /* \"#utility.yul\":13988:14000   */\n      add\n        /* \"#utility.yul\":13981:14000   */\n      swap1\n      pop\n        /* \"#utility.yul\":13640:14006   */\n      swap2\n      swap1\n      pop\n      jump\t// out\n        /* \"#utility.yul\":14012:14431   */\n    tag_234:\n        /* \"#utility.yul\":14178:14182   */\n      0x00\n        /* \"#utility.yul\":14216:14218   */\n      0x20\n        /* \"#utility.yul\":14205:14214   */\n      dup3\n        /* \"#utility.yul\":14201:14219   */\n      add\n        /* \"#utility.yul\":14193:14219   */\n      swap1\n      pop\n        /* \"#utility.yul\":14265:14274   */\n      dup2\n        /* \"#utility.yul\":14259:14263   */\n      dup2\n        /* \"#utility.yul\":14255:14275   */\n      sub\n        /* \"#utility.yul\":14251:14252   */\n      0x00\n        /* \"#utility.yul\":14240:14249   */\n      dup4\n        /* \"#utility.yul\":14236:14253   */\n      add\n        /* \"#utility.yul\":14229:14276   */\n      mstore\n        /* \"#utility.yul\":14293:14424   */\n      tag_475\n        /* \"#utility.yul\":14419:14423   */\n      dup2\n        /* \"#utility.yul\":14293:14424   */\n      tag_327\n      jump\t// in\n    tag_475:\n        /* \"#utility.yul\":14285:14424   */\n      swap1\n      pop\n        /* \"#utility.yul\":14012:14431   */\n      swap2\n      swap1\n      pop\n      jump\t// out\n        /* \"#utility.yul\":14437:14659   */\n    tag_328:\n        /* \"#utility.yul\":14577:14611   */\n      0x45524332303a207472616e7366657220746f20746865207a65726f2061646472\n        /* \"#utility.yul\":14573:14574   */\n      0x00\n        /* \"#utility.yul\":14565:14571   */\n      dup3\n        /* \"#utility.yul\":14561:14575   */\n      add\n        /* \"#utility.yul\":14554:14612   */\n      mstore\n        /* \"#utility.yul\":14646:14651   */\n      0x6573730000000000000000000000000000000000000000000000000000000000\n        /* \"#utility.yul\":14641:14643   */\n      0x20\n        /* \"#utility.yul\":14633:14639   */\n      dup3\n        /* \"#utility.yul\":14629:14644   */\n      add\n        /* \"#utility.yul\":14622:14652   */\n      mstore\n        /* \"#utility.yul\":14437:14659   */\n      pop\n      jump\t// out\n        /* \"#utility.yul\":14665:15031   */\n    tag_329:\n        /* \"#utility.yul\":14807:14810   */\n      0x00\n        /* \"#utility.yul\":14828:14895   */\n      tag_478\n        /* \"#utility.yul\":14892:14894   */\n      0x23\n        /* \"#utility.yul\":14887:14890   */\n      dup4\n        /* \"#utility.yul\":14828:14895   */\n      tag_291\n      jump\t// in\n    tag_478:\n        /* \"#utility.yul\":14821:14895   */\n      swap2\n      pop\n        /* \"#utility.yul\":14904:14997   */\n      tag_479\n        /* \"#utility.yul\":14993:14996   */\n      dup3\n        /* \"#utility.yul\":14904:14997   */\n      tag_328\n      jump\t// in\n    tag_479:\n        /* \"#utility.yul\":15022:15024   */\n      0x40\n        /* \"#utility.yul\":15017:15020   */\n      dup3\n        /* \"#utility.yul\":15013:15025   */\n      add\n        /* \"#utility.yul\":15006:15025   */\n      swap1\n      pop\n        /* \"#utility.yul\":14665:15031   */\n      swap2\n      swap1\n      pop\n      jump\t// out\n        /* \"#utility.yul\":15037:15456   */\n    tag_237:\n        /* \"#utility.yul\":15203:15207   */\n      0x00\n        /* \"#utility.yul\":15241:15243   */\n      0x20\n        /* \"#utility.yul\":15230:15239   */\n      dup3\n        /* \"#utility.yul\":15226:15244   */\n      add\n        /* \"#utility.yul\":15218:15244   */\n      swap1\n      pop\n        /* \"#utility.yul\":15290:15299   */\n      dup2\n        /* \"#utility.yul\":15284:15288   */\n      dup2\n        /* \"#utility.yul\":15280:15300   */\n      sub\n        /* \"#utility.yul\":15276:15277   */\n      0x00\n        /* \"#utility.yul\":15265:15274   */\n      dup4\n        /* \"#utility.yul\":15261:15278   */\n      add\n        /* \"#utility.yul\":15254:15301   */\n      mstore\n        /* \"#utility.yul\":15318:15449   */\n      tag_481\n        /* \"#utility.yul\":15444:15448   */\n      dup2\n        /* \"#utility.yul\":15318:15449   */\n      tag_329\n      jump\t// in\n    tag_481:\n        /* \"#utility.yul\":15310:15449   */\n      swap1\n      pop\n        /* \"#utility.yul\":15037:15456   */\n      swap2\n      swap1\n      pop\n      jump\t// out\n        /* \"#utility.yul\":15462:15687   */\n    tag_330:\n        /* \"#utility.yul\":15602:15636   */\n      0x45524332303a207472616e7366657220616d6f756e7420657863656564732062\n        /* \"#utility.yul\":15598:15599   */\n      0x00\n        /* \"#utility.yul\":15590:15596   */\n      dup3\n        /* \"#utility.yul\":15586:15600   */\n      add\n        /* \"#utility.yul\":15579:15637   */\n      mstore\n        /* \"#utility.yul\":15671:15679   */\n      0x616c616e63650000000000000000000000000000000000000000000000000000\n        /* \"#utility.yul\":15666:15668   */\n      0x20\n        /* \"#utility.yul\":15658:15664   */\n      dup3\n        /* \"#utility.yul\":15654:15669   */\n      add\n        /* \"#utility.yul\":15647:15680   */\n      mstore\n        /* \"#utility.yul\":15462:15687   */\n      pop\n      jump\t// out\n        /* \"#utility.yul\":15693:16059   */\n    tag_331:\n        /* \"#utility.yul\":15835:15838   */\n      0x00\n        /* \"#utility.yul\":15856:15923   */\n      tag_484\n        /* \"#utility.yul\":15920:15922   */\n      0x26\n        /* \"#utility.yul\":15915:15918   */\n      dup4\n        /* \"#utility.yul\":15856:15923   */\n      tag_291\n      jump\t// in\n    tag_484:\n        /* \"#utility.yul\":15849:15923   */\n      swap2\n      pop\n        /* \"#utility.yul\":15932:16025   */\n      tag_485\n        /* \"#utility.yul\":16021:16024   */\n      dup3\n        /* \"#utility.yul\":15932:16025   */\n      tag_330\n      jump\t// in\n    tag_485:\n        /* \"#utility.yul\":16050:16052   */\n      0x40\n        /* \"#utility.yul\":16045:16048   */\n      dup3\n        /* \"#utility.yul\":16041:16053   */\n      add\n        /* \"#utility.yul\":16034:16053   */\n      swap1\n      pop\n        /* \"#utility.yul\":15693:16059   */\n      swap2\n      swap1\n      pop\n      jump\t// out\n        /* \"#utility.yul\":16065:16484   */\n    tag_242:\n        /* \"#utility.yul\":16231:16235   */\n      0x00\n        /* \"#utility.yul\":16269:16271   */\n      0x20\n        /* \"#utility.yul\":16258:16267   */\n      dup3\n        /* \"#utility.yul\":16254:16272   */\n      add\n        /* \"#utility.yul\":16246:16272   */\n      swap1\n      pop\n        /* \"#utility.yul\":16318:16327   */\n      dup2\n        /* \"#utility.yul\":16312:16316   */\n      dup2\n        /* \"#utility.yul\":16308:16328   */\n      sub\n        /* \"#utility.yul\":16304:16305   */\n      0x00\n        /* \"#utility.yul\":16293:16302   */\n      dup4\n        /* \"#utility.yul\":16289:16306   */\n      add\n        /* \"#utility.yul\":16282:16329   */\n      mstore\n        /* \"#utility.yul\":16346:16477   */\n      tag_487\n        /* \"#utility.yul\":16472:16476   */\n      dup2\n        /* \"#utility.yul\":16346:16477   */\n      tag_331\n      jump\t// in\n    tag_487:\n        /* \"#utility.yul\":16338:16477   */\n      swap1\n      pop\n        /* \"#utility.yul\":16065:16484   */\n      swap2\n      swap1\n      pop\n      jump\t// out\n        /* \"#utility.yul\":16490:16672   */\n    tag_332:\n        /* \"#utility.yul\":16630:16664   */\n      0x4f776e61626c653a2063616c6c6572206973206e6f7420746865206f776e6572\n        /* \"#utility.yul\":16626:16627   */\n      0x00\n        /* \"#utility.yul\":16618:16624   */\n      dup3\n        /* \"#utility.yul\":16614:16628   */\n      add\n        /* \"#utility.yul\":16607:16665   */\n      mstore\n        /* \"#utility.yul\":16490:16672   */\n      pop\n      jump\t// out\n        /* \"#utility.yul\":16678:17044   */\n    tag_333:\n        /* \"#utility.yul\":16820:16823   */\n      0x00\n        /* \"#utility.yul\":16841:16908   */\n      tag_490\n        /* \"#utility.yul\":16905:16907   */\n      0x20\n        /* \"#utility.yul\":16900:16903   */\n      dup4\n        /* \"#utility.yul\":16841:16908   */\n      tag_291\n      jump\t// in\n    tag_490:\n        /* \"#utility.yul\":16834:16908   */\n      swap2\n      pop\n        /* \"#utility.yul\":16917:17010   */\n      tag_491\n        /* \"#utility.yul\":17006:17009   */\n      dup3\n        /* \"#utility.yul\":16917:17010   */\n      tag_332\n      jump\t// in\n    tag_491:\n        /* \"#utility.yul\":17035:17037   */\n      0x20\n        /* \"#utility.yul\":17030:17033   */\n      dup3\n        /* \"#utility.yul\":17026:17038   */\n      add\n        /* \"#utility.yul\":17019:17038   */\n      swap1\n      pop\n        /* \"#utility.yul\":16678:17044   */\n      swap2\n      swap1\n      pop\n      jump\t// out\n        /* \"#utility.yul\":17050:17469   */\n    tag_251:\n        /* \"#utility.yul\":17216:17220   */\n      0x00\n        /* \"#utility.yul\":17254:17256   */\n      0x20\n        /* \"#utility.yul\":17243:17252   */\n      dup3\n        /* \"#utility.yul\":17239:17257   */\n      add\n        /* \"#utility.yul\":17231:17257   */\n      swap1\n      pop\n        /* \"#utility.yul\":17303:17312   */\n      dup2\n        /* \"#utility.yul\":17297:17301   */\n      dup2\n        /* \"#utility.yul\":17293:17313   */\n      sub\n        /* \"#utility.yul\":17289:17290   */\n      0x00\n        /* \"#utility.yul\":17278:17287   */\n      dup4\n        /* \"#utility.yul\":17274:17291   */\n      add\n        /* \"#utility.yul\":17267:17314   */\n      mstore\n        /* \"#utility.yul\":17331:17462   */\n      tag_493\n        /* \"#utility.yul\":17457:17461   */\n      dup2\n        /* \"#utility.yul\":17331:17462   */\n      tag_333\n      jump\t// in\n    tag_493:\n        /* \"#utility.yul\":17323:17462   */\n      swap1\n      pop\n        /* \"#utility.yul\":17050:17469   */\n      swap2\n      swap1\n      pop\n      jump\t// out\n        /* \"#utility.yul\":17475:17695   */\n    tag_334:\n        /* \"#utility.yul\":17615:17649   */\n      0x45524332303a206275726e2066726f6d20746865207a65726f20616464726573\n        /* \"#utility.yul\":17611:17612   */\n      0x00\n        /* \"#utility.yul\":17603:17609   */\n      dup3\n        /* \"#utility.yul\":17599:17613   */\n      add\n        /* \"#utility.yul\":17592:17650   */\n      mstore\n        /* \"#utility.yul\":17684:17687   */\n      0x7300000000000000000000000000000000000000000000000000000000000000\n        /* \"#utility.yul\":17679:17681   */\n      0x20\n        /* \"#utility.yul\":17671:17677   */\n      dup3\n        /* \"#utility.yul\":17667:17682   */\n      add\n        /* \"#utility.yul\":17660:17688   */\n      mstore\n        /* \"#utility.yul\":17475:17695   */\n      pop\n      jump\t// out\n        /* \"#utility.yul\":17701:18067   */\n    tag_335:\n        /* \"#utility.yul\":17843:17846   */\n      0x00\n        /* \"#utility.yul\":17864:17931   */\n      tag_496\n        /* \"#utility.yul\":17928:17930   */\n      0x21\n        /* \"#utility.yul\":17923:17926   */\n      dup4\n        /* \"#utility.yul\":17864:17931   */\n      tag_291\n      jump\t// in\n    tag_496:\n        /* \"#utility.yul\":17857:17931   */\n      swap2\n      pop\n        /* \"#utility.yul\":17940:18033   */\n      tag_497\n        /* \"#utility.yul\":18029:18032   */\n      dup3\n        /* \"#utility.yul\":17940:18033   */\n      tag_334\n      jump\t// in\n    tag_497:\n        /* \"#utility.yul\":18058:18060   */\n      0x40\n        /* \"#utility.yul\":18053:18056   */\n      dup3\n        /* \"#utility.yul\":18049:18061   */\n      add\n        /* \"#utility.yul\":18042:18061   */\n      swap1\n      pop\n        /* \"#utility.yul\":17701:18067   */\n      swap2\n      swap1\n      pop\n      jump\t// out\n        /* \"#utility.yul\":18073:18492   */\n    tag_261:\n        /* \"#utility.yul\":18239:18243   */\n      0x00\n        /* \"#utility.yul\":18277:18279   */\n      0x20\n        /* \"#utility.yul\":18266:18275   */\n      dup3\n        /* \"#utility.yul\":18262:18280   */\n      add\n        /* \"#utility.yul\":18254:18280   */\n      swap1\n      pop\n        /* \"#utility.yul\":18326:18335   */\n      dup2\n        /* \"#utility.yul\":18320:18324   */\n      dup2\n        /* \"#utility.yul\":18316:18336   */\n      sub\n        /* \"#utility.yul\":18312:18313   */\n      0x00\n        /* \"#utility.yul\":18301:18310   */\n      dup4\n        /* \"#utility.yul\":18297:18314   */\n      add\n        /* \"#utility.yul\":18290:18337   */\n      mstore\n        /* \"#utility.yul\":18354:18485   */\n      tag_499\n        /* \"#utility.yul\":18480:18484   */\n      dup2\n        /* \"#utility.yul\":18354:18485   */\n      tag_335\n      jump\t// in\n    tag_499:\n        /* \"#utility.yul\":18346:18485   */\n      swap1\n      pop\n        /* \"#utility.yul\":18073:18492   */\n      swap2\n      swap1\n      pop\n      jump\t// out\n        /* \"#utility.yul\":18498:18719   */\n    tag_336:\n        /* \"#utility.yul\":18638:18672   */\n      0x45524332303a206275726e20616d6f756e7420657863656564732062616c616e\n        /* \"#utility.yul\":18634:18635   */\n      0x00\n        /* \"#utility.yul\":18626:18632   */\n      dup3\n        /* \"#utility.yul\":18622:18636   */\n      add\n        /* \"#utility.yul\":18615:18673   */\n      mstore\n        /* \"#utility.yul\":18707:18711   */\n      0x6365000000000000000000000000000000000000000000000000000000000000\n        /* \"#utility.yul\":18702:18704   */\n      0x20\n        /* \"#utility.yul\":18694:18700   */\n      dup3\n        /* \"#utility.yul\":18690:18705   */\n      add\n        /* \"#utility.yul\":18683:18712   */\n      mstore\n        /* \"#utility.yul\":18498:18719   */\n      pop\n      jump\t// out\n        /* \"#utility.yul\":18725:19091   */\n    tag_337:\n        /* \"#utility.yul\":18867:18870   */\n      0x00\n        /* \"#utility.yul\":18888:18955   */\n      tag_502\n        /* \"#utility.yul\":18952:18954   */\n      0x22\n        /* \"#utility.yul\":18947:18950   */\n      dup4\n        /* \"#utility.yul\":18888:18955   */\n      tag_291\n      jump\t// in\n    tag_502:\n        /* \"#utility.yul\":18881:18955   */\n      swap2\n      pop\n        /* \"#utility.yul\":18964:19057   */\n      tag_503\n        /* \"#utility.yul\":19053:19056   */\n      dup3\n        /* \"#utility.yul\":18964:19057   */\n      tag_336\n      jump\t// in\n    tag_503:\n        /* \"#utility.yul\":19082:19084   */\n      0x40\n        /* \"#utility.yul\":19077:19080   */\n      dup3\n        /* \"#utility.yul\":19073:19085   */\n      add\n        /* \"#utility.yul\":19066:19085   */\n      swap1\n      pop\n        /* \"#utility.yul\":18725:19091   */\n      swap2\n      swap1\n      pop\n      jump\t// out\n        /* \"#utility.yul\":19097:19516   */\n    tag_265:\n        /* \"#utility.yul\":19263:19267   */\n      0x00\n        /* \"#utility.yul\":19301:19303   */\n      0x20\n        /* \"#utility.yul\":19290:19299   */\n      dup3\n        /* \"#utility.yul\":19286:19304   */\n      add\n        /* \"#utility.yul\":19278:19304   */\n      swap1\n      pop\n        /* \"#utility.yul\":19350:19359   */\n      dup2\n        /* \"#utility.yul\":19344:19348   */\n      dup2\n        /* \"#utility.yul\":19340:19360   */\n      sub\n        /* \"#utility.yul\":19336:19337   */\n      0x00\n        /* \"#utility.yul\":19325:19334   */\n      dup4\n        /* \"#utility.yul\":19321:19338   */\n      add\n        /* \"#utility.yul\":19314:19361   */\n      mstore\n        /* \"#utility.yul\":19378:19509   */\n      tag_505\n        /* \"#utility.yul\":19504:19508   */\n      dup2\n        /* \"#utility.yul\":19378:19509   */\n      tag_337\n      jump\t// in\n    tag_505:\n        /* \"#utility.yul\":19370:19509   */\n      swap1\n      pop\n        /* \"#utility.yul\":19097:19516   */\n      swap2\n      swap1\n      pop\n      jump\t// out\n        /* \"#utility.yul\":19522:19692   */\n    tag_338:\n        /* \"#utility.yul\":19662:19684   */\n      0x5061757361626c653a206e6f7420706175736564000000000000000000000000\n        /* \"#utility.yul\":19658:19659   */\n      0x00\n        /* \"#utility.yul\":19650:19656   */\n      dup3\n        /* \"#utility.yul\":19646:19660   */\n      add\n        /* \"#utility.yul\":19639:19685   */\n      mstore\n        /* \"#utility.yul\":19522:19692   */\n      pop\n      jump\t// out\n        /* \"#utility.yul\":19698:20064   */\n    tag_339:\n        /* \"#utility.yul\":19840:19843   */\n      0x00\n        /* \"#utility.yul\":19861:19928   */\n      tag_508\n        /* \"#utility.yul\":19925:19927   */\n      0x14\n        /* \"#utility.yul\":19920:19923   */\n      dup4\n        /* \"#utility.yul\":19861:19928   */\n      tag_291\n      jump\t// in\n    tag_508:\n        /* \"#utility.yul\":19854:19928   */\n      swap2\n      pop\n        /* \"#utility.yul\":19937:20030   */\n      tag_509\n        /* \"#utility.yul\":20026:20029   */\n      dup3\n        /* \"#utility.yul\":19937:20030   */\n      tag_338\n      jump\t// in\n    tag_509:\n        /* \"#utility.yul\":20055:20057   */\n      0x20\n        /* \"#utility.yul\":20050:20053   */\n      dup3\n        /* \"#utility.yul\":20046:20058   */\n      add\n        /* \"#utility.yul\":20039:20058   */\n      swap1\n      pop\n        /* \"#utility.yul\":19698:20064   */\n      swap2\n      swap1\n      pop\n      jump\t// out\n        /* \"#utility.yul\":20070:20489   */\n    tag_284:\n        /* \"#utility.yul\":20236:20240   */\n      0x00\n        /* \"#utility.yul\":20274:20276   */\n      0x20\n        /* \"#utility.yul\":20263:20272   */\n      dup3\n        /* \"#utility.yul\":20259:20277   */\n      add\n        /* \"#utility.yul\":20251:20277   */\n      swap1\n      pop\n        /* \"#utility.yul\":20323:20332   */\n      dup2\n        /* \"#utility.yul\":20317:20321   */\n      dup2\n        /* \"#utility.yul\":20313:20333   */\n      sub\n        /* \"#utility.yul\":20309:20310   */\n      0x00\n        /* \"#utility.yul\":20298:20307   */\n      dup4\n        /* \"#utility.yul\":20294:20311   */\n      add\n        /* \"#utility.yul\":20287:20334   */\n      mstore\n        /* \"#utility.yul\":20351:20482   */\n      tag_511\n        /* \"#utility.yul\":20477:20481   */\n      dup2\n        /* \"#utility.yul\":20351:20482   */\n      tag_339\n      jump\t// in\n    tag_511:\n        /* \"#utility.yul\":20343:20482   */\n      swap1\n      pop\n        /* \"#utility.yul\":20070:20489   */\n      swap2\n      swap1\n      pop\n      jump\t// out\n        /* \"#utility.yul\":20495:20661   */\n    tag_340:\n        /* \"#utility.yul\":20635:20653   */\n      0x5061757361626c653a2070617573656400000000000000000000000000000000\n        /* \"#utility.yul\":20631:20632   */\n      0x00\n        /* \"#utility.yul\":20623:20629   */\n      dup3\n        /* \"#utility.yul\":20619:20633   */\n      add\n        /* \"#utility.yul\":20612:20654   */\n      mstore\n        /* \"#utility.yul\":20495:20661   */\n      pop\n      jump\t// out\n        /* \"#utility.yul\":20667:21033   */\n    tag_341:\n        /* \"#utility.yul\":20809:20812   */\n      0x00\n        /* \"#utility.yul\":20830:20897   */\n      tag_514\n        /* \"#utility.yul\":20894:20896   */\n      0x10\n        /* \"#utility.yul\":20889:20892   */\n      dup4\n        /* \"#utility.yul\":20830:20897   */\n      tag_291\n      jump\t// in\n    tag_514:\n        /* \"#utility.yul\":20823:20897   */\n      swap2\n      pop\n        /* \"#utility.yul\":20906:20999   */\n      tag_515\n        /* \"#utility.yul\":20995:20998   */\n      dup3\n        /* \"#utility.yul\":20906:20999   */\n      tag_340\n      jump\t// in\n    tag_515:\n        /* \"#utility.yul\":21024:21026   */\n      0x20\n        /* \"#utility.yul\":21019:21022   */\n      dup3\n        /* \"#utility.yul\":21015:21027   */\n      add\n        /* \"#utility.yul\":21008:21027   */\n      swap1\n      pop\n        /* \"#utility.yul\":20667:21033   */\n      swap2\n      swap1\n      pop\n      jump\t// out\n        /* \"#utility.yul\":21039:21458   */\n    tag_289:\n        /* \"#utility.yul\":21205:21209   */\n      0x00\n        /* \"#utility.yul\":21243:21245   */\n      0x20\n        /* \"#utility.yul\":21232:21241   */\n      dup3\n        /* \"#utility.yul\":21228:21246   */\n      add\n        /* \"#utility.yul\":21220:21246   */\n      swap1\n      pop\n        /* \"#utility.yul\":21292:21301   */\n      dup2\n        /* \"#utility.yul\":21286:21290   */\n      dup2\n        /* \"#utility.yul\":21282:21302   */\n      sub\n        /* \"#utility.yul\":21278:21279   */\n      0x00\n        /* \"#utility.yul\":21267:21276   */\n      dup4\n        /* \"#utility.yul\":21263:21280   */\n      add\n        /* \"#utility.yul\":21256:21303   */\n      mstore\n        /* \"#utility.yul\":21320:21451   */\n      tag_517\n        /* \"#utility.yul\":21446:21450   */\n      dup2\n        /* \"#utility.yul\":21320:21451   */\n      tag_341\n      jump\t// in\n    tag_517:\n        /* \"#utility.yul\":21312:21451   */\n      swap1\n      pop\n        /* \"#utility.yul\":21039:21458   */\n      swap2\n      swap1\n      pop\n      jump\t// out\n\n    auxdata: 0xa26469706673582212201686b4fd52b3f558a17f935ba91622feb959ac9a287793b192ab1e64a845e76864736f6c63430008090033\n}\n",
				"bytecode": {
					"linkReferences": {},
					"object": "60806040523480156200001157600080fd5b506040518060400160405280600f81526020017f5269646544616f436f6e747261637400000000000000000000000000000000008152506040518060400160405280600481526020017f5249444f0000000000000000000000000000000000000000000000000000000081525081600390805190602001906200009692919062000422565b508060049080519060200190620000af92919062000422565b5050506000600560006101000a81548160ff021916908315150217905550620000ed620000e16200013a60201b60201c565b6200014260201b60201c565b6200013433620001026200020860201b60201c565b60106200011091906200066c565b6a295be96e64066972000000620001289190620006bd565b6200021160201b60201c565b62000903565b600033905090565b6000600560019054906101000a900473ffffffffffffffffffffffffffffffffffffffff16905081600560016101000a81548173ffffffffffffffffffffffffffffffffffffffff021916908373ffffffffffffffffffffffffffffffffffffffff1602179055508173ffffffffffffffffffffffffffffffffffffffff168173ffffffffffffffffffffffffffffffffffffffff167f8be0079c531659141344cd1fd0a4f28419497f9722a3daafe3b4186f6b6457e060405160405180910390a35050565b60006012905090565b600073ffffffffffffffffffffffffffffffffffffffff168273ffffffffffffffffffffffffffffffffffffffff16141562000284576040517f08c379a00000000000000000000000000000000000000000000000000000000081526004016200027b906200077f565b60405180910390fd5b62000298600083836200037f60201b60201c565b8060026000828254620002ac9190620007a1565b92505081905550806000808473ffffffffffffffffffffffffffffffffffffffff1673ffffffffffffffffffffffffffffffffffffffff168152602001908152602001600020600082825401925050819055508173ffffffffffffffffffffffffffffffffffffffff16600073ffffffffffffffffffffffffffffffffffffffff167fddf252ad1be2c89b69c2b068fc378daa952ba7f163c4a11628f55a4df523b3ef836040516200035f91906200080f565b60405180910390a36200037b60008383620003ac60201b60201c565b5050565b6200038f620003b160201b60201c565b620003a78383836200040660201b62000a121760201c565b505050565b505050565b620003c16200040b60201b60201c565b1562000404576040517f08c379a0000000000000000000000000000000000000000000000000000000008152600401620003fb906200087c565b60405180910390fd5b565b505050565b6000600560009054906101000a900460ff16905090565b8280546200043090620008cd565b90600052602060002090601f016020900481019282620004545760008555620004a0565b82601f106200046f57805160ff1916838001178555620004a0565b82800160010185558215620004a0579182015b828111156200049f57825182559160200191906001019062000482565b5b509050620004af9190620004b3565b5090565b5b80821115620004ce576000816000905550600101620004b4565b5090565b7f4e487b7100000000000000000000000000000000000000000000000000000000600052601160045260246000fd5b60008160011c9050919050565b6000808291508390505b60018511156200056057808604811115620005385762000537620004d2565b5b6001851615620005485780820291505b8081029050620005588562000501565b945062000518565b94509492505050565b6000826200057b57600190506200064e565b816200058b57600090506200064e565b8160018114620005a45760028114620005af57620005e5565b60019150506200064e565b60ff841115620005c457620005c3620004d2565b5b8360020a915084821115620005de57620005dd620004d2565b5b506200064e565b5060208310610133831016604e8410600b84101617156200061f5782820a905083811115620006195762000618620004d2565b5b6200064e565b6200062e84848460016200050e565b92509050818404811115620006485762000647620004d2565b5b81810290505b9392505050565b6000819050919050565b600060ff82169050919050565b6000620006798262000655565b915062000686836200065f565b9250620006b57fffffffffffffffffffffffffffffffffffffffffffffffffffffffffffffffff848462000569565b905092915050565b6000620006ca8262000655565b9150620006d78362000655565b9250817fffffffffffffffffffffffffffffffffffffffffffffffffffffffffffffffff0483118215151615620007135762000712620004d2565b5b828202905092915050565b600082825260208201905092915050565b7f45524332303a206d696e7420746f20746865207a65726f206164647265737300600082015250565b600062000767601f836200071e565b915062000774826200072f565b602082019050919050565b600060208201905081810360008301526200079a8162000758565b9050919050565b6000620007ae8262000655565b9150620007bb8362000655565b9250827fffffffffffffffffffffffffffffffffffffffffffffffffffffffffffffffff03821115620007f357620007f2620004d2565b5b828201905092915050565b620008098162000655565b82525050565b6000602082019050620008266000830184620007fe565b92915050565b7f5061757361626c653a2070617573656400000000000000000000000000000000600082015250565b6000620008646010836200071e565b915062000871826200082c565b602082019050919050565b60006020820190508181036000830152620008978162000855565b9050919050565b7f4e487b7100000000000000000000000000000000000000000000000000000000600052602260045260246000fd5b60006002820490506001821680620008e657607f821691505b60208210811415620008fd57620008fc6200089e565b5b50919050565b611f2480620009136000396000f3fe6080604052600436106101355760003560e01c8063715018a6116100ab57806395d89b411161006f57806395d89b41146103f0578063a457c2d71461041b578063a9059cbb14610458578063dd62ed3e14610495578063e8b5e51f146104d2578063f2fde38b146104dc57610135565b8063715018a614610343578063722713f71461035a57806379cc6790146103855780638456cb59146103ae5780638da5cb5b146103c557610135565b8063313ce567116100fd578063313ce56714610233578063395093511461025e5780633f4ba83a1461029b57806342966c68146102b25780635c975abb146102db57806370a082311461030657610135565b806306fdde031461013a578063095ea7b3146101655780631072cbea146101a257806318160ddd146101cb57806323b872dd146101f6575b600080fd5b34801561014657600080fd5b5061014f610505565b60405161015c919061140f565b60405180910390f35b34801561017157600080fd5b5061018c600480360381019061018791906114ca565b610597565b6040516101999190611525565b60405180910390f35b3480156101ae57600080fd5b506101c960048036038101906101c4919061157e565b6105ba565b005b3480156101d757600080fd5b506101e0610605565b6040516101ed91906115cd565b60405180910390f35b34801561020257600080fd5b5061021d600480360381019061021891906115e8565b61060f565b60405161022a9190611525565b60405180910390f35b34801561023f57600080fd5b5061024861063e565b6040516102559190611657565b60405180910390f35b34801561026a57600080fd5b50610285600480360381019061028091906114ca565b610647565b6040516102929190611525565b60405180910390f35b3480156102a757600080fd5b506102b061067e565b005b3480156102be57600080fd5b506102d960048036038101906102d49190611672565b610690565b005b3480156102e757600080fd5b506102f06106ac565b6040516102fd9190611525565b60405180910390f35b34801561031257600080fd5b5061032d6004803603810190610328919061169f565b6106c3565b60405161033a91906115cd565b60405180910390f35b34801561034f57600080fd5b5061035861070b565b005b34801561036657600080fd5b5061036f61071f565b60405161037c91906115cd565b60405180910390f35b34801561039157600080fd5b506103ac60048036038101906103a791906114ca565b610727565b005b3480156103ba57600080fd5b506103c3610747565b005b3480156103d157600080fd5b506103da610759565b6040516103e791906116db565b60405180910390f35b3480156103fc57600080fd5b50610405610783565b604051610412919061140f565b60405180910390f35b34801561042757600080fd5b50610442600480360381019061043d91906114ca565b610815565b60405161044f9190611525565b60405180910390f35b34801561046457600080fd5b5061047f600480360381019061047a91906114ca565b61088c565b60405161048c9190611525565b60405180910390f35b3480156104a157600080fd5b506104bc60048036038101906104b791906116f6565b6108af565b6040516104c991906115cd565b60405180910390f35b6104da610936565b005b3480156104e857600080fd5b5061050360048036038101906104fe919061169f565b61098e565b005b60606003805461051490611765565b80601f016020809104026020016040519081016040528092919081815260200182805461054090611765565b801561058d5780601f106105625761010080835404028352916020019161058d565b820191906000526020600020905b81548152906001019060200180831161057057829003601f168201915b5050505050905090565b6000806105a2610a17565b90506105af818585610a1f565b600191505092915050565b8173ffffffffffffffffffffffffffffffffffffffff166108fc829081150290604051600060405180830381858888f19350505050158015610600573d6000803e3d6000fd5b505050565b6000600254905090565b60008061061a610a17565b9050610627858285610bea565b610632858585610c76565b60019150509392505050565b60006012905090565b600080610652610a17565b905061067381858561066485896108af565b61066e91906117c6565b610a1f565b600191505092915050565b610686610eee565b61068e610f6c565b565b610698610eee565b6106a96106a3610a17565b82610fcf565b50565b6000600560009054906101000a900460ff16905090565b60008060008373ffffffffffffffffffffffffffffffffffffffff1673ffffffffffffffffffffffffffffffffffffffff168152602001908152602001600020549050919050565b610713610eee565b61071d600061119d565b565b600047905090565b61073982610733610a17565b83610bea565b6107438282610fcf565b5050565b61074f610eee565b610757611263565b565b6000600560019054906101000a900473ffffffffffffffffffffffffffffffffffffffff16905090565b60606004805461079290611765565b80601f01602080910402602001604051908101604052809291908181526020018280546107be90611765565b801561080b5780601f106107e05761010080835404028352916020019161080b565b820191906000526020600020905b8154815290600101906020018083116107ee57829003601f168201915b5050505050905090565b600080610820610a17565b9050600061082e82866108af565b905083811015610873576040517f08c379a000000000000000000000000000000000000000000000000000000000815260040161086a9061188e565b60405180910390fd5b6108808286868403610a1f565b60019250505092915050565b600080610897610a17565b90506108a4818585610c76565b600191505092915050565b6000600160008473ffffffffffffffffffffffffffffffffffffffff1673ffffffffffffffffffffffffffffffffffffffff16815260200190815260200160002060008373ffffffffffffffffffffffffffffffffffffffff1673ffffffffffffffffffffffffffffffffffffffff16815260200190815260200160002054905092915050565b34600660003373ffffffffffffffffffffffffffffffffffffffff1673ffffffffffffffffffffffffffffffffffffffff168152602001908152602001600020600082825461098591906117c6565b92505081905550565b610996610eee565b600073ffffffffffffffffffffffffffffffffffffffff168173ffffffffffffffffffffffffffffffffffffffff161415610a06576040517f08c379a00000000000000000000000000000000000000000000000000000000081526004016109fd90611920565b60405180910390fd5b610a0f8161119d565b50565b505050565b600033905090565b600073ffffffffffffffffffffffffffffffffffffffff168373ffffffffffffffffffffffffffffffffffffffff161415610a8f576040517f08c379a0000000000000000000000000000000000000000000000000000000008152600401610a86906119b2565b60405180910390fd5b600073ffffffffffffffffffffffffffffffffffffffff168273ffffffffffffffffffffffffffffffffffffffff161415610aff576040517f08c379a0000000000000000000000000000000000000000000000000000000008152600401610af690611a44565b60405180910390fd5b80600160008573ffffffffffffffffffffffffffffffffffffffff1673ffffffffffffffffffffffffffffffffffffffff16815260200190815260200160002060008473ffffffffffffffffffffffffffffffffffffffff1673ffffffffffffffffffffffffffffffffffffffff168152602001908152602001600020819055508173ffffffffffffffffffffffffffffffffffffffff168373ffffffffffffffffffffffffffffffffffffffff167f8c5be1e5ebec7d5bd14f71427d1e84f3dd0314c0f7b2291e5b200ac8c7c3b92583604051610bdd91906115cd565b60405180910390a3505050565b6000610bf684846108af565b90507fffffffffffffffffffffffffffffffffffffffffffffffffffffffffffffffff8114610c705781811015610c62576040517f08c379a0000000000000000000000000000000000000000000000000000000008152600401610c5990611ab0565b60405180910390fd5b610c6f8484848403610a1f565b5b50505050565b600073ffffffffffffffffffffffffffffffffffffffff168373ffffffffffffffffffffffffffffffffffffffff161415610ce6576040517f08c379a0000000000000000000000000000000000000000000000000000000008152600401610cdd90611b42565b60405180910390fd5b600073ffffffffffffffffffffffffffffffffffffffff168273ffffffffffffffffffffffffffffffffffffffff161415610d56576040517f08c379a0000000000000000000000000000000000000000000000000000000008152600401610d4d90611bd4565b60405180910390fd5b610d618383836112c6565b60008060008573ffffffffffffffffffffffffffffffffffffffff1673ffffffffffffffffffffffffffffffffffffffff16815260200190815260200160002054905081811015610de7576040517f08c379a0000000000000000000000000000000000000000000000000000000008152600401610dde90611c66565b60405180910390fd5b8181036000808673ffffffffffffffffffffffffffffffffffffffff1673ffffffffffffffffffffffffffffffffffffffff16815260200190815260200160002081905550816000808573ffffffffffffffffffffffffffffffffffffffff1673ffffffffffffffffffffffffffffffffffffffff168152602001908152602001600020600082825401925050819055508273ffffffffffffffffffffffffffffffffffffffff168473ffffffffffffffffffffffffffffffffffffffff167fddf252ad1be2c89b69c2b068fc378daa952ba7f163c4a11628f55a4df523b3ef84604051610ed591906115cd565b60405180910390a3610ee88484846112de565b50505050565b610ef6610a17565b73ffffffffffffffffffffffffffffffffffffffff16610f14610759565b73ffffffffffffffffffffffffffffffffffffffff1614610f6a576040517f08c379a0000000000000000000000000000000000000000000000000000000008152600401610f6190611cd2565b60405180910390fd5b565b610f746112e3565b6000600560006101000a81548160ff0219169083151502179055507f5db9ee0a495bf2e6ff9c91a7834c1ba4fdd244a5e8aa4e537bd38aeae4b073aa610fb8610a17565b604051610fc591906116db565b60405180910390a1565b600073ffffffffffffffffffffffffffffffffffffffff168273ffffffffffffffffffffffffffffffffffffffff16141561103f576040517f08c379a000000000000000000000000000000000000000000000000000000000815260040161103690611d64565b60405180910390fd5b61104b826000836112c6565b60008060008473ffffffffffffffffffffffffffffffffffffffff1673ffffffffffffffffffffffffffffffffffffffff168152602001908152602001600020549050818110156110d1576040517f08c379a00000000000000000000000000000000000000000000000000000000081526004016110c890611df6565b60405180910390fd5b8181036000808573ffffffffffffffffffffffffffffffffffffffff1673ffffffffffffffffffffffffffffffffffffffff1681526020019081526020016000208190555081600260008282540392505081905550600073ffffffffffffffffffffffffffffffffffffffff168373ffffffffffffffffffffffffffffffffffffffff167fddf252ad1be2c89b69c2b068fc378daa952ba7f163c4a11628f55a4df523b3ef8460405161118491906115cd565b60405180910390a3611198836000846112de565b505050565b6000600560019054906101000a900473ffffffffffffffffffffffffffffffffffffffff16905081600560016101000a81548173ffffffffffffffffffffffffffffffffffffffff021916908373ffffffffffffffffffffffffffffffffffffffff1602179055508173ffffffffffffffffffffffffffffffffffffffff168173ffffffffffffffffffffffffffffffffffffffff167f8be0079c531659141344cd1fd0a4f28419497f9722a3daafe3b4186f6b6457e060405160405180910390a35050565b61126b61132c565b6001600560006101000a81548160ff0219169083151502179055507f62e78cea01bee320cd4e420270b5ea74000d11b0c9f74754ebdbfc544b05a2586112af610a17565b6040516112bc91906116db565b60405180910390a1565b6112ce61132c565b6112d9838383610a12565b505050565b505050565b6112eb6106ac565b61132a576040517f08c379a000000000000000000000000000000000000000000000000000000000815260040161132190611e62565b60405180910390fd5b565b6113346106ac565b15611374576040517f08c379a000000000000000000000000000000000000000000000000000000000815260040161136b90611ece565b60405180910390fd5b565b600081519050919050565b600082825260208201905092915050565b60005b838110156113b0578082015181840152602081019050611395565b838111156113bf576000848401525b50505050565b6000601f19601f8301169050919050565b60006113e182611376565b6113eb8185611381565b93506113fb818560208601611392565b611404816113c5565b840191505092915050565b6000602082019050818103600083015261142981846113d6565b905092915050565b600080fd5b600073ffffffffffffffffffffffffffffffffffffffff82169050919050565b600061146182611436565b9050919050565b61147181611456565b811461147c57600080fd5b50565b60008135905061148e81611468565b92915050565b6000819050919050565b6114a781611494565b81146114b257600080fd5b50565b6000813590506114c48161149e565b92915050565b600080604083850312156114e1576114e0611431565b5b60006114ef8582860161147f565b9250506020611500858286016114b5565b9150509250929050565b60008115159050919050565b61151f8161150a565b82525050565b600060208201905061153a6000830184611516565b92915050565b600061154b82611436565b9050919050565b61155b81611540565b811461156657600080fd5b50565b60008135905061157881611552565b92915050565b6000806040838503121561159557611594611431565b5b60006115a385828601611569565b92505060206115b4858286016114b5565b9150509250929050565b6115c781611494565b82525050565b60006020820190506115e260008301846115be565b92915050565b60008060006060848603121561160157611600611431565b5b600061160f8682870161147f565b93505060206116208682870161147f565b9250506040611631868287016114b5565b9150509250925092565b600060ff82169050919050565b6116518161163b565b82525050565b600060208201905061166c6000830184611648565b92915050565b60006020828403121561168857611687611431565b5b6000611696848285016114b5565b91505092915050565b6000602082840312156116b5576116b4611431565b5b60006116c38482850161147f565b91505092915050565b6116d581611456565b82525050565b60006020820190506116f060008301846116cc565b92915050565b6000806040838503121561170d5761170c611431565b5b600061171b8582860161147f565b925050602061172c8582860161147f565b9150509250929050565b7f4e487b7100000000000000000000000000000000000000000000000000000000600052602260045260246000fd5b6000600282049050600182168061177d57607f821691505b6020821081141561179157611790611736565b5b50919050565b7f4e487b7100000000000000000000000000000000000000000000000000000000600052601160045260246000fd5b60006117d182611494565b91506117dc83611494565b9250827fffffffffffffffffffffffffffffffffffffffffffffffffffffffffffffffff0382111561181157611810611797565b5b828201905092915050565b7f45524332303a2064656372656173656420616c6c6f77616e63652062656c6f7760008201527f207a65726f000000000000000000000000000000000000000000000000000000602082015250565b6000611878602583611381565b91506118838261181c565b604082019050919050565b600060208201905081810360008301526118a78161186b565b9050919050565b7f4f776e61626c653a206e6577206f776e657220697320746865207a65726f206160008201527f6464726573730000000000000000000000000000000000000000000000000000602082015250565b600061190a602683611381565b9150611915826118ae565b604082019050919050565b60006020820190508181036000830152611939816118fd565b9050919050565b7f45524332303a20617070726f76652066726f6d20746865207a65726f2061646460008201527f7265737300000000000000000000000000000000000000000000000000000000602082015250565b600061199c602483611381565b91506119a782611940565b604082019050919050565b600060208201905081810360008301526119cb8161198f565b9050919050565b7f45524332303a20617070726f766520746f20746865207a65726f20616464726560008201527f7373000000000000000000000000000000000000000000000000000000000000602082015250565b6000611a2e602283611381565b9150611a39826119d2565b604082019050919050565b60006020820190508181036000830152611a5d81611a21565b9050919050565b7f45524332303a20696e73756666696369656e7420616c6c6f77616e6365000000600082015250565b6000611a9a601d83611381565b9150611aa582611a64565b602082019050919050565b60006020820190508181036000830152611ac981611a8d565b9050919050565b7f45524332303a207472616e736665722066726f6d20746865207a65726f20616460008201527f6472657373000000000000000000000000000000000000000000000000000000602082015250565b6000611b2c602583611381565b9150611b3782611ad0565b604082019050919050565b60006020820190508181036000830152611b5b81611b1f565b9050919050565b7f45524332303a207472616e7366657220746f20746865207a65726f206164647260008201527f6573730000000000000000000000000000000000000000000000000000000000602082015250565b6000611bbe602383611381565b9150611bc982611b62565b604082019050919050565b60006020820190508181036000830152611bed81611bb1565b9050919050565b7f45524332303a207472616e7366657220616d6f756e742065786365656473206260008201527f616c616e63650000000000000000000000000000000000000000000000000000602082015250565b6000611c50602683611381565b9150611c5b82611bf4565b604082019050919050565b60006020820190508181036000830152611c7f81611c43565b9050919050565b7f4f776e61626c653a2063616c6c6572206973206e6f7420746865206f776e6572600082015250565b6000611cbc602083611381565b9150611cc782611c86565b602082019050919050565b60006020820190508181036000830152611ceb81611caf565b9050919050565b7f45524332303a206275726e2066726f6d20746865207a65726f2061646472657360008201527f7300000000000000000000000000000000000000000000000000000000000000602082015250565b6000611d4e602183611381565b9150611d5982611cf2565b604082019050919050565b60006020820190508181036000830152611d7d81611d41565b9050919050565b7f45524332303a206275726e20616d6f756e7420657863656564732062616c616e60008201527f6365000000000000000000000000000000000000000000000000000000000000602082015250565b6000611de0602283611381565b9150611deb82611d84565b604082019050919050565b60006020820190508181036000830152611e0f81611dd3565b9050919050565b7f5061757361626c653a206e6f7420706175736564000000000000000000000000600082015250565b6000611e4c601483611381565b9150611e5782611e16565b602082019050919050565b60006020820190508181036000830152611e7b81611e3f565b9050919050565b7f5061757361626c653a2070617573656400000000000000000000000000000000600082015250565b6000611eb8601083611381565b9150611ec382611e82565b602082019050919050565b60006020820190508181036000830152611ee781611eab565b905091905056fea26469706673582212201686b4fd52b3f558a17f935ba91622feb959ac9a287793b192ab1e64a845e76864736f6c63430008090033",
					"opcodes": "PUSH1 0x80 PUSH1 0x40 MSTORE CALLVALUE DUP1 ISZERO PUSH3 0x11 JUMPI PUSH1 0x0 DUP1 REVERT JUMPDEST POP PUSH1 0x40 MLOAD DUP1 PUSH1 0x40 ADD PUSH1 0x40 MSTORE DUP1 PUSH1 0xF DUP2 MSTORE PUSH1 0x20 ADD PUSH32 0x5269646544616F436F6E74726163740000000000000000000000000000000000 DUP2 MSTORE POP PUSH1 0x40 MLOAD DUP1 PUSH1 0x40 ADD PUSH1 0x40 MSTORE DUP1 PUSH1 0x4 DUP2 MSTORE PUSH1 0x20 ADD PUSH32 0x5249444F00000000000000000000000000000000000000000000000000000000 DUP2 MSTORE POP DUP2 PUSH1 0x3 SWAP1 DUP1 MLOAD SWAP1 PUSH1 0x20 ADD SWAP1 PUSH3 0x96 SWAP3 SWAP2 SWAP1 PUSH3 0x422 JUMP JUMPDEST POP DUP1 PUSH1 0x4 SWAP1 DUP1 MLOAD SWAP1 PUSH1 0x20 ADD SWAP1 PUSH3 0xAF SWAP3 SWAP2 SWAP1 PUSH3 0x422 JUMP JUMPDEST POP POP POP PUSH1 0x0 PUSH1 0x5 PUSH1 0x0 PUSH2 0x100 EXP DUP2 SLOAD DUP2 PUSH1 0xFF MUL NOT AND SWAP1 DUP4 ISZERO ISZERO MUL OR SWAP1 SSTORE POP PUSH3 0xED PUSH3 0xE1 PUSH3 0x13A PUSH1 0x20 SHL PUSH1 0x20 SHR JUMP JUMPDEST PUSH3 0x142 PUSH1 0x20 SHL PUSH1 0x20 SHR JUMP JUMPDEST PUSH3 0x134 CALLER PUSH3 0x102 PUSH3 0x208 PUSH1 0x20 SHL PUSH1 0x20 SHR JUMP JUMPDEST PUSH1 0x10 PUSH3 0x110 SWAP2 SWAP1 PUSH3 0x66C JUMP JUMPDEST PUSH11 0x295BE96E64066972000000 PUSH3 0x128 SWAP2 SWAP1 PUSH3 0x6BD JUMP JUMPDEST PUSH3 0x211 PUSH1 0x20 SHL PUSH1 0x20 SHR JUMP JUMPDEST PUSH3 0x903 JUMP JUMPDEST PUSH1 0x0 CALLER SWAP1 POP SWAP1 JUMP JUMPDEST PUSH1 0x0 PUSH1 0x5 PUSH1 0x1 SWAP1 SLOAD SWAP1 PUSH2 0x100 EXP SWAP1 DIV PUSH20 0xFFFFFFFFFFFFFFFFFFFFFFFFFFFFFFFFFFFFFFFF AND SWAP1 POP DUP2 PUSH1 0x5 PUSH1 0x1 PUSH2 0x100 EXP DUP2 SLOAD DUP2 PUSH20 0xFFFFFFFFFFFFFFFFFFFFFFFFFFFFFFFFFFFFFFFF MUL NOT AND SWAP1 DUP4 PUSH20 0xFFFFFFFFFFFFFFFFFFFFFFFFFFFFFFFFFFFFFFFF AND MUL OR SWAP1 SSTORE POP DUP2 PUSH20 0xFFFFFFFFFFFFFFFFFFFFFFFFFFFFFFFFFFFFFFFF AND DUP2 PUSH20 0xFFFFFFFFFFFFFFFFFFFFFFFFFFFFFFFFFFFFFFFF AND PUSH32 0x8BE0079C531659141344CD1FD0A4F28419497F9722A3DAAFE3B4186F6B6457E0 PUSH1 0x40 MLOAD PUSH1 0x40 MLOAD DUP1 SWAP2 SUB SWAP1 LOG3 POP POP JUMP JUMPDEST PUSH1 0x0 PUSH1 0x12 SWAP1 POP SWAP1 JUMP JUMPDEST PUSH1 0x0 PUSH20 0xFFFFFFFFFFFFFFFFFFFFFFFFFFFFFFFFFFFFFFFF AND DUP3 PUSH20 0xFFFFFFFFFFFFFFFFFFFFFFFFFFFFFFFFFFFFFFFF AND EQ ISZERO PUSH3 0x284 JUMPI PUSH1 0x40 MLOAD PUSH32 0x8C379A000000000000000000000000000000000000000000000000000000000 DUP2 MSTORE PUSH1 0x4 ADD PUSH3 0x27B SWAP1 PUSH3 0x77F JUMP JUMPDEST PUSH1 0x40 MLOAD DUP1 SWAP2 SUB SWAP1 REVERT JUMPDEST PUSH3 0x298 PUSH1 0x0 DUP4 DUP4 PUSH3 0x37F PUSH1 0x20 SHL PUSH1 0x20 SHR JUMP JUMPDEST DUP1 PUSH1 0x2 PUSH1 0x0 DUP3 DUP3 SLOAD PUSH3 0x2AC SWAP2 SWAP1 PUSH3 0x7A1 JUMP JUMPDEST SWAP3 POP POP DUP2 SWAP1 SSTORE POP DUP1 PUSH1 0x0 DUP1 DUP5 PUSH20 0xFFFFFFFFFFFFFFFFFFFFFFFFFFFFFFFFFFFFFFFF AND PUSH20 0xFFFFFFFFFFFFFFFFFFFFFFFFFFFFFFFFFFFFFFFF AND DUP2 MSTORE PUSH1 0x20 ADD SWAP1 DUP2 MSTORE PUSH1 0x20 ADD PUSH1 0x0 KECCAK256 PUSH1 0x0 DUP3 DUP3 SLOAD ADD SWAP3 POP POP DUP2 SWAP1 SSTORE POP DUP2 PUSH20 0xFFFFFFFFFFFFFFFFFFFFFFFFFFFFFFFFFFFFFFFF AND PUSH1 0x0 PUSH20 0xFFFFFFFFFFFFFFFFFFFFFFFFFFFFFFFFFFFFFFFF AND PUSH32 0xDDF252AD1BE2C89B69C2B068FC378DAA952BA7F163C4A11628F55A4DF523B3EF DUP4 PUSH1 0x40 MLOAD PUSH3 0x35F SWAP2 SWAP1 PUSH3 0x80F JUMP JUMPDEST PUSH1 0x40 MLOAD DUP1 SWAP2 SUB SWAP1 LOG3 PUSH3 0x37B PUSH1 0x0 DUP4 DUP4 PUSH3 0x3AC PUSH1 0x20 SHL PUSH1 0x20 SHR JUMP JUMPDEST POP POP JUMP JUMPDEST PUSH3 0x38F PUSH3 0x3B1 PUSH1 0x20 SHL PUSH1 0x20 SHR JUMP JUMPDEST PUSH3 0x3A7 DUP4 DUP4 DUP4 PUSH3 0x406 PUSH1 0x20 SHL PUSH3 0xA12 OR PUSH1 0x20 SHR JUMP JUMPDEST POP POP POP JUMP JUMPDEST POP POP POP JUMP JUMPDEST PUSH3 0x3C1 PUSH3 0x40B PUSH1 0x20 SHL PUSH1 0x20 SHR JUMP JUMPDEST ISZERO PUSH3 0x404 JUMPI PUSH1 0x40 MLOAD PUSH32 0x8C379A000000000000000000000000000000000000000000000000000000000 DUP2 MSTORE PUSH1 0x4 ADD PUSH3 0x3FB SWAP1 PUSH3 0x87C JUMP JUMPDEST PUSH1 0x40 MLOAD DUP1 SWAP2 SUB SWAP1 REVERT JUMPDEST JUMP JUMPDEST POP POP POP JUMP JUMPDEST PUSH1 0x0 PUSH1 0x5 PUSH1 0x0 SWAP1 SLOAD SWAP1 PUSH2 0x100 EXP SWAP1 DIV PUSH1 0xFF AND SWAP1 POP SWAP1 JUMP JUMPDEST DUP3 DUP1 SLOAD PUSH3 0x430 SWAP1 PUSH3 0x8CD JUMP JUMPDEST SWAP1 PUSH1 0x0 MSTORE PUSH1 0x20 PUSH1 0x0 KECCAK256 SWAP1 PUSH1 0x1F ADD PUSH1 0x20 SWAP1 DIV DUP2 ADD SWAP3 DUP3 PUSH3 0x454 JUMPI PUSH1 0x0 DUP6 SSTORE PUSH3 0x4A0 JUMP JUMPDEST DUP3 PUSH1 0x1F LT PUSH3 0x46F JUMPI DUP1 MLOAD PUSH1 0xFF NOT AND DUP4 DUP1 ADD OR DUP6 SSTORE PUSH3 0x4A0 JUMP JUMPDEST DUP3 DUP1 ADD PUSH1 0x1 ADD DUP6 SSTORE DUP3 ISZERO PUSH3 0x4A0 JUMPI SWAP2 DUP3 ADD JUMPDEST DUP3 DUP2 GT ISZERO PUSH3 0x49F JUMPI DUP3 MLOAD DUP3 SSTORE SWAP2 PUSH1 0x20 ADD SWAP2 SWAP1 PUSH1 0x1 ADD SWAP1 PUSH3 0x482 JUMP JUMPDEST JUMPDEST POP SWAP1 POP PUSH3 0x4AF SWAP2 SWAP1 PUSH3 0x4B3 JUMP JUMPDEST POP SWAP1 JUMP JUMPDEST JUMPDEST DUP1 DUP3 GT ISZERO PUSH3 0x4CE JUMPI PUSH1 0x0 DUP2 PUSH1 0x0 SWAP1 SSTORE POP PUSH1 0x1 ADD PUSH3 0x4B4 JUMP JUMPDEST POP SWAP1 JUMP JUMPDEST PUSH32 0x4E487B7100000000000000000000000000000000000000000000000000000000 PUSH1 0x0 MSTORE PUSH1 0x11 PUSH1 0x4 MSTORE PUSH1 0x24 PUSH1 0x0 REVERT JUMPDEST PUSH1 0x0 DUP2 PUSH1 0x1 SHR SWAP1 POP SWAP2 SWAP1 POP JUMP JUMPDEST PUSH1 0x0 DUP1 DUP3 SWAP2 POP DUP4 SWAP1 POP JUMPDEST PUSH1 0x1 DUP6 GT ISZERO PUSH3 0x560 JUMPI DUP1 DUP7 DIV DUP2 GT ISZERO PUSH3 0x538 JUMPI PUSH3 0x537 PUSH3 0x4D2 JUMP JUMPDEST JUMPDEST PUSH1 0x1 DUP6 AND ISZERO PUSH3 0x548 JUMPI DUP1 DUP3 MUL SWAP2 POP JUMPDEST DUP1 DUP2 MUL SWAP1 POP PUSH3 0x558 DUP6 PUSH3 0x501 JUMP JUMPDEST SWAP5 POP PUSH3 0x518 JUMP JUMPDEST SWAP5 POP SWAP5 SWAP3 POP POP POP JUMP JUMPDEST PUSH1 0x0 DUP3 PUSH3 0x57B JUMPI PUSH1 0x1 SWAP1 POP PUSH3 0x64E JUMP JUMPDEST DUP2 PUSH3 0x58B JUMPI PUSH1 0x0 SWAP1 POP PUSH3 0x64E JUMP JUMPDEST DUP2 PUSH1 0x1 DUP2 EQ PUSH3 0x5A4 JUMPI PUSH1 0x2 DUP2 EQ PUSH3 0x5AF JUMPI PUSH3 0x5E5 JUMP JUMPDEST PUSH1 0x1 SWAP2 POP POP PUSH3 0x64E JUMP JUMPDEST PUSH1 0xFF DUP5 GT ISZERO PUSH3 0x5C4 JUMPI PUSH3 0x5C3 PUSH3 0x4D2 JUMP JUMPDEST JUMPDEST DUP4 PUSH1 0x2 EXP SWAP2 POP DUP5 DUP3 GT ISZERO PUSH3 0x5DE JUMPI PUSH3 0x5DD PUSH3 0x4D2 JUMP JUMPDEST JUMPDEST POP PUSH3 0x64E JUMP JUMPDEST POP PUSH1 0x20 DUP4 LT PUSH2 0x133 DUP4 LT AND PUSH1 0x4E DUP5 LT PUSH1 0xB DUP5 LT AND OR ISZERO PUSH3 0x61F JUMPI DUP3 DUP3 EXP SWAP1 POP DUP4 DUP2 GT ISZERO PUSH3 0x619 JUMPI PUSH3 0x618 PUSH3 0x4D2 JUMP JUMPDEST JUMPDEST PUSH3 0x64E JUMP JUMPDEST PUSH3 0x62E DUP5 DUP5 DUP5 PUSH1 0x1 PUSH3 0x50E JUMP JUMPDEST SWAP3 POP SWAP1 POP DUP2 DUP5 DIV DUP2 GT ISZERO PUSH3 0x648 JUMPI PUSH3 0x647 PUSH3 0x4D2 JUMP JUMPDEST JUMPDEST DUP2 DUP2 MUL SWAP1 POP JUMPDEST SWAP4 SWAP3 POP POP POP JUMP JUMPDEST PUSH1 0x0 DUP2 SWAP1 POP SWAP2 SWAP1 POP JUMP JUMPDEST PUSH1 0x0 PUSH1 0xFF DUP3 AND SWAP1 POP SWAP2 SWAP1 POP JUMP JUMPDEST PUSH1 0x0 PUSH3 0x679 DUP3 PUSH3 0x655 JUMP JUMPDEST SWAP2 POP PUSH3 0x686 DUP4 PUSH3 0x65F JUMP JUMPDEST SWAP3 POP PUSH3 0x6B5 PUSH32 0xFFFFFFFFFFFFFFFFFFFFFFFFFFFFFFFFFFFFFFFFFFFFFFFFFFFFFFFFFFFFFFFF DUP5 DUP5 PUSH3 0x569 JUMP JUMPDEST SWAP1 POP SWAP3 SWAP2 POP POP JUMP JUMPDEST PUSH1 0x0 PUSH3 0x6CA DUP3 PUSH3 0x655 JUMP JUMPDEST SWAP2 POP PUSH3 0x6D7 DUP4 PUSH3 0x655 JUMP JUMPDEST SWAP3 POP DUP2 PUSH32 0xFFFFFFFFFFFFFFFFFFFFFFFFFFFFFFFFFFFFFFFFFFFFFFFFFFFFFFFFFFFFFFFF DIV DUP4 GT DUP3 ISZERO ISZERO AND ISZERO PUSH3 0x713 JUMPI PUSH3 0x712 PUSH3 0x4D2 JUMP JUMPDEST JUMPDEST DUP3 DUP3 MUL SWAP1 POP SWAP3 SWAP2 POP POP JUMP JUMPDEST PUSH1 0x0 DUP3 DUP3 MSTORE PUSH1 0x20 DUP3 ADD SWAP1 POP SWAP3 SWAP2 POP POP JUMP JUMPDEST PUSH32 0x45524332303A206D696E7420746F20746865207A65726F206164647265737300 PUSH1 0x0 DUP3 ADD MSTORE POP JUMP JUMPDEST PUSH1 0x0 PUSH3 0x767 PUSH1 0x1F DUP4 PUSH3 0x71E JUMP JUMPDEST SWAP2 POP PUSH3 0x774 DUP3 PUSH3 0x72F JUMP JUMPDEST PUSH1 0x20 DUP3 ADD SWAP1 POP SWAP2 SWAP1 POP JUMP JUMPDEST PUSH1 0x0 PUSH1 0x20 DUP3 ADD SWAP1 POP DUP2 DUP2 SUB PUSH1 0x0 DUP4 ADD MSTORE PUSH3 0x79A DUP2 PUSH3 0x758 JUMP JUMPDEST SWAP1 POP SWAP2 SWAP1 POP JUMP JUMPDEST PUSH1 0x0 PUSH3 0x7AE DUP3 PUSH3 0x655 JUMP JUMPDEST SWAP2 POP PUSH3 0x7BB DUP4 PUSH3 0x655 JUMP JUMPDEST SWAP3 POP DUP3 PUSH32 0xFFFFFFFFFFFFFFFFFFFFFFFFFFFFFFFFFFFFFFFFFFFFFFFFFFFFFFFFFFFFFFFF SUB DUP3 GT ISZERO PUSH3 0x7F3 JUMPI PUSH3 0x7F2 PUSH3 0x4D2 JUMP JUMPDEST JUMPDEST DUP3 DUP3 ADD SWAP1 POP SWAP3 SWAP2 POP POP JUMP JUMPDEST PUSH3 0x809 DUP2 PUSH3 0x655 JUMP JUMPDEST DUP3 MSTORE POP POP JUMP JUMPDEST PUSH1 0x0 PUSH1 0x20 DUP3 ADD SWAP1 POP PUSH3 0x826 PUSH1 0x0 DUP4 ADD DUP5 PUSH3 0x7FE JUMP JUMPDEST SWAP3 SWAP2 POP POP JUMP JUMPDEST PUSH32 0x5061757361626C653A2070617573656400000000000000000000000000000000 PUSH1 0x0 DUP3 ADD MSTORE POP JUMP JUMPDEST PUSH1 0x0 PUSH3 0x864 PUSH1 0x10 DUP4 PUSH3 0x71E JUMP JUMPDEST SWAP2 POP PUSH3 0x871 DUP3 PUSH3 0x82C JUMP JUMPDEST PUSH1 0x20 DUP3 ADD SWAP1 POP SWAP2 SWAP1 POP JUMP JUMPDEST PUSH1 0x0 PUSH1 0x20 DUP3 ADD SWAP1 POP DUP2 DUP2 SUB PUSH1 0x0 DUP4 ADD MSTORE PUSH3 0x897 DUP2 PUSH3 0x855 JUMP JUMPDEST SWAP1 POP SWAP2 SWAP1 POP JUMP JUMPDEST PUSH32 0x4E487B7100000000000000000000000000000000000000000000000000000000 PUSH1 0x0 MSTORE PUSH1 0x22 PUSH1 0x4 MSTORE PUSH1 0x24 PUSH1 0x0 REVERT JUMPDEST PUSH1 0x0 PUSH1 0x2 DUP3 DIV SWAP1 POP PUSH1 0x1 DUP3 AND DUP1 PUSH3 0x8E6 JUMPI PUSH1 0x7F DUP3 AND SWAP2 POP JUMPDEST PUSH1 0x20 DUP3 LT DUP2 EQ ISZERO PUSH3 0x8FD JUMPI PUSH3 0x8FC PUSH3 0x89E JUMP JUMPDEST JUMPDEST POP SWAP2 SWAP1 POP JUMP JUMPDEST PUSH2 0x1F24 DUP1 PUSH3 0x913 PUSH1 0x0 CODECOPY PUSH1 0x0 RETURN INVALID PUSH1 0x80 PUSH1 0x40 MSTORE PUSH1 0x4 CALLDATASIZE LT PUSH2 0x135 JUMPI PUSH1 0x0 CALLDATALOAD PUSH1 0xE0 SHR DUP1 PUSH4 0x715018A6 GT PUSH2 0xAB JUMPI DUP1 PUSH4 0x95D89B41 GT PUSH2 0x6F JUMPI DUP1 PUSH4 0x95D89B41 EQ PUSH2 0x3F0 JUMPI DUP1 PUSH4 0xA457C2D7 EQ PUSH2 0x41B JUMPI DUP1 PUSH4 0xA9059CBB EQ PUSH2 0x458 JUMPI DUP1 PUSH4 0xDD62ED3E EQ PUSH2 0x495 JUMPI DUP1 PUSH4 0xE8B5E51F EQ PUSH2 0x4D2 JUMPI DUP1 PUSH4 0xF2FDE38B EQ PUSH2 0x4DC JUMPI PUSH2 0x135 JUMP JUMPDEST DUP1 PUSH4 0x715018A6 EQ PUSH2 0x343 JUMPI DUP1 PUSH4 0x722713F7 EQ PUSH2 0x35A JUMPI DUP1 PUSH4 0x79CC6790 EQ PUSH2 0x385 JUMPI DUP1 PUSH4 0x8456CB59 EQ PUSH2 0x3AE JUMPI DUP1 PUSH4 0x8DA5CB5B EQ PUSH2 0x3C5 JUMPI PUSH2 0x135 JUMP JUMPDEST DUP1 PUSH4 0x313CE567 GT PUSH2 0xFD JUMPI DUP1 PUSH4 0x313CE567 EQ PUSH2 0x233 JUMPI DUP1 PUSH4 0x39509351 EQ PUSH2 0x25E JUMPI DUP1 PUSH4 0x3F4BA83A EQ PUSH2 0x29B JUMPI DUP1 PUSH4 0x42966C68 EQ PUSH2 0x2B2 JUMPI DUP1 PUSH4 0x5C975ABB EQ PUSH2 0x2DB JUMPI DUP1 PUSH4 0x70A08231 EQ PUSH2 0x306 JUMPI PUSH2 0x135 JUMP JUMPDEST DUP1 PUSH4 0x6FDDE03 EQ PUSH2 0x13A JUMPI DUP1 PUSH4 0x95EA7B3 EQ PUSH2 0x165 JUMPI DUP1 PUSH4 0x1072CBEA EQ PUSH2 0x1A2 JUMPI DUP1 PUSH4 0x18160DDD EQ PUSH2 0x1CB JUMPI DUP1 PUSH4 0x23B872DD EQ PUSH2 0x1F6 JUMPI JUMPDEST PUSH1 0x0 DUP1 REVERT JUMPDEST CALLVALUE DUP1 ISZERO PUSH2 0x146 JUMPI PUSH1 0x0 DUP1 REVERT JUMPDEST POP PUSH2 0x14F PUSH2 0x505 JUMP JUMPDEST PUSH1 0x40 MLOAD PUSH2 0x15C SWAP2 SWAP1 PUSH2 0x140F JUMP JUMPDEST PUSH1 0x40 MLOAD DUP1 SWAP2 SUB SWAP1 RETURN JUMPDEST CALLVALUE DUP1 ISZERO PUSH2 0x171 JUMPI PUSH1 0x0 DUP1 REVERT JUMPDEST POP PUSH2 0x18C PUSH1 0x4 DUP1 CALLDATASIZE SUB DUP2 ADD SWAP1 PUSH2 0x187 SWAP2 SWAP1 PUSH2 0x14CA JUMP JUMPDEST PUSH2 0x597 JUMP JUMPDEST PUSH1 0x40 MLOAD PUSH2 0x199 SWAP2 SWAP1 PUSH2 0x1525 JUMP JUMPDEST PUSH1 0x40 MLOAD DUP1 SWAP2 SUB SWAP1 RETURN JUMPDEST CALLVALUE DUP1 ISZERO PUSH2 0x1AE JUMPI PUSH1 0x0 DUP1 REVERT JUMPDEST POP PUSH2 0x1C9 PUSH1 0x4 DUP1 CALLDATASIZE SUB DUP2 ADD SWAP1 PUSH2 0x1C4 SWAP2 SWAP1 PUSH2 0x157E JUMP JUMPDEST PUSH2 0x5BA JUMP JUMPDEST STOP JUMPDEST CALLVALUE DUP1 ISZERO PUSH2 0x1D7 JUMPI PUSH1 0x0 DUP1 REVERT JUMPDEST POP PUSH2 0x1E0 PUSH2 0x605 JUMP JUMPDEST PUSH1 0x40 MLOAD PUSH2 0x1ED SWAP2 SWAP1 PUSH2 0x15CD JUMP JUMPDEST PUSH1 0x40 MLOAD DUP1 SWAP2 SUB SWAP1 RETURN JUMPDEST CALLVALUE DUP1 ISZERO PUSH2 0x202 JUMPI PUSH1 0x0 DUP1 REVERT JUMPDEST POP PUSH2 0x21D PUSH1 0x4 DUP1 CALLDATASIZE SUB DUP2 ADD SWAP1 PUSH2 0x218 SWAP2 SWAP1 PUSH2 0x15E8 JUMP JUMPDEST PUSH2 0x60F JUMP JUMPDEST PUSH1 0x40 MLOAD PUSH2 0x22A SWAP2 SWAP1 PUSH2 0x1525 JUMP JUMPDEST PUSH1 0x40 MLOAD DUP1 SWAP2 SUB SWAP1 RETURN JUMPDEST CALLVALUE DUP1 ISZERO PUSH2 0x23F JUMPI PUSH1 0x0 DUP1 REVERT JUMPDEST POP PUSH2 0x248 PUSH2 0x63E JUMP JUMPDEST PUSH1 0x40 MLOAD PUSH2 0x255 SWAP2 SWAP1 PUSH2 0x1657 JUMP JUMPDEST PUSH1 0x40 MLOAD DUP1 SWAP2 SUB SWAP1 RETURN JUMPDEST CALLVALUE DUP1 ISZERO PUSH2 0x26A JUMPI PUSH1 0x0 DUP1 REVERT JUMPDEST POP PUSH2 0x285 PUSH1 0x4 DUP1 CALLDATASIZE SUB DUP2 ADD SWAP1 PUSH2 0x280 SWAP2 SWAP1 PUSH2 0x14CA JUMP JUMPDEST PUSH2 0x647 JUMP JUMPDEST PUSH1 0x40 MLOAD PUSH2 0x292 SWAP2 SWAP1 PUSH2 0x1525 JUMP JUMPDEST PUSH1 0x40 MLOAD DUP1 SWAP2 SUB SWAP1 RETURN JUMPDEST CALLVALUE DUP1 ISZERO PUSH2 0x2A7 JUMPI PUSH1 0x0 DUP1 REVERT JUMPDEST POP PUSH2 0x2B0 PUSH2 0x67E JUMP JUMPDEST STOP JUMPDEST CALLVALUE DUP1 ISZERO PUSH2 0x2BE JUMPI PUSH1 0x0 DUP1 REVERT JUMPDEST POP PUSH2 0x2D9 PUSH1 0x4 DUP1 CALLDATASIZE SUB DUP2 ADD SWAP1 PUSH2 0x2D4 SWAP2 SWAP1 PUSH2 0x1672 JUMP JUMPDEST PUSH2 0x690 JUMP JUMPDEST STOP JUMPDEST CALLVALUE DUP1 ISZERO PUSH2 0x2E7 JUMPI PUSH1 0x0 DUP1 REVERT JUMPDEST POP PUSH2 0x2F0 PUSH2 0x6AC JUMP JUMPDEST PUSH1 0x40 MLOAD PUSH2 0x2FD SWAP2 SWAP1 PUSH2 0x1525 JUMP JUMPDEST PUSH1 0x40 MLOAD DUP1 SWAP2 SUB SWAP1 RETURN JUMPDEST CALLVALUE DUP1 ISZERO PUSH2 0x312 JUMPI PUSH1 0x0 DUP1 REVERT JUMPDEST POP PUSH2 0x32D PUSH1 0x4 DUP1 CALLDATASIZE SUB DUP2 ADD SWAP1 PUSH2 0x328 SWAP2 SWAP1 PUSH2 0x169F JUMP JUMPDEST PUSH2 0x6C3 JUMP JUMPDEST PUSH1 0x40 MLOAD PUSH2 0x33A SWAP2 SWAP1 PUSH2 0x15CD JUMP JUMPDEST PUSH1 0x40 MLOAD DUP1 SWAP2 SUB SWAP1 RETURN JUMPDEST CALLVALUE DUP1 ISZERO PUSH2 0x34F JUMPI PUSH1 0x0 DUP1 REVERT JUMPDEST POP PUSH2 0x358 PUSH2 0x70B JUMP JUMPDEST STOP JUMPDEST CALLVALUE DUP1 ISZERO PUSH2 0x366 JUMPI PUSH1 0x0 DUP1 REVERT JUMPDEST POP PUSH2 0x36F PUSH2 0x71F JUMP JUMPDEST PUSH1 0x40 MLOAD PUSH2 0x37C SWAP2 SWAP1 PUSH2 0x15CD JUMP JUMPDEST PUSH1 0x40 MLOAD DUP1 SWAP2 SUB SWAP1 RETURN JUMPDEST CALLVALUE DUP1 ISZERO PUSH2 0x391 JUMPI PUSH1 0x0 DUP1 REVERT JUMPDEST POP PUSH2 0x3AC PUSH1 0x4 DUP1 CALLDATASIZE SUB DUP2 ADD SWAP1 PUSH2 0x3A7 SWAP2 SWAP1 PUSH2 0x14CA JUMP JUMPDEST PUSH2 0x727 JUMP JUMPDEST STOP JUMPDEST CALLVALUE DUP1 ISZERO PUSH2 0x3BA JUMPI PUSH1 0x0 DUP1 REVERT JUMPDEST POP PUSH2 0x3C3 PUSH2 0x747 JUMP JUMPDEST STOP JUMPDEST CALLVALUE DUP1 ISZERO PUSH2 0x3D1 JUMPI PUSH1 0x0 DUP1 REVERT JUMPDEST POP PUSH2 0x3DA PUSH2 0x759 JUMP JUMPDEST PUSH1 0x40 MLOAD PUSH2 0x3E7 SWAP2 SWAP1 PUSH2 0x16DB JUMP JUMPDEST PUSH1 0x40 MLOAD DUP1 SWAP2 SUB SWAP1 RETURN JUMPDEST CALLVALUE DUP1 ISZERO PUSH2 0x3FC JUMPI PUSH1 0x0 DUP1 REVERT JUMPDEST POP PUSH2 0x405 PUSH2 0x783 JUMP JUMPDEST PUSH1 0x40 MLOAD PUSH2 0x412 SWAP2 SWAP1 PUSH2 0x140F JUMP JUMPDEST PUSH1 0x40 MLOAD DUP1 SWAP2 SUB SWAP1 RETURN JUMPDEST CALLVALUE DUP1 ISZERO PUSH2 0x427 JUMPI PUSH1 0x0 DUP1 REVERT JUMPDEST POP PUSH2 0x442 PUSH1 0x4 DUP1 CALLDATASIZE SUB DUP2 ADD SWAP1 PUSH2 0x43D SWAP2 SWAP1 PUSH2 0x14CA JUMP JUMPDEST PUSH2 0x815 JUMP JUMPDEST PUSH1 0x40 MLOAD PUSH2 0x44F SWAP2 SWAP1 PUSH2 0x1525 JUMP JUMPDEST PUSH1 0x40 MLOAD DUP1 SWAP2 SUB SWAP1 RETURN JUMPDEST CALLVALUE DUP1 ISZERO PUSH2 0x464 JUMPI PUSH1 0x0 DUP1 REVERT JUMPDEST POP PUSH2 0x47F PUSH1 0x4 DUP1 CALLDATASIZE SUB DUP2 ADD SWAP1 PUSH2 0x47A SWAP2 SWAP1 PUSH2 0x14CA JUMP JUMPDEST PUSH2 0x88C JUMP JUMPDEST PUSH1 0x40 MLOAD PUSH2 0x48C SWAP2 SWAP1 PUSH2 0x1525 JUMP JUMPDEST PUSH1 0x40 MLOAD DUP1 SWAP2 SUB SWAP1 RETURN JUMPDEST CALLVALUE DUP1 ISZERO PUSH2 0x4A1 JUMPI PUSH1 0x0 DUP1 REVERT JUMPDEST POP PUSH2 0x4BC PUSH1 0x4 DUP1 CALLDATASIZE SUB DUP2 ADD SWAP1 PUSH2 0x4B7 SWAP2 SWAP1 PUSH2 0x16F6 JUMP JUMPDEST PUSH2 0x8AF JUMP JUMPDEST PUSH1 0x40 MLOAD PUSH2 0x4C9 SWAP2 SWAP1 PUSH2 0x15CD JUMP JUMPDEST PUSH1 0x40 MLOAD DUP1 SWAP2 SUB SWAP1 RETURN JUMPDEST PUSH2 0x4DA PUSH2 0x936 JUMP JUMPDEST STOP JUMPDEST CALLVALUE DUP1 ISZERO PUSH2 0x4E8 JUMPI PUSH1 0x0 DUP1 REVERT JUMPDEST POP PUSH2 0x503 PUSH1 0x4 DUP1 CALLDATASIZE SUB DUP2 ADD SWAP1 PUSH2 0x4FE SWAP2 SWAP1 PUSH2 0x169F JUMP JUMPDEST PUSH2 0x98E JUMP JUMPDEST STOP JUMPDEST PUSH1 0x60 PUSH1 0x3 DUP1 SLOAD PUSH2 0x514 SWAP1 PUSH2 0x1765 JUMP JUMPDEST DUP1 PUSH1 0x1F ADD PUSH1 0x20 DUP1 SWAP2 DIV MUL PUSH1 0x20 ADD PUSH1 0x40 MLOAD SWAP1 DUP2 ADD PUSH1 0x40 MSTORE DUP1 SWAP3 SWAP2 SWAP1 DUP2 DUP2 MSTORE PUSH1 0x20 ADD DUP3 DUP1 SLOAD PUSH2 0x540 SWAP1 PUSH2 0x1765 JUMP JUMPDEST DUP1 ISZERO PUSH2 0x58D JUMPI DUP1 PUSH1 0x1F LT PUSH2 0x562 JUMPI PUSH2 0x100 DUP1 DUP4 SLOAD DIV MUL DUP4 MSTORE SWAP2 PUSH1 0x20 ADD SWAP2 PUSH2 0x58D JUMP JUMPDEST DUP3 ADD SWAP2 SWAP1 PUSH1 0x0 MSTORE PUSH1 0x20 PUSH1 0x0 KECCAK256 SWAP1 JUMPDEST DUP2 SLOAD DUP2 MSTORE SWAP1 PUSH1 0x1 ADD SWAP1 PUSH1 0x20 ADD DUP1 DUP4 GT PUSH2 0x570 JUMPI DUP3 SWAP1 SUB PUSH1 0x1F AND DUP3 ADD SWAP2 JUMPDEST POP POP POP POP POP SWAP1 POP SWAP1 JUMP JUMPDEST PUSH1 0x0 DUP1 PUSH2 0x5A2 PUSH2 0xA17 JUMP JUMPDEST SWAP1 POP PUSH2 0x5AF DUP2 DUP6 DUP6 PUSH2 0xA1F JUMP JUMPDEST PUSH1 0x1 SWAP2 POP POP SWAP3 SWAP2 POP POP JUMP JUMPDEST DUP2 PUSH20 0xFFFFFFFFFFFFFFFFFFFFFFFFFFFFFFFFFFFFFFFF AND PUSH2 0x8FC DUP3 SWAP1 DUP2 ISZERO MUL SWAP1 PUSH1 0x40 MLOAD PUSH1 0x0 PUSH1 0x40 MLOAD DUP1 DUP4 SUB DUP2 DUP6 DUP9 DUP9 CALL SWAP4 POP POP POP POP ISZERO DUP1 ISZERO PUSH2 0x600 JUMPI RETURNDATASIZE PUSH1 0x0 DUP1 RETURNDATACOPY RETURNDATASIZE PUSH1 0x0 REVERT JUMPDEST POP POP POP JUMP JUMPDEST PUSH1 0x0 PUSH1 0x2 SLOAD SWAP1 POP SWAP1 JUMP JUMPDEST PUSH1 0x0 DUP1 PUSH2 0x61A PUSH2 0xA17 JUMP JUMPDEST SWAP1 POP PUSH2 0x627 DUP6 DUP3 DUP6 PUSH2 0xBEA JUMP JUMPDEST PUSH2 0x632 DUP6 DUP6 DUP6 PUSH2 0xC76 JUMP JUMPDEST PUSH1 0x1 SWAP2 POP POP SWAP4 SWAP3 POP POP POP JUMP JUMPDEST PUSH1 0x0 PUSH1 0x12 SWAP1 POP SWAP1 JUMP JUMPDEST PUSH1 0x0 DUP1 PUSH2 0x652 PUSH2 0xA17 JUMP JUMPDEST SWAP1 POP PUSH2 0x673 DUP2 DUP6 DUP6 PUSH2 0x664 DUP6 DUP10 PUSH2 0x8AF JUMP JUMPDEST PUSH2 0x66E SWAP2 SWAP1 PUSH2 0x17C6 JUMP JUMPDEST PUSH2 0xA1F JUMP JUMPDEST PUSH1 0x1 SWAP2 POP POP SWAP3 SWAP2 POP POP JUMP JUMPDEST PUSH2 0x686 PUSH2 0xEEE JUMP JUMPDEST PUSH2 0x68E PUSH2 0xF6C JUMP JUMPDEST JUMP JUMPDEST PUSH2 0x698 PUSH2 0xEEE JUMP JUMPDEST PUSH2 0x6A9 PUSH2 0x6A3 PUSH2 0xA17 JUMP JUMPDEST DUP3 PUSH2 0xFCF JUMP JUMPDEST POP JUMP JUMPDEST PUSH1 0x0 PUSH1 0x5 PUSH1 0x0 SWAP1 SLOAD SWAP1 PUSH2 0x100 EXP SWAP1 DIV PUSH1 0xFF AND SWAP1 POP SWAP1 JUMP JUMPDEST PUSH1 0x0 DUP1 PUSH1 0x0 DUP4 PUSH20 0xFFFFFFFFFFFFFFFFFFFFFFFFFFFFFFFFFFFFFFFF AND PUSH20 0xFFFFFFFFFFFFFFFFFFFFFFFFFFFFFFFFFFFFFFFF AND DUP2 MSTORE PUSH1 0x20 ADD SWAP1 DUP2 MSTORE PUSH1 0x20 ADD PUSH1 0x0 KECCAK256 SLOAD SWAP1 POP SWAP2 SWAP1 POP JUMP JUMPDEST PUSH2 0x713 PUSH2 0xEEE JUMP JUMPDEST PUSH2 0x71D PUSH1 0x0 PUSH2 0x119D JUMP JUMPDEST JUMP JUMPDEST PUSH1 0x0 SELFBALANCE SWAP1 POP SWAP1 JUMP JUMPDEST PUSH2 0x739 DUP3 PUSH2 0x733 PUSH2 0xA17 JUMP JUMPDEST DUP4 PUSH2 0xBEA JUMP JUMPDEST PUSH2 0x743 DUP3 DUP3 PUSH2 0xFCF JUMP JUMPDEST POP POP JUMP JUMPDEST PUSH2 0x74F PUSH2 0xEEE JUMP JUMPDEST PUSH2 0x757 PUSH2 0x1263 JUMP JUMPDEST JUMP JUMPDEST PUSH1 0x0 PUSH1 0x5 PUSH1 0x1 SWAP1 SLOAD SWAP1 PUSH2 0x100 EXP SWAP1 DIV PUSH20 0xFFFFFFFFFFFFFFFFFFFFFFFFFFFFFFFFFFFFFFFF AND SWAP1 POP SWAP1 JUMP JUMPDEST PUSH1 0x60 PUSH1 0x4 DUP1 SLOAD PUSH2 0x792 SWAP1 PUSH2 0x1765 JUMP JUMPDEST DUP1 PUSH1 0x1F ADD PUSH1 0x20 DUP1 SWAP2 DIV MUL PUSH1 0x20 ADD PUSH1 0x40 MLOAD SWAP1 DUP2 ADD PUSH1 0x40 MSTORE DUP1 SWAP3 SWAP2 SWAP1 DUP2 DUP2 MSTORE PUSH1 0x20 ADD DUP3 DUP1 SLOAD PUSH2 0x7BE SWAP1 PUSH2 0x1765 JUMP JUMPDEST DUP1 ISZERO PUSH2 0x80B JUMPI DUP1 PUSH1 0x1F LT PUSH2 0x7E0 JUMPI PUSH2 0x100 DUP1 DUP4 SLOAD DIV MUL DUP4 MSTORE SWAP2 PUSH1 0x20 ADD SWAP2 PUSH2 0x80B JUMP JUMPDEST DUP3 ADD SWAP2 SWAP1 PUSH1 0x0 MSTORE PUSH1 0x20 PUSH1 0x0 KECCAK256 SWAP1 JUMPDEST DUP2 SLOAD DUP2 MSTORE SWAP1 PUSH1 0x1 ADD SWAP1 PUSH1 0x20 ADD DUP1 DUP4 GT PUSH2 0x7EE JUMPI DUP3 SWAP1 SUB PUSH1 0x1F AND DUP3 ADD SWAP2 JUMPDEST POP POP POP POP POP SWAP1 POP SWAP1 JUMP JUMPDEST PUSH1 0x0 DUP1 PUSH2 0x820 PUSH2 0xA17 JUMP JUMPDEST SWAP1 POP PUSH1 0x0 PUSH2 0x82E DUP3 DUP7 PUSH2 0x8AF JUMP JUMPDEST SWAP1 POP DUP4 DUP2 LT ISZERO PUSH2 0x873 JUMPI PUSH1 0x40 MLOAD PUSH32 0x8C379A000000000000000000000000000000000000000000000000000000000 DUP2 MSTORE PUSH1 0x4 ADD PUSH2 0x86A SWAP1 PUSH2 0x188E JUMP JUMPDEST PUSH1 0x40 MLOAD DUP1 SWAP2 SUB SWAP1 REVERT JUMPDEST PUSH2 0x880 DUP3 DUP7 DUP7 DUP5 SUB PUSH2 0xA1F JUMP JUMPDEST PUSH1 0x1 SWAP3 POP POP POP SWAP3 SWAP2 POP POP JUMP JUMPDEST PUSH1 0x0 DUP1 PUSH2 0x897 PUSH2 0xA17 JUMP JUMPDEST SWAP1 POP PUSH2 0x8A4 DUP2 DUP6 DUP6 PUSH2 0xC76 JUMP JUMPDEST PUSH1 0x1 SWAP2 POP POP SWAP3 SWAP2 POP POP JUMP JUMPDEST PUSH1 0x0 PUSH1 0x1 PUSH1 0x0 DUP5 PUSH20 0xFFFFFFFFFFFFFFFFFFFFFFFFFFFFFFFFFFFFFFFF AND PUSH20 0xFFFFFFFFFFFFFFFFFFFFFFFFFFFFFFFFFFFFFFFF AND DUP2 MSTORE PUSH1 0x20 ADD SWAP1 DUP2 MSTORE PUSH1 0x20 ADD PUSH1 0x0 KECCAK256 PUSH1 0x0 DUP4 PUSH20 0xFFFFFFFFFFFFFFFFFFFFFFFFFFFFFFFFFFFFFFFF AND PUSH20 0xFFFFFFFFFFFFFFFFFFFFFFFFFFFFFFFFFFFFFFFF AND DUP2 MSTORE PUSH1 0x20 ADD SWAP1 DUP2 MSTORE PUSH1 0x20 ADD PUSH1 0x0 KECCAK256 SLOAD SWAP1 POP SWAP3 SWAP2 POP POP JUMP JUMPDEST CALLVALUE PUSH1 0x6 PUSH1 0x0 CALLER PUSH20 0xFFFFFFFFFFFFFFFFFFFFFFFFFFFFFFFFFFFFFFFF AND PUSH20 0xFFFFFFFFFFFFFFFFFFFFFFFFFFFFFFFFFFFFFFFF AND DUP2 MSTORE PUSH1 0x20 ADD SWAP1 DUP2 MSTORE PUSH1 0x20 ADD PUSH1 0x0 KECCAK256 PUSH1 0x0 DUP3 DUP3 SLOAD PUSH2 0x985 SWAP2 SWAP1 PUSH2 0x17C6 JUMP JUMPDEST SWAP3 POP POP DUP2 SWAP1 SSTORE POP JUMP JUMPDEST PUSH2 0x996 PUSH2 0xEEE JUMP JUMPDEST PUSH1 0x0 PUSH20 0xFFFFFFFFFFFFFFFFFFFFFFFFFFFFFFFFFFFFFFFF AND DUP2 PUSH20 0xFFFFFFFFFFFFFFFFFFFFFFFFFFFFFFFFFFFFFFFF AND EQ ISZERO PUSH2 0xA06 JUMPI PUSH1 0x40 MLOAD PUSH32 0x8C379A000000000000000000000000000000000000000000000000000000000 DUP2 MSTORE PUSH1 0x4 ADD PUSH2 0x9FD SWAP1 PUSH2 0x1920 JUMP JUMPDEST PUSH1 0x40 MLOAD DUP1 SWAP2 SUB SWAP1 REVERT JUMPDEST PUSH2 0xA0F DUP2 PUSH2 0x119D JUMP JUMPDEST POP JUMP JUMPDEST POP POP POP JUMP JUMPDEST PUSH1 0x0 CALLER SWAP1 POP SWAP1 JUMP JUMPDEST PUSH1 0x0 PUSH20 0xFFFFFFFFFFFFFFFFFFFFFFFFFFFFFFFFFFFFFFFF AND DUP4 PUSH20 0xFFFFFFFFFFFFFFFFFFFFFFFFFFFFFFFFFFFFFFFF AND EQ ISZERO PUSH2 0xA8F JUMPI PUSH1 0x40 MLOAD PUSH32 0x8C379A000000000000000000000000000000000000000000000000000000000 DUP2 MSTORE PUSH1 0x4 ADD PUSH2 0xA86 SWAP1 PUSH2 0x19B2 JUMP JUMPDEST PUSH1 0x40 MLOAD DUP1 SWAP2 SUB SWAP1 REVERT JUMPDEST PUSH1 0x0 PUSH20 0xFFFFFFFFFFFFFFFFFFFFFFFFFFFFFFFFFFFFFFFF AND DUP3 PUSH20 0xFFFFFFFFFFFFFFFFFFFFFFFFFFFFFFFFFFFFFFFF AND EQ ISZERO PUSH2 0xAFF JUMPI PUSH1 0x40 MLOAD PUSH32 0x8C379A000000000000000000000000000000000000000000000000000000000 DUP2 MSTORE PUSH1 0x4 ADD PUSH2 0xAF6 SWAP1 PUSH2 0x1A44 JUMP JUMPDEST PUSH1 0x40 MLOAD DUP1 SWAP2 SUB SWAP1 REVERT JUMPDEST DUP1 PUSH1 0x1 PUSH1 0x0 DUP6 PUSH20 0xFFFFFFFFFFFFFFFFFFFFFFFFFFFFFFFFFFFFFFFF AND PUSH20 0xFFFFFFFFFFFFFFFFFFFFFFFFFFFFFFFFFFFFFFFF AND DUP2 MSTORE PUSH1 0x20 ADD SWAP1 DUP2 MSTORE PUSH1 0x20 ADD PUSH1 0x0 KECCAK256 PUSH1 0x0 DUP5 PUSH20 0xFFFFFFFFFFFFFFFFFFFFFFFFFFFFFFFFFFFFFFFF AND PUSH20 0xFFFFFFFFFFFFFFFFFFFFFFFFFFFFFFFFFFFFFFFF AND DUP2 MSTORE PUSH1 0x20 ADD SWAP1 DUP2 MSTORE PUSH1 0x20 ADD PUSH1 0x0 KECCAK256 DUP2 SWAP1 SSTORE POP DUP2 PUSH20 0xFFFFFFFFFFFFFFFFFFFFFFFFFFFFFFFFFFFFFFFF AND DUP4 PUSH20 0xFFFFFFFFFFFFFFFFFFFFFFFFFFFFFFFFFFFFFFFF AND PUSH32 0x8C5BE1E5EBEC7D5BD14F71427D1E84F3DD0314C0F7B2291E5B200AC8C7C3B925 DUP4 PUSH1 0x40 MLOAD PUSH2 0xBDD SWAP2 SWAP1 PUSH2 0x15CD JUMP JUMPDEST PUSH1 0x40 MLOAD DUP1 SWAP2 SUB SWAP1 LOG3 POP POP POP JUMP JUMPDEST PUSH1 0x0 PUSH2 0xBF6 DUP5 DUP5 PUSH2 0x8AF JUMP JUMPDEST SWAP1 POP PUSH32 0xFFFFFFFFFFFFFFFFFFFFFFFFFFFFFFFFFFFFFFFFFFFFFFFFFFFFFFFFFFFFFFFF DUP2 EQ PUSH2 0xC70 JUMPI DUP2 DUP2 LT ISZERO PUSH2 0xC62 JUMPI PUSH1 0x40 MLOAD PUSH32 0x8C379A000000000000000000000000000000000000000000000000000000000 DUP2 MSTORE PUSH1 0x4 ADD PUSH2 0xC59 SWAP1 PUSH2 0x1AB0 JUMP JUMPDEST PUSH1 0x40 MLOAD DUP1 SWAP2 SUB SWAP1 REVERT JUMPDEST PUSH2 0xC6F DUP5 DUP5 DUP5 DUP5 SUB PUSH2 0xA1F JUMP JUMPDEST JUMPDEST POP POP POP POP JUMP JUMPDEST PUSH1 0x0 PUSH20 0xFFFFFFFFFFFFFFFFFFFFFFFFFFFFFFFFFFFFFFFF AND DUP4 PUSH20 0xFFFFFFFFFFFFFFFFFFFFFFFFFFFFFFFFFFFFFFFF AND EQ ISZERO PUSH2 0xCE6 JUMPI PUSH1 0x40 MLOAD PUSH32 0x8C379A000000000000000000000000000000000000000000000000000000000 DUP2 MSTORE PUSH1 0x4 ADD PUSH2 0xCDD SWAP1 PUSH2 0x1B42 JUMP JUMPDEST PUSH1 0x40 MLOAD DUP1 SWAP2 SUB SWAP1 REVERT JUMPDEST PUSH1 0x0 PUSH20 0xFFFFFFFFFFFFFFFFFFFFFFFFFFFFFFFFFFFFFFFF AND DUP3 PUSH20 0xFFFFFFFFFFFFFFFFFFFFFFFFFFFFFFFFFFFFFFFF AND EQ ISZERO PUSH2 0xD56 JUMPI PUSH1 0x40 MLOAD PUSH32 0x8C379A000000000000000000000000000000000000000000000000000000000 DUP2 MSTORE PUSH1 0x4 ADD PUSH2 0xD4D SWAP1 PUSH2 0x1BD4 JUMP JUMPDEST PUSH1 0x40 MLOAD DUP1 SWAP2 SUB SWAP1 REVERT JUMPDEST PUSH2 0xD61 DUP4 DUP4 DUP4 PUSH2 0x12C6 JUMP JUMPDEST PUSH1 0x0 DUP1 PUSH1 0x0 DUP6 PUSH20 0xFFFFFFFFFFFFFFFFFFFFFFFFFFFFFFFFFFFFFFFF AND PUSH20 0xFFFFFFFFFFFFFFFFFFFFFFFFFFFFFFFFFFFFFFFF AND DUP2 MSTORE PUSH1 0x20 ADD SWAP1 DUP2 MSTORE PUSH1 0x20 ADD PUSH1 0x0 KECCAK256 SLOAD SWAP1 POP DUP2 DUP2 LT ISZERO PUSH2 0xDE7 JUMPI PUSH1 0x40 MLOAD PUSH32 0x8C379A000000000000000000000000000000000000000000000000000000000 DUP2 MSTORE PUSH1 0x4 ADD PUSH2 0xDDE SWAP1 PUSH2 0x1C66 JUMP JUMPDEST PUSH1 0x40 MLOAD DUP1 SWAP2 SUB SWAP1 REVERT JUMPDEST DUP2 DUP2 SUB PUSH1 0x0 DUP1 DUP7 PUSH20 0xFFFFFFFFFFFFFFFFFFFFFFFFFFFFFFFFFFFFFFFF AND PUSH20 0xFFFFFFFFFFFFFFFFFFFFFFFFFFFFFFFFFFFFFFFF AND DUP2 MSTORE PUSH1 0x20 ADD SWAP1 DUP2 MSTORE PUSH1 0x20 ADD PUSH1 0x0 KECCAK256 DUP2 SWAP1 SSTORE POP DUP2 PUSH1 0x0 DUP1 DUP6 PUSH20 0xFFFFFFFFFFFFFFFFFFFFFFFFFFFFFFFFFFFFFFFF AND PUSH20 0xFFFFFFFFFFFFFFFFFFFFFFFFFFFFFFFFFFFFFFFF AND DUP2 MSTORE PUSH1 0x20 ADD SWAP1 DUP2 MSTORE PUSH1 0x20 ADD PUSH1 0x0 KECCAK256 PUSH1 0x0 DUP3 DUP3 SLOAD ADD SWAP3 POP POP DUP2 SWAP1 SSTORE POP DUP3 PUSH20 0xFFFFFFFFFFFFFFFFFFFFFFFFFFFFFFFFFFFFFFFF AND DUP5 PUSH20 0xFFFFFFFFFFFFFFFFFFFFFFFFFFFFFFFFFFFFFFFF AND PUSH32 0xDDF252AD1BE2C89B69C2B068FC378DAA952BA7F163C4A11628F55A4DF523B3EF DUP5 PUSH1 0x40 MLOAD PUSH2 0xED5 SWAP2 SWAP1 PUSH2 0x15CD JUMP JUMPDEST PUSH1 0x40 MLOAD DUP1 SWAP2 SUB SWAP1 LOG3 PUSH2 0xEE8 DUP5 DUP5 DUP5 PUSH2 0x12DE JUMP JUMPDEST POP POP POP POP JUMP JUMPDEST PUSH2 0xEF6 PUSH2 0xA17 JUMP JUMPDEST PUSH20 0xFFFFFFFFFFFFFFFFFFFFFFFFFFFFFFFFFFFFFFFF AND PUSH2 0xF14 PUSH2 0x759 JUMP JUMPDEST PUSH20 0xFFFFFFFFFFFFFFFFFFFFFFFFFFFFFFFFFFFFFFFF AND EQ PUSH2 0xF6A JUMPI PUSH1 0x40 MLOAD PUSH32 0x8C379A000000000000000000000000000000000000000000000000000000000 DUP2 MSTORE PUSH1 0x4 ADD PUSH2 0xF61 SWAP1 PUSH2 0x1CD2 JUMP JUMPDEST PUSH1 0x40 MLOAD DUP1 SWAP2 SUB SWAP1 REVERT JUMPDEST JUMP JUMPDEST PUSH2 0xF74 PUSH2 0x12E3 JUMP JUMPDEST PUSH1 0x0 PUSH1 0x5 PUSH1 0x0 PUSH2 0x100 EXP DUP2 SLOAD DUP2 PUSH1 0xFF MUL NOT AND SWAP1 DUP4 ISZERO ISZERO MUL OR SWAP1 SSTORE POP PUSH32 0x5DB9EE0A495BF2E6FF9C91A7834C1BA4FDD244A5E8AA4E537BD38AEAE4B073AA PUSH2 0xFB8 PUSH2 0xA17 JUMP JUMPDEST PUSH1 0x40 MLOAD PUSH2 0xFC5 SWAP2 SWAP1 PUSH2 0x16DB JUMP JUMPDEST PUSH1 0x40 MLOAD DUP1 SWAP2 SUB SWAP1 LOG1 JUMP JUMPDEST PUSH1 0x0 PUSH20 0xFFFFFFFFFFFFFFFFFFFFFFFFFFFFFFFFFFFFFFFF AND DUP3 PUSH20 0xFFFFFFFFFFFFFFFFFFFFFFFFFFFFFFFFFFFFFFFF AND EQ ISZERO PUSH2 0x103F JUMPI PUSH1 0x40 MLOAD PUSH32 0x8C379A000000000000000000000000000000000000000000000000000000000 DUP2 MSTORE PUSH1 0x4 ADD PUSH2 0x1036 SWAP1 PUSH2 0x1D64 JUMP JUMPDEST PUSH1 0x40 MLOAD DUP1 SWAP2 SUB SWAP1 REVERT JUMPDEST PUSH2 0x104B DUP3 PUSH1 0x0 DUP4 PUSH2 0x12C6 JUMP JUMPDEST PUSH1 0x0 DUP1 PUSH1 0x0 DUP5 PUSH20 0xFFFFFFFFFFFFFFFFFFFFFFFFFFFFFFFFFFFFFFFF AND PUSH20 0xFFFFFFFFFFFFFFFFFFFFFFFFFFFFFFFFFFFFFFFF AND DUP2 MSTORE PUSH1 0x20 ADD SWAP1 DUP2 MSTORE PUSH1 0x20 ADD PUSH1 0x0 KECCAK256 SLOAD SWAP1 POP DUP2 DUP2 LT ISZERO PUSH2 0x10D1 JUMPI PUSH1 0x40 MLOAD PUSH32 0x8C379A000000000000000000000000000000000000000000000000000000000 DUP2 MSTORE PUSH1 0x4 ADD PUSH2 0x10C8 SWAP1 PUSH2 0x1DF6 JUMP JUMPDEST PUSH1 0x40 MLOAD DUP1 SWAP2 SUB SWAP1 REVERT JUMPDEST DUP2 DUP2 SUB PUSH1 0x0 DUP1 DUP6 PUSH20 0xFFFFFFFFFFFFFFFFFFFFFFFFFFFFFFFFFFFFFFFF AND PUSH20 0xFFFFFFFFFFFFFFFFFFFFFFFFFFFFFFFFFFFFFFFF AND DUP2 MSTORE PUSH1 0x20 ADD SWAP1 DUP2 MSTORE PUSH1 0x20 ADD PUSH1 0x0 KECCAK256 DUP2 SWAP1 SSTORE POP DUP2 PUSH1 0x2 PUSH1 0x0 DUP3 DUP3 SLOAD SUB SWAP3 POP POP DUP2 SWAP1 SSTORE POP PUSH1 0x0 PUSH20 0xFFFFFFFFFFFFFFFFFFFFFFFFFFFFFFFFFFFFFFFF AND DUP4 PUSH20 0xFFFFFFFFFFFFFFFFFFFFFFFFFFFFFFFFFFFFFFFF AND PUSH32 0xDDF252AD1BE2C89B69C2B068FC378DAA952BA7F163C4A11628F55A4DF523B3EF DUP5 PUSH1 0x40 MLOAD PUSH2 0x1184 SWAP2 SWAP1 PUSH2 0x15CD JUMP JUMPDEST PUSH1 0x40 MLOAD DUP1 SWAP2 SUB SWAP1 LOG3 PUSH2 0x1198 DUP4 PUSH1 0x0 DUP5 PUSH2 0x12DE JUMP JUMPDEST POP POP POP JUMP JUMPDEST PUSH1 0x0 PUSH1 0x5 PUSH1 0x1 SWAP1 SLOAD SWAP1 PUSH2 0x100 EXP SWAP1 DIV PUSH20 0xFFFFFFFFFFFFFFFFFFFFFFFFFFFFFFFFFFFFFFFF AND SWAP1 POP DUP2 PUSH1 0x5 PUSH1 0x1 PUSH2 0x100 EXP DUP2 SLOAD DUP2 PUSH20 0xFFFFFFFFFFFFFFFFFFFFFFFFFFFFFFFFFFFFFFFF MUL NOT AND SWAP1 DUP4 PUSH20 0xFFFFFFFFFFFFFFFFFFFFFFFFFFFFFFFFFFFFFFFF AND MUL OR SWAP1 SSTORE POP DUP2 PUSH20 0xFFFFFFFFFFFFFFFFFFFFFFFFFFFFFFFFFFFFFFFF AND DUP2 PUSH20 0xFFFFFFFFFFFFFFFFFFFFFFFFFFFFFFFFFFFFFFFF AND PUSH32 0x8BE0079C531659141344CD1FD0A4F28419497F9722A3DAAFE3B4186F6B6457E0 PUSH1 0x40 MLOAD PUSH1 0x40 MLOAD DUP1 SWAP2 SUB SWAP1 LOG3 POP POP JUMP JUMPDEST PUSH2 0x126B PUSH2 0x132C JUMP JUMPDEST PUSH1 0x1 PUSH1 0x5 PUSH1 0x0 PUSH2 0x100 EXP DUP2 SLOAD DUP2 PUSH1 0xFF MUL NOT AND SWAP1 DUP4 ISZERO ISZERO MUL OR SWAP1 SSTORE POP PUSH32 0x62E78CEA01BEE320CD4E420270B5EA74000D11B0C9F74754EBDBFC544B05A258 PUSH2 0x12AF PUSH2 0xA17 JUMP JUMPDEST PUSH1 0x40 MLOAD PUSH2 0x12BC SWAP2 SWAP1 PUSH2 0x16DB JUMP JUMPDEST PUSH1 0x40 MLOAD DUP1 SWAP2 SUB SWAP1 LOG1 JUMP JUMPDEST PUSH2 0x12CE PUSH2 0x132C JUMP JUMPDEST PUSH2 0x12D9 DUP4 DUP4 DUP4 PUSH2 0xA12 JUMP JUMPDEST POP POP POP JUMP JUMPDEST POP POP POP JUMP JUMPDEST PUSH2 0x12EB PUSH2 0x6AC JUMP JUMPDEST PUSH2 0x132A JUMPI PUSH1 0x40 MLOAD PUSH32 0x8C379A000000000000000000000000000000000000000000000000000000000 DUP2 MSTORE PUSH1 0x4 ADD PUSH2 0x1321 SWAP1 PUSH2 0x1E62 JUMP JUMPDEST PUSH1 0x40 MLOAD DUP1 SWAP2 SUB SWAP1 REVERT JUMPDEST JUMP JUMPDEST PUSH2 0x1334 PUSH2 0x6AC JUMP JUMPDEST ISZERO PUSH2 0x1374 JUMPI PUSH1 0x40 MLOAD PUSH32 0x8C379A000000000000000000000000000000000000000000000000000000000 DUP2 MSTORE PUSH1 0x4 ADD PUSH2 0x136B SWAP1 PUSH2 0x1ECE JUMP JUMPDEST PUSH1 0x40 MLOAD DUP1 SWAP2 SUB SWAP1 REVERT JUMPDEST JUMP JUMPDEST PUSH1 0x0 DUP2 MLOAD SWAP1 POP SWAP2 SWAP1 POP JUMP JUMPDEST PUSH1 0x0 DUP3 DUP3 MSTORE PUSH1 0x20 DUP3 ADD SWAP1 POP SWAP3 SWAP2 POP POP JUMP JUMPDEST PUSH1 0x0 JUMPDEST DUP4 DUP2 LT ISZERO PUSH2 0x13B0 JUMPI DUP1 DUP3 ADD MLOAD DUP2 DUP5 ADD MSTORE PUSH1 0x20 DUP2 ADD SWAP1 POP PUSH2 0x1395 JUMP JUMPDEST DUP4 DUP2 GT ISZERO PUSH2 0x13BF JUMPI PUSH1 0x0 DUP5 DUP5 ADD MSTORE JUMPDEST POP POP POP POP JUMP JUMPDEST PUSH1 0x0 PUSH1 0x1F NOT PUSH1 0x1F DUP4 ADD AND SWAP1 POP SWAP2 SWAP1 POP JUMP JUMPDEST PUSH1 0x0 PUSH2 0x13E1 DUP3 PUSH2 0x1376 JUMP JUMPDEST PUSH2 0x13EB DUP2 DUP6 PUSH2 0x1381 JUMP JUMPDEST SWAP4 POP PUSH2 0x13FB DUP2 DUP6 PUSH1 0x20 DUP7 ADD PUSH2 0x1392 JUMP JUMPDEST PUSH2 0x1404 DUP2 PUSH2 0x13C5 JUMP JUMPDEST DUP5 ADD SWAP2 POP POP SWAP3 SWAP2 POP POP JUMP JUMPDEST PUSH1 0x0 PUSH1 0x20 DUP3 ADD SWAP1 POP DUP2 DUP2 SUB PUSH1 0x0 DUP4 ADD MSTORE PUSH2 0x1429 DUP2 DUP5 PUSH2 0x13D6 JUMP JUMPDEST SWAP1 POP SWAP3 SWAP2 POP POP JUMP JUMPDEST PUSH1 0x0 DUP1 REVERT JUMPDEST PUSH1 0x0 PUSH20 0xFFFFFFFFFFFFFFFFFFFFFFFFFFFFFFFFFFFFFFFF DUP3 AND SWAP1 POP SWAP2 SWAP1 POP JUMP JUMPDEST PUSH1 0x0 PUSH2 0x1461 DUP3 PUSH2 0x1436 JUMP JUMPDEST SWAP1 POP SWAP2 SWAP1 POP JUMP JUMPDEST PUSH2 0x1471 DUP2 PUSH2 0x1456 JUMP JUMPDEST DUP2 EQ PUSH2 0x147C JUMPI PUSH1 0x0 DUP1 REVERT JUMPDEST POP JUMP JUMPDEST PUSH1 0x0 DUP2 CALLDATALOAD SWAP1 POP PUSH2 0x148E DUP2 PUSH2 0x1468 JUMP JUMPDEST SWAP3 SWAP2 POP POP JUMP JUMPDEST PUSH1 0x0 DUP2 SWAP1 POP SWAP2 SWAP1 POP JUMP JUMPDEST PUSH2 0x14A7 DUP2 PUSH2 0x1494 JUMP JUMPDEST DUP2 EQ PUSH2 0x14B2 JUMPI PUSH1 0x0 DUP1 REVERT JUMPDEST POP JUMP JUMPDEST PUSH1 0x0 DUP2 CALLDATALOAD SWAP1 POP PUSH2 0x14C4 DUP2 PUSH2 0x149E JUMP JUMPDEST SWAP3 SWAP2 POP POP JUMP JUMPDEST PUSH1 0x0 DUP1 PUSH1 0x40 DUP4 DUP6 SUB SLT ISZERO PUSH2 0x14E1 JUMPI PUSH2 0x14E0 PUSH2 0x1431 JUMP JUMPDEST JUMPDEST PUSH1 0x0 PUSH2 0x14EF DUP6 DUP3 DUP7 ADD PUSH2 0x147F JUMP JUMPDEST SWAP3 POP POP PUSH1 0x20 PUSH2 0x1500 DUP6 DUP3 DUP7 ADD PUSH2 0x14B5 JUMP JUMPDEST SWAP2 POP POP SWAP3 POP SWAP3 SWAP1 POP JUMP JUMPDEST PUSH1 0x0 DUP2 ISZERO ISZERO SWAP1 POP SWAP2 SWAP1 POP JUMP JUMPDEST PUSH2 0x151F DUP2 PUSH2 0x150A JUMP JUMPDEST DUP3 MSTORE POP POP JUMP JUMPDEST PUSH1 0x0 PUSH1 0x20 DUP3 ADD SWAP1 POP PUSH2 0x153A PUSH1 0x0 DUP4 ADD DUP5 PUSH2 0x1516 JUMP JUMPDEST SWAP3 SWAP2 POP POP JUMP JUMPDEST PUSH1 0x0 PUSH2 0x154B DUP3 PUSH2 0x1436 JUMP JUMPDEST SWAP1 POP SWAP2 SWAP1 POP JUMP JUMPDEST PUSH2 0x155B DUP2 PUSH2 0x1540 JUMP JUMPDEST DUP2 EQ PUSH2 0x1566 JUMPI PUSH1 0x0 DUP1 REVERT JUMPDEST POP JUMP JUMPDEST PUSH1 0x0 DUP2 CALLDATALOAD SWAP1 POP PUSH2 0x1578 DUP2 PUSH2 0x1552 JUMP JUMPDEST SWAP3 SWAP2 POP POP JUMP JUMPDEST PUSH1 0x0 DUP1 PUSH1 0x40 DUP4 DUP6 SUB SLT ISZERO PUSH2 0x1595 JUMPI PUSH2 0x1594 PUSH2 0x1431 JUMP JUMPDEST JUMPDEST PUSH1 0x0 PUSH2 0x15A3 DUP6 DUP3 DUP7 ADD PUSH2 0x1569 JUMP JUMPDEST SWAP3 POP POP PUSH1 0x20 PUSH2 0x15B4 DUP6 DUP3 DUP7 ADD PUSH2 0x14B5 JUMP JUMPDEST SWAP2 POP POP SWAP3 POP SWAP3 SWAP1 POP JUMP JUMPDEST PUSH2 0x15C7 DUP2 PUSH2 0x1494 JUMP JUMPDEST DUP3 MSTORE POP POP JUMP JUMPDEST PUSH1 0x0 PUSH1 0x20 DUP3 ADD SWAP1 POP PUSH2 0x15E2 PUSH1 0x0 DUP4 ADD DUP5 PUSH2 0x15BE JUMP JUMPDEST SWAP3 SWAP2 POP POP JUMP JUMPDEST PUSH1 0x0 DUP1 PUSH1 0x0 PUSH1 0x60 DUP5 DUP7 SUB SLT ISZERO PUSH2 0x1601 JUMPI PUSH2 0x1600 PUSH2 0x1431 JUMP JUMPDEST JUMPDEST PUSH1 0x0 PUSH2 0x160F DUP7 DUP3 DUP8 ADD PUSH2 0x147F JUMP JUMPDEST SWAP4 POP POP PUSH1 0x20 PUSH2 0x1620 DUP7 DUP3 DUP8 ADD PUSH2 0x147F JUMP JUMPDEST SWAP3 POP POP PUSH1 0x40 PUSH2 0x1631 DUP7 DUP3 DUP8 ADD PUSH2 0x14B5 JUMP JUMPDEST SWAP2 POP POP SWAP3 POP SWAP3 POP SWAP3 JUMP JUMPDEST PUSH1 0x0 PUSH1 0xFF DUP3 AND SWAP1 POP SWAP2 SWAP1 POP JUMP JUMPDEST PUSH2 0x1651 DUP2 PUSH2 0x163B JUMP JUMPDEST DUP3 MSTORE POP POP JUMP JUMPDEST PUSH1 0x0 PUSH1 0x20 DUP3 ADD SWAP1 POP PUSH2 0x166C PUSH1 0x0 DUP4 ADD DUP5 PUSH2 0x1648 JUMP JUMPDEST SWAP3 SWAP2 POP POP JUMP JUMPDEST PUSH1 0x0 PUSH1 0x20 DUP3 DUP5 SUB SLT ISZERO PUSH2 0x1688 JUMPI PUSH2 0x1687 PUSH2 0x1431 JUMP JUMPDEST JUMPDEST PUSH1 0x0 PUSH2 0x1696 DUP5 DUP3 DUP6 ADD PUSH2 0x14B5 JUMP JUMPDEST SWAP2 POP POP SWAP3 SWAP2 POP POP JUMP JUMPDEST PUSH1 0x0 PUSH1 0x20 DUP3 DUP5 SUB SLT ISZERO PUSH2 0x16B5 JUMPI PUSH2 0x16B4 PUSH2 0x1431 JUMP JUMPDEST JUMPDEST PUSH1 0x0 PUSH2 0x16C3 DUP5 DUP3 DUP6 ADD PUSH2 0x147F JUMP JUMPDEST SWAP2 POP POP SWAP3 SWAP2 POP POP JUMP JUMPDEST PUSH2 0x16D5 DUP2 PUSH2 0x1456 JUMP JUMPDEST DUP3 MSTORE POP POP JUMP JUMPDEST PUSH1 0x0 PUSH1 0x20 DUP3 ADD SWAP1 POP PUSH2 0x16F0 PUSH1 0x0 DUP4 ADD DUP5 PUSH2 0x16CC JUMP JUMPDEST SWAP3 SWAP2 POP POP JUMP JUMPDEST PUSH1 0x0 DUP1 PUSH1 0x40 DUP4 DUP6 SUB SLT ISZERO PUSH2 0x170D JUMPI PUSH2 0x170C PUSH2 0x1431 JUMP JUMPDEST JUMPDEST PUSH1 0x0 PUSH2 0x171B DUP6 DUP3 DUP7 ADD PUSH2 0x147F JUMP JUMPDEST SWAP3 POP POP PUSH1 0x20 PUSH2 0x172C DUP6 DUP3 DUP7 ADD PUSH2 0x147F JUMP JUMPDEST SWAP2 POP POP SWAP3 POP SWAP3 SWAP1 POP JUMP JUMPDEST PUSH32 0x4E487B7100000000000000000000000000000000000000000000000000000000 PUSH1 0x0 MSTORE PUSH1 0x22 PUSH1 0x4 MSTORE PUSH1 0x24 PUSH1 0x0 REVERT JUMPDEST PUSH1 0x0 PUSH1 0x2 DUP3 DIV SWAP1 POP PUSH1 0x1 DUP3 AND DUP1 PUSH2 0x177D JUMPI PUSH1 0x7F DUP3 AND SWAP2 POP JUMPDEST PUSH1 0x20 DUP3 LT DUP2 EQ ISZERO PUSH2 0x1791 JUMPI PUSH2 0x1790 PUSH2 0x1736 JUMP JUMPDEST JUMPDEST POP SWAP2 SWAP1 POP JUMP JUMPDEST PUSH32 0x4E487B7100000000000000000000000000000000000000000000000000000000 PUSH1 0x0 MSTORE PUSH1 0x11 PUSH1 0x4 MSTORE PUSH1 0x24 PUSH1 0x0 REVERT JUMPDEST PUSH1 0x0 PUSH2 0x17D1 DUP3 PUSH2 0x1494 JUMP JUMPDEST SWAP2 POP PUSH2 0x17DC DUP4 PUSH2 0x1494 JUMP JUMPDEST SWAP3 POP DUP3 PUSH32 0xFFFFFFFFFFFFFFFFFFFFFFFFFFFFFFFFFFFFFFFFFFFFFFFFFFFFFFFFFFFFFFFF SUB DUP3 GT ISZERO PUSH2 0x1811 JUMPI PUSH2 0x1810 PUSH2 0x1797 JUMP JUMPDEST JUMPDEST DUP3 DUP3 ADD SWAP1 POP SWAP3 SWAP2 POP POP JUMP JUMPDEST PUSH32 0x45524332303A2064656372656173656420616C6C6F77616E63652062656C6F77 PUSH1 0x0 DUP3 ADD MSTORE PUSH32 0x207A65726F000000000000000000000000000000000000000000000000000000 PUSH1 0x20 DUP3 ADD MSTORE POP JUMP JUMPDEST PUSH1 0x0 PUSH2 0x1878 PUSH1 0x25 DUP4 PUSH2 0x1381 JUMP JUMPDEST SWAP2 POP PUSH2 0x1883 DUP3 PUSH2 0x181C JUMP JUMPDEST PUSH1 0x40 DUP3 ADD SWAP1 POP SWAP2 SWAP1 POP JUMP JUMPDEST PUSH1 0x0 PUSH1 0x20 DUP3 ADD SWAP1 POP DUP2 DUP2 SUB PUSH1 0x0 DUP4 ADD MSTORE PUSH2 0x18A7 DUP2 PUSH2 0x186B JUMP JUMPDEST SWAP1 POP SWAP2 SWAP1 POP JUMP JUMPDEST PUSH32 0x4F776E61626C653A206E6577206F776E657220697320746865207A65726F2061 PUSH1 0x0 DUP3 ADD MSTORE PUSH32 0x6464726573730000000000000000000000000000000000000000000000000000 PUSH1 0x20 DUP3 ADD MSTORE POP JUMP JUMPDEST PUSH1 0x0 PUSH2 0x190A PUSH1 0x26 DUP4 PUSH2 0x1381 JUMP JUMPDEST SWAP2 POP PUSH2 0x1915 DUP3 PUSH2 0x18AE JUMP JUMPDEST PUSH1 0x40 DUP3 ADD SWAP1 POP SWAP2 SWAP1 POP JUMP JUMPDEST PUSH1 0x0 PUSH1 0x20 DUP3 ADD SWAP1 POP DUP2 DUP2 SUB PUSH1 0x0 DUP4 ADD MSTORE PUSH2 0x1939 DUP2 PUSH2 0x18FD JUMP JUMPDEST SWAP1 POP SWAP2 SWAP1 POP JUMP JUMPDEST PUSH32 0x45524332303A20617070726F76652066726F6D20746865207A65726F20616464 PUSH1 0x0 DUP3 ADD MSTORE PUSH32 0x7265737300000000000000000000000000000000000000000000000000000000 PUSH1 0x20 DUP3 ADD MSTORE POP JUMP JUMPDEST PUSH1 0x0 PUSH2 0x199C PUSH1 0x24 DUP4 PUSH2 0x1381 JUMP JUMPDEST SWAP2 POP PUSH2 0x19A7 DUP3 PUSH2 0x1940 JUMP JUMPDEST PUSH1 0x40 DUP3 ADD SWAP1 POP SWAP2 SWAP1 POP JUMP JUMPDEST PUSH1 0x0 PUSH1 0x20 DUP3 ADD SWAP1 POP DUP2 DUP2 SUB PUSH1 0x0 DUP4 ADD MSTORE PUSH2 0x19CB DUP2 PUSH2 0x198F JUMP JUMPDEST SWAP1 POP SWAP2 SWAP1 POP JUMP JUMPDEST PUSH32 0x45524332303A20617070726F766520746F20746865207A65726F206164647265 PUSH1 0x0 DUP3 ADD MSTORE PUSH32 0x7373000000000000000000000000000000000000000000000000000000000000 PUSH1 0x20 DUP3 ADD MSTORE POP JUMP JUMPDEST PUSH1 0x0 PUSH2 0x1A2E PUSH1 0x22 DUP4 PUSH2 0x1381 JUMP JUMPDEST SWAP2 POP PUSH2 0x1A39 DUP3 PUSH2 0x19D2 JUMP JUMPDEST PUSH1 0x40 DUP3 ADD SWAP1 POP SWAP2 SWAP1 POP JUMP JUMPDEST PUSH1 0x0 PUSH1 0x20 DUP3 ADD SWAP1 POP DUP2 DUP2 SUB PUSH1 0x0 DUP4 ADD MSTORE PUSH2 0x1A5D DUP2 PUSH2 0x1A21 JUMP JUMPDEST SWAP1 POP SWAP2 SWAP1 POP JUMP JUMPDEST PUSH32 0x45524332303A20696E73756666696369656E7420616C6C6F77616E6365000000 PUSH1 0x0 DUP3 ADD MSTORE POP JUMP JUMPDEST PUSH1 0x0 PUSH2 0x1A9A PUSH1 0x1D DUP4 PUSH2 0x1381 JUMP JUMPDEST SWAP2 POP PUSH2 0x1AA5 DUP3 PUSH2 0x1A64 JUMP JUMPDEST PUSH1 0x20 DUP3 ADD SWAP1 POP SWAP2 SWAP1 POP JUMP JUMPDEST PUSH1 0x0 PUSH1 0x20 DUP3 ADD SWAP1 POP DUP2 DUP2 SUB PUSH1 0x0 DUP4 ADD MSTORE PUSH2 0x1AC9 DUP2 PUSH2 0x1A8D JUMP JUMPDEST SWAP1 POP SWAP2 SWAP1 POP JUMP JUMPDEST PUSH32 0x45524332303A207472616E736665722066726F6D20746865207A65726F206164 PUSH1 0x0 DUP3 ADD MSTORE PUSH32 0x6472657373000000000000000000000000000000000000000000000000000000 PUSH1 0x20 DUP3 ADD MSTORE POP JUMP JUMPDEST PUSH1 0x0 PUSH2 0x1B2C PUSH1 0x25 DUP4 PUSH2 0x1381 JUMP JUMPDEST SWAP2 POP PUSH2 0x1B37 DUP3 PUSH2 0x1AD0 JUMP JUMPDEST PUSH1 0x40 DUP3 ADD SWAP1 POP SWAP2 SWAP1 POP JUMP JUMPDEST PUSH1 0x0 PUSH1 0x20 DUP3 ADD SWAP1 POP DUP2 DUP2 SUB PUSH1 0x0 DUP4 ADD MSTORE PUSH2 0x1B5B DUP2 PUSH2 0x1B1F JUMP JUMPDEST SWAP1 POP SWAP2 SWAP1 POP JUMP JUMPDEST PUSH32 0x45524332303A207472616E7366657220746F20746865207A65726F2061646472 PUSH1 0x0 DUP3 ADD MSTORE PUSH32 0x6573730000000000000000000000000000000000000000000000000000000000 PUSH1 0x20 DUP3 ADD MSTORE POP JUMP JUMPDEST PUSH1 0x0 PUSH2 0x1BBE PUSH1 0x23 DUP4 PUSH2 0x1381 JUMP JUMPDEST SWAP2 POP PUSH2 0x1BC9 DUP3 PUSH2 0x1B62 JUMP JUMPDEST PUSH1 0x40 DUP3 ADD SWAP1 POP SWAP2 SWAP1 POP JUMP JUMPDEST PUSH1 0x0 PUSH1 0x20 DUP3 ADD SWAP1 POP DUP2 DUP2 SUB PUSH1 0x0 DUP4 ADD MSTORE PUSH2 0x1BED DUP2 PUSH2 0x1BB1 JUMP JUMPDEST SWAP1 POP SWAP2 SWAP1 POP JUMP JUMPDEST PUSH32 0x45524332303A207472616E7366657220616D6F756E7420657863656564732062 PUSH1 0x0 DUP3 ADD MSTORE PUSH32 0x616C616E63650000000000000000000000000000000000000000000000000000 PUSH1 0x20 DUP3 ADD MSTORE POP JUMP JUMPDEST PUSH1 0x0 PUSH2 0x1C50 PUSH1 0x26 DUP4 PUSH2 0x1381 JUMP JUMPDEST SWAP2 POP PUSH2 0x1C5B DUP3 PUSH2 0x1BF4 JUMP JUMPDEST PUSH1 0x40 DUP3 ADD SWAP1 POP SWAP2 SWAP1 POP JUMP JUMPDEST PUSH1 0x0 PUSH1 0x20 DUP3 ADD SWAP1 POP DUP2 DUP2 SUB PUSH1 0x0 DUP4 ADD MSTORE PUSH2 0x1C7F DUP2 PUSH2 0x1C43 JUMP JUMPDEST SWAP1 POP SWAP2 SWAP1 POP JUMP JUMPDEST PUSH32 0x4F776E61626C653A2063616C6C6572206973206E6F7420746865206F776E6572 PUSH1 0x0 DUP3 ADD MSTORE POP JUMP JUMPDEST PUSH1 0x0 PUSH2 0x1CBC PUSH1 0x20 DUP4 PUSH2 0x1381 JUMP JUMPDEST SWAP2 POP PUSH2 0x1CC7 DUP3 PUSH2 0x1C86 JUMP JUMPDEST PUSH1 0x20 DUP3 ADD SWAP1 POP SWAP2 SWAP1 POP JUMP JUMPDEST PUSH1 0x0 PUSH1 0x20 DUP3 ADD SWAP1 POP DUP2 DUP2 SUB PUSH1 0x0 DUP4 ADD MSTORE PUSH2 0x1CEB DUP2 PUSH2 0x1CAF JUMP JUMPDEST SWAP1 POP SWAP2 SWAP1 POP JUMP JUMPDEST PUSH32 0x45524332303A206275726E2066726F6D20746865207A65726F20616464726573 PUSH1 0x0 DUP3 ADD MSTORE PUSH32 0x7300000000000000000000000000000000000000000000000000000000000000 PUSH1 0x20 DUP3 ADD MSTORE POP JUMP JUMPDEST PUSH1 0x0 PUSH2 0x1D4E PUSH1 0x21 DUP4 PUSH2 0x1381 JUMP JUMPDEST SWAP2 POP PUSH2 0x1D59 DUP3 PUSH2 0x1CF2 JUMP JUMPDEST PUSH1 0x40 DUP3 ADD SWAP1 POP SWAP2 SWAP1 POP JUMP JUMPDEST PUSH1 0x0 PUSH1 0x20 DUP3 ADD SWAP1 POP DUP2 DUP2 SUB PUSH1 0x0 DUP4 ADD MSTORE PUSH2 0x1D7D DUP2 PUSH2 0x1D41 JUMP JUMPDEST SWAP1 POP SWAP2 SWAP1 POP JUMP JUMPDEST PUSH32 0x45524332303A206275726E20616D6F756E7420657863656564732062616C616E PUSH1 0x0 DUP3 ADD MSTORE PUSH32 0x6365000000000000000000000000000000000000000000000000000000000000 PUSH1 0x20 DUP3 ADD MSTORE POP JUMP JUMPDEST PUSH1 0x0 PUSH2 0x1DE0 PUSH1 0x22 DUP4 PUSH2 0x1381 JUMP JUMPDEST SWAP2 POP PUSH2 0x1DEB DUP3 PUSH2 0x1D84 JUMP JUMPDEST PUSH1 0x40 DUP3 ADD SWAP1 POP SWAP2 SWAP1 POP JUMP JUMPDEST PUSH1 0x0 PUSH1 0x20 DUP3 ADD SWAP1 POP DUP2 DUP2 SUB PUSH1 0x0 DUP4 ADD MSTORE PUSH2 0x1E0F DUP2 PUSH2 0x1DD3 JUMP JUMPDEST SWAP1 POP SWAP2 SWAP1 POP JUMP JUMPDEST PUSH32 0x5061757361626C653A206E6F7420706175736564000000000000000000000000 PUSH1 0x0 DUP3 ADD MSTORE POP JUMP JUMPDEST PUSH1 0x0 PUSH2 0x1E4C PUSH1 0x14 DUP4 PUSH2 0x1381 JUMP JUMPDEST SWAP2 POP PUSH2 0x1E57 DUP3 PUSH2 0x1E16 JUMP JUMPDEST PUSH1 0x20 DUP3 ADD SWAP1 POP SWAP2 SWAP1 POP JUMP JUMPDEST PUSH1 0x0 PUSH1 0x20 DUP3 ADD SWAP1 POP DUP2 DUP2 SUB PUSH1 0x0 DUP4 ADD MSTORE PUSH2 0x1E7B DUP2 PUSH2 0x1E3F JUMP JUMPDEST SWAP1 POP SWAP2 SWAP1 POP JUMP JUMPDEST PUSH32 0x5061757361626C653A2070617573656400000000000000000000000000000000 PUSH1 0x0 DUP3 ADD MSTORE POP JUMP JUMPDEST PUSH1 0x0 PUSH2 0x1EB8 PUSH1 0x10 DUP4 PUSH2 0x1381 JUMP JUMPDEST SWAP2 POP PUSH2 0x1EC3 DUP3 PUSH2 0x1E82 JUMP JUMPDEST PUSH1 0x20 DUP3 ADD SWAP1 POP SWAP2 SWAP1 POP JUMP JUMPDEST PUSH1 0x0 PUSH1 0x20 DUP3 ADD SWAP1 POP DUP2 DUP2 SUB PUSH1 0x0 DUP4 ADD MSTORE PUSH2 0x1EE7 DUP2 PUSH2 0x1EAB JUMP JUMPDEST SWAP1 POP SWAP2 SWAP1 POP JUMP INVALID LOG2 PUSH5 0x6970667358 0x22 SLT KECCAK256 AND DUP7 0xB4 REVERT MSTORE 0xB3 CREATE2 PC LOG1 PUSH32 0x935BA91622FEB959AC9A287793B192AB1E64A845E76864736F6C634300080900 CALLER "
				},
				"gasEstimates": {
					"creation": {
						"codeDepositCost": "1594400",
						"executionCost": "infinite",
						"totalCost": "infinite"
					},
					"external": {
						"allowance(address,address)": "infinite",
						"approve(address,uint256)": "infinite",
						"balanceOf()": "384",
						"balanceOf(address)": "2974",
						"burn(uint256)": "infinite",
						"burnFrom(address,uint256)": "infinite",
						"decimals()": "366",
						"decreaseAllowance(address,uint256)": "infinite",
						"increaseAllowance(address,uint256)": "infinite",
						"invest()": "infinite",
						"name()": "infinite",
						"owner()": "2683",
						"pause()": "infinite",
						"paused()": "2590",
						"renounceOwnership()": "30571",
						"symbol()": "infinite",
						"totalSupply()": "2527",
						"transfer(address,uint256)": "infinite",
						"transferFrom(address,address,uint256)": "infinite",
						"transferOwnership(address)": "31029",
						"transferToken(address,uint256)": "infinite",
						"unpause()": "infinite"
					},
					"internal": {
						"_beforeTokenTransfer(address,address,uint256)": "infinite"
					}
				},
				"methodIdentifiers": {
					"allowance(address,address)": "dd62ed3e",
					"approve(address,uint256)": "095ea7b3",
					"balanceOf()": "722713f7",
					"balanceOf(address)": "70a08231",
					"burn(uint256)": "42966c68",
					"burnFrom(address,uint256)": "79cc6790",
					"decimals()": "313ce567",
					"decreaseAllowance(address,uint256)": "a457c2d7",
					"increaseAllowance(address,uint256)": "39509351",
					"invest()": "e8b5e51f",
					"name()": "06fdde03",
					"owner()": "8da5cb5b",
					"pause()": "8456cb59",
					"paused()": "5c975abb",
					"renounceOwnership()": "715018a6",
					"symbol()": "95d89b41",
					"totalSupply()": "18160ddd",
					"transfer(address,uint256)": "a9059cbb",
					"transferFrom(address,address,uint256)": "23b872dd",
					"transferOwnership(address)": "f2fde38b",
					"transferToken(address,uint256)": "1072cbea",
					"unpause()": "3f4ba83a"
				}
			},
			"storageLayout": {
				"storage": [
					{
						"astId": 350,
						"contract": "RideDaoContract_flat.sol:RideDaoContract",
						"label": "_balances",
						"offset": 0,
						"slot": "0",
						"type": "t_mapping(t_address,t_uint256)"
					},
					{
						"astId": 356,
						"contract": "RideDaoContract_flat.sol:RideDaoContract",
						"label": "_allowances",
						"offset": 0,
						"slot": "1",
						"type": "t_mapping(t_address,t_mapping(t_address,t_uint256))"
					},
					{
						"astId": 358,
						"contract": "RideDaoContract_flat.sol:RideDaoContract",
						"label": "_totalSupply",
						"offset": 0,
						"slot": "2",
						"type": "t_uint256"
					},
					{
						"astId": 360,
						"contract": "RideDaoContract_flat.sol:RideDaoContract",
						"label": "_name",
						"offset": 0,
						"slot": "3",
						"type": "t_string_storage"
					},
					{
						"astId": 362,
						"contract": "RideDaoContract_flat.sol:RideDaoContract",
						"label": "_symbol",
						"offset": 0,
						"slot": "4",
						"type": "t_string_storage"
					},
					{
						"astId": 148,
						"contract": "RideDaoContract_flat.sol:RideDaoContract",
						"label": "_paused",
						"offset": 0,
						"slot": "5",
						"type": "t_bool"
					},
					{
						"astId": 27,
						"contract": "RideDaoContract_flat.sol:RideDaoContract",
						"label": "_owner",
						"offset": 1,
						"slot": "5",
						"type": "t_address"
					},
					{
						"astId": 994,
						"contract": "RideDaoContract_flat.sol:RideDaoContract",
						"label": "balances",
						"offset": 0,
						"slot": "6",
						"type": "t_mapping(t_address,t_uint256)"
					},
					{
						"astId": 997,
						"contract": "RideDaoContract_flat.sol:RideDaoContract",
						"label": "recipients",
						"offset": 0,
						"slot": "7",
						"type": "t_array(t_address_payable)dyn_storage"
					}
				],
				"types": {
					"t_address": {
						"encoding": "inplace",
						"label": "address",
						"numberOfBytes": "20"
					},
					"t_address_payable": {
						"encoding": "inplace",
						"label": "address payable",
						"numberOfBytes": "20"
					},
					"t_array(t_address_payable)dyn_storage": {
						"base": "t_address_payable",
						"encoding": "dynamic_array",
						"label": "address payable[]",
						"numberOfBytes": "32"
					},
					"t_bool": {
						"encoding": "inplace",
						"label": "bool",
						"numberOfBytes": "1"
					},
					"t_mapping(t_address,t_mapping(t_address,t_uint256))": {
						"encoding": "mapping",
						"key": "t_address",
						"label": "mapping(address => mapping(address => uint256))",
						"numberOfBytes": "32",
						"value": "t_mapping(t_address,t_uint256)"
					},
					"t_mapping(t_address,t_uint256)": {
						"encoding": "mapping",
						"key": "t_address",
						"label": "mapping(address => uint256)",
						"numberOfBytes": "32",
						"value": "t_uint256"
					},
					"t_string_storage": {
						"encoding": "bytes",
						"label": "string",
						"numberOfBytes": "32"
					},
					"t_uint256": {
						"encoding": "inplace",
						"label": "uint256",
						"numberOfBytes": "32"
					}
				}
			},
			"userdoc": {
				"kind": "user",
				"methods": {},
				"version": 1
			}
		}
	}
}