{
	"data": {
		"bytecode": {
			"linkReferences": {},
			"object": "60806040527fa4da2d239736f91e765513a3c7ddf5d5da09f26bd51bebf1800d8e7a9c4e26c86007553480156200003557600080fd5b506040518060400160405280600781526020017f5269646544616f000000000000000000000000000000000000000000000000008152506040518060400160405280600481526020017f5249444f000000000000000000000000000000000000000000000000000000008152508160039080519060200190620000ba92919062000ab3565b508060049080519060200190620000d392919062000ab3565b5050506000600560006101000a81548160ff021916908315150217905550620001066000801b336200027d60201b60201c565b620001387f65d7a28e3265b37a6474929f336521b332c1681b933f6cb9f3376673440d862a336200027d60201b60201c565b6200014c600754336200027d60201b60201c565b6200019333620001616200036f60201b60201c565b60126200016f919062000cfd565b6a295be96e6406697200000062000187919062000d4e565b6200037860201b60201c565b6000600881905550620001e17f65d7a28e3265b37a6474929f336521b332c1681b933f6cb9f3376673440d862a7313c2870c285b2f2f5831e53700b4e5e139e73596620004e660201b60201c565b620002277f65d7a28e3265b37a6474929f336521b332c1681b933f6cb9f3376673440d862a73668f723e961aab7089ce61fb90989f7bac49bb5b620004e660201b60201c565b6200024f6007547313c2870c285b2f2f5831e53700b4e5e139e73596620004e660201b60201c565b6200027760075473668f723e961aab7089ce61fb90989f7bac49bb5b620004e660201b60201c565b6200139e565b6200028f82826200051f60201b60201c565b6200036b5760016006600084815260200190815260200160002060000160008373ffffffffffffffffffffffffffffffffffffffff1673ffffffffffffffffffffffffffffffffffffffff16815260200190815260200160002060006101000a81548160ff021916908315150217905550620003106200058a60201b60201c565b73ffffffffffffffffffffffffffffffffffffffff168173ffffffffffffffffffffffffffffffffffffffff16837f2f8788117e7eff1d82e926ec794901d17c78024a50270940304540a733656f0d60405160405180910390a45b5050565b60006012905090565b600073ffffffffffffffffffffffffffffffffffffffff168273ffffffffffffffffffffffffffffffffffffffff161415620003eb576040517f08c379a0000000000000000000000000000000000000000000000000000000008152600401620003e29062000e10565b60405180910390fd5b620003ff600083836200059260201b60201c565b806002600082825462000413919062000e32565b92505081905550806000808473ffffffffffffffffffffffffffffffffffffffff1673ffffffffffffffffffffffffffffffffffffffff168152602001908152602001600020600082825401925050819055508173ffffffffffffffffffffffffffffffffffffffff16600073ffffffffffffffffffffffffffffffffffffffff167fddf252ad1be2c89b69c2b068fc378daa952ba7f163c4a11628f55a4df523b3ef83604051620004c6919062000ea0565b60405180910390a3620004e2600083836200066760201b60201c565b5050565b620004f7826200066c60201b60201c565b62000508816200068c60201b60201c565b6200051a83836200027d60201b60201c565b505050565b60006006600084815260200190815260200160002060000160008373ffffffffffffffffffffffffffffffffffffffff1673ffffffffffffffffffffffffffffffffffffffff16815260200190815260200160002060009054906101000a900460ff16905092915050565b600033905090565b620005a2620006b060201b60201c565b620005b3826200070560201b60201c565b15620005f6576040517f08c379a0000000000000000000000000000000000000000000000000000000008152600401620005ed9062000f33565b60405180910390fd5b62000607836200070560201b60201c565b156200064a576040517f08c379a0000000000000000000000000000000000000000000000000000000008152600401620006419062000fcb565b60405180910390fd5b620006628383836200075b60201b62000de11760201c565b505050565b505050565b600060066000838152602001908152602001600020600101549050919050565b620006ad81620006a16200058a60201b60201c565b6200076060201b60201c565b50565b620006c06200080c60201b60201c565b1562000703576040517f08c379a0000000000000000000000000000000000000000000000000000000008152600401620006fa906200103d565b60405180910390fd5b565b6000600960008373ffffffffffffffffffffffffffffffffffffffff1673ffffffffffffffffffffffffffffffffffffffff16815260200190815260200160002060009054906101000a900460ff169050919050565b505050565b6200077282826200051f60201b60201c565b62000808576200078d816200082360201b62000de61760201c565b620007a88360001c60206200085860201b62000e131760201c565b604051602001620007bb92919062001182565b6040516020818303038152906040526040517f08c379a0000000000000000000000000000000000000000000000000000000008152600401620007ff919062001216565b60405180910390fd5b5050565b6000600560009054906101000a900460ff16905090565b6060620008518273ffffffffffffffffffffffffffffffffffffffff16601460ff166200085860201b60201c565b9050919050565b6060600060028360026200086d919062000d4e565b62000879919062000e32565b67ffffffffffffffff8111156200089557620008946200123a565b5b6040519080825280601f01601f191660200182016040528015620008c85781602001600182028036833780820191505090505b5090507f30000000000000000000000000000000000000000000000000000000000000008160008151811062000903576200090262001269565b5b60200101907effffffffffffffffffffffffffffffffffffffffffffffffffffffffffffff1916908160001a9053507f7800000000000000000000000000000000000000000000000000000000000000816001815181106200096a576200096962001269565b5b60200101907effffffffffffffffffffffffffffffffffffffffffffffffffffffffffffff1916908160001a90535060006001846002620009ac919062000d4e565b620009b8919062000e32565b90505b600181111562000a62577f3031323334353637383961626364656600000000000000000000000000000000600f861660108110620009fe57620009fd62001269565b5b1a60f81b82828151811062000a185762000a1762001269565b5b60200101907effffffffffffffffffffffffffffffffffffffffffffffffffffffffffffff1916908160001a905350600485901c94508062000a5a9062001298565b9050620009bb565b506000841462000aa9576040517f08c379a000000000000000000000000000000000000000000000000000000000815260040162000aa09062001317565b60405180910390fd5b8091505092915050565b82805462000ac19062001368565b90600052602060002090601f01602090048101928262000ae5576000855562000b31565b82601f1062000b0057805160ff191683800117855562000b31565b8280016001018555821562000b31579182015b8281111562000b3057825182559160200191906001019062000b13565b5b50905062000b40919062000b44565b5090565b5b8082111562000b5f57600081600090555060010162000b45565b5090565b7f4e487b7100000000000000000000000000000000000000000000000000000000600052601160045260246000fd5b60008160011c9050919050565b6000808291508390505b600185111562000bf15780860481111562000bc95762000bc862000b63565b5b600185161562000bd95780820291505b808102905062000be98562000b92565b945062000ba9565b94509492505050565b60008262000c0c576001905062000cdf565b8162000c1c576000905062000cdf565b816001811462000c35576002811462000c405762000c76565b600191505062000cdf565b60ff84111562000c555762000c5462000b63565b5b8360020a91508482111562000c6f5762000c6e62000b63565b5b5062000cdf565b5060208310610133831016604e8410600b841016171562000cb05782820a90508381111562000caa5762000ca962000b63565b5b62000cdf565b62000cbf848484600162000b9f565b9250905081840481111562000cd95762000cd862000b63565b5b81810290505b9392505050565b6000819050919050565b600060ff82169050919050565b600062000d0a8262000ce6565b915062000d178362000cf0565b925062000d467fffffffffffffffffffffffffffffffffffffffffffffffffffffffffffffffff848462000bfa565b905092915050565b600062000d5b8262000ce6565b915062000d688362000ce6565b9250817fffffffffffffffffffffffffffffffffffffffffffffffffffffffffffffffff048311821515161562000da45762000da362000b63565b5b828202905092915050565b600082825260208201905092915050565b7f45524332303a206d696e7420746f20746865207a65726f206164647265737300600082015250565b600062000df8601f8362000daf565b915062000e058262000dc0565b602082019050919050565b6000602082019050818103600083015262000e2b8162000de9565b9050919050565b600062000e3f8262000ce6565b915062000e4c8362000ce6565b9250827fffffffffffffffffffffffffffffffffffffffffffffffffffffffffffffffff0382111562000e845762000e8362000b63565b5b828201905092915050565b62000e9a8162000ce6565b82525050565b600060208201905062000eb7600083018462000e8f565b92915050565b7f546f6b656e207472616e7366657220726566757365642e20526563656976657260008201527f206973206f6e2074686520626c61636b6c697374000000000000000000000000602082015250565b600062000f1b60348362000daf565b915062000f288262000ebd565b604082019050919050565b6000602082019050818103600083015262000f4e8162000f0c565b9050919050565b7f546f6b656e207472616e7366657220726566757365642e20596f75206172652060008201527f6f6e2074686520626c61636b6c69737400000000000000000000000000000000602082015250565b600062000fb360308362000daf565b915062000fc08262000f55565b604082019050919050565b6000602082019050818103600083015262000fe68162000fa4565b9050919050565b7f5061757361626c653a2070617573656400000000000000000000000000000000600082015250565b60006200102560108362000daf565b9150620010328262000fed565b602082019050919050565b60006020820190508181036000830152620010588162001016565b9050919050565b600081905092915050565b7f416363657373436f6e74726f6c3a206163636f756e7420000000000000000000600082015250565b6000620010a26017836200105f565b9150620010af826200106a565b601782019050919050565b600081519050919050565b60005b83811015620010e5578082015181840152602081019050620010c8565b83811115620010f5576000848401525b50505050565b60006200110882620010ba565b6200111481856200105f565b935062001126818560208601620010c5565b80840191505092915050565b7f206973206d697373696e6720726f6c6520000000000000000000000000000000600082015250565b60006200116a6011836200105f565b9150620011778262001132565b601182019050919050565b60006200118f8262001093565b91506200119d8285620010fb565b9150620011aa826200115b565b9150620011b88284620010fb565b91508190509392505050565b6000601f19601f8301169050919050565b6000620011e282620010ba565b620011ee818562000daf565b935062001200818560208601620010c5565b6200120b81620011c4565b840191505092915050565b60006020820190508181036000830152620012328184620011d5565b905092915050565b7f4e487b7100000000000000000000000000000000000000000000000000000000600052604160045260246000fd5b7f4e487b7100000000000000000000000000000000000000000000000000000000600052603260045260246000fd5b6000620012a58262000ce6565b91506000821415620012bc57620012bb62000b63565b5b600182039050919050565b7f537472696e67733a20686578206c656e67746820696e73756666696369656e74600082015250565b6000620012ff60208362000daf565b91506200130c82620012c7565b602082019050919050565b600060208201905081810360008301526200133281620012f0565b9050919050565b7f4e487b7100000000000000000000000000000000000000000000000000000000600052602260045260246000fd5b600060028204905060018216806200138157607f821691505b6020821081141562001398576200139762001339565b5b50919050565b612cd680620013ae6000396000f3fe608060405234801561001057600080fd5b50600436106101e55760003560e01c806346dbeb2d1161010f578063a217fddf116100a2578063d547741f11610071578063d547741f14610580578063dd62ed3e1461059c578063e47d6060146105cc578063e63ab1e9146105fc576101e5565b8063a217fddf146104e6578063a457c2d714610504578063a9059cbb14610534578063b351dfe814610564576101e5565b806379cc6790116100de57806379cc6790146104725780638456cb591461048e57806391d148541461049857806395d89b41146104c8576101e5565b806346dbeb2d146103e857806359362b88146104065780635c975abb1461042457806370a0823114610442576101e5565b806323b872dd1161018757806336568abe1161015657806336568abe1461037657806339509351146103925780633f4ba83a146103c257806342966c68146103cc576101e5565b806323b872dd146102dc578063248a9ca31461030c5780632f2ff15d1461033c578063313ce56714610358576101e5565b80631072cbea116101c35780631072cbea1461026857806318160ddd1461028457806319f4ff2f146102a25780631c1252f5146102be576101e5565b806301ffc9a7146101ea57806306fdde031461021a578063095ea7b314610238575b600080fd5b61020460048036038101906101ff9190611c1f565b61061a565b6040516102119190611c67565b60405180910390f35b610222610694565b60405161022f9190611d1b565b60405180910390f35b610252600480360381019061024d9190611dd1565b610726565b60405161025f9190611c67565b60405180910390f35b610282600480360381019061027d9190611e4f565b610749565b005b61028c6107bb565b6040516102999190611e9e565b60405180910390f35b6102bc60048036038101906102b79190611eb9565b6107c5565b005b6102c66107dc565b6040516102d39190611e9e565b60405180910390f35b6102f660048036038101906102f19190611ee6565b6107e2565b6040516103039190611c67565b60405180910390f35b61032660048036038101906103219190611f6f565b610811565b6040516103339190611fab565b60405180910390f35b61035660048036038101906103519190611fc6565b610831565b005b610360610852565b60405161036d9190612022565b60405180910390f35b610390600480360381019061038b9190611fc6565b61085b565b005b6103ac60048036038101906103a79190611dd1565b6108de565b6040516103b99190611c67565b60405180910390f35b6103ca610915565b005b6103e660048036038101906103e19190611eb9565b61094a565b005b6103f0610989565b6040516103fd9190611fab565b60405180910390f35b61040e61098f565b60405161041b9190611e9e565b60405180910390f35b61042c610999565b6040516104399190611c67565b60405180910390f35b61045c6004803603810190610457919061203d565b6109b0565b6040516104699190611e9e565b60405180910390f35b61048c60048036038101906104879190611dd1565b6109f8565b005b610496610a18565b005b6104b260048036038101906104ad9190611fc6565b610a4d565b6040516104bf9190611c67565b60405180910390f35b6104d0610ab8565b6040516104dd9190611d1b565b60405180910390f35b6104ee610b4a565b6040516104fb9190611fab565b60405180910390f35b61051e60048036038101906105199190611dd1565b610b51565b60405161052b9190611c67565b60405180910390f35b61054e60048036038101906105499190611dd1565b610bc8565b60405161055b9190611c67565b60405180910390f35b61057e60048036038101906105799190612096565b610beb565b005b61059a60048036038101906105959190611fc6565b610cbf565b005b6105b660048036038101906105b191906120d6565b610ce0565b6040516105c39190611e9e565b60405180910390f35b6105e660048036038101906105e1919061203d565b610d67565b6040516105f39190611c67565b60405180910390f35b610604610dbd565b6040516106119190611fab565b60405180910390f35b60007f7965db0b000000000000000000000000000000000000000000000000000000007bffffffffffffffffffffffffffffffffffffffffffffffffffffffff1916827bffffffffffffffffffffffffffffffffffffffffffffffffffffffff1916148061068d575061068c8261104f565b5b9050919050565b6060600380546106a390612145565b80601f01602080910402602001604051908101604052809291908181526020018280546106cf90612145565b801561071c5780601f106106f15761010080835404028352916020019161071c565b820191906000526020600020905b8154815290600101906020018083116106ff57829003601f168201915b5050505050905090565b6000806107316110b9565b905061073e8185856110c1565b600191505092915050565b606460085461075891906121d5565b816107639190612206565b8161076e9190612260565b90508173ffffffffffffffffffffffffffffffffffffffff166108fc829081150290604051600060405180830381858888f193505050501580156107b6573d6000803e3d6000fd5b505050565b6000600254905090565b6007546107d18161128c565b816008819055505050565b60085481565b6000806107ed6110b9565b90506107fa8582856112a0565b61080585858561132c565b60019150509392505050565b600060066000838152602001908152602001600020600101549050919050565b61083a82610811565b6108438161128c565b61084d83836115a4565b505050565b60006012905090565b6108636110b9565b73ffffffffffffffffffffffffffffffffffffffff168173ffffffffffffffffffffffffffffffffffffffff16146108d0576040517f08c379a00000000000000000000000000000000000000000000000000000000081526004016108c790612306565b60405180910390fd5b6108da8282611685565b5050565b6000806108e96110b9565b905061090a8185856108fb8589610ce0565b6109059190612326565b6110c1565b600191505092915050565b7f65d7a28e3265b37a6474929f336521b332c1681b933f6cb9f3376673440d862a61093f8161128c565b610947611767565b50565b7f65d7a28e3265b37a6474929f336521b332c1681b933f6cb9f3376673440d862a6109748161128c565b61098561097f6110b9565b836117ca565b5050565b60075481565b6000600854905090565b6000600560009054906101000a900460ff16905090565b60008060008373ffffffffffffffffffffffffffffffffffffffff1673ffffffffffffffffffffffffffffffffffffffff168152602001908152602001600020549050919050565b610a0a82610a046110b9565b836112a0565b610a1482826117ca565b5050565b7f65d7a28e3265b37a6474929f336521b332c1681b933f6cb9f3376673440d862a610a428161128c565b610a4a611998565b50565b60006006600084815260200190815260200160002060000160008373ffffffffffffffffffffffffffffffffffffffff1673ffffffffffffffffffffffffffffffffffffffff16815260200190815260200160002060009054906101000a900460ff16905092915050565b606060048054610ac790612145565b80601f0160208091040260200160405190810160405280929190818152602001828054610af390612145565b8015610b405780601f10610b1557610100808354040283529160200191610b40565b820191906000526020600020905b815481529060010190602001808311610b2357829003601f168201915b5050505050905090565b6000801b81565b600080610b5c6110b9565b90506000610b6a8286610ce0565b905083811015610baf576040517f08c379a0000000000000000000000000000000000000000000000000000000008152600401610ba6906123ee565b60405180910390fd5b610bbc82868684036110c1565b60019250505092915050565b600080610bd36110b9565b9050610be081858561132c565b600191505092915050565b7f65d7a28e3265b37a6474929f336521b332c1681b933f6cb9f3376673440d862a610c158161128c565b81600960008573ffffffffffffffffffffffffffffffffffffffff1673ffffffffffffffffffffffffffffffffffffffff16815260200190815260200160002060006101000a81548160ff0219169083151502179055508273ffffffffffffffffffffffffffffffffffffffff167f6a12b3df6cba4203bd7fd06b816789f87de8c594299aed5717ae070fac781bac83604051610cb29190611c67565b60405180910390a2505050565b610cc882610811565b610cd18161128c565b610cdb8383611685565b505050565b6000600160008473ffffffffffffffffffffffffffffffffffffffff1673ffffffffffffffffffffffffffffffffffffffff16815260200190815260200160002060008373ffffffffffffffffffffffffffffffffffffffff1673ffffffffffffffffffffffffffffffffffffffff16815260200190815260200160002054905092915050565b6000600960008373ffffffffffffffffffffffffffffffffffffffff1673ffffffffffffffffffffffffffffffffffffffff16815260200190815260200160002060009054906101000a900460ff169050919050565b7f65d7a28e3265b37a6474929f336521b332c1681b933f6cb9f3376673440d862a81565b505050565b6060610e0c8273ffffffffffffffffffffffffffffffffffffffff16601460ff16610e13565b9050919050565b606060006002836002610e269190612206565b610e309190612326565b67ffffffffffffffff811115610e4957610e4861240e565b5b6040519080825280601f01601f191660200182016040528015610e7b5781602001600182028036833780820191505090505b5090507f300000000000000000000000000000000000000000000000000000000000000081600081518110610eb357610eb261243d565b5b60200101907effffffffffffffffffffffffffffffffffffffffffffffffffffffffffffff1916908160001a9053507f780000000000000000000000000000000000000000000000000000000000000081600181518110610f1757610f1661243d565b5b60200101907effffffffffffffffffffffffffffffffffffffffffffffffffffffffffffff1916908160001a90535060006001846002610f579190612206565b610f619190612326565b90505b6001811115611001577f3031323334353637383961626364656600000000000000000000000000000000600f861660108110610fa357610fa261243d565b5b1a60f81b828281518110610fba57610fb961243d565b5b60200101907effffffffffffffffffffffffffffffffffffffffffffffffffffffffffffff1916908160001a905350600485901c945080610ffa9061246c565b9050610f64565b5060008414611045576040517f08c379a000000000000000000000000000000000000000000000000000000000815260040161103c906124e2565b60405180910390fd5b8091505092915050565b60007f01ffc9a7000000000000000000000000000000000000000000000000000000007bffffffffffffffffffffffffffffffffffffffffffffffffffffffff1916827bffffffffffffffffffffffffffffffffffffffffffffffffffffffff1916149050919050565b600033905090565b600073ffffffffffffffffffffffffffffffffffffffff168373ffffffffffffffffffffffffffffffffffffffff161415611131576040517f08c379a000000000000000000000000000000000000000000000000000000000815260040161112890612574565b60405180910390fd5b600073ffffffffffffffffffffffffffffffffffffffff168273ffffffffffffffffffffffffffffffffffffffff1614156111a1576040517f08c379a000000000000000000000000000000000000000000000000000000000815260040161119890612606565b60405180910390fd5b80600160008573ffffffffffffffffffffffffffffffffffffffff1673ffffffffffffffffffffffffffffffffffffffff16815260200190815260200160002060008473ffffffffffffffffffffffffffffffffffffffff1673ffffffffffffffffffffffffffffffffffffffff168152602001908152602001600020819055508173ffffffffffffffffffffffffffffffffffffffff168373ffffffffffffffffffffffffffffffffffffffff167f8c5be1e5ebec7d5bd14f71427d1e84f3dd0314c0f7b2291e5b200ac8c7c3b9258360405161127f9190611e9e565b60405180910390a3505050565b61129d816112986110b9565b6119fb565b50565b60006112ac8484610ce0565b90507fffffffffffffffffffffffffffffffffffffffffffffffffffffffffffffffff81146113265781811015611318576040517f08c379a000000000000000000000000000000000000000000000000000000000815260040161130f90612672565b60405180910390fd5b61132584848484036110c1565b5b50505050565b600073ffffffffffffffffffffffffffffffffffffffff168373ffffffffffffffffffffffffffffffffffffffff16141561139c576040517f08c379a000000000000000000000000000000000000000000000000000000000815260040161139390612704565b60405180910390fd5b600073ffffffffffffffffffffffffffffffffffffffff168273ffffffffffffffffffffffffffffffffffffffff16141561140c576040517f08c379a000000000000000000000000000000000000000000000000000000000815260040161140390612796565b60405180910390fd5b611417838383611a80565b60008060008573ffffffffffffffffffffffffffffffffffffffff1673ffffffffffffffffffffffffffffffffffffffff1681526020019081526020016000205490508181101561149d576040517f08c379a000000000000000000000000000000000000000000000000000000000815260040161149490612828565b60405180910390fd5b8181036000808673ffffffffffffffffffffffffffffffffffffffff1673ffffffffffffffffffffffffffffffffffffffff16815260200190815260200160002081905550816000808573ffffffffffffffffffffffffffffffffffffffff1673ffffffffffffffffffffffffffffffffffffffff168152602001908152602001600020600082825401925050819055508273ffffffffffffffffffffffffffffffffffffffff168473ffffffffffffffffffffffffffffffffffffffff167fddf252ad1be2c89b69c2b068fc378daa952ba7f163c4a11628f55a4df523b3ef8460405161158b9190611e9e565b60405180910390a361159e848484611b2a565b50505050565b6115ae8282610a4d565b6116815760016006600084815260200190815260200160002060000160008373ffffffffffffffffffffffffffffffffffffffff1673ffffffffffffffffffffffffffffffffffffffff16815260200190815260200160002060006101000a81548160ff0219169083151502179055506116266110b9565b73ffffffffffffffffffffffffffffffffffffffff168173ffffffffffffffffffffffffffffffffffffffff16837f2f8788117e7eff1d82e926ec794901d17c78024a50270940304540a733656f0d60405160405180910390a45b5050565b61168f8282610a4d565b156117635760006006600084815260200190815260200160002060000160008373ffffffffffffffffffffffffffffffffffffffff1673ffffffffffffffffffffffffffffffffffffffff16815260200190815260200160002060006101000a81548160ff0219169083151502179055506117086110b9565b73ffffffffffffffffffffffffffffffffffffffff168173ffffffffffffffffffffffffffffffffffffffff16837ff6391f5c32d9c69d2a47ea670b442974b53935d1edc7fd64eb21e047a839171b60405160405180910390a45b5050565b61176f611b2f565b6000600560006101000a81548160ff0219169083151502179055507f5db9ee0a495bf2e6ff9c91a7834c1ba4fdd244a5e8aa4e537bd38aeae4b073aa6117b36110b9565b6040516117c09190612857565b60405180910390a1565b600073ffffffffffffffffffffffffffffffffffffffff168273ffffffffffffffffffffffffffffffffffffffff16141561183a576040517f08c379a0000000000000000000000000000000000000000000000000000000008152600401611831906128e4565b60405180910390fd5b61184682600083611a80565b60008060008473ffffffffffffffffffffffffffffffffffffffff1673ffffffffffffffffffffffffffffffffffffffff168152602001908152602001600020549050818110156118cc576040517f08c379a00000000000000000000000000000000000000000000000000000000081526004016118c390612976565b60405180910390fd5b8181036000808573ffffffffffffffffffffffffffffffffffffffff1673ffffffffffffffffffffffffffffffffffffffff1681526020019081526020016000208190555081600260008282540392505081905550600073ffffffffffffffffffffffffffffffffffffffff168373ffffffffffffffffffffffffffffffffffffffff167fddf252ad1be2c89b69c2b068fc378daa952ba7f163c4a11628f55a4df523b3ef8460405161197f9190611e9e565b60405180910390a361199383600084611b2a565b505050565b6119a0611b78565b6001600560006101000a81548160ff0219169083151502179055507f62e78cea01bee320cd4e420270b5ea74000d11b0c9f74754ebdbfc544b05a2586119e46110b9565b6040516119f19190612857565b60405180910390a1565b611a058282610a4d565b611a7c57611a1281610de6565b611a208360001c6020610e13565b604051602001611a31929190612a6a565b6040516020818303038152906040526040517f08c379a0000000000000000000000000000000000000000000000000000000008152600401611a739190611d1b565b60405180910390fd5b5050565b611a88611b78565b611a9182610d67565b15611ad1576040517f08c379a0000000000000000000000000000000000000000000000000000000008152600401611ac890612b16565b60405180910390fd5b611ada83610d67565b15611b1a576040517f08c379a0000000000000000000000000000000000000000000000000000000008152600401611b1190612ba8565b60405180910390fd5b611b25838383610de1565b505050565b505050565b611b37610999565b611b76576040517f08c379a0000000000000000000000000000000000000000000000000000000008152600401611b6d90612c14565b60405180910390fd5b565b611b80610999565b15611bc0576040517f08c379a0000000000000000000000000000000000000000000000000000000008152600401611bb790612c80565b60405180910390fd5b565b600080fd5b60007fffffffff0000000000000000000000000000000000000000000000000000000082169050919050565b611bfc81611bc7565b8114611c0757600080fd5b50565b600081359050611c1981611bf3565b92915050565b600060208284031215611c3557611c34611bc2565b5b6000611c4384828501611c0a565b91505092915050565b60008115159050919050565b611c6181611c4c565b82525050565b6000602082019050611c7c6000830184611c58565b92915050565b600081519050919050565b600082825260208201905092915050565b60005b83811015611cbc578082015181840152602081019050611ca1565b83811115611ccb576000848401525b50505050565b6000601f19601f8301169050919050565b6000611ced82611c82565b611cf78185611c8d565b9350611d07818560208601611c9e565b611d1081611cd1565b840191505092915050565b60006020820190508181036000830152611d358184611ce2565b905092915050565b600073ffffffffffffffffffffffffffffffffffffffff82169050919050565b6000611d6882611d3d565b9050919050565b611d7881611d5d565b8114611d8357600080fd5b50565b600081359050611d9581611d6f565b92915050565b6000819050919050565b611dae81611d9b565b8114611db957600080fd5b50565b600081359050611dcb81611da5565b92915050565b60008060408385031215611de857611de7611bc2565b5b6000611df685828601611d86565b9250506020611e0785828601611dbc565b9150509250929050565b6000611e1c82611d3d565b9050919050565b611e2c81611e11565b8114611e3757600080fd5b50565b600081359050611e4981611e23565b92915050565b60008060408385031215611e6657611e65611bc2565b5b6000611e7485828601611e3a565b9250506020611e8585828601611dbc565b9150509250929050565b611e9881611d9b565b82525050565b6000602082019050611eb36000830184611e8f565b92915050565b600060208284031215611ecf57611ece611bc2565b5b6000611edd84828501611dbc565b91505092915050565b600080600060608486031215611eff57611efe611bc2565b5b6000611f0d86828701611d86565b9350506020611f1e86828701611d86565b9250506040611f2f86828701611dbc565b9150509250925092565b6000819050919050565b611f4c81611f39565b8114611f5757600080fd5b50565b600081359050611f6981611f43565b92915050565b600060208284031215611f8557611f84611bc2565b5b6000611f9384828501611f5a565b91505092915050565b611fa581611f39565b82525050565b6000602082019050611fc06000830184611f9c565b92915050565b60008060408385031215611fdd57611fdc611bc2565b5b6000611feb85828601611f5a565b9250506020611ffc85828601611d86565b9150509250929050565b600060ff82169050919050565b61201c81612006565b82525050565b60006020820190506120376000830184612013565b92915050565b60006020828403121561205357612052611bc2565b5b600061206184828501611d86565b91505092915050565b61207381611c4c565b811461207e57600080fd5b50565b6000813590506120908161206a565b92915050565b600080604083850312156120ad576120ac611bc2565b5b60006120bb85828601611d86565b92505060206120cc85828601612081565b9150509250929050565b600080604083850312156120ed576120ec611bc2565b5b60006120fb85828601611d86565b925050602061210c85828601611d86565b9150509250929050565b7f4e487b7100000000000000000000000000000000000000000000000000000000600052602260045260246000fd5b6000600282049050600182168061215d57607f821691505b6020821081141561217157612170612116565b5b50919050565b7f4e487b7100000000000000000000000000000000000000000000000000000000600052601260045260246000fd5b7f4e487b7100000000000000000000000000000000000000000000000000000000600052601160045260246000fd5b60006121e082611d9b565b91506121eb83611d9b565b9250826121fb576121fa612177565b5b828204905092915050565b600061221182611d9b565b915061221c83611d9b565b9250817fffffffffffffffffffffffffffffffffffffffffffffffffffffffffffffffff0483118215151615612255576122546121a6565b5b828202905092915050565b600061226b82611d9b565b915061227683611d9b565b925082821015612289576122886121a6565b5b828203905092915050565b7f416363657373436f6e74726f6c3a2063616e206f6e6c792072656e6f756e636560008201527f20726f6c657320666f722073656c660000000000000000000000000000000000602082015250565b60006122f0602f83611c8d565b91506122fb82612294565b604082019050919050565b6000602082019050818103600083015261231f816122e3565b9050919050565b600061233182611d9b565b915061233c83611d9b565b9250827fffffffffffffffffffffffffffffffffffffffffffffffffffffffffffffffff03821115612371576123706121a6565b5b828201905092915050565b7f45524332303a2064656372656173656420616c6c6f77616e63652062656c6f7760008201527f207a65726f000000000000000000000000000000000000000000000000000000602082015250565b60006123d8602583611c8d565b91506123e38261237c565b604082019050919050565b60006020820190508181036000830152612407816123cb565b9050919050565b7f4e487b7100000000000000000000000000000000000000000000000000000000600052604160045260246000fd5b7f4e487b7100000000000000000000000000000000000000000000000000000000600052603260045260246000fd5b600061247782611d9b565b9150600082141561248b5761248a6121a6565b5b600182039050919050565b7f537472696e67733a20686578206c656e67746820696e73756666696369656e74600082015250565b60006124cc602083611c8d565b91506124d782612496565b602082019050919050565b600060208201905081810360008301526124fb816124bf565b9050919050565b7f45524332303a20617070726f76652066726f6d20746865207a65726f2061646460008201527f7265737300000000000000000000000000000000000000000000000000000000602082015250565b600061255e602483611c8d565b915061256982612502565b604082019050919050565b6000602082019050818103600083015261258d81612551565b9050919050565b7f45524332303a20617070726f766520746f20746865207a65726f20616464726560008201527f7373000000000000000000000000000000000000000000000000000000000000602082015250565b60006125f0602283611c8d565b91506125fb82612594565b604082019050919050565b6000602082019050818103600083015261261f816125e3565b9050919050565b7f45524332303a20696e73756666696369656e7420616c6c6f77616e6365000000600082015250565b600061265c601d83611c8d565b915061266782612626565b602082019050919050565b6000602082019050818103600083015261268b8161264f565b9050919050565b7f45524332303a207472616e736665722066726f6d20746865207a65726f20616460008201527f6472657373000000000000000000000000000000000000000000000000000000602082015250565b60006126ee602583611c8d565b91506126f982612692565b604082019050919050565b6000602082019050818103600083015261271d816126e1565b9050919050565b7f45524332303a207472616e7366657220746f20746865207a65726f206164647260008201527f6573730000000000000000000000000000000000000000000000000000000000602082015250565b6000612780602383611c8d565b915061278b82612724565b604082019050919050565b600060208201905081810360008301526127af81612773565b9050919050565b7f45524332303a207472616e7366657220616d6f756e742065786365656473206260008201527f616c616e63650000000000000000000000000000000000000000000000000000602082015250565b6000612812602683611c8d565b915061281d826127b6565b604082019050919050565b6000602082019050818103600083015261284181612805565b9050919050565b61285181611d5d565b82525050565b600060208201905061286c6000830184612848565b92915050565b7f45524332303a206275726e2066726f6d20746865207a65726f2061646472657360008201527f7300000000000000000000000000000000000000000000000000000000000000602082015250565b60006128ce602183611c8d565b91506128d982612872565b604082019050919050565b600060208201905081810360008301526128fd816128c1565b9050919050565b7f45524332303a206275726e20616d6f756e7420657863656564732062616c616e60008201527f6365000000000000000000000000000000000000000000000000000000000000602082015250565b6000612960602283611c8d565b915061296b82612904565b604082019050919050565b6000602082019050818103600083015261298f81612953565b9050919050565b600081905092915050565b7f416363657373436f6e74726f6c3a206163636f756e7420000000000000000000600082015250565b60006129d7601783612996565b91506129e2826129a1565b601782019050919050565b60006129f882611c82565b612a028185612996565b9350612a12818560208601611c9e565b80840191505092915050565b7f206973206d697373696e6720726f6c6520000000000000000000000000000000600082015250565b6000612a54601183612996565b9150612a5f82612a1e565b601182019050919050565b6000612a75826129ca565b9150612a8182856129ed565b9150612a8c82612a47565b9150612a9882846129ed565b91508190509392505050565b7f546f6b656e207472616e7366657220726566757365642e20526563656976657260008201527f206973206f6e2074686520626c61636b6c697374000000000000000000000000602082015250565b6000612b00603483611c8d565b9150612b0b82612aa4565b604082019050919050565b60006020820190508181036000830152612b2f81612af3565b9050919050565b7f546f6b656e207472616e7366657220726566757365642e20596f75206172652060008201527f6f6e2074686520626c61636b6c69737400000000000000000000000000000000602082015250565b6000612b92603083611c8d565b9150612b9d82612b36565b604082019050919050565b60006020820190508181036000830152612bc181612b85565b9050919050565b7f5061757361626c653a206e6f7420706175736564000000000000000000000000600082015250565b6000612bfe601483611c8d565b9150612c0982612bc8565b602082019050919050565b60006020820190508181036000830152612c2d81612bf1565b9050919050565b7f5061757361626c653a2070617573656400000000000000000000000000000000600082015250565b6000612c6a601083611c8d565b9150612c7582612c34565b602082019050919050565b60006020820190508181036000830152612c9981612c5d565b905091905056fea264697066735822122018e92c085a33ee5a4ae27a655838d3fcb420ecfc7fdba14c39cd5330b8a9f07964736f6c63430008090033",
			"opcodes": "PUSH1 0x80 PUSH1 0x40 MSTORE PUSH32 0xA4DA2D239736F91E765513A3C7DDF5D5DA09F26BD51BEBF1800D8E7A9C4E26C8 PUSH1 0x7 SSTORE CALLVALUE DUP1 ISZERO PUSH3 0x35 JUMPI PUSH1 0x0 DUP1 REVERT JUMPDEST POP PUSH1 0x40 MLOAD DUP1 PUSH1 0x40 ADD PUSH1 0x40 MSTORE DUP1 PUSH1 0x7 DUP2 MSTORE PUSH1 0x20 ADD PUSH32 0x5269646544616F00000000000000000000000000000000000000000000000000 DUP2 MSTORE POP PUSH1 0x40 MLOAD DUP1 PUSH1 0x40 ADD PUSH1 0x40 MSTORE DUP1 PUSH1 0x4 DUP2 MSTORE PUSH1 0x20 ADD PUSH32 0x5249444F00000000000000000000000000000000000000000000000000000000 DUP2 MSTORE POP DUP2 PUSH1 0x3 SWAP1 DUP1 MLOAD SWAP1 PUSH1 0x20 ADD SWAP1 PUSH3 0xBA SWAP3 SWAP2 SWAP1 PUSH3 0xAB3 JUMP JUMPDEST POP DUP1 PUSH1 0x4 SWAP1 DUP1 MLOAD SWAP1 PUSH1 0x20 ADD SWAP1 PUSH3 0xD3 SWAP3 SWAP2 SWAP1 PUSH3 0xAB3 JUMP JUMPDEST POP POP POP PUSH1 0x0 PUSH1 0x5 PUSH1 0x0 PUSH2 0x100 EXP DUP2 SLOAD DUP2 PUSH1 0xFF MUL NOT AND SWAP1 DUP4 ISZERO ISZERO MUL OR SWAP1 SSTORE POP PUSH3 0x106 PUSH1 0x0 DUP1 SHL CALLER PUSH3 0x27D PUSH1 0x20 SHL PUSH1 0x20 SHR JUMP JUMPDEST PUSH3 0x138 PUSH32 0x65D7A28E3265B37A6474929F336521B332C1681B933F6CB9F3376673440D862A CALLER PUSH3 0x27D PUSH1 0x20 SHL PUSH1 0x20 SHR JUMP JUMPDEST PUSH3 0x14C PUSH1 0x7 SLOAD CALLER PUSH3 0x27D PUSH1 0x20 SHL PUSH1 0x20 SHR JUMP JUMPDEST PUSH3 0x193 CALLER PUSH3 0x161 PUSH3 0x36F PUSH1 0x20 SHL PUSH1 0x20 SHR JUMP JUMPDEST PUSH1 0x12 PUSH3 0x16F SWAP2 SWAP1 PUSH3 0xCFD JUMP JUMPDEST PUSH11 0x295BE96E64066972000000 PUSH3 0x187 SWAP2 SWAP1 PUSH3 0xD4E JUMP JUMPDEST PUSH3 0x378 PUSH1 0x20 SHL PUSH1 0x20 SHR JUMP JUMPDEST PUSH1 0x0 PUSH1 0x8 DUP2 SWAP1 SSTORE POP PUSH3 0x1E1 PUSH32 0x65D7A28E3265B37A6474929F336521B332C1681B933F6CB9F3376673440D862A PUSH20 0x13C2870C285B2F2F5831E53700B4E5E139E73596 PUSH3 0x4E6 PUSH1 0x20 SHL PUSH1 0x20 SHR JUMP JUMPDEST PUSH3 0x227 PUSH32 0x65D7A28E3265B37A6474929F336521B332C1681B933F6CB9F3376673440D862A PUSH20 0x668F723E961AAB7089CE61FB90989F7BAC49BB5B PUSH3 0x4E6 PUSH1 0x20 SHL PUSH1 0x20 SHR JUMP JUMPDEST PUSH3 0x24F PUSH1 0x7 SLOAD PUSH20 0x13C2870C285B2F2F5831E53700B4E5E139E73596 PUSH3 0x4E6 PUSH1 0x20 SHL PUSH1 0x20 SHR JUMP JUMPDEST PUSH3 0x277 PUSH1 0x7 SLOAD PUSH20 0x668F723E961AAB7089CE61FB90989F7BAC49BB5B PUSH3 0x4E6 PUSH1 0x20 SHL PUSH1 0x20 SHR JUMP JUMPDEST PUSH3 0x139E JUMP JUMPDEST PUSH3 0x28F DUP3 DUP3 PUSH3 0x51F PUSH1 0x20 SHL PUSH1 0x20 SHR JUMP JUMPDEST PUSH3 0x36B JUMPI PUSH1 0x1 PUSH1 0x6 PUSH1 0x0 DUP5 DUP2 MSTORE PUSH1 0x20 ADD SWAP1 DUP2 MSTORE PUSH1 0x20 ADD PUSH1 0x0 KECCAK256 PUSH1 0x0 ADD PUSH1 0x0 DUP4 PUSH20 0xFFFFFFFFFFFFFFFFFFFFFFFFFFFFFFFFFFFFFFFF AND PUSH20 0xFFFFFFFFFFFFFFFFFFFFFFFFFFFFFFFFFFFFFFFF AND DUP2 MSTORE PUSH1 0x20 ADD SWAP1 DUP2 MSTORE PUSH1 0x20 ADD PUSH1 0x0 KECCAK256 PUSH1 0x0 PUSH2 0x100 EXP DUP2 SLOAD DUP2 PUSH1 0xFF MUL NOT AND SWAP1 DUP4 ISZERO ISZERO MUL OR SWAP1 SSTORE POP PUSH3 0x310 PUSH3 0x58A PUSH1 0x20 SHL PUSH1 0x20 SHR JUMP JUMPDEST PUSH20 0xFFFFFFFFFFFFFFFFFFFFFFFFFFFFFFFFFFFFFFFF AND DUP2 PUSH20 0xFFFFFFFFFFFFFFFFFFFFFFFFFFFFFFFFFFFFFFFF AND DUP4 PUSH32 0x2F8788117E7EFF1D82E926EC794901D17C78024A50270940304540A733656F0D PUSH1 0x40 MLOAD PUSH1 0x40 MLOAD DUP1 SWAP2 SUB SWAP1 LOG4 JUMPDEST POP POP JUMP JUMPDEST PUSH1 0x0 PUSH1 0x12 SWAP1 POP SWAP1 JUMP JUMPDEST PUSH1 0x0 PUSH20 0xFFFFFFFFFFFFFFFFFFFFFFFFFFFFFFFFFFFFFFFF AND DUP3 PUSH20 0xFFFFFFFFFFFFFFFFFFFFFFFFFFFFFFFFFFFFFFFF AND EQ ISZERO PUSH3 0x3EB JUMPI PUSH1 0x40 MLOAD PUSH32 0x8C379A000000000000000000000000000000000000000000000000000000000 DUP2 MSTORE PUSH1 0x4 ADD PUSH3 0x3E2 SWAP1 PUSH3 0xE10 JUMP JUMPDEST PUSH1 0x40 MLOAD DUP1 SWAP2 SUB SWAP1 REVERT JUMPDEST PUSH3 0x3FF PUSH1 0x0 DUP4 DUP4 PUSH3 0x592 PUSH1 0x20 SHL PUSH1 0x20 SHR JUMP JUMPDEST DUP1 PUSH1 0x2 PUSH1 0x0 DUP3 DUP3 SLOAD PUSH3 0x413 SWAP2 SWAP1 PUSH3 0xE32 JUMP JUMPDEST SWAP3 POP POP DUP2 SWAP1 SSTORE POP DUP1 PUSH1 0x0 DUP1 DUP5 PUSH20 0xFFFFFFFFFFFFFFFFFFFFFFFFFFFFFFFFFFFFFFFF AND PUSH20 0xFFFFFFFFFFFFFFFFFFFFFFFFFFFFFFFFFFFFFFFF AND DUP2 MSTORE PUSH1 0x20 ADD SWAP1 DUP2 MSTORE PUSH1 0x20 ADD PUSH1 0x0 KECCAK256 PUSH1 0x0 DUP3 DUP3 SLOAD ADD SWAP3 POP POP DUP2 SWAP1 SSTORE POP DUP2 PUSH20 0xFFFFFFFFFFFFFFFFFFFFFFFFFFFFFFFFFFFFFFFF AND PUSH1 0x0 PUSH20 0xFFFFFFFFFFFFFFFFFFFFFFFFFFFFFFFFFFFFFFFF AND PUSH32 0xDDF252AD1BE2C89B69C2B068FC378DAA952BA7F163C4A11628F55A4DF523B3EF DUP4 PUSH1 0x40 MLOAD PUSH3 0x4C6 SWAP2 SWAP1 PUSH3 0xEA0 JUMP JUMPDEST PUSH1 0x40 MLOAD DUP1 SWAP2 SUB SWAP1 LOG3 PUSH3 0x4E2 PUSH1 0x0 DUP4 DUP4 PUSH3 0x667 PUSH1 0x20 SHL PUSH1 0x20 SHR JUMP JUMPDEST POP POP JUMP JUMPDEST PUSH3 0x4F7 DUP3 PUSH3 0x66C PUSH1 0x20 SHL PUSH1 0x20 SHR JUMP JUMPDEST PUSH3 0x508 DUP2 PUSH3 0x68C PUSH1 0x20 SHL PUSH1 0x20 SHR JUMP JUMPDEST PUSH3 0x51A DUP4 DUP4 PUSH3 0x27D PUSH1 0x20 SHL PUSH1 0x20 SHR JUMP JUMPDEST POP POP POP JUMP JUMPDEST PUSH1 0x0 PUSH1 0x6 PUSH1 0x0 DUP5 DUP2 MSTORE PUSH1 0x20 ADD SWAP1 DUP2 MSTORE PUSH1 0x20 ADD PUSH1 0x0 KECCAK256 PUSH1 0x0 ADD PUSH1 0x0 DUP4 PUSH20 0xFFFFFFFFFFFFFFFFFFFFFFFFFFFFFFFFFFFFFFFF AND PUSH20 0xFFFFFFFFFFFFFFFFFFFFFFFFFFFFFFFFFFFFFFFF AND DUP2 MSTORE PUSH1 0x20 ADD SWAP1 DUP2 MSTORE PUSH1 0x20 ADD PUSH1 0x0 KECCAK256 PUSH1 0x0 SWAP1 SLOAD SWAP1 PUSH2 0x100 EXP SWAP1 DIV PUSH1 0xFF AND SWAP1 POP SWAP3 SWAP2 POP POP JUMP JUMPDEST PUSH1 0x0 CALLER SWAP1 POP SWAP1 JUMP JUMPDEST PUSH3 0x5A2 PUSH3 0x6B0 PUSH1 0x20 SHL PUSH1 0x20 SHR JUMP JUMPDEST PUSH3 0x5B3 DUP3 PUSH3 0x705 PUSH1 0x20 SHL PUSH1 0x20 SHR JUMP JUMPDEST ISZERO PUSH3 0x5F6 JUMPI PUSH1 0x40 MLOAD PUSH32 0x8C379A000000000000000000000000000000000000000000000000000000000 DUP2 MSTORE PUSH1 0x4 ADD PUSH3 0x5ED SWAP1 PUSH3 0xF33 JUMP JUMPDEST PUSH1 0x40 MLOAD DUP1 SWAP2 SUB SWAP1 REVERT JUMPDEST PUSH3 0x607 DUP4 PUSH3 0x705 PUSH1 0x20 SHL PUSH1 0x20 SHR JUMP JUMPDEST ISZERO PUSH3 0x64A JUMPI PUSH1 0x40 MLOAD PUSH32 0x8C379A000000000000000000000000000000000000000000000000000000000 DUP2 MSTORE PUSH1 0x4 ADD PUSH3 0x641 SWAP1 PUSH3 0xFCB JUMP JUMPDEST PUSH1 0x40 MLOAD DUP1 SWAP2 SUB SWAP1 REVERT JUMPDEST PUSH3 0x662 DUP4 DUP4 DUP4 PUSH3 0x75B PUSH1 0x20 SHL PUSH3 0xDE1 OR PUSH1 0x20 SHR JUMP JUMPDEST POP POP POP JUMP JUMPDEST POP POP POP JUMP JUMPDEST PUSH1 0x0 PUSH1 0x6 PUSH1 0x0 DUP4 DUP2 MSTORE PUSH1 0x20 ADD SWAP1 DUP2 MSTORE PUSH1 0x20 ADD PUSH1 0x0 KECCAK256 PUSH1 0x1 ADD SLOAD SWAP1 POP SWAP2 SWAP1 POP JUMP JUMPDEST PUSH3 0x6AD DUP2 PUSH3 0x6A1 PUSH3 0x58A PUSH1 0x20 SHL PUSH1 0x20 SHR JUMP JUMPDEST PUSH3 0x760 PUSH1 0x20 SHL PUSH1 0x20 SHR JUMP JUMPDEST POP JUMP JUMPDEST PUSH3 0x6C0 PUSH3 0x80C PUSH1 0x20 SHL PUSH1 0x20 SHR JUMP JUMPDEST ISZERO PUSH3 0x703 JUMPI PUSH1 0x40 MLOAD PUSH32 0x8C379A000000000000000000000000000000000000000000000000000000000 DUP2 MSTORE PUSH1 0x4 ADD PUSH3 0x6FA SWAP1 PUSH3 0x103D JUMP JUMPDEST PUSH1 0x40 MLOAD DUP1 SWAP2 SUB SWAP1 REVERT JUMPDEST JUMP JUMPDEST PUSH1 0x0 PUSH1 0x9 PUSH1 0x0 DUP4 PUSH20 0xFFFFFFFFFFFFFFFFFFFFFFFFFFFFFFFFFFFFFFFF AND PUSH20 0xFFFFFFFFFFFFFFFFFFFFFFFFFFFFFFFFFFFFFFFF AND DUP2 MSTORE PUSH1 0x20 ADD SWAP1 DUP2 MSTORE PUSH1 0x20 ADD PUSH1 0x0 KECCAK256 PUSH1 0x0 SWAP1 SLOAD SWAP1 PUSH2 0x100 EXP SWAP1 DIV PUSH1 0xFF AND SWAP1 POP SWAP2 SWAP1 POP JUMP JUMPDEST POP POP POP JUMP JUMPDEST PUSH3 0x772 DUP3 DUP3 PUSH3 0x51F PUSH1 0x20 SHL PUSH1 0x20 SHR JUMP JUMPDEST PUSH3 0x808 JUMPI PUSH3 0x78D DUP2 PUSH3 0x823 PUSH1 0x20 SHL PUSH3 0xDE6 OR PUSH1 0x20 SHR JUMP JUMPDEST PUSH3 0x7A8 DUP4 PUSH1 0x0 SHR PUSH1 0x20 PUSH3 0x858 PUSH1 0x20 SHL PUSH3 0xE13 OR PUSH1 0x20 SHR JUMP JUMPDEST PUSH1 0x40 MLOAD PUSH1 0x20 ADD PUSH3 0x7BB SWAP3 SWAP2 SWAP1 PUSH3 0x1182 JUMP JUMPDEST PUSH1 0x40 MLOAD PUSH1 0x20 DUP2 DUP4 SUB SUB DUP2 MSTORE SWAP1 PUSH1 0x40 MSTORE PUSH1 0x40 MLOAD PUSH32 0x8C379A000000000000000000000000000000000000000000000000000000000 DUP2 MSTORE PUSH1 0x4 ADD PUSH3 0x7FF SWAP2 SWAP1 PUSH3 0x1216 JUMP JUMPDEST PUSH1 0x40 MLOAD DUP1 SWAP2 SUB SWAP1 REVERT JUMPDEST POP POP JUMP JUMPDEST PUSH1 0x0 PUSH1 0x5 PUSH1 0x0 SWAP1 SLOAD SWAP1 PUSH2 0x100 EXP SWAP1 DIV PUSH1 0xFF AND SWAP1 POP SWAP1 JUMP JUMPDEST PUSH1 0x60 PUSH3 0x851 DUP3 PUSH20 0xFFFFFFFFFFFFFFFFFFFFFFFFFFFFFFFFFFFFFFFF AND PUSH1 0x14 PUSH1 0xFF AND PUSH3 0x858 PUSH1 0x20 SHL PUSH1 0x20 SHR JUMP JUMPDEST SWAP1 POP SWAP2 SWAP1 POP JUMP JUMPDEST PUSH1 0x60 PUSH1 0x0 PUSH1 0x2 DUP4 PUSH1 0x2 PUSH3 0x86D SWAP2 SWAP1 PUSH3 0xD4E JUMP JUMPDEST PUSH3 0x879 SWAP2 SWAP1 PUSH3 0xE32 JUMP JUMPDEST PUSH8 0xFFFFFFFFFFFFFFFF DUP2 GT ISZERO PUSH3 0x895 JUMPI PUSH3 0x894 PUSH3 0x123A JUMP JUMPDEST JUMPDEST PUSH1 0x40 MLOAD SWAP1 DUP1 DUP3 MSTORE DUP1 PUSH1 0x1F ADD PUSH1 0x1F NOT AND PUSH1 0x20 ADD DUP3 ADD PUSH1 0x40 MSTORE DUP1 ISZERO PUSH3 0x8C8 JUMPI DUP2 PUSH1 0x20 ADD PUSH1 0x1 DUP3 MUL DUP1 CALLDATASIZE DUP4 CALLDATACOPY DUP1 DUP3 ADD SWAP2 POP POP SWAP1 POP JUMPDEST POP SWAP1 POP PUSH32 0x3000000000000000000000000000000000000000000000000000000000000000 DUP2 PUSH1 0x0 DUP2 MLOAD DUP2 LT PUSH3 0x903 JUMPI PUSH3 0x902 PUSH3 0x1269 JUMP JUMPDEST JUMPDEST PUSH1 0x20 ADD ADD SWAP1 PUSH31 0xFFFFFFFFFFFFFFFFFFFFFFFFFFFFFFFFFFFFFFFFFFFFFFFFFFFFFFFFFFFFFF NOT AND SWAP1 DUP2 PUSH1 0x0 BYTE SWAP1 MSTORE8 POP PUSH32 0x7800000000000000000000000000000000000000000000000000000000000000 DUP2 PUSH1 0x1 DUP2 MLOAD DUP2 LT PUSH3 0x96A JUMPI PUSH3 0x969 PUSH3 0x1269 JUMP JUMPDEST JUMPDEST PUSH1 0x20 ADD ADD SWAP1 PUSH31 0xFFFFFFFFFFFFFFFFFFFFFFFFFFFFFFFFFFFFFFFFFFFFFFFFFFFFFFFFFFFFFF NOT AND SWAP1 DUP2 PUSH1 0x0 BYTE SWAP1 MSTORE8 POP PUSH1 0x0 PUSH1 0x1 DUP5 PUSH1 0x2 PUSH3 0x9AC SWAP2 SWAP1 PUSH3 0xD4E JUMP JUMPDEST PUSH3 0x9B8 SWAP2 SWAP1 PUSH3 0xE32 JUMP JUMPDEST SWAP1 POP JUMPDEST PUSH1 0x1 DUP2 GT ISZERO PUSH3 0xA62 JUMPI PUSH32 0x3031323334353637383961626364656600000000000000000000000000000000 PUSH1 0xF DUP7 AND PUSH1 0x10 DUP2 LT PUSH3 0x9FE JUMPI PUSH3 0x9FD PUSH3 0x1269 JUMP JUMPDEST JUMPDEST BYTE PUSH1 0xF8 SHL DUP3 DUP3 DUP2 MLOAD DUP2 LT PUSH3 0xA18 JUMPI PUSH3 0xA17 PUSH3 0x1269 JUMP JUMPDEST JUMPDEST PUSH1 0x20 ADD ADD SWAP1 PUSH31 0xFFFFFFFFFFFFFFFFFFFFFFFFFFFFFFFFFFFFFFFFFFFFFFFFFFFFFFFFFFFFFF NOT AND SWAP1 DUP2 PUSH1 0x0 BYTE SWAP1 MSTORE8 POP PUSH1 0x4 DUP6 SWAP1 SHR SWAP5 POP DUP1 PUSH3 0xA5A SWAP1 PUSH3 0x1298 JUMP JUMPDEST SWAP1 POP PUSH3 0x9BB JUMP JUMPDEST POP PUSH1 0x0 DUP5 EQ PUSH3 0xAA9 JUMPI PUSH1 0x40 MLOAD PUSH32 0x8C379A000000000000000000000000000000000000000000000000000000000 DUP2 MSTORE PUSH1 0x4 ADD PUSH3 0xAA0 SWAP1 PUSH3 0x1317 JUMP JUMPDEST PUSH1 0x40 MLOAD DUP1 SWAP2 SUB SWAP1 REVERT JUMPDEST DUP1 SWAP2 POP POP SWAP3 SWAP2 POP POP JUMP JUMPDEST DUP3 DUP1 SLOAD PUSH3 0xAC1 SWAP1 PUSH3 0x1368 JUMP JUMPDEST SWAP1 PUSH1 0x0 MSTORE PUSH1 0x20 PUSH1 0x0 KECCAK256 SWAP1 PUSH1 0x1F ADD PUSH1 0x20 SWAP1 DIV DUP2 ADD SWAP3 DUP3 PUSH3 0xAE5 JUMPI PUSH1 0x0 DUP6 SSTORE PUSH3 0xB31 JUMP JUMPDEST DUP3 PUSH1 0x1F LT PUSH3 0xB00 JUMPI DUP1 MLOAD PUSH1 0xFF NOT AND DUP4 DUP1 ADD OR DUP6 SSTORE PUSH3 0xB31 JUMP JUMPDEST DUP3 DUP1 ADD PUSH1 0x1 ADD DUP6 SSTORE DUP3 ISZERO PUSH3 0xB31 JUMPI SWAP2 DUP3 ADD JUMPDEST DUP3 DUP2 GT ISZERO PUSH3 0xB30 JUMPI DUP3 MLOAD DUP3 SSTORE SWAP2 PUSH1 0x20 ADD SWAP2 SWAP1 PUSH1 0x1 ADD SWAP1 PUSH3 0xB13 JUMP JUMPDEST JUMPDEST POP SWAP1 POP PUSH3 0xB40 SWAP2 SWAP1 PUSH3 0xB44 JUMP JUMPDEST POP SWAP1 JUMP JUMPDEST JUMPDEST DUP1 DUP3 GT ISZERO PUSH3 0xB5F JUMPI PUSH1 0x0 DUP2 PUSH1 0x0 SWAP1 SSTORE POP PUSH1 0x1 ADD PUSH3 0xB45 JUMP JUMPDEST POP SWAP1 JUMP JUMPDEST PUSH32 0x4E487B7100000000000000000000000000000000000000000000000000000000 PUSH1 0x0 MSTORE PUSH1 0x11 PUSH1 0x4 MSTORE PUSH1 0x24 PUSH1 0x0 REVERT JUMPDEST PUSH1 0x0 DUP2 PUSH1 0x1 SHR SWAP1 POP SWAP2 SWAP1 POP JUMP JUMPDEST PUSH1 0x0 DUP1 DUP3 SWAP2 POP DUP4 SWAP1 POP JUMPDEST PUSH1 0x1 DUP6 GT ISZERO PUSH3 0xBF1 JUMPI DUP1 DUP7 DIV DUP2 GT ISZERO PUSH3 0xBC9 JUMPI PUSH3 0xBC8 PUSH3 0xB63 JUMP JUMPDEST JUMPDEST PUSH1 0x1 DUP6 AND ISZERO PUSH3 0xBD9 JUMPI DUP1 DUP3 MUL SWAP2 POP JUMPDEST DUP1 DUP2 MUL SWAP1 POP PUSH3 0xBE9 DUP6 PUSH3 0xB92 JUMP JUMPDEST SWAP5 POP PUSH3 0xBA9 JUMP JUMPDEST SWAP5 POP SWAP5 SWAP3 POP POP POP JUMP JUMPDEST PUSH1 0x0 DUP3 PUSH3 0xC0C JUMPI PUSH1 0x1 SWAP1 POP PUSH3 0xCDF JUMP JUMPDEST DUP2 PUSH3 0xC1C JUMPI PUSH1 0x0 SWAP1 POP PUSH3 0xCDF JUMP JUMPDEST DUP2 PUSH1 0x1 DUP2 EQ PUSH3 0xC35 JUMPI PUSH1 0x2 DUP2 EQ PUSH3 0xC40 JUMPI PUSH3 0xC76 JUMP JUMPDEST PUSH1 0x1 SWAP2 POP POP PUSH3 0xCDF JUMP JUMPDEST PUSH1 0xFF DUP5 GT ISZERO PUSH3 0xC55 JUMPI PUSH3 0xC54 PUSH3 0xB63 JUMP JUMPDEST JUMPDEST DUP4 PUSH1 0x2 EXP SWAP2 POP DUP5 DUP3 GT ISZERO PUSH3 0xC6F JUMPI PUSH3 0xC6E PUSH3 0xB63 JUMP JUMPDEST JUMPDEST POP PUSH3 0xCDF JUMP JUMPDEST POP PUSH1 0x20 DUP4 LT PUSH2 0x133 DUP4 LT AND PUSH1 0x4E DUP5 LT PUSH1 0xB DUP5 LT AND OR ISZERO PUSH3 0xCB0 JUMPI DUP3 DUP3 EXP SWAP1 POP DUP4 DUP2 GT ISZERO PUSH3 0xCAA JUMPI PUSH3 0xCA9 PUSH3 0xB63 JUMP JUMPDEST JUMPDEST PUSH3 0xCDF JUMP JUMPDEST PUSH3 0xCBF DUP5 DUP5 DUP5 PUSH1 0x1 PUSH3 0xB9F JUMP JUMPDEST SWAP3 POP SWAP1 POP DUP2 DUP5 DIV DUP2 GT ISZERO PUSH3 0xCD9 JUMPI PUSH3 0xCD8 PUSH3 0xB63 JUMP JUMPDEST JUMPDEST DUP2 DUP2 MUL SWAP1 POP JUMPDEST SWAP4 SWAP3 POP POP POP JUMP JUMPDEST PUSH1 0x0 DUP2 SWAP1 POP SWAP2 SWAP1 POP JUMP JUMPDEST PUSH1 0x0 PUSH1 0xFF DUP3 AND SWAP1 POP SWAP2 SWAP1 POP JUMP JUMPDEST PUSH1 0x0 PUSH3 0xD0A DUP3 PUSH3 0xCE6 JUMP JUMPDEST SWAP2 POP PUSH3 0xD17 DUP4 PUSH3 0xCF0 JUMP JUMPDEST SWAP3 POP PUSH3 0xD46 PUSH32 0xFFFFFFFFFFFFFFFFFFFFFFFFFFFFFFFFFFFFFFFFFFFFFFFFFFFFFFFFFFFFFFFF DUP5 DUP5 PUSH3 0xBFA JUMP JUMPDEST SWAP1 POP SWAP3 SWAP2 POP POP JUMP JUMPDEST PUSH1 0x0 PUSH3 0xD5B DUP3 PUSH3 0xCE6 JUMP JUMPDEST SWAP2 POP PUSH3 0xD68 DUP4 PUSH3 0xCE6 JUMP JUMPDEST SWAP3 POP DUP2 PUSH32 0xFFFFFFFFFFFFFFFFFFFFFFFFFFFFFFFFFFFFFFFFFFFFFFFFFFFFFFFFFFFFFFFF DIV DUP4 GT DUP3 ISZERO ISZERO AND ISZERO PUSH3 0xDA4 JUMPI PUSH3 0xDA3 PUSH3 0xB63 JUMP JUMPDEST JUMPDEST DUP3 DUP3 MUL SWAP1 POP SWAP3 SWAP2 POP POP JUMP JUMPDEST PUSH1 0x0 DUP3 DUP3 MSTORE PUSH1 0x20 DUP3 ADD SWAP1 POP SWAP3 SWAP2 POP POP JUMP JUMPDEST PUSH32 0x45524332303A206D696E7420746F20746865207A65726F206164647265737300 PUSH1 0x0 DUP3 ADD MSTORE POP JUMP JUMPDEST PUSH1 0x0 PUSH3 0xDF8 PUSH1 0x1F DUP4 PUSH3 0xDAF JUMP JUMPDEST SWAP2 POP PUSH3 0xE05 DUP3 PUSH3 0xDC0 JUMP JUMPDEST PUSH1 0x20 DUP3 ADD SWAP1 POP SWAP2 SWAP1 POP JUMP JUMPDEST PUSH1 0x0 PUSH1 0x20 DUP3 ADD SWAP1 POP DUP2 DUP2 SUB PUSH1 0x0 DUP4 ADD MSTORE PUSH3 0xE2B DUP2 PUSH3 0xDE9 JUMP JUMPDEST SWAP1 POP SWAP2 SWAP1 POP JUMP JUMPDEST PUSH1 0x0 PUSH3 0xE3F DUP3 PUSH3 0xCE6 JUMP JUMPDEST SWAP2 POP PUSH3 0xE4C DUP4 PUSH3 0xCE6 JUMP JUMPDEST SWAP3 POP DUP3 PUSH32 0xFFFFFFFFFFFFFFFFFFFFFFFFFFFFFFFFFFFFFFFFFFFFFFFFFFFFFFFFFFFFFFFF SUB DUP3 GT ISZERO PUSH3 0xE84 JUMPI PUSH3 0xE83 PUSH3 0xB63 JUMP JUMPDEST JUMPDEST DUP3 DUP3 ADD SWAP1 POP SWAP3 SWAP2 POP POP JUMP JUMPDEST PUSH3 0xE9A DUP2 PUSH3 0xCE6 JUMP JUMPDEST DUP3 MSTORE POP POP JUMP JUMPDEST PUSH1 0x0 PUSH1 0x20 DUP3 ADD SWAP1 POP PUSH3 0xEB7 PUSH1 0x0 DUP4 ADD DUP5 PUSH3 0xE8F JUMP JUMPDEST SWAP3 SWAP2 POP POP JUMP JUMPDEST PUSH32 0x546F6B656E207472616E7366657220726566757365642E205265636569766572 PUSH1 0x0 DUP3 ADD MSTORE PUSH32 0x206973206F6E2074686520626C61636B6C697374000000000000000000000000 PUSH1 0x20 DUP3 ADD MSTORE POP JUMP JUMPDEST PUSH1 0x0 PUSH3 0xF1B PUSH1 0x34 DUP4 PUSH3 0xDAF JUMP JUMPDEST SWAP2 POP PUSH3 0xF28 DUP3 PUSH3 0xEBD JUMP JUMPDEST PUSH1 0x40 DUP3 ADD SWAP1 POP SWAP2 SWAP1 POP JUMP JUMPDEST PUSH1 0x0 PUSH1 0x20 DUP3 ADD SWAP1 POP DUP2 DUP2 SUB PUSH1 0x0 DUP4 ADD MSTORE PUSH3 0xF4E DUP2 PUSH3 0xF0C JUMP JUMPDEST SWAP1 POP SWAP2 SWAP1 POP JUMP JUMPDEST PUSH32 0x546F6B656E207472616E7366657220726566757365642E20596F752061726520 PUSH1 0x0 DUP3 ADD MSTORE PUSH32 0x6F6E2074686520626C61636B6C69737400000000000000000000000000000000 PUSH1 0x20 DUP3 ADD MSTORE POP JUMP JUMPDEST PUSH1 0x0 PUSH3 0xFB3 PUSH1 0x30 DUP4 PUSH3 0xDAF JUMP JUMPDEST SWAP2 POP PUSH3 0xFC0 DUP3 PUSH3 0xF55 JUMP JUMPDEST PUSH1 0x40 DUP3 ADD SWAP1 POP SWAP2 SWAP1 POP JUMP JUMPDEST PUSH1 0x0 PUSH1 0x20 DUP3 ADD SWAP1 POP DUP2 DUP2 SUB PUSH1 0x0 DUP4 ADD MSTORE PUSH3 0xFE6 DUP2 PUSH3 0xFA4 JUMP JUMPDEST SWAP1 POP SWAP2 SWAP1 POP JUMP JUMPDEST PUSH32 0x5061757361626C653A2070617573656400000000000000000000000000000000 PUSH1 0x0 DUP3 ADD MSTORE POP JUMP JUMPDEST PUSH1 0x0 PUSH3 0x1025 PUSH1 0x10 DUP4 PUSH3 0xDAF JUMP JUMPDEST SWAP2 POP PUSH3 0x1032 DUP3 PUSH3 0xFED JUMP JUMPDEST PUSH1 0x20 DUP3 ADD SWAP1 POP SWAP2 SWAP1 POP JUMP JUMPDEST PUSH1 0x0 PUSH1 0x20 DUP3 ADD SWAP1 POP DUP2 DUP2 SUB PUSH1 0x0 DUP4 ADD MSTORE PUSH3 0x1058 DUP2 PUSH3 0x1016 JUMP JUMPDEST SWAP1 POP SWAP2 SWAP1 POP JUMP JUMPDEST PUSH1 0x0 DUP2 SWAP1 POP SWAP3 SWAP2 POP POP JUMP JUMPDEST PUSH32 0x416363657373436F6E74726F6C3A206163636F756E7420000000000000000000 PUSH1 0x0 DUP3 ADD MSTORE POP JUMP JUMPDEST PUSH1 0x0 PUSH3 0x10A2 PUSH1 0x17 DUP4 PUSH3 0x105F JUMP JUMPDEST SWAP2 POP PUSH3 0x10AF DUP3 PUSH3 0x106A JUMP JUMPDEST PUSH1 0x17 DUP3 ADD SWAP1 POP SWAP2 SWAP1 POP JUMP JUMPDEST PUSH1 0x0 DUP2 MLOAD SWAP1 POP SWAP2 SWAP1 POP JUMP JUMPDEST PUSH1 0x0 JUMPDEST DUP4 DUP2 LT ISZERO PUSH3 0x10E5 JUMPI DUP1 DUP3 ADD MLOAD DUP2 DUP5 ADD MSTORE PUSH1 0x20 DUP2 ADD SWAP1 POP PUSH3 0x10C8 JUMP JUMPDEST DUP4 DUP2 GT ISZERO PUSH3 0x10F5 JUMPI PUSH1 0x0 DUP5 DUP5 ADD MSTORE JUMPDEST POP POP POP POP JUMP JUMPDEST PUSH1 0x0 PUSH3 0x1108 DUP3 PUSH3 0x10BA JUMP JUMPDEST PUSH3 0x1114 DUP2 DUP6 PUSH3 0x105F JUMP JUMPDEST SWAP4 POP PUSH3 0x1126 DUP2 DUP6 PUSH1 0x20 DUP7 ADD PUSH3 0x10C5 JUMP JUMPDEST DUP1 DUP5 ADD SWAP2 POP POP SWAP3 SWAP2 POP POP JUMP JUMPDEST PUSH32 0x206973206D697373696E6720726F6C6520000000000000000000000000000000 PUSH1 0x0 DUP3 ADD MSTORE POP JUMP JUMPDEST PUSH1 0x0 PUSH3 0x116A PUSH1 0x11 DUP4 PUSH3 0x105F JUMP JUMPDEST SWAP2 POP PUSH3 0x1177 DUP3 PUSH3 0x1132 JUMP JUMPDEST PUSH1 0x11 DUP3 ADD SWAP1 POP SWAP2 SWAP1 POP JUMP JUMPDEST PUSH1 0x0 PUSH3 0x118F DUP3 PUSH3 0x1093 JUMP JUMPDEST SWAP2 POP PUSH3 0x119D DUP3 DUP6 PUSH3 0x10FB JUMP JUMPDEST SWAP2 POP PUSH3 0x11AA DUP3 PUSH3 0x115B JUMP JUMPDEST SWAP2 POP PUSH3 0x11B8 DUP3 DUP5 PUSH3 0x10FB JUMP JUMPDEST SWAP2 POP DUP2 SWAP1 POP SWAP4 SWAP3 POP POP POP JUMP JUMPDEST PUSH1 0x0 PUSH1 0x1F NOT PUSH1 0x1F DUP4 ADD AND SWAP1 POP SWAP2 SWAP1 POP JUMP JUMPDEST PUSH1 0x0 PUSH3 0x11E2 DUP3 PUSH3 0x10BA JUMP JUMPDEST PUSH3 0x11EE DUP2 DUP6 PUSH3 0xDAF JUMP JUMPDEST SWAP4 POP PUSH3 0x1200 DUP2 DUP6 PUSH1 0x20 DUP7 ADD PUSH3 0x10C5 JUMP JUMPDEST PUSH3 0x120B DUP2 PUSH3 0x11C4 JUMP JUMPDEST DUP5 ADD SWAP2 POP POP SWAP3 SWAP2 POP POP JUMP JUMPDEST PUSH1 0x0 PUSH1 0x20 DUP3 ADD SWAP1 POP DUP2 DUP2 SUB PUSH1 0x0 DUP4 ADD MSTORE PUSH3 0x1232 DUP2 DUP5 PUSH3 0x11D5 JUMP JUMPDEST SWAP1 POP SWAP3 SWAP2 POP POP JUMP JUMPDEST PUSH32 0x4E487B7100000000000000000000000000000000000000000000000000000000 PUSH1 0x0 MSTORE PUSH1 0x41 PUSH1 0x4 MSTORE PUSH1 0x24 PUSH1 0x0 REVERT JUMPDEST PUSH32 0x4E487B7100000000000000000000000000000000000000000000000000000000 PUSH1 0x0 MSTORE PUSH1 0x32 PUSH1 0x4 MSTORE PUSH1 0x24 PUSH1 0x0 REVERT JUMPDEST PUSH1 0x0 PUSH3 0x12A5 DUP3 PUSH3 0xCE6 JUMP JUMPDEST SWAP2 POP PUSH1 0x0 DUP3 EQ ISZERO PUSH3 0x12BC JUMPI PUSH3 0x12BB PUSH3 0xB63 JUMP JUMPDEST JUMPDEST PUSH1 0x1 DUP3 SUB SWAP1 POP SWAP2 SWAP1 POP JUMP JUMPDEST PUSH32 0x537472696E67733A20686578206C656E67746820696E73756666696369656E74 PUSH1 0x0 DUP3 ADD MSTORE POP JUMP JUMPDEST PUSH1 0x0 PUSH3 0x12FF PUSH1 0x20 DUP4 PUSH3 0xDAF JUMP JUMPDEST SWAP2 POP PUSH3 0x130C DUP3 PUSH3 0x12C7 JUMP JUMPDEST PUSH1 0x20 DUP3 ADD SWAP1 POP SWAP2 SWAP1 POP JUMP JUMPDEST PUSH1 0x0 PUSH1 0x20 DUP3 ADD SWAP1 POP DUP2 DUP2 SUB PUSH1 0x0 DUP4 ADD MSTORE PUSH3 0x1332 DUP2 PUSH3 0x12F0 JUMP JUMPDEST SWAP1 POP SWAP2 SWAP1 POP JUMP JUMPDEST PUSH32 0x4E487B7100000000000000000000000000000000000000000000000000000000 PUSH1 0x0 MSTORE PUSH1 0x22 PUSH1 0x4 MSTORE PUSH1 0x24 PUSH1 0x0 REVERT JUMPDEST PUSH1 0x0 PUSH1 0x2 DUP3 DIV SWAP1 POP PUSH1 0x1 DUP3 AND DUP1 PUSH3 0x1381 JUMPI PUSH1 0x7F DUP3 AND SWAP2 POP JUMPDEST PUSH1 0x20 DUP3 LT DUP2 EQ ISZERO PUSH3 0x1398 JUMPI PUSH3 0x1397 PUSH3 0x1339 JUMP JUMPDEST JUMPDEST POP SWAP2 SWAP1 POP JUMP JUMPDEST PUSH2 0x2CD6 DUP1 PUSH3 0x13AE PUSH1 0x0 CODECOPY PUSH1 0x0 RETURN INVALID PUSH1 0x80 PUSH1 0x40 MSTORE CALLVALUE DUP1 ISZERO PUSH2 0x10 JUMPI PUSH1 0x0 DUP1 REVERT JUMPDEST POP PUSH1 0x4 CALLDATASIZE LT PUSH2 0x1E5 JUMPI PUSH1 0x0 CALLDATALOAD PUSH1 0xE0 SHR DUP1 PUSH4 0x46DBEB2D GT PUSH2 0x10F JUMPI DUP1 PUSH4 0xA217FDDF GT PUSH2 0xA2 JUMPI DUP1 PUSH4 0xD547741F GT PUSH2 0x71 JUMPI DUP1 PUSH4 0xD547741F EQ PUSH2 0x580 JUMPI DUP1 PUSH4 0xDD62ED3E EQ PUSH2 0x59C JUMPI DUP1 PUSH4 0xE47D6060 EQ PUSH2 0x5CC JUMPI DUP1 PUSH4 0xE63AB1E9 EQ PUSH2 0x5FC JUMPI PUSH2 0x1E5 JUMP JUMPDEST DUP1 PUSH4 0xA217FDDF EQ PUSH2 0x4E6 JUMPI DUP1 PUSH4 0xA457C2D7 EQ PUSH2 0x504 JUMPI DUP1 PUSH4 0xA9059CBB EQ PUSH2 0x534 JUMPI DUP1 PUSH4 0xB351DFE8 EQ PUSH2 0x564 JUMPI PUSH2 0x1E5 JUMP JUMPDEST DUP1 PUSH4 0x79CC6790 GT PUSH2 0xDE JUMPI DUP1 PUSH4 0x79CC6790 EQ PUSH2 0x472 JUMPI DUP1 PUSH4 0x8456CB59 EQ PUSH2 0x48E JUMPI DUP1 PUSH4 0x91D14854 EQ PUSH2 0x498 JUMPI DUP1 PUSH4 0x95D89B41 EQ PUSH2 0x4C8 JUMPI PUSH2 0x1E5 JUMP JUMPDEST DUP1 PUSH4 0x46DBEB2D EQ PUSH2 0x3E8 JUMPI DUP1 PUSH4 0x59362B88 EQ PUSH2 0x406 JUMPI DUP1 PUSH4 0x5C975ABB EQ PUSH2 0x424 JUMPI DUP1 PUSH4 0x70A08231 EQ PUSH2 0x442 JUMPI PUSH2 0x1E5 JUMP JUMPDEST DUP1 PUSH4 0x23B872DD GT PUSH2 0x187 JUMPI DUP1 PUSH4 0x36568ABE GT PUSH2 0x156 JUMPI DUP1 PUSH4 0x36568ABE EQ PUSH2 0x376 JUMPI DUP1 PUSH4 0x39509351 EQ PUSH2 0x392 JUMPI DUP1 PUSH4 0x3F4BA83A EQ PUSH2 0x3C2 JUMPI DUP1 PUSH4 0x42966C68 EQ PUSH2 0x3CC JUMPI PUSH2 0x1E5 JUMP JUMPDEST DUP1 PUSH4 0x23B872DD EQ PUSH2 0x2DC JUMPI DUP1 PUSH4 0x248A9CA3 EQ PUSH2 0x30C JUMPI DUP1 PUSH4 0x2F2FF15D EQ PUSH2 0x33C JUMPI DUP1 PUSH4 0x313CE567 EQ PUSH2 0x358 JUMPI PUSH2 0x1E5 JUMP JUMPDEST DUP1 PUSH4 0x1072CBEA GT PUSH2 0x1C3 JUMPI DUP1 PUSH4 0x1072CBEA EQ PUSH2 0x268 JUMPI DUP1 PUSH4 0x18160DDD EQ PUSH2 0x284 JUMPI DUP1 PUSH4 0x19F4FF2F EQ PUSH2 0x2A2 JUMPI DUP1 PUSH4 0x1C1252F5 EQ PUSH2 0x2BE JUMPI PUSH2 0x1E5 JUMP JUMPDEST DUP1 PUSH4 0x1FFC9A7 EQ PUSH2 0x1EA JUMPI DUP1 PUSH4 0x6FDDE03 EQ PUSH2 0x21A JUMPI DUP1 PUSH4 0x95EA7B3 EQ PUSH2 0x238 JUMPI JUMPDEST PUSH1 0x0 DUP1 REVERT JUMPDEST PUSH2 0x204 PUSH1 0x4 DUP1 CALLDATASIZE SUB DUP2 ADD SWAP1 PUSH2 0x1FF SWAP2 SWAP1 PUSH2 0x1C1F JUMP JUMPDEST PUSH2 0x61A JUMP JUMPDEST PUSH1 0x40 MLOAD PUSH2 0x211 SWAP2 SWAP1 PUSH2 0x1C67 JUMP JUMPDEST PUSH1 0x40 MLOAD DUP1 SWAP2 SUB SWAP1 RETURN JUMPDEST PUSH2 0x222 PUSH2 0x694 JUMP JUMPDEST PUSH1 0x40 MLOAD PUSH2 0x22F SWAP2 SWAP1 PUSH2 0x1D1B JUMP JUMPDEST PUSH1 0x40 MLOAD DUP1 SWAP2 SUB SWAP1 RETURN JUMPDEST PUSH2 0x252 PUSH1 0x4 DUP1 CALLDATASIZE SUB DUP2 ADD SWAP1 PUSH2 0x24D SWAP2 SWAP1 PUSH2 0x1DD1 JUMP JUMPDEST PUSH2 0x726 JUMP JUMPDEST PUSH1 0x40 MLOAD PUSH2 0x25F SWAP2 SWAP1 PUSH2 0x1C67 JUMP JUMPDEST PUSH1 0x40 MLOAD DUP1 SWAP2 SUB SWAP1 RETURN JUMPDEST PUSH2 0x282 PUSH1 0x4 DUP1 CALLDATASIZE SUB DUP2 ADD SWAP1 PUSH2 0x27D SWAP2 SWAP1 PUSH2 0x1E4F JUMP JUMPDEST PUSH2 0x749 JUMP JUMPDEST STOP JUMPDEST PUSH2 0x28C PUSH2 0x7BB JUMP JUMPDEST PUSH1 0x40 MLOAD PUSH2 0x299 SWAP2 SWAP1 PUSH2 0x1E9E JUMP JUMPDEST PUSH1 0x40 MLOAD DUP1 SWAP2 SUB SWAP1 RETURN JUMPDEST PUSH2 0x2BC PUSH1 0x4 DUP1 CALLDATASIZE SUB DUP2 ADD SWAP1 PUSH2 0x2B7 SWAP2 SWAP1 PUSH2 0x1EB9 JUMP JUMPDEST PUSH2 0x7C5 JUMP JUMPDEST STOP JUMPDEST PUSH2 0x2C6 PUSH2 0x7DC JUMP JUMPDEST PUSH1 0x40 MLOAD PUSH2 0x2D3 SWAP2 SWAP1 PUSH2 0x1E9E JUMP JUMPDEST PUSH1 0x40 MLOAD DUP1 SWAP2 SUB SWAP1 RETURN JUMPDEST PUSH2 0x2F6 PUSH1 0x4 DUP1 CALLDATASIZE SUB DUP2 ADD SWAP1 PUSH2 0x2F1 SWAP2 SWAP1 PUSH2 0x1EE6 JUMP JUMPDEST PUSH2 0x7E2 JUMP JUMPDEST PUSH1 0x40 MLOAD PUSH2 0x303 SWAP2 SWAP1 PUSH2 0x1C67 JUMP JUMPDEST PUSH1 0x40 MLOAD DUP1 SWAP2 SUB SWAP1 RETURN JUMPDEST PUSH2 0x326 PUSH1 0x4 DUP1 CALLDATASIZE SUB DUP2 ADD SWAP1 PUSH2 0x321 SWAP2 SWAP1 PUSH2 0x1F6F JUMP JUMPDEST PUSH2 0x811 JUMP JUMPDEST PUSH1 0x40 MLOAD PUSH2 0x333 SWAP2 SWAP1 PUSH2 0x1FAB JUMP JUMPDEST PUSH1 0x40 MLOAD DUP1 SWAP2 SUB SWAP1 RETURN JUMPDEST PUSH2 0x356 PUSH1 0x4 DUP1 CALLDATASIZE SUB DUP2 ADD SWAP1 PUSH2 0x351 SWAP2 SWAP1 PUSH2 0x1FC6 JUMP JUMPDEST PUSH2 0x831 JUMP JUMPDEST STOP JUMPDEST PUSH2 0x360 PUSH2 0x852 JUMP JUMPDEST PUSH1 0x40 MLOAD PUSH2 0x36D SWAP2 SWAP1 PUSH2 0x2022 JUMP JUMPDEST PUSH1 0x40 MLOAD DUP1 SWAP2 SUB SWAP1 RETURN JUMPDEST PUSH2 0x390 PUSH1 0x4 DUP1 CALLDATASIZE SUB DUP2 ADD SWAP1 PUSH2 0x38B SWAP2 SWAP1 PUSH2 0x1FC6 JUMP JUMPDEST PUSH2 0x85B JUMP JUMPDEST STOP JUMPDEST PUSH2 0x3AC PUSH1 0x4 DUP1 CALLDATASIZE SUB DUP2 ADD SWAP1 PUSH2 0x3A7 SWAP2 SWAP1 PUSH2 0x1DD1 JUMP JUMPDEST PUSH2 0x8DE JUMP JUMPDEST PUSH1 0x40 MLOAD PUSH2 0x3B9 SWAP2 SWAP1 PUSH2 0x1C67 JUMP JUMPDEST PUSH1 0x40 MLOAD DUP1 SWAP2 SUB SWAP1 RETURN JUMPDEST PUSH2 0x3CA PUSH2 0x915 JUMP JUMPDEST STOP JUMPDEST PUSH2 0x3E6 PUSH1 0x4 DUP1 CALLDATASIZE SUB DUP2 ADD SWAP1 PUSH2 0x3E1 SWAP2 SWAP1 PUSH2 0x1EB9 JUMP JUMPDEST PUSH2 0x94A JUMP JUMPDEST STOP JUMPDEST PUSH2 0x3F0 PUSH2 0x989 JUMP JUMPDEST PUSH1 0x40 MLOAD PUSH2 0x3FD SWAP2 SWAP1 PUSH2 0x1FAB JUMP JUMPDEST PUSH1 0x40 MLOAD DUP1 SWAP2 SUB SWAP1 RETURN JUMPDEST PUSH2 0x40E PUSH2 0x98F JUMP JUMPDEST PUSH1 0x40 MLOAD PUSH2 0x41B SWAP2 SWAP1 PUSH2 0x1E9E JUMP JUMPDEST PUSH1 0x40 MLOAD DUP1 SWAP2 SUB SWAP1 RETURN JUMPDEST PUSH2 0x42C PUSH2 0x999 JUMP JUMPDEST PUSH1 0x40 MLOAD PUSH2 0x439 SWAP2 SWAP1 PUSH2 0x1C67 JUMP JUMPDEST PUSH1 0x40 MLOAD DUP1 SWAP2 SUB SWAP1 RETURN JUMPDEST PUSH2 0x45C PUSH1 0x4 DUP1 CALLDATASIZE SUB DUP2 ADD SWAP1 PUSH2 0x457 SWAP2 SWAP1 PUSH2 0x203D JUMP JUMPDEST PUSH2 0x9B0 JUMP JUMPDEST PUSH1 0x40 MLOAD PUSH2 0x469 SWAP2 SWAP1 PUSH2 0x1E9E JUMP JUMPDEST PUSH1 0x40 MLOAD DUP1 SWAP2 SUB SWAP1 RETURN JUMPDEST PUSH2 0x48C PUSH1 0x4 DUP1 CALLDATASIZE SUB DUP2 ADD SWAP1 PUSH2 0x487 SWAP2 SWAP1 PUSH2 0x1DD1 JUMP JUMPDEST PUSH2 0x9F8 JUMP JUMPDEST STOP JUMPDEST PUSH2 0x496 PUSH2 0xA18 JUMP JUMPDEST STOP JUMPDEST PUSH2 0x4B2 PUSH1 0x4 DUP1 CALLDATASIZE SUB DUP2 ADD SWAP1 PUSH2 0x4AD SWAP2 SWAP1 PUSH2 0x1FC6 JUMP JUMPDEST PUSH2 0xA4D JUMP JUMPDEST PUSH1 0x40 MLOAD PUSH2 0x4BF SWAP2 SWAP1 PUSH2 0x1C67 JUMP JUMPDEST PUSH1 0x40 MLOAD DUP1 SWAP2 SUB SWAP1 RETURN JUMPDEST PUSH2 0x4D0 PUSH2 0xAB8 JUMP JUMPDEST PUSH1 0x40 MLOAD PUSH2 0x4DD SWAP2 SWAP1 PUSH2 0x1D1B JUMP JUMPDEST PUSH1 0x40 MLOAD DUP1 SWAP2 SUB SWAP1 RETURN JUMPDEST PUSH2 0x4EE PUSH2 0xB4A JUMP JUMPDEST PUSH1 0x40 MLOAD PUSH2 0x4FB SWAP2 SWAP1 PUSH2 0x1FAB JUMP JUMPDEST PUSH1 0x40 MLOAD DUP1 SWAP2 SUB SWAP1 RETURN JUMPDEST PUSH2 0x51E PUSH1 0x4 DUP1 CALLDATASIZE SUB DUP2 ADD SWAP1 PUSH2 0x519 SWAP2 SWAP1 PUSH2 0x1DD1 JUMP JUMPDEST PUSH2 0xB51 JUMP JUMPDEST PUSH1 0x40 MLOAD PUSH2 0x52B SWAP2 SWAP1 PUSH2 0x1C67 JUMP JUMPDEST PUSH1 0x40 MLOAD DUP1 SWAP2 SUB SWAP1 RETURN JUMPDEST PUSH2 0x54E PUSH1 0x4 DUP1 CALLDATASIZE SUB DUP2 ADD SWAP1 PUSH2 0x549 SWAP2 SWAP1 PUSH2 0x1DD1 JUMP JUMPDEST PUSH2 0xBC8 JUMP JUMPDEST PUSH1 0x40 MLOAD PUSH2 0x55B SWAP2 SWAP1 PUSH2 0x1C67 JUMP JUMPDEST PUSH1 0x40 MLOAD DUP1 SWAP2 SUB SWAP1 RETURN JUMPDEST PUSH2 0x57E PUSH1 0x4 DUP1 CALLDATASIZE SUB DUP2 ADD SWAP1 PUSH2 0x579 SWAP2 SWAP1 PUSH2 0x2096 JUMP JUMPDEST PUSH2 0xBEB JUMP JUMPDEST STOP JUMPDEST PUSH2 0x59A PUSH1 0x4 DUP1 CALLDATASIZE SUB DUP2 ADD SWAP1 PUSH2 0x595 SWAP2 SWAP1 PUSH2 0x1FC6 JUMP JUMPDEST PUSH2 0xCBF JUMP JUMPDEST STOP JUMPDEST PUSH2 0x5B6 PUSH1 0x4 DUP1 CALLDATASIZE SUB DUP2 ADD SWAP1 PUSH2 0x5B1 SWAP2 SWAP1 PUSH2 0x20D6 JUMP JUMPDEST PUSH2 0xCE0 JUMP JUMPDEST PUSH1 0x40 MLOAD PUSH2 0x5C3 SWAP2 SWAP1 PUSH2 0x1E9E JUMP JUMPDEST PUSH1 0x40 MLOAD DUP1 SWAP2 SUB SWAP1 RETURN JUMPDEST PUSH2 0x5E6 PUSH1 0x4 DUP1 CALLDATASIZE SUB DUP2 ADD SWAP1 PUSH2 0x5E1 SWAP2 SWAP1 PUSH2 0x203D JUMP JUMPDEST PUSH2 0xD67 JUMP JUMPDEST PUSH1 0x40 MLOAD PUSH2 0x5F3 SWAP2 SWAP1 PUSH2 0x1C67 JUMP JUMPDEST PUSH1 0x40 MLOAD DUP1 SWAP2 SUB SWAP1 RETURN JUMPDEST PUSH2 0x604 PUSH2 0xDBD JUMP JUMPDEST PUSH1 0x40 MLOAD PUSH2 0x611 SWAP2 SWAP1 PUSH2 0x1FAB JUMP JUMPDEST PUSH1 0x40 MLOAD DUP1 SWAP2 SUB SWAP1 RETURN JUMPDEST PUSH1 0x0 PUSH32 0x7965DB0B00000000000000000000000000000000000000000000000000000000 PUSH28 0xFFFFFFFFFFFFFFFFFFFFFFFFFFFFFFFFFFFFFFFFFFFFFFFFFFFFFFFF NOT AND DUP3 PUSH28 0xFFFFFFFFFFFFFFFFFFFFFFFFFFFFFFFFFFFFFFFFFFFFFFFFFFFFFFFF NOT AND EQ DUP1 PUSH2 0x68D JUMPI POP PUSH2 0x68C DUP3 PUSH2 0x104F JUMP JUMPDEST JUMPDEST SWAP1 POP SWAP2 SWAP1 POP JUMP JUMPDEST PUSH1 0x60 PUSH1 0x3 DUP1 SLOAD PUSH2 0x6A3 SWAP1 PUSH2 0x2145 JUMP JUMPDEST DUP1 PUSH1 0x1F ADD PUSH1 0x20 DUP1 SWAP2 DIV MUL PUSH1 0x20 ADD PUSH1 0x40 MLOAD SWAP1 DUP2 ADD PUSH1 0x40 MSTORE DUP1 SWAP3 SWAP2 SWAP1 DUP2 DUP2 MSTORE PUSH1 0x20 ADD DUP3 DUP1 SLOAD PUSH2 0x6CF SWAP1 PUSH2 0x2145 JUMP JUMPDEST DUP1 ISZERO PUSH2 0x71C JUMPI DUP1 PUSH1 0x1F LT PUSH2 0x6F1 JUMPI PUSH2 0x100 DUP1 DUP4 SLOAD DIV MUL DUP4 MSTORE SWAP2 PUSH1 0x20 ADD SWAP2 PUSH2 0x71C JUMP JUMPDEST DUP3 ADD SWAP2 SWAP1 PUSH1 0x0 MSTORE PUSH1 0x20 PUSH1 0x0 KECCAK256 SWAP1 JUMPDEST DUP2 SLOAD DUP2 MSTORE SWAP1 PUSH1 0x1 ADD SWAP1 PUSH1 0x20 ADD DUP1 DUP4 GT PUSH2 0x6FF JUMPI DUP3 SWAP1 SUB PUSH1 0x1F AND DUP3 ADD SWAP2 JUMPDEST POP POP POP POP POP SWAP1 POP SWAP1 JUMP JUMPDEST PUSH1 0x0 DUP1 PUSH2 0x731 PUSH2 0x10B9 JUMP JUMPDEST SWAP1 POP PUSH2 0x73E DUP2 DUP6 DUP6 PUSH2 0x10C1 JUMP JUMPDEST PUSH1 0x1 SWAP2 POP POP SWAP3 SWAP2 POP POP JUMP JUMPDEST PUSH1 0x64 PUSH1 0x8 SLOAD PUSH2 0x758 SWAP2 SWAP1 PUSH2 0x21D5 JUMP JUMPDEST DUP2 PUSH2 0x763 SWAP2 SWAP1 PUSH2 0x2206 JUMP JUMPDEST DUP2 PUSH2 0x76E SWAP2 SWAP1 PUSH2 0x2260 JUMP JUMPDEST SWAP1 POP DUP2 PUSH20 0xFFFFFFFFFFFFFFFFFFFFFFFFFFFFFFFFFFFFFFFF AND PUSH2 0x8FC DUP3 SWAP1 DUP2 ISZERO MUL SWAP1 PUSH1 0x40 MLOAD PUSH1 0x0 PUSH1 0x40 MLOAD DUP1 DUP4 SUB DUP2 DUP6 DUP9 DUP9 CALL SWAP4 POP POP POP POP ISZERO DUP1 ISZERO PUSH2 0x7B6 JUMPI RETURNDATASIZE PUSH1 0x0 DUP1 RETURNDATACOPY RETURNDATASIZE PUSH1 0x0 REVERT JUMPDEST POP POP POP JUMP JUMPDEST PUSH1 0x0 PUSH1 0x2 SLOAD SWAP1 POP SWAP1 JUMP JUMPDEST PUSH1 0x7 SLOAD PUSH2 0x7D1 DUP2 PUSH2 0x128C JUMP JUMPDEST DUP2 PUSH1 0x8 DUP2 SWAP1 SSTORE POP POP POP JUMP JUMPDEST PUSH1 0x8 SLOAD DUP2 JUMP JUMPDEST PUSH1 0x0 DUP1 PUSH2 0x7ED PUSH2 0x10B9 JUMP JUMPDEST SWAP1 POP PUSH2 0x7FA DUP6 DUP3 DUP6 PUSH2 0x12A0 JUMP JUMPDEST PUSH2 0x805 DUP6 DUP6 DUP6 PUSH2 0x132C JUMP JUMPDEST PUSH1 0x1 SWAP2 POP POP SWAP4 SWAP3 POP POP POP JUMP JUMPDEST PUSH1 0x0 PUSH1 0x6 PUSH1 0x0 DUP4 DUP2 MSTORE PUSH1 0x20 ADD SWAP1 DUP2 MSTORE PUSH1 0x20 ADD PUSH1 0x0 KECCAK256 PUSH1 0x1 ADD SLOAD SWAP1 POP SWAP2 SWAP1 POP JUMP JUMPDEST PUSH2 0x83A DUP3 PUSH2 0x811 JUMP JUMPDEST PUSH2 0x843 DUP2 PUSH2 0x128C JUMP JUMPDEST PUSH2 0x84D DUP4 DUP4 PUSH2 0x15A4 JUMP JUMPDEST POP POP POP JUMP JUMPDEST PUSH1 0x0 PUSH1 0x12 SWAP1 POP SWAP1 JUMP JUMPDEST PUSH2 0x863 PUSH2 0x10B9 JUMP JUMPDEST PUSH20 0xFFFFFFFFFFFFFFFFFFFFFFFFFFFFFFFFFFFFFFFF AND DUP2 PUSH20 0xFFFFFFFFFFFFFFFFFFFFFFFFFFFFFFFFFFFFFFFF AND EQ PUSH2 0x8D0 JUMPI PUSH1 0x40 MLOAD PUSH32 0x8C379A000000000000000000000000000000000000000000000000000000000 DUP2 MSTORE PUSH1 0x4 ADD PUSH2 0x8C7 SWAP1 PUSH2 0x2306 JUMP JUMPDEST PUSH1 0x40 MLOAD DUP1 SWAP2 SUB SWAP1 REVERT JUMPDEST PUSH2 0x8DA DUP3 DUP3 PUSH2 0x1685 JUMP JUMPDEST POP POP JUMP JUMPDEST PUSH1 0x0 DUP1 PUSH2 0x8E9 PUSH2 0x10B9 JUMP JUMPDEST SWAP1 POP PUSH2 0x90A DUP2 DUP6 DUP6 PUSH2 0x8FB DUP6 DUP10 PUSH2 0xCE0 JUMP JUMPDEST PUSH2 0x905 SWAP2 SWAP1 PUSH2 0x2326 JUMP JUMPDEST PUSH2 0x10C1 JUMP JUMPDEST PUSH1 0x1 SWAP2 POP POP SWAP3 SWAP2 POP POP JUMP JUMPDEST PUSH32 0x65D7A28E3265B37A6474929F336521B332C1681B933F6CB9F3376673440D862A PUSH2 0x93F DUP2 PUSH2 0x128C JUMP JUMPDEST PUSH2 0x947 PUSH2 0x1767 JUMP JUMPDEST POP JUMP JUMPDEST PUSH32 0x65D7A28E3265B37A6474929F336521B332C1681B933F6CB9F3376673440D862A PUSH2 0x974 DUP2 PUSH2 0x128C JUMP JUMPDEST PUSH2 0x985 PUSH2 0x97F PUSH2 0x10B9 JUMP JUMPDEST DUP4 PUSH2 0x17CA JUMP JUMPDEST POP POP JUMP JUMPDEST PUSH1 0x7 SLOAD DUP2 JUMP JUMPDEST PUSH1 0x0 PUSH1 0x8 SLOAD SWAP1 POP SWAP1 JUMP JUMPDEST PUSH1 0x0 PUSH1 0x5 PUSH1 0x0 SWAP1 SLOAD SWAP1 PUSH2 0x100 EXP SWAP1 DIV PUSH1 0xFF AND SWAP1 POP SWAP1 JUMP JUMPDEST PUSH1 0x0 DUP1 PUSH1 0x0 DUP4 PUSH20 0xFFFFFFFFFFFFFFFFFFFFFFFFFFFFFFFFFFFFFFFF AND PUSH20 0xFFFFFFFFFFFFFFFFFFFFFFFFFFFFFFFFFFFFFFFF AND DUP2 MSTORE PUSH1 0x20 ADD SWAP1 DUP2 MSTORE PUSH1 0x20 ADD PUSH1 0x0 KECCAK256 SLOAD SWAP1 POP SWAP2 SWAP1 POP JUMP JUMPDEST PUSH2 0xA0A DUP3 PUSH2 0xA04 PUSH2 0x10B9 JUMP JUMPDEST DUP4 PUSH2 0x12A0 JUMP JUMPDEST PUSH2 0xA14 DUP3 DUP3 PUSH2 0x17CA JUMP JUMPDEST POP POP JUMP JUMPDEST PUSH32 0x65D7A28E3265B37A6474929F336521B332C1681B933F6CB9F3376673440D862A PUSH2 0xA42 DUP2 PUSH2 0x128C JUMP JUMPDEST PUSH2 0xA4A PUSH2 0x1998 JUMP JUMPDEST POP JUMP JUMPDEST PUSH1 0x0 PUSH1 0x6 PUSH1 0x0 DUP5 DUP2 MSTORE PUSH1 0x20 ADD SWAP1 DUP2 MSTORE PUSH1 0x20 ADD PUSH1 0x0 KECCAK256 PUSH1 0x0 ADD PUSH1 0x0 DUP4 PUSH20 0xFFFFFFFFFFFFFFFFFFFFFFFFFFFFFFFFFFFFFFFF AND PUSH20 0xFFFFFFFFFFFFFFFFFFFFFFFFFFFFFFFFFFFFFFFF AND DUP2 MSTORE PUSH1 0x20 ADD SWAP1 DUP2 MSTORE PUSH1 0x20 ADD PUSH1 0x0 KECCAK256 PUSH1 0x0 SWAP1 SLOAD SWAP1 PUSH2 0x100 EXP SWAP1 DIV PUSH1 0xFF AND SWAP1 POP SWAP3 SWAP2 POP POP JUMP JUMPDEST PUSH1 0x60 PUSH1 0x4 DUP1 SLOAD PUSH2 0xAC7 SWAP1 PUSH2 0x2145 JUMP JUMPDEST DUP1 PUSH1 0x1F ADD PUSH1 0x20 DUP1 SWAP2 DIV MUL PUSH1 0x20 ADD PUSH1 0x40 MLOAD SWAP1 DUP2 ADD PUSH1 0x40 MSTORE DUP1 SWAP3 SWAP2 SWAP1 DUP2 DUP2 MSTORE PUSH1 0x20 ADD DUP3 DUP1 SLOAD PUSH2 0xAF3 SWAP1 PUSH2 0x2145 JUMP JUMPDEST DUP1 ISZERO PUSH2 0xB40 JUMPI DUP1 PUSH1 0x1F LT PUSH2 0xB15 JUMPI PUSH2 0x100 DUP1 DUP4 SLOAD DIV MUL DUP4 MSTORE SWAP2 PUSH1 0x20 ADD SWAP2 PUSH2 0xB40 JUMP JUMPDEST DUP3 ADD SWAP2 SWAP1 PUSH1 0x0 MSTORE PUSH1 0x20 PUSH1 0x0 KECCAK256 SWAP1 JUMPDEST DUP2 SLOAD DUP2 MSTORE SWAP1 PUSH1 0x1 ADD SWAP1 PUSH1 0x20 ADD DUP1 DUP4 GT PUSH2 0xB23 JUMPI DUP3 SWAP1 SUB PUSH1 0x1F AND DUP3 ADD SWAP2 JUMPDEST POP POP POP POP POP SWAP1 POP SWAP1 JUMP JUMPDEST PUSH1 0x0 DUP1 SHL DUP2 JUMP JUMPDEST PUSH1 0x0 DUP1 PUSH2 0xB5C PUSH2 0x10B9 JUMP JUMPDEST SWAP1 POP PUSH1 0x0 PUSH2 0xB6A DUP3 DUP7 PUSH2 0xCE0 JUMP JUMPDEST SWAP1 POP DUP4 DUP2 LT ISZERO PUSH2 0xBAF JUMPI PUSH1 0x40 MLOAD PUSH32 0x8C379A000000000000000000000000000000000000000000000000000000000 DUP2 MSTORE PUSH1 0x4 ADD PUSH2 0xBA6 SWAP1 PUSH2 0x23EE JUMP JUMPDEST PUSH1 0x40 MLOAD DUP1 SWAP2 SUB SWAP1 REVERT JUMPDEST PUSH2 0xBBC DUP3 DUP7 DUP7 DUP5 SUB PUSH2 0x10C1 JUMP JUMPDEST PUSH1 0x1 SWAP3 POP POP POP SWAP3 SWAP2 POP POP JUMP JUMPDEST PUSH1 0x0 DUP1 PUSH2 0xBD3 PUSH2 0x10B9 JUMP JUMPDEST SWAP1 POP PUSH2 0xBE0 DUP2 DUP6 DUP6 PUSH2 0x132C JUMP JUMPDEST PUSH1 0x1 SWAP2 POP POP SWAP3 SWAP2 POP POP JUMP JUMPDEST PUSH32 0x65D7A28E3265B37A6474929F336521B332C1681B933F6CB9F3376673440D862A PUSH2 0xC15 DUP2 PUSH2 0x128C JUMP JUMPDEST DUP2 PUSH1 0x9 PUSH1 0x0 DUP6 PUSH20 0xFFFFFFFFFFFFFFFFFFFFFFFFFFFFFFFFFFFFFFFF AND PUSH20 0xFFFFFFFFFFFFFFFFFFFFFFFFFFFFFFFFFFFFFFFF AND DUP2 MSTORE PUSH1 0x20 ADD SWAP1 DUP2 MSTORE PUSH1 0x20 ADD PUSH1 0x0 KECCAK256 PUSH1 0x0 PUSH2 0x100 EXP DUP2 SLOAD DUP2 PUSH1 0xFF MUL NOT AND SWAP1 DUP4 ISZERO ISZERO MUL OR SWAP1 SSTORE POP DUP3 PUSH20 0xFFFFFFFFFFFFFFFFFFFFFFFFFFFFFFFFFFFFFFFF AND PUSH32 0x6A12B3DF6CBA4203BD7FD06B816789F87DE8C594299AED5717AE070FAC781BAC DUP4 PUSH1 0x40 MLOAD PUSH2 0xCB2 SWAP2 SWAP1 PUSH2 0x1C67 JUMP JUMPDEST PUSH1 0x40 MLOAD DUP1 SWAP2 SUB SWAP1 LOG2 POP POP POP JUMP JUMPDEST PUSH2 0xCC8 DUP3 PUSH2 0x811 JUMP JUMPDEST PUSH2 0xCD1 DUP2 PUSH2 0x128C JUMP JUMPDEST PUSH2 0xCDB DUP4 DUP4 PUSH2 0x1685 JUMP JUMPDEST POP POP POP JUMP JUMPDEST PUSH1 0x0 PUSH1 0x1 PUSH1 0x0 DUP5 PUSH20 0xFFFFFFFFFFFFFFFFFFFFFFFFFFFFFFFFFFFFFFFF AND PUSH20 0xFFFFFFFFFFFFFFFFFFFFFFFFFFFFFFFFFFFFFFFF AND DUP2 MSTORE PUSH1 0x20 ADD SWAP1 DUP2 MSTORE PUSH1 0x20 ADD PUSH1 0x0 KECCAK256 PUSH1 0x0 DUP4 PUSH20 0xFFFFFFFFFFFFFFFFFFFFFFFFFFFFFFFFFFFFFFFF AND PUSH20 0xFFFFFFFFFFFFFFFFFFFFFFFFFFFFFFFFFFFFFFFF AND DUP2 MSTORE PUSH1 0x20 ADD SWAP1 DUP2 MSTORE PUSH1 0x20 ADD PUSH1 0x0 KECCAK256 SLOAD SWAP1 POP SWAP3 SWAP2 POP POP JUMP JUMPDEST PUSH1 0x0 PUSH1 0x9 PUSH1 0x0 DUP4 PUSH20 0xFFFFFFFFFFFFFFFFFFFFFFFFFFFFFFFFFFFFFFFF AND PUSH20 0xFFFFFFFFFFFFFFFFFFFFFFFFFFFFFFFFFFFFFFFF AND DUP2 MSTORE PUSH1 0x20 ADD SWAP1 DUP2 MSTORE PUSH1 0x20 ADD PUSH1 0x0 KECCAK256 PUSH1 0x0 SWAP1 SLOAD SWAP1 PUSH2 0x100 EXP SWAP1 DIV PUSH1 0xFF AND SWAP1 POP SWAP2 SWAP1 POP JUMP JUMPDEST PUSH32 0x65D7A28E3265B37A6474929F336521B332C1681B933F6CB9F3376673440D862A DUP2 JUMP JUMPDEST POP POP POP JUMP JUMPDEST PUSH1 0x60 PUSH2 0xE0C DUP3 PUSH20 0xFFFFFFFFFFFFFFFFFFFFFFFFFFFFFFFFFFFFFFFF AND PUSH1 0x14 PUSH1 0xFF AND PUSH2 0xE13 JUMP JUMPDEST SWAP1 POP SWAP2 SWAP1 POP JUMP JUMPDEST PUSH1 0x60 PUSH1 0x0 PUSH1 0x2 DUP4 PUSH1 0x2 PUSH2 0xE26 SWAP2 SWAP1 PUSH2 0x2206 JUMP JUMPDEST PUSH2 0xE30 SWAP2 SWAP1 PUSH2 0x2326 JUMP JUMPDEST PUSH8 0xFFFFFFFFFFFFFFFF DUP2 GT ISZERO PUSH2 0xE49 JUMPI PUSH2 0xE48 PUSH2 0x240E JUMP JUMPDEST JUMPDEST PUSH1 0x40 MLOAD SWAP1 DUP1 DUP3 MSTORE DUP1 PUSH1 0x1F ADD PUSH1 0x1F NOT AND PUSH1 0x20 ADD DUP3 ADD PUSH1 0x40 MSTORE DUP1 ISZERO PUSH2 0xE7B JUMPI DUP2 PUSH1 0x20 ADD PUSH1 0x1 DUP3 MUL DUP1 CALLDATASIZE DUP4 CALLDATACOPY DUP1 DUP3 ADD SWAP2 POP POP SWAP1 POP JUMPDEST POP SWAP1 POP PUSH32 0x3000000000000000000000000000000000000000000000000000000000000000 DUP2 PUSH1 0x0 DUP2 MLOAD DUP2 LT PUSH2 0xEB3 JUMPI PUSH2 0xEB2 PUSH2 0x243D JUMP JUMPDEST JUMPDEST PUSH1 0x20 ADD ADD SWAP1 PUSH31 0xFFFFFFFFFFFFFFFFFFFFFFFFFFFFFFFFFFFFFFFFFFFFFFFFFFFFFFFFFFFFFF NOT AND SWAP1 DUP2 PUSH1 0x0 BYTE SWAP1 MSTORE8 POP PUSH32 0x7800000000000000000000000000000000000000000000000000000000000000 DUP2 PUSH1 0x1 DUP2 MLOAD DUP2 LT PUSH2 0xF17 JUMPI PUSH2 0xF16 PUSH2 0x243D JUMP JUMPDEST JUMPDEST PUSH1 0x20 ADD ADD SWAP1 PUSH31 0xFFFFFFFFFFFFFFFFFFFFFFFFFFFFFFFFFFFFFFFFFFFFFFFFFFFFFFFFFFFFFF NOT AND SWAP1 DUP2 PUSH1 0x0 BYTE SWAP1 MSTORE8 POP PUSH1 0x0 PUSH1 0x1 DUP5 PUSH1 0x2 PUSH2 0xF57 SWAP2 SWAP1 PUSH2 0x2206 JUMP JUMPDEST PUSH2 0xF61 SWAP2 SWAP1 PUSH2 0x2326 JUMP JUMPDEST SWAP1 POP JUMPDEST PUSH1 0x1 DUP2 GT ISZERO PUSH2 0x1001 JUMPI PUSH32 0x3031323334353637383961626364656600000000000000000000000000000000 PUSH1 0xF DUP7 AND PUSH1 0x10 DUP2 LT PUSH2 0xFA3 JUMPI PUSH2 0xFA2 PUSH2 0x243D JUMP JUMPDEST JUMPDEST BYTE PUSH1 0xF8 SHL DUP3 DUP3 DUP2 MLOAD DUP2 LT PUSH2 0xFBA JUMPI PUSH2 0xFB9 PUSH2 0x243D JUMP JUMPDEST JUMPDEST PUSH1 0x20 ADD ADD SWAP1 PUSH31 0xFFFFFFFFFFFFFFFFFFFFFFFFFFFFFFFFFFFFFFFFFFFFFFFFFFFFFFFFFFFFFF NOT AND SWAP1 DUP2 PUSH1 0x0 BYTE SWAP1 MSTORE8 POP PUSH1 0x4 DUP6 SWAP1 SHR SWAP5 POP DUP1 PUSH2 0xFFA SWAP1 PUSH2 0x246C JUMP JUMPDEST SWAP1 POP PUSH2 0xF64 JUMP JUMPDEST POP PUSH1 0x0 DUP5 EQ PUSH2 0x1045 JUMPI PUSH1 0x40 MLOAD PUSH32 0x8C379A000000000000000000000000000000000000000000000000000000000 DUP2 MSTORE PUSH1 0x4 ADD PUSH2 0x103C SWAP1 PUSH2 0x24E2 JUMP JUMPDEST PUSH1 0x40 MLOAD DUP1 SWAP2 SUB SWAP1 REVERT JUMPDEST DUP1 SWAP2 POP POP SWAP3 SWAP2 POP POP JUMP JUMPDEST PUSH1 0x0 PUSH32 0x1FFC9A700000000000000000000000000000000000000000000000000000000 PUSH28 0xFFFFFFFFFFFFFFFFFFFFFFFFFFFFFFFFFFFFFFFFFFFFFFFFFFFFFFFF NOT AND DUP3 PUSH28 0xFFFFFFFFFFFFFFFFFFFFFFFFFFFFFFFFFFFFFFFFFFFFFFFFFFFFFFFF NOT AND EQ SWAP1 POP SWAP2 SWAP1 POP JUMP JUMPDEST PUSH1 0x0 CALLER SWAP1 POP SWAP1 JUMP JUMPDEST PUSH1 0x0 PUSH20 0xFFFFFFFFFFFFFFFFFFFFFFFFFFFFFFFFFFFFFFFF AND DUP4 PUSH20 0xFFFFFFFFFFFFFFFFFFFFFFFFFFFFFFFFFFFFFFFF AND EQ ISZERO PUSH2 0x1131 JUMPI PUSH1 0x40 MLOAD PUSH32 0x8C379A000000000000000000000000000000000000000000000000000000000 DUP2 MSTORE PUSH1 0x4 ADD PUSH2 0x1128 SWAP1 PUSH2 0x2574 JUMP JUMPDEST PUSH1 0x40 MLOAD DUP1 SWAP2 SUB SWAP1 REVERT JUMPDEST PUSH1 0x0 PUSH20 0xFFFFFFFFFFFFFFFFFFFFFFFFFFFFFFFFFFFFFFFF AND DUP3 PUSH20 0xFFFFFFFFFFFFFFFFFFFFFFFFFFFFFFFFFFFFFFFF AND EQ ISZERO PUSH2 0x11A1 JUMPI PUSH1 0x40 MLOAD PUSH32 0x8C379A000000000000000000000000000000000000000000000000000000000 DUP2 MSTORE PUSH1 0x4 ADD PUSH2 0x1198 SWAP1 PUSH2 0x2606 JUMP JUMPDEST PUSH1 0x40 MLOAD DUP1 SWAP2 SUB SWAP1 REVERT JUMPDEST DUP1 PUSH1 0x1 PUSH1 0x0 DUP6 PUSH20 0xFFFFFFFFFFFFFFFFFFFFFFFFFFFFFFFFFFFFFFFF AND PUSH20 0xFFFFFFFFFFFFFFFFFFFFFFFFFFFFFFFFFFFFFFFF AND DUP2 MSTORE PUSH1 0x20 ADD SWAP1 DUP2 MSTORE PUSH1 0x20 ADD PUSH1 0x0 KECCAK256 PUSH1 0x0 DUP5 PUSH20 0xFFFFFFFFFFFFFFFFFFFFFFFFFFFFFFFFFFFFFFFF AND PUSH20 0xFFFFFFFFFFFFFFFFFFFFFFFFFFFFFFFFFFFFFFFF AND DUP2 MSTORE PUSH1 0x20 ADD SWAP1 DUP2 MSTORE PUSH1 0x20 ADD PUSH1 0x0 KECCAK256 DUP2 SWAP1 SSTORE POP DUP2 PUSH20 0xFFFFFFFFFFFFFFFFFFFFFFFFFFFFFFFFFFFFFFFF AND DUP4 PUSH20 0xFFFFFFFFFFFFFFFFFFFFFFFFFFFFFFFFFFFFFFFF AND PUSH32 0x8C5BE1E5EBEC7D5BD14F71427D1E84F3DD0314C0F7B2291E5B200AC8C7C3B925 DUP4 PUSH1 0x40 MLOAD PUSH2 0x127F SWAP2 SWAP1 PUSH2 0x1E9E JUMP JUMPDEST PUSH1 0x40 MLOAD DUP1 SWAP2 SUB SWAP1 LOG3 POP POP POP JUMP JUMPDEST PUSH2 0x129D DUP2 PUSH2 0x1298 PUSH2 0x10B9 JUMP JUMPDEST PUSH2 0x19FB JUMP JUMPDEST POP JUMP JUMPDEST PUSH1 0x0 PUSH2 0x12AC DUP5 DUP5 PUSH2 0xCE0 JUMP JUMPDEST SWAP1 POP PUSH32 0xFFFFFFFFFFFFFFFFFFFFFFFFFFFFFFFFFFFFFFFFFFFFFFFFFFFFFFFFFFFFFFFF DUP2 EQ PUSH2 0x1326 JUMPI DUP2 DUP2 LT ISZERO PUSH2 0x1318 JUMPI PUSH1 0x40 MLOAD PUSH32 0x8C379A000000000000000000000000000000000000000000000000000000000 DUP2 MSTORE PUSH1 0x4 ADD PUSH2 0x130F SWAP1 PUSH2 0x2672 JUMP JUMPDEST PUSH1 0x40 MLOAD DUP1 SWAP2 SUB SWAP1 REVERT JUMPDEST PUSH2 0x1325 DUP5 DUP5 DUP5 DUP5 SUB PUSH2 0x10C1 JUMP JUMPDEST JUMPDEST POP POP POP POP JUMP JUMPDEST PUSH1 0x0 PUSH20 0xFFFFFFFFFFFFFFFFFFFFFFFFFFFFFFFFFFFFFFFF AND DUP4 PUSH20 0xFFFFFFFFFFFFFFFFFFFFFFFFFFFFFFFFFFFFFFFF AND EQ ISZERO PUSH2 0x139C JUMPI PUSH1 0x40 MLOAD PUSH32 0x8C379A000000000000000000000000000000000000000000000000000000000 DUP2 MSTORE PUSH1 0x4 ADD PUSH2 0x1393 SWAP1 PUSH2 0x2704 JUMP JUMPDEST PUSH1 0x40 MLOAD DUP1 SWAP2 SUB SWAP1 REVERT JUMPDEST PUSH1 0x0 PUSH20 0xFFFFFFFFFFFFFFFFFFFFFFFFFFFFFFFFFFFFFFFF AND DUP3 PUSH20 0xFFFFFFFFFFFFFFFFFFFFFFFFFFFFFFFFFFFFFFFF AND EQ ISZERO PUSH2 0x140C JUMPI PUSH1 0x40 MLOAD PUSH32 0x8C379A000000000000000000000000000000000000000000000000000000000 DUP2 MSTORE PUSH1 0x4 ADD PUSH2 0x1403 SWAP1 PUSH2 0x2796 JUMP JUMPDEST PUSH1 0x40 MLOAD DUP1 SWAP2 SUB SWAP1 REVERT JUMPDEST PUSH2 0x1417 DUP4 DUP4 DUP4 PUSH2 0x1A80 JUMP JUMPDEST PUSH1 0x0 DUP1 PUSH1 0x0 DUP6 PUSH20 0xFFFFFFFFFFFFFFFFFFFFFFFFFFFFFFFFFFFFFFFF AND PUSH20 0xFFFFFFFFFFFFFFFFFFFFFFFFFFFFFFFFFFFFFFFF AND DUP2 MSTORE PUSH1 0x20 ADD SWAP1 DUP2 MSTORE PUSH1 0x20 ADD PUSH1 0x0 KECCAK256 SLOAD SWAP1 POP DUP2 DUP2 LT ISZERO PUSH2 0x149D JUMPI PUSH1 0x40 MLOAD PUSH32 0x8C379A000000000000000000000000000000000000000000000000000000000 DUP2 MSTORE PUSH1 0x4 ADD PUSH2 0x1494 SWAP1 PUSH2 0x2828 JUMP JUMPDEST PUSH1 0x40 MLOAD DUP1 SWAP2 SUB SWAP1 REVERT JUMPDEST DUP2 DUP2 SUB PUSH1 0x0 DUP1 DUP7 PUSH20 0xFFFFFFFFFFFFFFFFFFFFFFFFFFFFFFFFFFFFFFFF AND PUSH20 0xFFFFFFFFFFFFFFFFFFFFFFFFFFFFFFFFFFFFFFFF AND DUP2 MSTORE PUSH1 0x20 ADD SWAP1 DUP2 MSTORE PUSH1 0x20 ADD PUSH1 0x0 KECCAK256 DUP2 SWAP1 SSTORE POP DUP2 PUSH1 0x0 DUP1 DUP6 PUSH20 0xFFFFFFFFFFFFFFFFFFFFFFFFFFFFFFFFFFFFFFFF AND PUSH20 0xFFFFFFFFFFFFFFFFFFFFFFFFFFFFFFFFFFFFFFFF AND DUP2 MSTORE PUSH1 0x20 ADD SWAP1 DUP2 MSTORE PUSH1 0x20 ADD PUSH1 0x0 KECCAK256 PUSH1 0x0 DUP3 DUP3 SLOAD ADD SWAP3 POP POP DUP2 SWAP1 SSTORE POP DUP3 PUSH20 0xFFFFFFFFFFFFFFFFFFFFFFFFFFFFFFFFFFFFFFFF AND DUP5 PUSH20 0xFFFFFFFFFFFFFFFFFFFFFFFFFFFFFFFFFFFFFFFF AND PUSH32 0xDDF252AD1BE2C89B69C2B068FC378DAA952BA7F163C4A11628F55A4DF523B3EF DUP5 PUSH1 0x40 MLOAD PUSH2 0x158B SWAP2 SWAP1 PUSH2 0x1E9E JUMP JUMPDEST PUSH1 0x40 MLOAD DUP1 SWAP2 SUB SWAP1 LOG3 PUSH2 0x159E DUP5 DUP5 DUP5 PUSH2 0x1B2A JUMP JUMPDEST POP POP POP POP JUMP JUMPDEST PUSH2 0x15AE DUP3 DUP3 PUSH2 0xA4D JUMP JUMPDEST PUSH2 0x1681 JUMPI PUSH1 0x1 PUSH1 0x6 PUSH1 0x0 DUP5 DUP2 MSTORE PUSH1 0x20 ADD SWAP1 DUP2 MSTORE PUSH1 0x20 ADD PUSH1 0x0 KECCAK256 PUSH1 0x0 ADD PUSH1 0x0 DUP4 PUSH20 0xFFFFFFFFFFFFFFFFFFFFFFFFFFFFFFFFFFFFFFFF AND PUSH20 0xFFFFFFFFFFFFFFFFFFFFFFFFFFFFFFFFFFFFFFFF AND DUP2 MSTORE PUSH1 0x20 ADD SWAP1 DUP2 MSTORE PUSH1 0x20 ADD PUSH1 0x0 KECCAK256 PUSH1 0x0 PUSH2 0x100 EXP DUP2 SLOAD DUP2 PUSH1 0xFF MUL NOT AND SWAP1 DUP4 ISZERO ISZERO MUL OR SWAP1 SSTORE POP PUSH2 0x1626 PUSH2 0x10B9 JUMP JUMPDEST PUSH20 0xFFFFFFFFFFFFFFFFFFFFFFFFFFFFFFFFFFFFFFFF AND DUP2 PUSH20 0xFFFFFFFFFFFFFFFFFFFFFFFFFFFFFFFFFFFFFFFF AND DUP4 PUSH32 0x2F8788117E7EFF1D82E926EC794901D17C78024A50270940304540A733656F0D PUSH1 0x40 MLOAD PUSH1 0x40 MLOAD DUP1 SWAP2 SUB SWAP1 LOG4 JUMPDEST POP POP JUMP JUMPDEST PUSH2 0x168F DUP3 DUP3 PUSH2 0xA4D JUMP JUMPDEST ISZERO PUSH2 0x1763 JUMPI PUSH1 0x0 PUSH1 0x6 PUSH1 0x0 DUP5 DUP2 MSTORE PUSH1 0x20 ADD SWAP1 DUP2 MSTORE PUSH1 0x20 ADD PUSH1 0x0 KECCAK256 PUSH1 0x0 ADD PUSH1 0x0 DUP4 PUSH20 0xFFFFFFFFFFFFFFFFFFFFFFFFFFFFFFFFFFFFFFFF AND PUSH20 0xFFFFFFFFFFFFFFFFFFFFFFFFFFFFFFFFFFFFFFFF AND DUP2 MSTORE PUSH1 0x20 ADD SWAP1 DUP2 MSTORE PUSH1 0x20 ADD PUSH1 0x0 KECCAK256 PUSH1 0x0 PUSH2 0x100 EXP DUP2 SLOAD DUP2 PUSH1 0xFF MUL NOT AND SWAP1 DUP4 ISZERO ISZERO MUL OR SWAP1 SSTORE POP PUSH2 0x1708 PUSH2 0x10B9 JUMP JUMPDEST PUSH20 0xFFFFFFFFFFFFFFFFFFFFFFFFFFFFFFFFFFFFFFFF AND DUP2 PUSH20 0xFFFFFFFFFFFFFFFFFFFFFFFFFFFFFFFFFFFFFFFF AND DUP4 PUSH32 0xF6391F5C32D9C69D2A47EA670B442974B53935D1EDC7FD64EB21E047A839171B PUSH1 0x40 MLOAD PUSH1 0x40 MLOAD DUP1 SWAP2 SUB SWAP1 LOG4 JUMPDEST POP POP JUMP JUMPDEST PUSH2 0x176F PUSH2 0x1B2F JUMP JUMPDEST PUSH1 0x0 PUSH1 0x5 PUSH1 0x0 PUSH2 0x100 EXP DUP2 SLOAD DUP2 PUSH1 0xFF MUL NOT AND SWAP1 DUP4 ISZERO ISZERO MUL OR SWAP1 SSTORE POP PUSH32 0x5DB9EE0A495BF2E6FF9C91A7834C1BA4FDD244A5E8AA4E537BD38AEAE4B073AA PUSH2 0x17B3 PUSH2 0x10B9 JUMP JUMPDEST PUSH1 0x40 MLOAD PUSH2 0x17C0 SWAP2 SWAP1 PUSH2 0x2857 JUMP JUMPDEST PUSH1 0x40 MLOAD DUP1 SWAP2 SUB SWAP1 LOG1 JUMP JUMPDEST PUSH1 0x0 PUSH20 0xFFFFFFFFFFFFFFFFFFFFFFFFFFFFFFFFFFFFFFFF AND DUP3 PUSH20 0xFFFFFFFFFFFFFFFFFFFFFFFFFFFFFFFFFFFFFFFF AND EQ ISZERO PUSH2 0x183A JUMPI PUSH1 0x40 MLOAD PUSH32 0x8C379A000000000000000000000000000000000000000000000000000000000 DUP2 MSTORE PUSH1 0x4 ADD PUSH2 0x1831 SWAP1 PUSH2 0x28E4 JUMP JUMPDEST PUSH1 0x40 MLOAD DUP1 SWAP2 SUB SWAP1 REVERT JUMPDEST PUSH2 0x1846 DUP3 PUSH1 0x0 DUP4 PUSH2 0x1A80 JUMP JUMPDEST PUSH1 0x0 DUP1 PUSH1 0x0 DUP5 PUSH20 0xFFFFFFFFFFFFFFFFFFFFFFFFFFFFFFFFFFFFFFFF AND PUSH20 0xFFFFFFFFFFFFFFFFFFFFFFFFFFFFFFFFFFFFFFFF AND DUP2 MSTORE PUSH1 0x20 ADD SWAP1 DUP2 MSTORE PUSH1 0x20 ADD PUSH1 0x0 KECCAK256 SLOAD SWAP1 POP DUP2 DUP2 LT ISZERO PUSH2 0x18CC JUMPI PUSH1 0x40 MLOAD PUSH32 0x8C379A000000000000000000000000000000000000000000000000000000000 DUP2 MSTORE PUSH1 0x4 ADD PUSH2 0x18C3 SWAP1 PUSH2 0x2976 JUMP JUMPDEST PUSH1 0x40 MLOAD DUP1 SWAP2 SUB SWAP1 REVERT JUMPDEST DUP2 DUP2 SUB PUSH1 0x0 DUP1 DUP6 PUSH20 0xFFFFFFFFFFFFFFFFFFFFFFFFFFFFFFFFFFFFFFFF AND PUSH20 0xFFFFFFFFFFFFFFFFFFFFFFFFFFFFFFFFFFFFFFFF AND DUP2 MSTORE PUSH1 0x20 ADD SWAP1 DUP2 MSTORE PUSH1 0x20 ADD PUSH1 0x0 KECCAK256 DUP2 SWAP1 SSTORE POP DUP2 PUSH1 0x2 PUSH1 0x0 DUP3 DUP3 SLOAD SUB SWAP3 POP POP DUP2 SWAP1 SSTORE POP PUSH1 0x0 PUSH20 0xFFFFFFFFFFFFFFFFFFFFFFFFFFFFFFFFFFFFFFFF AND DUP4 PUSH20 0xFFFFFFFFFFFFFFFFFFFFFFFFFFFFFFFFFFFFFFFF AND PUSH32 0xDDF252AD1BE2C89B69C2B068FC378DAA952BA7F163C4A11628F55A4DF523B3EF DUP5 PUSH1 0x40 MLOAD PUSH2 0x197F SWAP2 SWAP1 PUSH2 0x1E9E JUMP JUMPDEST PUSH1 0x40 MLOAD DUP1 SWAP2 SUB SWAP1 LOG3 PUSH2 0x1993 DUP4 PUSH1 0x0 DUP5 PUSH2 0x1B2A JUMP JUMPDEST POP POP POP JUMP JUMPDEST PUSH2 0x19A0 PUSH2 0x1B78 JUMP JUMPDEST PUSH1 0x1 PUSH1 0x5 PUSH1 0x0 PUSH2 0x100 EXP DUP2 SLOAD DUP2 PUSH1 0xFF MUL NOT AND SWAP1 DUP4 ISZERO ISZERO MUL OR SWAP1 SSTORE POP PUSH32 0x62E78CEA01BEE320CD4E420270B5EA74000D11B0C9F74754EBDBFC544B05A258 PUSH2 0x19E4 PUSH2 0x10B9 JUMP JUMPDEST PUSH1 0x40 MLOAD PUSH2 0x19F1 SWAP2 SWAP1 PUSH2 0x2857 JUMP JUMPDEST PUSH1 0x40 MLOAD DUP1 SWAP2 SUB SWAP1 LOG1 JUMP JUMPDEST PUSH2 0x1A05 DUP3 DUP3 PUSH2 0xA4D JUMP JUMPDEST PUSH2 0x1A7C JUMPI PUSH2 0x1A12 DUP2 PUSH2 0xDE6 JUMP JUMPDEST PUSH2 0x1A20 DUP4 PUSH1 0x0 SHR PUSH1 0x20 PUSH2 0xE13 JUMP JUMPDEST PUSH1 0x40 MLOAD PUSH1 0x20 ADD PUSH2 0x1A31 SWAP3 SWAP2 SWAP1 PUSH2 0x2A6A JUMP JUMPDEST PUSH1 0x40 MLOAD PUSH1 0x20 DUP2 DUP4 SUB SUB DUP2 MSTORE SWAP1 PUSH1 0x40 MSTORE PUSH1 0x40 MLOAD PUSH32 0x8C379A000000000000000000000000000000000000000000000000000000000 DUP2 MSTORE PUSH1 0x4 ADD PUSH2 0x1A73 SWAP2 SWAP1 PUSH2 0x1D1B JUMP JUMPDEST PUSH1 0x40 MLOAD DUP1 SWAP2 SUB SWAP1 REVERT JUMPDEST POP POP JUMP JUMPDEST PUSH2 0x1A88 PUSH2 0x1B78 JUMP JUMPDEST PUSH2 0x1A91 DUP3 PUSH2 0xD67 JUMP JUMPDEST ISZERO PUSH2 0x1AD1 JUMPI PUSH1 0x40 MLOAD PUSH32 0x8C379A000000000000000000000000000000000000000000000000000000000 DUP2 MSTORE PUSH1 0x4 ADD PUSH2 0x1AC8 SWAP1 PUSH2 0x2B16 JUMP JUMPDEST PUSH1 0x40 MLOAD DUP1 SWAP2 SUB SWAP1 REVERT JUMPDEST PUSH2 0x1ADA DUP4 PUSH2 0xD67 JUMP JUMPDEST ISZERO PUSH2 0x1B1A JUMPI PUSH1 0x40 MLOAD PUSH32 0x8C379A000000000000000000000000000000000000000000000000000000000 DUP2 MSTORE PUSH1 0x4 ADD PUSH2 0x1B11 SWAP1 PUSH2 0x2BA8 JUMP JUMPDEST PUSH1 0x40 MLOAD DUP1 SWAP2 SUB SWAP1 REVERT JUMPDEST PUSH2 0x1B25 DUP4 DUP4 DUP4 PUSH2 0xDE1 JUMP JUMPDEST POP POP POP JUMP JUMPDEST POP POP POP JUMP JUMPDEST PUSH2 0x1B37 PUSH2 0x999 JUMP JUMPDEST PUSH2 0x1B76 JUMPI PUSH1 0x40 MLOAD PUSH32 0x8C379A000000000000000000000000000000000000000000000000000000000 DUP2 MSTORE PUSH1 0x4 ADD PUSH2 0x1B6D SWAP1 PUSH2 0x2C14 JUMP JUMPDEST PUSH1 0x40 MLOAD DUP1 SWAP2 SUB SWAP1 REVERT JUMPDEST JUMP JUMPDEST PUSH2 0x1B80 PUSH2 0x999 JUMP JUMPDEST ISZERO PUSH2 0x1BC0 JUMPI PUSH1 0x40 MLOAD PUSH32 0x8C379A000000000000000000000000000000000000000000000000000000000 DUP2 MSTORE PUSH1 0x4 ADD PUSH2 0x1BB7 SWAP1 PUSH2 0x2C80 JUMP JUMPDEST PUSH1 0x40 MLOAD DUP1 SWAP2 SUB SWAP1 REVERT JUMPDEST JUMP JUMPDEST PUSH1 0x0 DUP1 REVERT JUMPDEST PUSH1 0x0 PUSH32 0xFFFFFFFF00000000000000000000000000000000000000000000000000000000 DUP3 AND SWAP1 POP SWAP2 SWAP1 POP JUMP JUMPDEST PUSH2 0x1BFC DUP2 PUSH2 0x1BC7 JUMP JUMPDEST DUP2 EQ PUSH2 0x1C07 JUMPI PUSH1 0x0 DUP1 REVERT JUMPDEST POP JUMP JUMPDEST PUSH1 0x0 DUP2 CALLDATALOAD SWAP1 POP PUSH2 0x1C19 DUP2 PUSH2 0x1BF3 JUMP JUMPDEST SWAP3 SWAP2 POP POP JUMP JUMPDEST PUSH1 0x0 PUSH1 0x20 DUP3 DUP5 SUB SLT ISZERO PUSH2 0x1C35 JUMPI PUSH2 0x1C34 PUSH2 0x1BC2 JUMP JUMPDEST JUMPDEST PUSH1 0x0 PUSH2 0x1C43 DUP5 DUP3 DUP6 ADD PUSH2 0x1C0A JUMP JUMPDEST SWAP2 POP POP SWAP3 SWAP2 POP POP JUMP JUMPDEST PUSH1 0x0 DUP2 ISZERO ISZERO SWAP1 POP SWAP2 SWAP1 POP JUMP JUMPDEST PUSH2 0x1C61 DUP2 PUSH2 0x1C4C JUMP JUMPDEST DUP3 MSTORE POP POP JUMP JUMPDEST PUSH1 0x0 PUSH1 0x20 DUP3 ADD SWAP1 POP PUSH2 0x1C7C PUSH1 0x0 DUP4 ADD DUP5 PUSH2 0x1C58 JUMP JUMPDEST SWAP3 SWAP2 POP POP JUMP JUMPDEST PUSH1 0x0 DUP2 MLOAD SWAP1 POP SWAP2 SWAP1 POP JUMP JUMPDEST PUSH1 0x0 DUP3 DUP3 MSTORE PUSH1 0x20 DUP3 ADD SWAP1 POP SWAP3 SWAP2 POP POP JUMP JUMPDEST PUSH1 0x0 JUMPDEST DUP4 DUP2 LT ISZERO PUSH2 0x1CBC JUMPI DUP1 DUP3 ADD MLOAD DUP2 DUP5 ADD MSTORE PUSH1 0x20 DUP2 ADD SWAP1 POP PUSH2 0x1CA1 JUMP JUMPDEST DUP4 DUP2 GT ISZERO PUSH2 0x1CCB JUMPI PUSH1 0x0 DUP5 DUP5 ADD MSTORE JUMPDEST POP POP POP POP JUMP JUMPDEST PUSH1 0x0 PUSH1 0x1F NOT PUSH1 0x1F DUP4 ADD AND SWAP1 POP SWAP2 SWAP1 POP JUMP JUMPDEST PUSH1 0x0 PUSH2 0x1CED DUP3 PUSH2 0x1C82 JUMP JUMPDEST PUSH2 0x1CF7 DUP2 DUP6 PUSH2 0x1C8D JUMP JUMPDEST SWAP4 POP PUSH2 0x1D07 DUP2 DUP6 PUSH1 0x20 DUP7 ADD PUSH2 0x1C9E JUMP JUMPDEST PUSH2 0x1D10 DUP2 PUSH2 0x1CD1 JUMP JUMPDEST DUP5 ADD SWAP2 POP POP SWAP3 SWAP2 POP POP JUMP JUMPDEST PUSH1 0x0 PUSH1 0x20 DUP3 ADD SWAP1 POP DUP2 DUP2 SUB PUSH1 0x0 DUP4 ADD MSTORE PUSH2 0x1D35 DUP2 DUP5 PUSH2 0x1CE2 JUMP JUMPDEST SWAP1 POP SWAP3 SWAP2 POP POP JUMP JUMPDEST PUSH1 0x0 PUSH20 0xFFFFFFFFFFFFFFFFFFFFFFFFFFFFFFFFFFFFFFFF DUP3 AND SWAP1 POP SWAP2 SWAP1 POP JUMP JUMPDEST PUSH1 0x0 PUSH2 0x1D68 DUP3 PUSH2 0x1D3D JUMP JUMPDEST SWAP1 POP SWAP2 SWAP1 POP JUMP JUMPDEST PUSH2 0x1D78 DUP2 PUSH2 0x1D5D JUMP JUMPDEST DUP2 EQ PUSH2 0x1D83 JUMPI PUSH1 0x0 DUP1 REVERT JUMPDEST POP JUMP JUMPDEST PUSH1 0x0 DUP2 CALLDATALOAD SWAP1 POP PUSH2 0x1D95 DUP2 PUSH2 0x1D6F JUMP JUMPDEST SWAP3 SWAP2 POP POP JUMP JUMPDEST PUSH1 0x0 DUP2 SWAP1 POP SWAP2 SWAP1 POP JUMP JUMPDEST PUSH2 0x1DAE DUP2 PUSH2 0x1D9B JUMP JUMPDEST DUP2 EQ PUSH2 0x1DB9 JUMPI PUSH1 0x0 DUP1 REVERT JUMPDEST POP JUMP JUMPDEST PUSH1 0x0 DUP2 CALLDATALOAD SWAP1 POP PUSH2 0x1DCB DUP2 PUSH2 0x1DA5 JUMP JUMPDEST SWAP3 SWAP2 POP POP JUMP JUMPDEST PUSH1 0x0 DUP1 PUSH1 0x40 DUP4 DUP6 SUB SLT ISZERO PUSH2 0x1DE8 JUMPI PUSH2 0x1DE7 PUSH2 0x1BC2 JUMP JUMPDEST JUMPDEST PUSH1 0x0 PUSH2 0x1DF6 DUP6 DUP3 DUP7 ADD PUSH2 0x1D86 JUMP JUMPDEST SWAP3 POP POP PUSH1 0x20 PUSH2 0x1E07 DUP6 DUP3 DUP7 ADD PUSH2 0x1DBC JUMP JUMPDEST SWAP2 POP POP SWAP3 POP SWAP3 SWAP1 POP JUMP JUMPDEST PUSH1 0x0 PUSH2 0x1E1C DUP3 PUSH2 0x1D3D JUMP JUMPDEST SWAP1 POP SWAP2 SWAP1 POP JUMP JUMPDEST PUSH2 0x1E2C DUP2 PUSH2 0x1E11 JUMP JUMPDEST DUP2 EQ PUSH2 0x1E37 JUMPI PUSH1 0x0 DUP1 REVERT JUMPDEST POP JUMP JUMPDEST PUSH1 0x0 DUP2 CALLDATALOAD SWAP1 POP PUSH2 0x1E49 DUP2 PUSH2 0x1E23 JUMP JUMPDEST SWAP3 SWAP2 POP POP JUMP JUMPDEST PUSH1 0x0 DUP1 PUSH1 0x40 DUP4 DUP6 SUB SLT ISZERO PUSH2 0x1E66 JUMPI PUSH2 0x1E65 PUSH2 0x1BC2 JUMP JUMPDEST JUMPDEST PUSH1 0x0 PUSH2 0x1E74 DUP6 DUP3 DUP7 ADD PUSH2 0x1E3A JUMP JUMPDEST SWAP3 POP POP PUSH1 0x20 PUSH2 0x1E85 DUP6 DUP3 DUP7 ADD PUSH2 0x1DBC JUMP JUMPDEST SWAP2 POP POP SWAP3 POP SWAP3 SWAP1 POP JUMP JUMPDEST PUSH2 0x1E98 DUP2 PUSH2 0x1D9B JUMP JUMPDEST DUP3 MSTORE POP POP JUMP JUMPDEST PUSH1 0x0 PUSH1 0x20 DUP3 ADD SWAP1 POP PUSH2 0x1EB3 PUSH1 0x0 DUP4 ADD DUP5 PUSH2 0x1E8F JUMP JUMPDEST SWAP3 SWAP2 POP POP JUMP JUMPDEST PUSH1 0x0 PUSH1 0x20 DUP3 DUP5 SUB SLT ISZERO PUSH2 0x1ECF JUMPI PUSH2 0x1ECE PUSH2 0x1BC2 JUMP JUMPDEST JUMPDEST PUSH1 0x0 PUSH2 0x1EDD DUP5 DUP3 DUP6 ADD PUSH2 0x1DBC JUMP JUMPDEST SWAP2 POP POP SWAP3 SWAP2 POP POP JUMP JUMPDEST PUSH1 0x0 DUP1 PUSH1 0x0 PUSH1 0x60 DUP5 DUP7 SUB SLT ISZERO PUSH2 0x1EFF JUMPI PUSH2 0x1EFE PUSH2 0x1BC2 JUMP JUMPDEST JUMPDEST PUSH1 0x0 PUSH2 0x1F0D DUP7 DUP3 DUP8 ADD PUSH2 0x1D86 JUMP JUMPDEST SWAP4 POP POP PUSH1 0x20 PUSH2 0x1F1E DUP7 DUP3 DUP8 ADD PUSH2 0x1D86 JUMP JUMPDEST SWAP3 POP POP PUSH1 0x40 PUSH2 0x1F2F DUP7 DUP3 DUP8 ADD PUSH2 0x1DBC JUMP JUMPDEST SWAP2 POP POP SWAP3 POP SWAP3 POP SWAP3 JUMP JUMPDEST PUSH1 0x0 DUP2 SWAP1 POP SWAP2 SWAP1 POP JUMP JUMPDEST PUSH2 0x1F4C DUP2 PUSH2 0x1F39 JUMP JUMPDEST DUP2 EQ PUSH2 0x1F57 JUMPI PUSH1 0x0 DUP1 REVERT JUMPDEST POP JUMP JUMPDEST PUSH1 0x0 DUP2 CALLDATALOAD SWAP1 POP PUSH2 0x1F69 DUP2 PUSH2 0x1F43 JUMP JUMPDEST SWAP3 SWAP2 POP POP JUMP JUMPDEST PUSH1 0x0 PUSH1 0x20 DUP3 DUP5 SUB SLT ISZERO PUSH2 0x1F85 JUMPI PUSH2 0x1F84 PUSH2 0x1BC2 JUMP JUMPDEST JUMPDEST PUSH1 0x0 PUSH2 0x1F93 DUP5 DUP3 DUP6 ADD PUSH2 0x1F5A JUMP JUMPDEST SWAP2 POP POP SWAP3 SWAP2 POP POP JUMP JUMPDEST PUSH2 0x1FA5 DUP2 PUSH2 0x1F39 JUMP JUMPDEST DUP3 MSTORE POP POP JUMP JUMPDEST PUSH1 0x0 PUSH1 0x20 DUP3 ADD SWAP1 POP PUSH2 0x1FC0 PUSH1 0x0 DUP4 ADD DUP5 PUSH2 0x1F9C JUMP JUMPDEST SWAP3 SWAP2 POP POP JUMP JUMPDEST PUSH1 0x0 DUP1 PUSH1 0x40 DUP4 DUP6 SUB SLT ISZERO PUSH2 0x1FDD JUMPI PUSH2 0x1FDC PUSH2 0x1BC2 JUMP JUMPDEST JUMPDEST PUSH1 0x0 PUSH2 0x1FEB DUP6 DUP3 DUP7 ADD PUSH2 0x1F5A JUMP JUMPDEST SWAP3 POP POP PUSH1 0x20 PUSH2 0x1FFC DUP6 DUP3 DUP7 ADD PUSH2 0x1D86 JUMP JUMPDEST SWAP2 POP POP SWAP3 POP SWAP3 SWAP1 POP JUMP JUMPDEST PUSH1 0x0 PUSH1 0xFF DUP3 AND SWAP1 POP SWAP2 SWAP1 POP JUMP JUMPDEST PUSH2 0x201C DUP2 PUSH2 0x2006 JUMP JUMPDEST DUP3 MSTORE POP POP JUMP JUMPDEST PUSH1 0x0 PUSH1 0x20 DUP3 ADD SWAP1 POP PUSH2 0x2037 PUSH1 0x0 DUP4 ADD DUP5 PUSH2 0x2013 JUMP JUMPDEST SWAP3 SWAP2 POP POP JUMP JUMPDEST PUSH1 0x0 PUSH1 0x20 DUP3 DUP5 SUB SLT ISZERO PUSH2 0x2053 JUMPI PUSH2 0x2052 PUSH2 0x1BC2 JUMP JUMPDEST JUMPDEST PUSH1 0x0 PUSH2 0x2061 DUP5 DUP3 DUP6 ADD PUSH2 0x1D86 JUMP JUMPDEST SWAP2 POP POP SWAP3 SWAP2 POP POP JUMP JUMPDEST PUSH2 0x2073 DUP2 PUSH2 0x1C4C JUMP JUMPDEST DUP2 EQ PUSH2 0x207E JUMPI PUSH1 0x0 DUP1 REVERT JUMPDEST POP JUMP JUMPDEST PUSH1 0x0 DUP2 CALLDATALOAD SWAP1 POP PUSH2 0x2090 DUP2 PUSH2 0x206A JUMP JUMPDEST SWAP3 SWAP2 POP POP JUMP JUMPDEST PUSH1 0x0 DUP1 PUSH1 0x40 DUP4 DUP6 SUB SLT ISZERO PUSH2 0x20AD JUMPI PUSH2 0x20AC PUSH2 0x1BC2 JUMP JUMPDEST JUMPDEST PUSH1 0x0 PUSH2 0x20BB DUP6 DUP3 DUP7 ADD PUSH2 0x1D86 JUMP JUMPDEST SWAP3 POP POP PUSH1 0x20 PUSH2 0x20CC DUP6 DUP3 DUP7 ADD PUSH2 0x2081 JUMP JUMPDEST SWAP2 POP POP SWAP3 POP SWAP3 SWAP1 POP JUMP JUMPDEST PUSH1 0x0 DUP1 PUSH1 0x40 DUP4 DUP6 SUB SLT ISZERO PUSH2 0x20ED JUMPI PUSH2 0x20EC PUSH2 0x1BC2 JUMP JUMPDEST JUMPDEST PUSH1 0x0 PUSH2 0x20FB DUP6 DUP3 DUP7 ADD PUSH2 0x1D86 JUMP JUMPDEST SWAP3 POP POP PUSH1 0x20 PUSH2 0x210C DUP6 DUP3 DUP7 ADD PUSH2 0x1D86 JUMP JUMPDEST SWAP2 POP POP SWAP3 POP SWAP3 SWAP1 POP JUMP JUMPDEST PUSH32 0x4E487B7100000000000000000000000000000000000000000000000000000000 PUSH1 0x0 MSTORE PUSH1 0x22 PUSH1 0x4 MSTORE PUSH1 0x24 PUSH1 0x0 REVERT JUMPDEST PUSH1 0x0 PUSH1 0x2 DUP3 DIV SWAP1 POP PUSH1 0x1 DUP3 AND DUP1 PUSH2 0x215D JUMPI PUSH1 0x7F DUP3 AND SWAP2 POP JUMPDEST PUSH1 0x20 DUP3 LT DUP2 EQ ISZERO PUSH2 0x2171 JUMPI PUSH2 0x2170 PUSH2 0x2116 JUMP JUMPDEST JUMPDEST POP SWAP2 SWAP1 POP JUMP JUMPDEST PUSH32 0x4E487B7100000000000000000000000000000000000000000000000000000000 PUSH1 0x0 MSTORE PUSH1 0x12 PUSH1 0x4 MSTORE PUSH1 0x24 PUSH1 0x0 REVERT JUMPDEST PUSH32 0x4E487B7100000000000000000000000000000000000000000000000000000000 PUSH1 0x0 MSTORE PUSH1 0x11 PUSH1 0x4 MSTORE PUSH1 0x24 PUSH1 0x0 REVERT JUMPDEST PUSH1 0x0 PUSH2 0x21E0 DUP3 PUSH2 0x1D9B JUMP JUMPDEST SWAP2 POP PUSH2 0x21EB DUP4 PUSH2 0x1D9B JUMP JUMPDEST SWAP3 POP DUP3 PUSH2 0x21FB JUMPI PUSH2 0x21FA PUSH2 0x2177 JUMP JUMPDEST JUMPDEST DUP3 DUP3 DIV SWAP1 POP SWAP3 SWAP2 POP POP JUMP JUMPDEST PUSH1 0x0 PUSH2 0x2211 DUP3 PUSH2 0x1D9B JUMP JUMPDEST SWAP2 POP PUSH2 0x221C DUP4 PUSH2 0x1D9B JUMP JUMPDEST SWAP3 POP DUP2 PUSH32 0xFFFFFFFFFFFFFFFFFFFFFFFFFFFFFFFFFFFFFFFFFFFFFFFFFFFFFFFFFFFFFFFF DIV DUP4 GT DUP3 ISZERO ISZERO AND ISZERO PUSH2 0x2255 JUMPI PUSH2 0x2254 PUSH2 0x21A6 JUMP JUMPDEST JUMPDEST DUP3 DUP3 MUL SWAP1 POP SWAP3 SWAP2 POP POP JUMP JUMPDEST PUSH1 0x0 PUSH2 0x226B DUP3 PUSH2 0x1D9B JUMP JUMPDEST SWAP2 POP PUSH2 0x2276 DUP4 PUSH2 0x1D9B JUMP JUMPDEST SWAP3 POP DUP3 DUP3 LT ISZERO PUSH2 0x2289 JUMPI PUSH2 0x2288 PUSH2 0x21A6 JUMP JUMPDEST JUMPDEST DUP3 DUP3 SUB SWAP1 POP SWAP3 SWAP2 POP POP JUMP JUMPDEST PUSH32 0x416363657373436F6E74726F6C3A2063616E206F6E6C792072656E6F756E6365 PUSH1 0x0 DUP3 ADD MSTORE PUSH32 0x20726F6C657320666F722073656C660000000000000000000000000000000000 PUSH1 0x20 DUP3 ADD MSTORE POP JUMP JUMPDEST PUSH1 0x0 PUSH2 0x22F0 PUSH1 0x2F DUP4 PUSH2 0x1C8D JUMP JUMPDEST SWAP2 POP PUSH2 0x22FB DUP3 PUSH2 0x2294 JUMP JUMPDEST PUSH1 0x40 DUP3 ADD SWAP1 POP SWAP2 SWAP1 POP JUMP JUMPDEST PUSH1 0x0 PUSH1 0x20 DUP3 ADD SWAP1 POP DUP2 DUP2 SUB PUSH1 0x0 DUP4 ADD MSTORE PUSH2 0x231F DUP2 PUSH2 0x22E3 JUMP JUMPDEST SWAP1 POP SWAP2 SWAP1 POP JUMP JUMPDEST PUSH1 0x0 PUSH2 0x2331 DUP3 PUSH2 0x1D9B JUMP JUMPDEST SWAP2 POP PUSH2 0x233C DUP4 PUSH2 0x1D9B JUMP JUMPDEST SWAP3 POP DUP3 PUSH32 0xFFFFFFFFFFFFFFFFFFFFFFFFFFFFFFFFFFFFFFFFFFFFFFFFFFFFFFFFFFFFFFFF SUB DUP3 GT ISZERO PUSH2 0x2371 JUMPI PUSH2 0x2370 PUSH2 0x21A6 JUMP JUMPDEST JUMPDEST DUP3 DUP3 ADD SWAP1 POP SWAP3 SWAP2 POP POP JUMP JUMPDEST PUSH32 0x45524332303A2064656372656173656420616C6C6F77616E63652062656C6F77 PUSH1 0x0 DUP3 ADD MSTORE PUSH32 0x207A65726F000000000000000000000000000000000000000000000000000000 PUSH1 0x20 DUP3 ADD MSTORE POP JUMP JUMPDEST PUSH1 0x0 PUSH2 0x23D8 PUSH1 0x25 DUP4 PUSH2 0x1C8D JUMP JUMPDEST SWAP2 POP PUSH2 0x23E3 DUP3 PUSH2 0x237C JUMP JUMPDEST PUSH1 0x40 DUP3 ADD SWAP1 POP SWAP2 SWAP1 POP JUMP JUMPDEST PUSH1 0x0 PUSH1 0x20 DUP3 ADD SWAP1 POP DUP2 DUP2 SUB PUSH1 0x0 DUP4 ADD MSTORE PUSH2 0x2407 DUP2 PUSH2 0x23CB JUMP JUMPDEST SWAP1 POP SWAP2 SWAP1 POP JUMP JUMPDEST PUSH32 0x4E487B7100000000000000000000000000000000000000000000000000000000 PUSH1 0x0 MSTORE PUSH1 0x41 PUSH1 0x4 MSTORE PUSH1 0x24 PUSH1 0x0 REVERT JUMPDEST PUSH32 0x4E487B7100000000000000000000000000000000000000000000000000000000 PUSH1 0x0 MSTORE PUSH1 0x32 PUSH1 0x4 MSTORE PUSH1 0x24 PUSH1 0x0 REVERT JUMPDEST PUSH1 0x0 PUSH2 0x2477 DUP3 PUSH2 0x1D9B JUMP JUMPDEST SWAP2 POP PUSH1 0x0 DUP3 EQ ISZERO PUSH2 0x248B JUMPI PUSH2 0x248A PUSH2 0x21A6 JUMP JUMPDEST JUMPDEST PUSH1 0x1 DUP3 SUB SWAP1 POP SWAP2 SWAP1 POP JUMP JUMPDEST PUSH32 0x537472696E67733A20686578206C656E67746820696E73756666696369656E74 PUSH1 0x0 DUP3 ADD MSTORE POP JUMP JUMPDEST PUSH1 0x0 PUSH2 0x24CC PUSH1 0x20 DUP4 PUSH2 0x1C8D JUMP JUMPDEST SWAP2 POP PUSH2 0x24D7 DUP3 PUSH2 0x2496 JUMP JUMPDEST PUSH1 0x20 DUP3 ADD SWAP1 POP SWAP2 SWAP1 POP JUMP JUMPDEST PUSH1 0x0 PUSH1 0x20 DUP3 ADD SWAP1 POP DUP2 DUP2 SUB PUSH1 0x0 DUP4 ADD MSTORE PUSH2 0x24FB DUP2 PUSH2 0x24BF JUMP JUMPDEST SWAP1 POP SWAP2 SWAP1 POP JUMP JUMPDEST PUSH32 0x45524332303A20617070726F76652066726F6D20746865207A65726F20616464 PUSH1 0x0 DUP3 ADD MSTORE PUSH32 0x7265737300000000000000000000000000000000000000000000000000000000 PUSH1 0x20 DUP3 ADD MSTORE POP JUMP JUMPDEST PUSH1 0x0 PUSH2 0x255E PUSH1 0x24 DUP4 PUSH2 0x1C8D JUMP JUMPDEST SWAP2 POP PUSH2 0x2569 DUP3 PUSH2 0x2502 JUMP JUMPDEST PUSH1 0x40 DUP3 ADD SWAP1 POP SWAP2 SWAP1 POP JUMP JUMPDEST PUSH1 0x0 PUSH1 0x20 DUP3 ADD SWAP1 POP DUP2 DUP2 SUB PUSH1 0x0 DUP4 ADD MSTORE PUSH2 0x258D DUP2 PUSH2 0x2551 JUMP JUMPDEST SWAP1 POP SWAP2 SWAP1 POP JUMP JUMPDEST PUSH32 0x45524332303A20617070726F766520746F20746865207A65726F206164647265 PUSH1 0x0 DUP3 ADD MSTORE PUSH32 0x7373000000000000000000000000000000000000000000000000000000000000 PUSH1 0x20 DUP3 ADD MSTORE POP JUMP JUMPDEST PUSH1 0x0 PUSH2 0x25F0 PUSH1 0x22 DUP4 PUSH2 0x1C8D JUMP JUMPDEST SWAP2 POP PUSH2 0x25FB DUP3 PUSH2 0x2594 JUMP JUMPDEST PUSH1 0x40 DUP3 ADD SWAP1 POP SWAP2 SWAP1 POP JUMP JUMPDEST PUSH1 0x0 PUSH1 0x20 DUP3 ADD SWAP1 POP DUP2 DUP2 SUB PUSH1 0x0 DUP4 ADD MSTORE PUSH2 0x261F DUP2 PUSH2 0x25E3 JUMP JUMPDEST SWAP1 POP SWAP2 SWAP1 POP JUMP JUMPDEST PUSH32 0x45524332303A20696E73756666696369656E7420616C6C6F77616E6365000000 PUSH1 0x0 DUP3 ADD MSTORE POP JUMP JUMPDEST PUSH1 0x0 PUSH2 0x265C PUSH1 0x1D DUP4 PUSH2 0x1C8D JUMP JUMPDEST SWAP2 POP PUSH2 0x2667 DUP3 PUSH2 0x2626 JUMP JUMPDEST PUSH1 0x20 DUP3 ADD SWAP1 POP SWAP2 SWAP1 POP JUMP JUMPDEST PUSH1 0x0 PUSH1 0x20 DUP3 ADD SWAP1 POP DUP2 DUP2 SUB PUSH1 0x0 DUP4 ADD MSTORE PUSH2 0x268B DUP2 PUSH2 0x264F JUMP JUMPDEST SWAP1 POP SWAP2 SWAP1 POP JUMP JUMPDEST PUSH32 0x45524332303A207472616E736665722066726F6D20746865207A65726F206164 PUSH1 0x0 DUP3 ADD MSTORE PUSH32 0x6472657373000000000000000000000000000000000000000000000000000000 PUSH1 0x20 DUP3 ADD MSTORE POP JUMP JUMPDEST PUSH1 0x0 PUSH2 0x26EE PUSH1 0x25 DUP4 PUSH2 0x1C8D JUMP JUMPDEST SWAP2 POP PUSH2 0x26F9 DUP3 PUSH2 0x2692 JUMP JUMPDEST PUSH1 0x40 DUP3 ADD SWAP1 POP SWAP2 SWAP1 POP JUMP JUMPDEST PUSH1 0x0 PUSH1 0x20 DUP3 ADD SWAP1 POP DUP2 DUP2 SUB PUSH1 0x0 DUP4 ADD MSTORE PUSH2 0x271D DUP2 PUSH2 0x26E1 JUMP JUMPDEST SWAP1 POP SWAP2 SWAP1 POP JUMP JUMPDEST PUSH32 0x45524332303A207472616E7366657220746F20746865207A65726F2061646472 PUSH1 0x0 DUP3 ADD MSTORE PUSH32 0x6573730000000000000000000000000000000000000000000000000000000000 PUSH1 0x20 DUP3 ADD MSTORE POP JUMP JUMPDEST PUSH1 0x0 PUSH2 0x2780 PUSH1 0x23 DUP4 PUSH2 0x1C8D JUMP JUMPDEST SWAP2 POP PUSH2 0x278B DUP3 PUSH2 0x2724 JUMP JUMPDEST PUSH1 0x40 DUP3 ADD SWAP1 POP SWAP2 SWAP1 POP JUMP JUMPDEST PUSH1 0x0 PUSH1 0x20 DUP3 ADD SWAP1 POP DUP2 DUP2 SUB PUSH1 0x0 DUP4 ADD MSTORE PUSH2 0x27AF DUP2 PUSH2 0x2773 JUMP JUMPDEST SWAP1 POP SWAP2 SWAP1 POP JUMP JUMPDEST PUSH32 0x45524332303A207472616E7366657220616D6F756E7420657863656564732062 PUSH1 0x0 DUP3 ADD MSTORE PUSH32 0x616C616E63650000000000000000000000000000000000000000000000000000 PUSH1 0x20 DUP3 ADD MSTORE POP JUMP JUMPDEST PUSH1 0x0 PUSH2 0x2812 PUSH1 0x26 DUP4 PUSH2 0x1C8D JUMP JUMPDEST SWAP2 POP PUSH2 0x281D DUP3 PUSH2 0x27B6 JUMP JUMPDEST PUSH1 0x40 DUP3 ADD SWAP1 POP SWAP2 SWAP1 POP JUMP JUMPDEST PUSH1 0x0 PUSH1 0x20 DUP3 ADD SWAP1 POP DUP2 DUP2 SUB PUSH1 0x0 DUP4 ADD MSTORE PUSH2 0x2841 DUP2 PUSH2 0x2805 JUMP JUMPDEST SWAP1 POP SWAP2 SWAP1 POP JUMP JUMPDEST PUSH2 0x2851 DUP2 PUSH2 0x1D5D JUMP JUMPDEST DUP3 MSTORE POP POP JUMP JUMPDEST PUSH1 0x0 PUSH1 0x20 DUP3 ADD SWAP1 POP PUSH2 0x286C PUSH1 0x0 DUP4 ADD DUP5 PUSH2 0x2848 JUMP JUMPDEST SWAP3 SWAP2 POP POP JUMP JUMPDEST PUSH32 0x45524332303A206275726E2066726F6D20746865207A65726F20616464726573 PUSH1 0x0 DUP3 ADD MSTORE PUSH32 0x7300000000000000000000000000000000000000000000000000000000000000 PUSH1 0x20 DUP3 ADD MSTORE POP JUMP JUMPDEST PUSH1 0x0 PUSH2 0x28CE PUSH1 0x21 DUP4 PUSH2 0x1C8D JUMP JUMPDEST SWAP2 POP PUSH2 0x28D9 DUP3 PUSH2 0x2872 JUMP JUMPDEST PUSH1 0x40 DUP3 ADD SWAP1 POP SWAP2 SWAP1 POP JUMP JUMPDEST PUSH1 0x0 PUSH1 0x20 DUP3 ADD SWAP1 POP DUP2 DUP2 SUB PUSH1 0x0 DUP4 ADD MSTORE PUSH2 0x28FD DUP2 PUSH2 0x28C1 JUMP JUMPDEST SWAP1 POP SWAP2 SWAP1 POP JUMP JUMPDEST PUSH32 0x45524332303A206275726E20616D6F756E7420657863656564732062616C616E PUSH1 0x0 DUP3 ADD MSTORE PUSH32 0x6365000000000000000000000000000000000000000000000000000000000000 PUSH1 0x20 DUP3 ADD MSTORE POP JUMP JUMPDEST PUSH1 0x0 PUSH2 0x2960 PUSH1 0x22 DUP4 PUSH2 0x1C8D JUMP JUMPDEST SWAP2 POP PUSH2 0x296B DUP3 PUSH2 0x2904 JUMP JUMPDEST PUSH1 0x40 DUP3 ADD SWAP1 POP SWAP2 SWAP1 POP JUMP JUMPDEST PUSH1 0x0 PUSH1 0x20 DUP3 ADD SWAP1 POP DUP2 DUP2 SUB PUSH1 0x0 DUP4 ADD MSTORE PUSH2 0x298F DUP2 PUSH2 0x2953 JUMP JUMPDEST SWAP1 POP SWAP2 SWAP1 POP JUMP JUMPDEST PUSH1 0x0 DUP2 SWAP1 POP SWAP3 SWAP2 POP POP JUMP JUMPDEST PUSH32 0x416363657373436F6E74726F6C3A206163636F756E7420000000000000000000 PUSH1 0x0 DUP3 ADD MSTORE POP JUMP JUMPDEST PUSH1 0x0 PUSH2 0x29D7 PUSH1 0x17 DUP4 PUSH2 0x2996 JUMP JUMPDEST SWAP2 POP PUSH2 0x29E2 DUP3 PUSH2 0x29A1 JUMP JUMPDEST PUSH1 0x17 DUP3 ADD SWAP1 POP SWAP2 SWAP1 POP JUMP JUMPDEST PUSH1 0x0 PUSH2 0x29F8 DUP3 PUSH2 0x1C82 JUMP JUMPDEST PUSH2 0x2A02 DUP2 DUP6 PUSH2 0x2996 JUMP JUMPDEST SWAP4 POP PUSH2 0x2A12 DUP2 DUP6 PUSH1 0x20 DUP7 ADD PUSH2 0x1C9E JUMP JUMPDEST DUP1 DUP5 ADD SWAP2 POP POP SWAP3 SWAP2 POP POP JUMP JUMPDEST PUSH32 0x206973206D697373696E6720726F6C6520000000000000000000000000000000 PUSH1 0x0 DUP3 ADD MSTORE POP JUMP JUMPDEST PUSH1 0x0 PUSH2 0x2A54 PUSH1 0x11 DUP4 PUSH2 0x2996 JUMP JUMPDEST SWAP2 POP PUSH2 0x2A5F DUP3 PUSH2 0x2A1E JUMP JUMPDEST PUSH1 0x11 DUP3 ADD SWAP1 POP SWAP2 SWAP1 POP JUMP JUMPDEST PUSH1 0x0 PUSH2 0x2A75 DUP3 PUSH2 0x29CA JUMP JUMPDEST SWAP2 POP PUSH2 0x2A81 DUP3 DUP6 PUSH2 0x29ED JUMP JUMPDEST SWAP2 POP PUSH2 0x2A8C DUP3 PUSH2 0x2A47 JUMP JUMPDEST SWAP2 POP PUSH2 0x2A98 DUP3 DUP5 PUSH2 0x29ED JUMP JUMPDEST SWAP2 POP DUP2 SWAP1 POP SWAP4 SWAP3 POP POP POP JUMP JUMPDEST PUSH32 0x546F6B656E207472616E7366657220726566757365642E205265636569766572 PUSH1 0x0 DUP3 ADD MSTORE PUSH32 0x206973206F6E2074686520626C61636B6C697374000000000000000000000000 PUSH1 0x20 DUP3 ADD MSTORE POP JUMP JUMPDEST PUSH1 0x0 PUSH2 0x2B00 PUSH1 0x34 DUP4 PUSH2 0x1C8D JUMP JUMPDEST SWAP2 POP PUSH2 0x2B0B DUP3 PUSH2 0x2AA4 JUMP JUMPDEST PUSH1 0x40 DUP3 ADD SWAP1 POP SWAP2 SWAP1 POP JUMP JUMPDEST PUSH1 0x0 PUSH1 0x20 DUP3 ADD SWAP1 POP DUP2 DUP2 SUB PUSH1 0x0 DUP4 ADD MSTORE PUSH2 0x2B2F DUP2 PUSH2 0x2AF3 JUMP JUMPDEST SWAP1 POP SWAP2 SWAP1 POP JUMP JUMPDEST PUSH32 0x546F6B656E207472616E7366657220726566757365642E20596F752061726520 PUSH1 0x0 DUP3 ADD MSTORE PUSH32 0x6F6E2074686520626C61636B6C69737400000000000000000000000000000000 PUSH1 0x20 DUP3 ADD MSTORE POP JUMP JUMPDEST PUSH1 0x0 PUSH2 0x2B92 PUSH1 0x30 DUP4 PUSH2 0x1C8D JUMP JUMPDEST SWAP2 POP PUSH2 0x2B9D DUP3 PUSH2 0x2B36 JUMP JUMPDEST PUSH1 0x40 DUP3 ADD SWAP1 POP SWAP2 SWAP1 POP JUMP JUMPDEST PUSH1 0x0 PUSH1 0x20 DUP3 ADD SWAP1 POP DUP2 DUP2 SUB PUSH1 0x0 DUP4 ADD MSTORE PUSH2 0x2BC1 DUP2 PUSH2 0x2B85 JUMP JUMPDEST SWAP1 POP SWAP2 SWAP1 POP JUMP JUMPDEST PUSH32 0x5061757361626C653A206E6F7420706175736564000000000000000000000000 PUSH1 0x0 DUP3 ADD MSTORE POP JUMP JUMPDEST PUSH1 0x0 PUSH2 0x2BFE PUSH1 0x14 DUP4 PUSH2 0x1C8D JUMP JUMPDEST SWAP2 POP PUSH2 0x2C09 DUP3 PUSH2 0x2BC8 JUMP JUMPDEST PUSH1 0x20 DUP3 ADD SWAP1 POP SWAP2 SWAP1 POP JUMP JUMPDEST PUSH1 0x0 PUSH1 0x20 DUP3 ADD SWAP1 POP DUP2 DUP2 SUB PUSH1 0x0 DUP4 ADD MSTORE PUSH2 0x2C2D DUP2 PUSH2 0x2BF1 JUMP JUMPDEST SWAP1 POP SWAP2 SWAP1 POP JUMP JUMPDEST PUSH32 0x5061757361626C653A2070617573656400000000000000000000000000000000 PUSH1 0x0 DUP3 ADD MSTORE POP JUMP JUMPDEST PUSH1 0x0 PUSH2 0x2C6A PUSH1 0x10 DUP4 PUSH2 0x1C8D JUMP JUMPDEST SWAP2 POP PUSH2 0x2C75 DUP3 PUSH2 0x2C34 JUMP JUMPDEST PUSH1 0x20 DUP3 ADD SWAP1 POP SWAP2 SWAP1 POP JUMP JUMPDEST PUSH1 0x0 PUSH1 0x20 DUP3 ADD SWAP1 POP DUP2 DUP2 SUB PUSH1 0x0 DUP4 ADD MSTORE PUSH2 0x2C99 DUP2 PUSH2 0x2C5D JUMP JUMPDEST SWAP1 POP SWAP2 SWAP1 POP JUMP INVALID LOG2 PUSH5 0x6970667358 0x22 SLT KECCAK256 XOR 0xE9 0x2C ADDMOD GAS CALLER 0xEE GAS 0x4A 0xE2 PUSH27 0x655838D3FCB420ECFC7FDBA14C39CD5330B8A9F07964736F6C6343 STOP ADDMOD MULMOD STOP CALLER "
		},
		"gasEstimates": {
			"creation": {
				"codeDepositCost": "2295600",
				"executionCost": "infinite",
				"totalCost": "infinite"
			},
			"external": {
				"DEFAULT_ADMIN_ROLE()": "380",
				"FEE_RATIO_CHANGER_ROLE()": "2475",
				"PAUSER_ROLE()": "439",
				"_feeRatio()": "2541",
				"allowance(address,address)": "infinite",
				"approve(address,uint256)": "infinite",
				"balanceOf(address)": "2953",
				"blacklistUpdate(address,bool)": "infinite",
				"burn(uint256)": "infinite",
				"burnFrom(address,uint256)": "infinite",
				"decimals()": "455",
				"decreaseAllowance(address,uint256)": "infinite",
				"getFeeRatio()": "2505",
				"getRoleAdmin(bytes32)": "infinite",
				"grantRole(bytes32,address)": "infinite",
				"hasRole(bytes32,address)": "3229",
				"increaseAllowance(address,uint256)": "infinite",
				"isBlackListed(address)": "2971",
				"name()": "infinite",
				"pause()": "infinite",
				"paused()": "2569",
				"renounceRole(bytes32,address)": "infinite",
				"revokeRole(bytes32,address)": "infinite",
				"setFeeRatio(uint256)": "infinite",
				"supportsInterface(bytes4)": "774",
				"symbol()": "infinite",
				"totalSupply()": "2505",
				"transfer(address,uint256)": "infinite",
				"transferFrom(address,address,uint256)": "infinite",
				"transferToken(address,uint256)": "infinite",
				"unpause()": "infinite"
			},
			"internal": {
				"_beforeTokenTransfer(address,address,uint256)": "infinite"
			}
		},
		"methodIdentifiers": {
			"DEFAULT_ADMIN_ROLE()": "a217fddf",
			"FEE_RATIO_CHANGER_ROLE()": "46dbeb2d",
			"PAUSER_ROLE()": "e63ab1e9",
			"_feeRatio()": "1c1252f5",
			"allowance(address,address)": "dd62ed3e",
			"approve(address,uint256)": "095ea7b3",
			"balanceOf(address)": "70a08231",
			"blacklistUpdate(address,bool)": "b351dfe8",
			"burn(uint256)": "42966c68",
			"burnFrom(address,uint256)": "79cc6790",
			"decimals()": "313ce567",
			"decreaseAllowance(address,uint256)": "a457c2d7",
			"getFeeRatio()": "59362b88",
			"getRoleAdmin(bytes32)": "248a9ca3",
			"grantRole(bytes32,address)": "2f2ff15d",
			"hasRole(bytes32,address)": "91d14854",
			"increaseAllowance(address,uint256)": "39509351",
			"isBlackListed(address)": "e47d6060",
			"name()": "06fdde03",
			"pause()": "8456cb59",
			"paused()": "5c975abb",
			"renounceRole(bytes32,address)": "36568abe",
			"revokeRole(bytes32,address)": "d547741f",
			"setFeeRatio(uint256)": "19f4ff2f",
			"supportsInterface(bytes4)": "01ffc9a7",
			"symbol()": "95d89b41",
			"totalSupply()": "18160ddd",
			"transfer(address,uint256)": "a9059cbb",
			"transferFrom(address,address,uint256)": "23b872dd",
			"transferToken(address,uint256)": "1072cbea",
			"unpause()": "3f4ba83a"
		}
	},
	"abi": [
		{
			"inputs": [],
			"stateMutability": "nonpayable",
			"type": "constructor"
		},
		{
			"anonymous": false,
			"inputs": [
				{
					"indexed": true,
					"internalType": "address",
					"name": "owner",
					"type": "address"
				},
				{
					"indexed": true,
					"internalType": "address",
					"name": "spender",
					"type": "address"
				},
				{
					"indexed": false,
					"internalType": "uint256",
					"name": "value",
					"type": "uint256"
				}
			],
			"name": "Approval",
			"type": "event"
		},
		{
			"anonymous": false,
			"inputs": [
				{
					"indexed": true,
					"internalType": "address",
					"name": "user",
					"type": "address"
				},
				{
					"indexed": false,
					"internalType": "bool",
					"name": "value",
					"type": "bool"
				}
			],
			"name": "BlacklistUpdated",
			"type": "event"
		},
		{
			"anonymous": false,
			"inputs": [
				{
					"indexed": false,
					"internalType": "address",
					"name": "account",
					"type": "address"
				}
			],
			"name": "Paused",
			"type": "event"
		},
		{
			"anonymous": false,
			"inputs": [
				{
					"indexed": true,
					"internalType": "bytes32",
					"name": "role",
					"type": "bytes32"
				},
				{
					"indexed": true,
					"internalType": "bytes32",
					"name": "previousAdminRole",
					"type": "bytes32"
				},
				{
					"indexed": true,
					"internalType": "bytes32",
					"name": "newAdminRole",
					"type": "bytes32"
				}
			],
			"name": "RoleAdminChanged",
			"type": "event"
		},
		{
			"anonymous": false,
			"inputs": [
				{
					"indexed": true,
					"internalType": "bytes32",
					"name": "role",
					"type": "bytes32"
				},
				{
					"indexed": true,
					"internalType": "address",
					"name": "account",
					"type": "address"
				},
				{
					"indexed": true,
					"internalType": "address",
					"name": "sender",
					"type": "address"
				}
			],
			"name": "RoleGranted",
			"type": "event"
		},
		{
			"anonymous": false,
			"inputs": [
				{
					"indexed": true,
					"internalType": "bytes32",
					"name": "role",
					"type": "bytes32"
				},
				{
					"indexed": true,
					"internalType": "address",
					"name": "account",
					"type": "address"
				},
				{
					"indexed": true,
					"internalType": "address",
					"name": "sender",
					"type": "address"
				}
			],
			"name": "RoleRevoked",
			"type": "event"
		},
		{
			"anonymous": false,
			"inputs": [
				{
					"indexed": true,
					"internalType": "address",
					"name": "from",
					"type": "address"
				},
				{
					"indexed": true,
					"internalType": "address",
					"name": "to",
					"type": "address"
				},
				{
					"indexed": false,
					"internalType": "uint256",
					"name": "value",
					"type": "uint256"
				}
			],
			"name": "Transfer",
			"type": "event"
		},
		{
			"anonymous": false,
			"inputs": [
				{
					"indexed": false,
					"internalType": "address",
					"name": "account",
					"type": "address"
				}
			],
			"name": "Unpaused",
			"type": "event"
		},
		{
			"inputs": [],
			"name": "DEFAULT_ADMIN_ROLE",
			"outputs": [
				{
					"internalType": "bytes32",
					"name": "",
					"type": "bytes32"
				}
			],
			"stateMutability": "view",
			"type": "function"
		},
		{
			"inputs": [],
			"name": "FEE_RATIO_CHANGER_ROLE",
			"outputs": [
				{
					"internalType": "bytes32",
					"name": "",
					"type": "bytes32"
				}
			],
			"stateMutability": "view",
			"type": "function"
		},
		{
			"inputs": [],
			"name": "PAUSER_ROLE",
			"outputs": [
				{
					"internalType": "bytes32",
					"name": "",
					"type": "bytes32"
				}
			],
			"stateMutability": "view",
			"type": "function"
		},
		{
			"inputs": [],
			"name": "_feeRatio",
			"outputs": [
				{
					"internalType": "uint256",
					"name": "",
					"type": "uint256"
				}
			],
			"stateMutability": "view",
			"type": "function"
		},
		{
			"inputs": [
				{
					"internalType": "address",
					"name": "owner",
					"type": "address"
				},
				{
					"internalType": "address",
					"name": "spender",
					"type": "address"
				}
			],
			"name": "allowance",
			"outputs": [
				{
					"internalType": "uint256",
					"name": "",
					"type": "uint256"
				}
			],
			"stateMutability": "view",
			"type": "function"
		},
		{
			"inputs": [
				{
					"internalType": "address",
					"name": "spender",
					"type": "address"
				},
				{
					"internalType": "uint256",
					"name": "amount",
					"type": "uint256"
				}
			],
			"name": "approve",
			"outputs": [
				{
					"internalType": "bool",
					"name": "",
					"type": "bool"
				}
			],
			"stateMutability": "nonpayable",
			"type": "function"
		},
		{
			"inputs": [
				{
					"internalType": "address",
					"name": "account",
					"type": "address"
				}
			],
			"name": "balanceOf",
			"outputs": [
				{
					"internalType": "uint256",
					"name": "",
					"type": "uint256"
				}
			],
			"stateMutability": "view",
			"type": "function"
		},
		{
			"inputs": [
				{
					"internalType": "address",
					"name": "user",
					"type": "address"
				},
				{
					"internalType": "bool",
					"name": "value",
					"type": "bool"
				}
			],
			"name": "blacklistUpdate",
			"outputs": [],
			"stateMutability": "nonpayable",
			"type": "function"
		},
		{
			"inputs": [
				{
					"internalType": "uint256",
					"name": "amount",
					"type": "uint256"
				}
			],
			"name": "burn",
			"outputs": [],
			"stateMutability": "nonpayable",
			"type": "function"
		},
		{
			"inputs": [
				{
					"internalType": "address",
					"name": "account",
					"type": "address"
				},
				{
					"internalType": "uint256",
					"name": "amount",
					"type": "uint256"
				}
			],
			"name": "burnFrom",
			"outputs": [],
			"stateMutability": "nonpayable",
			"type": "function"
		},
		{
			"inputs": [],
			"name": "decimals",
			"outputs": [
				{
					"internalType": "uint8",
					"name": "",
					"type": "uint8"
				}
			],
			"stateMutability": "view",
			"type": "function"
		},
		{
			"inputs": [
				{
					"internalType": "address",
					"name": "spender",
					"type": "address"
				},
				{
					"internalType": "uint256",
					"name": "subtractedValue",
					"type": "uint256"
				}
			],
			"name": "decreaseAllowance",
			"outputs": [
				{
					"internalType": "bool",
					"name": "",
					"type": "bool"
				}
			],
			"stateMutability": "nonpayable",
			"type": "function"
		},
		{
			"inputs": [],
			"name": "getFeeRatio",
			"outputs": [
				{
					"internalType": "uint256",
					"name": "",
					"type": "uint256"
				}
			],
			"stateMutability": "view",
			"type": "function"
		},
		{
			"inputs": [
				{
					"internalType": "bytes32",
					"name": "role",
					"type": "bytes32"
				}
			],
			"name": "getRoleAdmin",
			"outputs": [
				{
					"internalType": "bytes32",
					"name": "",
					"type": "bytes32"
				}
			],
			"stateMutability": "view",
			"type": "function"
		},
		{
			"inputs": [
				{
					"internalType": "bytes32",
					"name": "role",
					"type": "bytes32"
				},
				{
					"internalType": "address",
					"name": "account",
					"type": "address"
				}
			],
			"name": "grantRole",
			"outputs": [],
			"stateMutability": "nonpayable",
			"type": "function"
		},
		{
			"inputs": [
				{
					"internalType": "bytes32",
					"name": "role",
					"type": "bytes32"
				},
				{
					"internalType": "address",
					"name": "account",
					"type": "address"
				}
			],
			"name": "hasRole",
			"outputs": [
				{
					"internalType": "bool",
					"name": "",
					"type": "bool"
				}
			],
			"stateMutability": "view",
			"type": "function"
		},
		{
			"inputs": [
				{
					"internalType": "address",
					"name": "spender",
					"type": "address"
				},
				{
					"internalType": "uint256",
					"name": "addedValue",
					"type": "uint256"
				}
			],
			"name": "increaseAllowance",
			"outputs": [
				{
					"internalType": "bool",
					"name": "",
					"type": "bool"
				}
			],
			"stateMutability": "nonpayable",
			"type": "function"
		},
		{
			"inputs": [
				{
					"internalType": "address",
					"name": "user",
					"type": "address"
				}
			],
			"name": "isBlackListed",
			"outputs": [
				{
					"internalType": "bool",
					"name": "",
					"type": "bool"
				}
			],
			"stateMutability": "view",
			"type": "function"
		},
		{
			"inputs": [],
			"name": "name",
			"outputs": [
				{
					"internalType": "string",
					"name": "",
					"type": "string"
				}
			],
			"stateMutability": "view",
			"type": "function"
		},
		{
			"inputs": [],
			"name": "pause",
			"outputs": [],
			"stateMutability": "nonpayable",
			"type": "function"
		},
		{
			"inputs": [],
			"name": "paused",
			"outputs": [
				{
					"internalType": "bool",
					"name": "",
					"type": "bool"
				}
			],
			"stateMutability": "view",
			"type": "function"
		},
		{
			"inputs": [
				{
					"internalType": "bytes32",
					"name": "role",
					"type": "bytes32"
				},
				{
					"internalType": "address",
					"name": "account",
					"type": "address"
				}
			],
			"name": "renounceRole",
			"outputs": [],
			"stateMutability": "nonpayable",
			"type": "function"
		},
		{
			"inputs": [
				{
					"internalType": "bytes32",
					"name": "role",
					"type": "bytes32"
				},
				{
					"internalType": "address",
					"name": "account",
					"type": "address"
				}
			],
			"name": "revokeRole",
			"outputs": [],
			"stateMutability": "nonpayable",
			"type": "function"
		},
		{
			"inputs": [
				{
					"internalType": "uint256",
					"name": "feeRatio",
					"type": "uint256"
				}
			],
			"name": "setFeeRatio",
			"outputs": [],
			"stateMutability": "nonpayable",
			"type": "function"
		},
		{
			"inputs": [
				{
					"internalType": "bytes4",
					"name": "interfaceId",
					"type": "bytes4"
				}
			],
			"name": "supportsInterface",
			"outputs": [
				{
					"internalType": "bool",
					"name": "",
					"type": "bool"
				}
			],
			"stateMutability": "view",
			"type": "function"
		},
		{
			"inputs": [],
			"name": "symbol",
			"outputs": [
				{
					"internalType": "string",
					"name": "",
					"type": "string"
				}
			],
			"stateMutability": "view",
			"type": "function"
		},
		{
			"inputs": [],
			"name": "totalSupply",
			"outputs": [
				{
					"internalType": "uint256",
					"name": "",
					"type": "uint256"
				}
			],
			"stateMutability": "view",
			"type": "function"
		},
		{
			"inputs": [
				{
					"internalType": "address",
					"name": "to",
					"type": "address"
				},
				{
					"internalType": "uint256",
					"name": "amount",
					"type": "uint256"
				}
			],
			"name": "transfer",
			"outputs": [
				{
					"internalType": "bool",
					"name": "",
					"type": "bool"
				}
			],
			"stateMutability": "nonpayable",
			"type": "function"
		},
		{
			"inputs": [
				{
					"internalType": "address",
					"name": "from",
					"type": "address"
				},
				{
					"internalType": "address",
					"name": "to",
					"type": "address"
				},
				{
					"internalType": "uint256",
					"name": "amount",
					"type": "uint256"
				}
			],
			"name": "transferFrom",
			"outputs": [
				{
					"internalType": "bool",
					"name": "",
					"type": "bool"
				}
			],
			"stateMutability": "nonpayable",
			"type": "function"
		},
		{
			"inputs": [
				{
					"internalType": "address payable",
					"name": "recepient",
					"type": "address"
				},
				{
					"internalType": "uint256",
					"name": "_amount",
					"type": "uint256"
				}
			],
			"name": "transferToken",
			"outputs": [],
			"stateMutability": "nonpayable",
			"type": "function"
		},
		{
			"inputs": [],
			"name": "unpause",
			"outputs": [],
			"stateMutability": "nonpayable",
			"type": "function"
		}
	]
}