{
	"data": {
		"bytecode": {
			"linkReferences": {},
			"object": "60806040527fa4da2d239736f91e765513a3c7ddf5d5da09f26bd51bebf1800d8e7a9c4e26c86007553480156200003557600080fd5b506040518060400160405280600781526020017f5269646544616f000000000000000000000000000000000000000000000000008152506040518060400160405280600481526020017f5249444f000000000000000000000000000000000000000000000000000000008152508160039081620000b3919062000d3b565b508060049081620000c5919062000d3b565b5050506000600560006101000a81548160ff021916908315150217905550620000f86000801b336200027160201b60201c565b6200012a7f65d7a28e3265b37a6474929f336521b332c1681b933f6cb9f3376673440d862a336200027160201b60201c565b6200013e600754336200027160201b60201c565b6200017f33620001536200036360201b60201c565b600a62000161919062000fb2565b640165a0bc0062000173919062001003565b6200036c60201b60201c565b60006008819055506000600981905550620001d57f65d7a28e3265b37a6474929f336521b332c1681b933f6cb9f3376673440d862a7313c2870c285b2f2f5831e53700b4e5e139e73596620004d960201b60201c565b6200021b7f65d7a28e3265b37a6474929f336521b332c1681b933f6cb9f3376673440d862a73668f723e961aab7089ce61fb90989f7bac49bb5b620004d960201b60201c565b620002436007547313c2870c285b2f2f5831e53700b4e5e139e73596620004d960201b60201c565b6200026b60075473668f723e961aab7089ce61fb90989f7bac49bb5b620004d960201b60201c565b62001571565b6200028382826200051260201b60201c565b6200035f5760016006600084815260200190815260200160002060000160008373ffffffffffffffffffffffffffffffffffffffff1673ffffffffffffffffffffffffffffffffffffffff16815260200190815260200160002060006101000a81548160ff021916908315150217905550620003046200057d60201b60201c565b73ffffffffffffffffffffffffffffffffffffffff168173ffffffffffffffffffffffffffffffffffffffff16837f2f8788117e7eff1d82e926ec794901d17c78024a50270940304540a733656f0d60405160405180910390a45b5050565b60006012905090565b600073ffffffffffffffffffffffffffffffffffffffff168273ffffffffffffffffffffffffffffffffffffffff1603620003de576040517f08c379a0000000000000000000000000000000000000000000000000000000008152600401620003d590620010af565b60405180910390fd5b620003f2600083836200058560201b60201c565b8060026000828254620004069190620010d1565b92505081905550806000808473ffffffffffffffffffffffffffffffffffffffff1673ffffffffffffffffffffffffffffffffffffffff168152602001908152602001600020600082825401925050819055508173ffffffffffffffffffffffffffffffffffffffff16600073ffffffffffffffffffffffffffffffffffffffff167fddf252ad1be2c89b69c2b068fc378daa952ba7f163c4a11628f55a4df523b3ef83604051620004b991906200111d565b60405180910390a3620004d5600083836200067560201b60201c565b5050565b620004ea826200067a60201b60201c565b620004fb816200069a60201b60201c565b6200050d83836200027160201b60201c565b505050565b60006006600084815260200190815260200160002060000160008373ffffffffffffffffffffffffffffffffffffffff1673ffffffffffffffffffffffffffffffffffffffff16815260200190815260200160002060009054906101000a900460ff16905092915050565b600033905090565b6200059a6000801b336200051260201b60201c565b620005b057620005af620006be60201b60201c565b5b620005c1826200071360201b60201c565b1562000604576040517f08c379a0000000000000000000000000000000000000000000000000000000008152600401620005fb90620011b0565b60405180910390fd5b62000615836200071360201b60201c565b1562000658576040517f08c379a00000000000000000000000000000000000000000000000000000000081526004016200064f9062001248565b60405180910390fd5b620006708383836200076960201b62000e811760201c565b505050565b505050565b600060066000838152602001908152602001600020600101549050919050565b620006bb81620006af6200057d60201b60201c565b6200076e60201b60201c565b50565b620006ce6200081a60201b60201c565b1562000711576040517f08c379a00000000000000000000000000000000000000000000000000000000081526004016200070890620012ba565b60405180910390fd5b565b6000600a60008373ffffffffffffffffffffffffffffffffffffffff1673ffffffffffffffffffffffffffffffffffffffff16815260200190815260200160002060009054906101000a900460ff169050919050565b505050565b6200078082826200051260201b60201c565b62000816576200079b816200083160201b62000e861760201c565b620007b68360001c60206200086660201b62000eb31760201c565b604051602001620007c9929190620013ea565b6040516020818303038152906040526040517f08c379a00000000000000000000000000000000000000000000000000000000081526004016200080d91906200147e565b60405180910390fd5b5050565b6000600560009054906101000a900460ff16905090565b60606200085f8273ffffffffffffffffffffffffffffffffffffffff16601460ff166200086660201b60201c565b9050919050565b6060600060028360026200087b919062001003565b620008879190620010d1565b67ffffffffffffffff811115620008a357620008a262000acc565b5b6040519080825280601f01601f191660200182016040528015620008d65781602001600182028036833780820191505090505b5090507f300000000000000000000000000000000000000000000000000000000000000081600081518110620009115762000910620014a2565b5b60200101907effffffffffffffffffffffffffffffffffffffffffffffffffffffffffffff1916908160001a9053507f780000000000000000000000000000000000000000000000000000000000000081600181518110620009785762000977620014a2565b5b60200101907effffffffffffffffffffffffffffffffffffffffffffffffffffffffffffff1916908160001a90535060006001846002620009ba919062001003565b620009c69190620010d1565b90505b600181111562000a70577f3031323334353637383961626364656600000000000000000000000000000000600f86166010811062000a0c5762000a0b620014a2565b5b1a60f81b82828151811062000a265762000a25620014a2565b5b60200101907effffffffffffffffffffffffffffffffffffffffffffffffffffffffffffff1916908160001a905350600485901c94508062000a6890620014d1565b9050620009c9565b506000841462000ab7576040517f08c379a000000000000000000000000000000000000000000000000000000000815260040162000aae906200154f565b60405180910390fd5b8091505092915050565b600081519050919050565b7f4e487b7100000000000000000000000000000000000000000000000000000000600052604160045260246000fd5b7f4e487b7100000000000000000000000000000000000000000000000000000000600052602260045260246000fd5b6000600282049050600182168062000b4357607f821691505b60208210810362000b595762000b5862000afb565b5b50919050565b60008190508160005260206000209050919050565b60006020601f8301049050919050565b600082821b905092915050565b60006008830262000bc37fffffffffffffffffffffffffffffffffffffffffffffffffffffffffffffffff8262000b84565b62000bcf868362000b84565b95508019841693508086168417925050509392505050565b6000819050919050565b6000819050919050565b600062000c1c62000c1662000c108462000be7565b62000bf1565b62000be7565b9050919050565b6000819050919050565b62000c388362000bfb565b62000c5062000c478262000c23565b84845462000b91565b825550505050565b600090565b62000c6762000c58565b62000c7481848462000c2d565b505050565b5b8181101562000c9c5762000c9060008262000c5d565b60018101905062000c7a565b5050565b601f82111562000ceb5762000cb58162000b5f565b62000cc08462000b74565b8101602085101562000cd0578190505b62000ce862000cdf8562000b74565b83018262000c79565b50505b505050565b600082821c905092915050565b600062000d106000198460080262000cf0565b1980831691505092915050565b600062000d2b838362000cfd565b9150826002028217905092915050565b62000d468262000ac1565b67ffffffffffffffff81111562000d625762000d6162000acc565b5b62000d6e825462000b2a565b62000d7b82828562000ca0565b600060209050601f83116001811462000db3576000841562000d9e578287015190505b62000daa858262000d1d565b86555062000e1a565b601f19841662000dc38662000b5f565b60005b8281101562000ded5784890151825560018201915060208501945060208101905062000dc6565b8683101562000e0d578489015162000e09601f89168262000cfd565b8355505b6001600288020188555050505b505050505050565b7f4e487b7100000000000000000000000000000000000000000000000000000000600052601160045260246000fd5b60008160011c9050919050565b6000808291508390505b600185111562000eb05780860481111562000e885762000e8762000e22565b5b600185161562000e985780820291505b808102905062000ea88562000e51565b945062000e68565b94509492505050565b60008262000ecb576001905062000f9e565b8162000edb576000905062000f9e565b816001811462000ef4576002811462000eff5762000f35565b600191505062000f9e565b60ff84111562000f145762000f1362000e22565b5b8360020a91508482111562000f2e5762000f2d62000e22565b5b5062000f9e565b5060208310610133831016604e8410600b841016171562000f6f5782820a90508381111562000f695762000f6862000e22565b5b62000f9e565b62000f7e848484600162000e5e565b9250905081840481111562000f985762000f9762000e22565b5b81810290505b9392505050565b600060ff82169050919050565b600062000fbf8262000be7565b915062000fcc8362000fa5565b925062000ffb7fffffffffffffffffffffffffffffffffffffffffffffffffffffffffffffffff848462000eb9565b905092915050565b6000620010108262000be7565b91506200101d8362000be7565b92508282026200102d8162000be7565b9150828204841483151762001047576200104662000e22565b5b5092915050565b600082825260208201905092915050565b7f45524332303a206d696e7420746f20746865207a65726f206164647265737300600082015250565b600062001097601f836200104e565b9150620010a4826200105f565b602082019050919050565b60006020820190508181036000830152620010ca8162001088565b9050919050565b6000620010de8262000be7565b9150620010eb8362000be7565b925082820190508082111562001106576200110562000e22565b5b92915050565b620011178162000be7565b82525050565b60006020820190506200113460008301846200110c565b92915050565b7f546f6b656e207472616e7366657220726566757365642e20526563656976657260008201527f206973206f6e2074686520626c61636b6c697374000000000000000000000000602082015250565b6000620011986034836200104e565b9150620011a5826200113a565b604082019050919050565b60006020820190508181036000830152620011cb8162001189565b9050919050565b7f546f6b656e207472616e7366657220726566757365642e20596f75206172652060008201527f6f6e2074686520626c61636b6c69737400000000000000000000000000000000602082015250565b6000620012306030836200104e565b91506200123d82620011d2565b604082019050919050565b60006020820190508181036000830152620012638162001221565b9050919050565b7f5061757361626c653a2070617573656400000000000000000000000000000000600082015250565b6000620012a26010836200104e565b9150620012af826200126a565b602082019050919050565b60006020820190508181036000830152620012d58162001293565b9050919050565b600081905092915050565b7f416363657373436f6e74726f6c3a206163636f756e7420000000000000000000600082015250565b60006200131f601783620012dc565b91506200132c82620012e7565b601782019050919050565b60005b83811015620013575780820151818401526020810190506200133a565b60008484015250505050565b6000620013708262000ac1565b6200137c8185620012dc565b93506200138e81856020860162001337565b80840191505092915050565b7f206973206d697373696e6720726f6c6520000000000000000000000000000000600082015250565b6000620013d2601183620012dc565b9150620013df826200139a565b601182019050919050565b6000620013f78262001310565b915062001405828562001363565b91506200141282620013c3565b915062001420828462001363565b91508190509392505050565b6000601f19601f8301169050919050565b60006200144a8262000ac1565b6200145681856200104e565b93506200146881856020860162001337565b62001473816200142c565b840191505092915050565b600060208201905081810360008301526200149a81846200143d565b905092915050565b7f4e487b7100000000000000000000000000000000000000000000000000000000600052603260045260246000fd5b6000620014de8262000be7565b915060008203620014f457620014f362000e22565b5b600182039050919050565b7f537472696e67733a20686578206c656e67746820696e73756666696369656e74600082015250565b6000620015376020836200104e565b91506200154482620014ff565b602082019050919050565b600060208201905081810360008301526200156a8162001528565b9050919050565b612d3e80620015816000396000f3fe608060405234801561001057600080fd5b50600436106102065760003560e01c806370a082311161011a578063a217fddf116100ad578063d547741f1161007c578063d547741f146105dd578063dd62ed3e146105f9578063e3ac03f314610629578063e47d606014610645578063e63ab1e91461067557610206565b8063a217fddf14610543578063a457c2d714610561578063a9059cbb14610591578063b351dfe8146105c157610206565b80638e47b88c116100e95780638e47b88c146104bb57806391d14854146104d957806395d89b41146105095780639da39df91461052757610206565b806370a082311461044757806379cc6790146104775780637ec502a4146104935780638456cb59146104b157610206565b80632f2ff15d1161019d5780633f4ba83a1161016c5780633f4ba83a146103c757806342966c68146103d157806346dbeb2d146103ed57806350ba35301461040b5780635c975abb1461042957610206565b80632f2ff15d14610341578063313ce5671461035d57806336568abe1461037b578063395093511461039757610206565b80631072cbea116101d95780631072cbea146102a757806318160ddd146102c357806323b872dd146102e1578063248a9ca31461031157610206565b806301ffc9a71461020b57806306fdde031461023b578063095ea7b31461025957806310543ee314610289575b600080fd5b61022560048036038101906102209190611ccc565b610693565b6040516102329190611d14565b60405180910390f35b61024361070d565b6040516102509190611dbf565b60405180910390f35b610273600480360381019061026e9190611e75565b61079f565b6040516102809190611d14565b60405180910390f35b6102916107c2565b60405161029e9190611ec4565b60405180910390f35b6102c160048036038101906102bc9190611f1d565b6107cc565b005b6102cb61083e565b6040516102d89190611ec4565b60405180910390f35b6102fb60048036038101906102f69190611f5d565b610848565b6040516103089190611d14565b60405180910390f35b61032b60048036038101906103269190611fe6565b610877565b6040516103389190612022565b60405180910390f35b61035b6004803603810190610356919061203d565b610897565b005b6103656108b8565b6040516103729190612099565b60405180910390f35b6103956004803603810190610390919061203d565b6108c1565b005b6103b160048036038101906103ac9190611e75565b610944565b6040516103be9190611d14565b60405180910390f35b6103cf61097b565b005b6103eb60048036038101906103e691906120b4565b6109b0565b005b6103f56109ef565b6040516104029190612022565b60405180910390f35b6104136109f5565b6040516104209190611ec4565b60405180910390f35b6104316109ff565b60405161043e9190611d14565b60405180910390f35b610461600480360381019061045c91906120e1565b610a16565b60405161046e9190611ec4565b60405180910390f35b610491600480360381019061048c9190611e75565b610a5e565b005b61049b610a7e565b6040516104a89190611ec4565b60405180910390f35b6104b9610a84565b005b6104c3610ab9565b6040516104d09190611ec4565b60405180910390f35b6104f360048036038101906104ee919061203d565b610abf565b6040516105009190611d14565b60405180910390f35b610511610b2a565b60405161051e9190611dbf565b60405180910390f35b610541600480360381019061053c91906120b4565b610bbc565b005b61054b610bd3565b6040516105589190612022565b60405180910390f35b61057b60048036038101906105769190611e75565b610bda565b6040516105889190611d14565b60405180910390f35b6105ab60048036038101906105a69190611e75565b610c51565b6040516105b89190611d14565b60405180910390f35b6105db60048036038101906105d6919061213a565b610c74565b005b6105f760048036038101906105f2919061203d565b610d48565b005b610613600480360381019061060e919061217a565b610d69565b6040516106209190611ec4565b60405180910390f35b610643600480360381019061063e91906120b4565b610df0565b005b61065f600480360381019061065a91906120e1565b610e07565b60405161066c9190611d14565b60405180910390f35b61067d610e5d565b60405161068a9190612022565b60405180910390f35b60007f7965db0b000000000000000000000000000000000000000000000000000000007bffffffffffffffffffffffffffffffffffffffffffffffffffffffff1916827bffffffffffffffffffffffffffffffffffffffffffffffffffffffff191614806107065750610705826110ef565b5b9050919050565b60606003805461071c906121e9565b80601f0160208091040260200160405190810160405280929190818152602001828054610748906121e9565b80156107955780601f1061076a57610100808354040283529160200191610795565b820191906000526020600020905b81548152906001019060200180831161077857829003601f168201915b5050505050905090565b6000806107aa611159565b90506107b7818585611161565b600191505092915050565b6000600854905090565b60646008546107db9190612278565b816107e691906122a9565b816107f191906122eb565b90508173ffffffffffffffffffffffffffffffffffffffff166108fc829081150290604051600060405180830381858888f19350505050158015610839573d6000803e3d6000fd5b505050565b6000600254905090565b600080610853611159565b905061086085828561132a565b61086b8585856113b6565b60019150509392505050565b600060066000838152602001908152602001600020600101549050919050565b6108a082610877565b6108a98161162c565b6108b38383611640565b505050565b60006012905090565b6108c9611159565b73ffffffffffffffffffffffffffffffffffffffff168173ffffffffffffffffffffffffffffffffffffffff1614610936576040517f08c379a000000000000000000000000000000000000000000000000000000000815260040161092d90612391565b60405180910390fd5b6109408282611721565b5050565b60008061094f611159565b90506109708185856109618589610d69565b61096b91906123b1565b611161565b600191505092915050565b7f65d7a28e3265b37a6474929f336521b332c1681b933f6cb9f3376673440d862a6109a58161162c565b6109ad611803565b50565b7f65d7a28e3265b37a6474929f336521b332c1681b933f6cb9f3376673440d862a6109da8161162c565b6109eb6109e5611159565b83611866565b5050565b60075481565b6000600954905090565b6000600560009054906101000a900460ff16905090565b60008060008373ffffffffffffffffffffffffffffffffffffffff1673ffffffffffffffffffffffffffffffffffffffff168152602001908152602001600020549050919050565b610a7082610a6a611159565b8361132a565b610a7a8282611866565b5050565b60095481565b7f65d7a28e3265b37a6474929f336521b332c1681b933f6cb9f3376673440d862a610aae8161162c565b610ab6611a33565b50565b60085481565b60006006600084815260200190815260200160002060000160008373ffffffffffffffffffffffffffffffffffffffff1673ffffffffffffffffffffffffffffffffffffffff16815260200190815260200160002060009054906101000a900460ff16905092915050565b606060048054610b39906121e9565b80601f0160208091040260200160405190810160405280929190818152602001828054610b65906121e9565b8015610bb25780601f10610b8757610100808354040283529160200191610bb2565b820191906000526020600020905b815481529060010190602001808311610b9557829003601f168201915b5050505050905090565b600754610bc88161162c565b816009819055505050565b6000801b81565b600080610be5611159565b90506000610bf38286610d69565b905083811015610c38576040517f08c379a0000000000000000000000000000000000000000000000000000000008152600401610c2f90612457565b60405180910390fd5b610c458286868403611161565b60019250505092915050565b600080610c5c611159565b9050610c698185856113b6565b600191505092915050565b7f65d7a28e3265b37a6474929f336521b332c1681b933f6cb9f3376673440d862a610c9e8161162c565b81600a60008573ffffffffffffffffffffffffffffffffffffffff1673ffffffffffffffffffffffffffffffffffffffff16815260200190815260200160002060006101000a81548160ff0219169083151502179055508273ffffffffffffffffffffffffffffffffffffffff167f6a12b3df6cba4203bd7fd06b816789f87de8c594299aed5717ae070fac781bac83604051610d3b9190611d14565b60405180910390a2505050565b610d5182610877565b610d5a8161162c565b610d648383611721565b505050565b6000600160008473ffffffffffffffffffffffffffffffffffffffff1673ffffffffffffffffffffffffffffffffffffffff16815260200190815260200160002060008373ffffffffffffffffffffffffffffffffffffffff1673ffffffffffffffffffffffffffffffffffffffff16815260200190815260200160002054905092915050565b600754610dfc8161162c565b816008819055505050565b6000600a60008373ffffffffffffffffffffffffffffffffffffffff1673ffffffffffffffffffffffffffffffffffffffff16815260200190815260200160002060009054906101000a900460ff169050919050565b7f65d7a28e3265b37a6474929f336521b332c1681b933f6cb9f3376673440d862a81565b505050565b6060610eac8273ffffffffffffffffffffffffffffffffffffffff16601460ff16610eb3565b9050919050565b606060006002836002610ec691906122a9565b610ed091906123b1565b67ffffffffffffffff811115610ee957610ee8612477565b5b6040519080825280601f01601f191660200182016040528015610f1b5781602001600182028036833780820191505090505b5090507f300000000000000000000000000000000000000000000000000000000000000081600081518110610f5357610f526124a6565b5b60200101907effffffffffffffffffffffffffffffffffffffffffffffffffffffffffffff1916908160001a9053507f780000000000000000000000000000000000000000000000000000000000000081600181518110610fb757610fb66124a6565b5b60200101907effffffffffffffffffffffffffffffffffffffffffffffffffffffffffffff1916908160001a90535060006001846002610ff791906122a9565b61100191906123b1565b90505b60018111156110a1577f3031323334353637383961626364656600000000000000000000000000000000600f861660108110611043576110426124a6565b5b1a60f81b82828151811061105a576110596124a6565b5b60200101907effffffffffffffffffffffffffffffffffffffffffffffffffffffffffffff1916908160001a905350600485901c94508061109a906124d5565b9050611004565b50600084146110e5576040517f08c379a00000000000000000000000000000000000000000000000000000000081526004016110dc9061254a565b60405180910390fd5b8091505092915050565b60007f01ffc9a7000000000000000000000000000000000000000000000000000000007bffffffffffffffffffffffffffffffffffffffffffffffffffffffff1916827bffffffffffffffffffffffffffffffffffffffffffffffffffffffff1916149050919050565b600033905090565b600073ffffffffffffffffffffffffffffffffffffffff168373ffffffffffffffffffffffffffffffffffffffff16036111d0576040517f08c379a00000000000000000000000000000000000000000000000000000000081526004016111c7906125dc565b60405180910390fd5b600073ffffffffffffffffffffffffffffffffffffffff168273ffffffffffffffffffffffffffffffffffffffff160361123f576040517f08c379a00000000000000000000000000000000000000000000000000000000081526004016112369061266e565b60405180910390fd5b80600160008573ffffffffffffffffffffffffffffffffffffffff1673ffffffffffffffffffffffffffffffffffffffff16815260200190815260200160002060008473ffffffffffffffffffffffffffffffffffffffff1673ffffffffffffffffffffffffffffffffffffffff168152602001908152602001600020819055508173ffffffffffffffffffffffffffffffffffffffff168373ffffffffffffffffffffffffffffffffffffffff167f8c5be1e5ebec7d5bd14f71427d1e84f3dd0314c0f7b2291e5b200ac8c7c3b9258360405161131d9190611ec4565b60405180910390a3505050565b60006113368484610d69565b90507fffffffffffffffffffffffffffffffffffffffffffffffffffffffffffffffff81146113b057818110156113a2576040517f08c379a0000000000000000000000000000000000000000000000000000000008152600401611399906126da565b60405180910390fd5b6113af8484848403611161565b5b50505050565b600073ffffffffffffffffffffffffffffffffffffffff168373ffffffffffffffffffffffffffffffffffffffff1603611425576040517f08c379a000000000000000000000000000000000000000000000000000000000815260040161141c9061276c565b60405180910390fd5b600073ffffffffffffffffffffffffffffffffffffffff168273ffffffffffffffffffffffffffffffffffffffff1603611494576040517f08c379a000000000000000000000000000000000000000000000000000000000815260040161148b906127fe565b60405180910390fd5b61149f838383611a96565b60008060008573ffffffffffffffffffffffffffffffffffffffff1673ffffffffffffffffffffffffffffffffffffffff16815260200190815260200160002054905081811015611525576040517f08c379a000000000000000000000000000000000000000000000000000000000815260040161151c90612890565b60405180910390fd5b8181036000808673ffffffffffffffffffffffffffffffffffffffff1673ffffffffffffffffffffffffffffffffffffffff16815260200190815260200160002081905550816000808573ffffffffffffffffffffffffffffffffffffffff1673ffffffffffffffffffffffffffffffffffffffff168152602001908152602001600020600082825401925050819055508273ffffffffffffffffffffffffffffffffffffffff168473ffffffffffffffffffffffffffffffffffffffff167fddf252ad1be2c89b69c2b068fc378daa952ba7f163c4a11628f55a4df523b3ef846040516116139190611ec4565b60405180910390a3611626848484611b52565b50505050565b61163d81611638611159565b611b57565b50565b61164a8282610abf565b61171d5760016006600084815260200190815260200160002060000160008373ffffffffffffffffffffffffffffffffffffffff1673ffffffffffffffffffffffffffffffffffffffff16815260200190815260200160002060006101000a81548160ff0219169083151502179055506116c2611159565b73ffffffffffffffffffffffffffffffffffffffff168173ffffffffffffffffffffffffffffffffffffffff16837f2f8788117e7eff1d82e926ec794901d17c78024a50270940304540a733656f0d60405160405180910390a45b5050565b61172b8282610abf565b156117ff5760006006600084815260200190815260200160002060000160008373ffffffffffffffffffffffffffffffffffffffff1673ffffffffffffffffffffffffffffffffffffffff16815260200190815260200160002060006101000a81548160ff0219169083151502179055506117a4611159565b73ffffffffffffffffffffffffffffffffffffffff168173ffffffffffffffffffffffffffffffffffffffff16837ff6391f5c32d9c69d2a47ea670b442974b53935d1edc7fd64eb21e047a839171b60405160405180910390a45b5050565b61180b611bdc565b6000600560006101000a81548160ff0219169083151502179055507f5db9ee0a495bf2e6ff9c91a7834c1ba4fdd244a5e8aa4e537bd38aeae4b073aa61184f611159565b60405161185c91906128bf565b60405180910390a1565b600073ffffffffffffffffffffffffffffffffffffffff168273ffffffffffffffffffffffffffffffffffffffff16036118d5576040517f08c379a00000000000000000000000000000000000000000000000000000000081526004016118cc9061294c565b60405180910390fd5b6118e182600083611a96565b60008060008473ffffffffffffffffffffffffffffffffffffffff1673ffffffffffffffffffffffffffffffffffffffff16815260200190815260200160002054905081811015611967576040517f08c379a000000000000000000000000000000000000000000000000000000000815260040161195e906129de565b60405180910390fd5b8181036000808573ffffffffffffffffffffffffffffffffffffffff1673ffffffffffffffffffffffffffffffffffffffff1681526020019081526020016000208190555081600260008282540392505081905550600073ffffffffffffffffffffffffffffffffffffffff168373ffffffffffffffffffffffffffffffffffffffff167fddf252ad1be2c89b69c2b068fc378daa952ba7f163c4a11628f55a4df523b3ef84604051611a1a9190611ec4565b60405180910390a3611a2e83600084611b52565b505050565b611a3b611c25565b6001600560006101000a81548160ff0219169083151502179055507f62e78cea01bee320cd4e420270b5ea74000d11b0c9f74754ebdbfc544b05a258611a7f611159565b604051611a8c91906128bf565b60405180910390a1565b611aa36000801b33610abf565b611ab057611aaf611c25565b5b611ab982610e07565b15611af9576040517f08c379a0000000000000000000000000000000000000000000000000000000008152600401611af090612a70565b60405180910390fd5b611b0283610e07565b15611b42576040517f08c379a0000000000000000000000000000000000000000000000000000000008152600401611b3990612b02565b60405180910390fd5b611b4d838383610e81565b505050565b505050565b611b618282610abf565b611bd857611b6e81610e86565b611b7c8360001c6020610eb3565b604051602001611b8d929190612bf6565b6040516020818303038152906040526040517f08c379a0000000000000000000000000000000000000000000000000000000008152600401611bcf9190611dbf565b60405180910390fd5b5050565b611be46109ff565b611c23576040517f08c379a0000000000000000000000000000000000000000000000000000000008152600401611c1a90612c7c565b60405180910390fd5b565b611c2d6109ff565b15611c6d576040517f08c379a0000000000000000000000000000000000000000000000000000000008152600401611c6490612ce8565b60405180910390fd5b565b600080fd5b60007fffffffff0000000000000000000000000000000000000000000000000000000082169050919050565b611ca981611c74565b8114611cb457600080fd5b50565b600081359050611cc681611ca0565b92915050565b600060208284031215611ce257611ce1611c6f565b5b6000611cf084828501611cb7565b91505092915050565b60008115159050919050565b611d0e81611cf9565b82525050565b6000602082019050611d296000830184611d05565b92915050565b600081519050919050565b600082825260208201905092915050565b60005b83811015611d69578082015181840152602081019050611d4e565b60008484015250505050565b6000601f19601f8301169050919050565b6000611d9182611d2f565b611d9b8185611d3a565b9350611dab818560208601611d4b565b611db481611d75565b840191505092915050565b60006020820190508181036000830152611dd98184611d86565b905092915050565b600073ffffffffffffffffffffffffffffffffffffffff82169050919050565b6000611e0c82611de1565b9050919050565b611e1c81611e01565b8114611e2757600080fd5b50565b600081359050611e3981611e13565b92915050565b6000819050919050565b611e5281611e3f565b8114611e5d57600080fd5b50565b600081359050611e6f81611e49565b92915050565b60008060408385031215611e8c57611e8b611c6f565b5b6000611e9a85828601611e2a565b9250506020611eab85828601611e60565b9150509250929050565b611ebe81611e3f565b82525050565b6000602082019050611ed96000830184611eb5565b92915050565b6000611eea82611de1565b9050919050565b611efa81611edf565b8114611f0557600080fd5b50565b600081359050611f1781611ef1565b92915050565b60008060408385031215611f3457611f33611c6f565b5b6000611f4285828601611f08565b9250506020611f5385828601611e60565b9150509250929050565b600080600060608486031215611f7657611f75611c6f565b5b6000611f8486828701611e2a565b9350506020611f9586828701611e2a565b9250506040611fa686828701611e60565b9150509250925092565b6000819050919050565b611fc381611fb0565b8114611fce57600080fd5b50565b600081359050611fe081611fba565b92915050565b600060208284031215611ffc57611ffb611c6f565b5b600061200a84828501611fd1565b91505092915050565b61201c81611fb0565b82525050565b60006020820190506120376000830184612013565b92915050565b6000806040838503121561205457612053611c6f565b5b600061206285828601611fd1565b925050602061207385828601611e2a565b9150509250929050565b600060ff82169050919050565b6120938161207d565b82525050565b60006020820190506120ae600083018461208a565b92915050565b6000602082840312156120ca576120c9611c6f565b5b60006120d884828501611e60565b91505092915050565b6000602082840312156120f7576120f6611c6f565b5b600061210584828501611e2a565b91505092915050565b61211781611cf9565b811461212257600080fd5b50565b6000813590506121348161210e565b92915050565b6000806040838503121561215157612150611c6f565b5b600061215f85828601611e2a565b925050602061217085828601612125565b9150509250929050565b6000806040838503121561219157612190611c6f565b5b600061219f85828601611e2a565b92505060206121b085828601611e2a565b9150509250929050565b7f4e487b7100000000000000000000000000000000000000000000000000000000600052602260045260246000fd5b6000600282049050600182168061220157607f821691505b602082108103612214576122136121ba565b5b50919050565b7f4e487b7100000000000000000000000000000000000000000000000000000000600052601260045260246000fd5b7f4e487b7100000000000000000000000000000000000000000000000000000000600052601160045260246000fd5b600061228382611e3f565b915061228e83611e3f565b92508261229e5761229d61221a565b5b828204905092915050565b60006122b482611e3f565b91506122bf83611e3f565b92508282026122cd81611e3f565b915082820484148315176122e4576122e3612249565b5b5092915050565b60006122f682611e3f565b915061230183611e3f565b925082820390508181111561231957612318612249565b5b92915050565b7f416363657373436f6e74726f6c3a2063616e206f6e6c792072656e6f756e636560008201527f20726f6c657320666f722073656c660000000000000000000000000000000000602082015250565b600061237b602f83611d3a565b91506123868261231f565b604082019050919050565b600060208201905081810360008301526123aa8161236e565b9050919050565b60006123bc82611e3f565b91506123c783611e3f565b92508282019050808211156123df576123de612249565b5b92915050565b7f45524332303a2064656372656173656420616c6c6f77616e63652062656c6f7760008201527f207a65726f000000000000000000000000000000000000000000000000000000602082015250565b6000612441602583611d3a565b915061244c826123e5565b604082019050919050565b6000602082019050818103600083015261247081612434565b9050919050565b7f4e487b7100000000000000000000000000000000000000000000000000000000600052604160045260246000fd5b7f4e487b7100000000000000000000000000000000000000000000000000000000600052603260045260246000fd5b60006124e082611e3f565b9150600082036124f3576124f2612249565b5b600182039050919050565b7f537472696e67733a20686578206c656e67746820696e73756666696369656e74600082015250565b6000612534602083611d3a565b915061253f826124fe565b602082019050919050565b6000602082019050818103600083015261256381612527565b9050919050565b7f45524332303a20617070726f76652066726f6d20746865207a65726f2061646460008201527f7265737300000000000000000000000000000000000000000000000000000000602082015250565b60006125c6602483611d3a565b91506125d18261256a565b604082019050919050565b600060208201905081810360008301526125f5816125b9565b9050919050565b7f45524332303a20617070726f766520746f20746865207a65726f20616464726560008201527f7373000000000000000000000000000000000000000000000000000000000000602082015250565b6000612658602283611d3a565b9150612663826125fc565b604082019050919050565b600060208201905081810360008301526126878161264b565b9050919050565b7f45524332303a20696e73756666696369656e7420616c6c6f77616e6365000000600082015250565b60006126c4601d83611d3a565b91506126cf8261268e565b602082019050919050565b600060208201905081810360008301526126f3816126b7565b9050919050565b7f45524332303a207472616e736665722066726f6d20746865207a65726f20616460008201527f6472657373000000000000000000000000000000000000000000000000000000602082015250565b6000612756602583611d3a565b9150612761826126fa565b604082019050919050565b6000602082019050818103600083015261278581612749565b9050919050565b7f45524332303a207472616e7366657220746f20746865207a65726f206164647260008201527f6573730000000000000000000000000000000000000000000000000000000000602082015250565b60006127e8602383611d3a565b91506127f38261278c565b604082019050919050565b60006020820190508181036000830152612817816127db565b9050919050565b7f45524332303a207472616e7366657220616d6f756e742065786365656473206260008201527f616c616e63650000000000000000000000000000000000000000000000000000602082015250565b600061287a602683611d3a565b91506128858261281e565b604082019050919050565b600060208201905081810360008301526128a98161286d565b9050919050565b6128b981611e01565b82525050565b60006020820190506128d460008301846128b0565b92915050565b7f45524332303a206275726e2066726f6d20746865207a65726f2061646472657360008201527f7300000000000000000000000000000000000000000000000000000000000000602082015250565b6000612936602183611d3a565b9150612941826128da565b604082019050919050565b6000602082019050818103600083015261296581612929565b9050919050565b7f45524332303a206275726e20616d6f756e7420657863656564732062616c616e60008201527f6365000000000000000000000000000000000000000000000000000000000000602082015250565b60006129c8602283611d3a565b91506129d38261296c565b604082019050919050565b600060208201905081810360008301526129f7816129bb565b9050919050565b7f546f6b656e207472616e7366657220726566757365642e20526563656976657260008201527f206973206f6e2074686520626c61636b6c697374000000000000000000000000602082015250565b6000612a5a603483611d3a565b9150612a65826129fe565b604082019050919050565b60006020820190508181036000830152612a8981612a4d565b9050919050565b7f546f6b656e207472616e7366657220726566757365642e20596f75206172652060008201527f6f6e2074686520626c61636b6c69737400000000000000000000000000000000602082015250565b6000612aec603083611d3a565b9150612af782612a90565b604082019050919050565b60006020820190508181036000830152612b1b81612adf565b9050919050565b600081905092915050565b7f416363657373436f6e74726f6c3a206163636f756e7420000000000000000000600082015250565b6000612b63601783612b22565b9150612b6e82612b2d565b601782019050919050565b6000612b8482611d2f565b612b8e8185612b22565b9350612b9e818560208601611d4b565b80840191505092915050565b7f206973206d697373696e6720726f6c6520000000000000000000000000000000600082015250565b6000612be0601183612b22565b9150612beb82612baa565b601182019050919050565b6000612c0182612b56565b9150612c0d8285612b79565b9150612c1882612bd3565b9150612c248284612b79565b91508190509392505050565b7f5061757361626c653a206e6f7420706175736564000000000000000000000000600082015250565b6000612c66601483611d3a565b9150612c7182612c30565b602082019050919050565b60006020820190508181036000830152612c9581612c59565b9050919050565b7f5061757361626c653a2070617573656400000000000000000000000000000000600082015250565b6000612cd2601083611d3a565b9150612cdd82612c9c565b602082019050919050565b60006020820190508181036000830152612d0181612cc5565b905091905056fea26469706673582212204a2bd726c0de8d0e0fb923c589cb58982d4c89e47bf85cb017826d7c918dc0f664736f6c63430008120033",
			"opcodes": "PUSH1 0x80 PUSH1 0x40 MSTORE PUSH32 0xA4DA2D239736F91E765513A3C7DDF5D5DA09F26BD51BEBF1800D8E7A9C4E26C8 PUSH1 0x7 SSTORE CALLVALUE DUP1 ISZERO PUSH3 0x35 JUMPI PUSH1 0x0 DUP1 REVERT JUMPDEST POP PUSH1 0x40 MLOAD DUP1 PUSH1 0x40 ADD PUSH1 0x40 MSTORE DUP1 PUSH1 0x7 DUP2 MSTORE PUSH1 0x20 ADD PUSH32 0x5269646544616F00000000000000000000000000000000000000000000000000 DUP2 MSTORE POP PUSH1 0x40 MLOAD DUP1 PUSH1 0x40 ADD PUSH1 0x40 MSTORE DUP1 PUSH1 0x4 DUP2 MSTORE PUSH1 0x20 ADD PUSH32 0x5249444F00000000000000000000000000000000000000000000000000000000 DUP2 MSTORE POP DUP2 PUSH1 0x3 SWAP1 DUP2 PUSH3 0xB3 SWAP2 SWAP1 PUSH3 0xD3B JUMP JUMPDEST POP DUP1 PUSH1 0x4 SWAP1 DUP2 PUSH3 0xC5 SWAP2 SWAP1 PUSH3 0xD3B JUMP JUMPDEST POP POP POP PUSH1 0x0 PUSH1 0x5 PUSH1 0x0 PUSH2 0x100 EXP DUP2 SLOAD DUP2 PUSH1 0xFF MUL NOT AND SWAP1 DUP4 ISZERO ISZERO MUL OR SWAP1 SSTORE POP PUSH3 0xF8 PUSH1 0x0 DUP1 SHL CALLER PUSH3 0x271 PUSH1 0x20 SHL PUSH1 0x20 SHR JUMP JUMPDEST PUSH3 0x12A PUSH32 0x65D7A28E3265B37A6474929F336521B332C1681B933F6CB9F3376673440D862A CALLER PUSH3 0x271 PUSH1 0x20 SHL PUSH1 0x20 SHR JUMP JUMPDEST PUSH3 0x13E PUSH1 0x7 SLOAD CALLER PUSH3 0x271 PUSH1 0x20 SHL PUSH1 0x20 SHR JUMP JUMPDEST PUSH3 0x17F CALLER PUSH3 0x153 PUSH3 0x363 PUSH1 0x20 SHL PUSH1 0x20 SHR JUMP JUMPDEST PUSH1 0xA PUSH3 0x161 SWAP2 SWAP1 PUSH3 0xFB2 JUMP JUMPDEST PUSH5 0x165A0BC00 PUSH3 0x173 SWAP2 SWAP1 PUSH3 0x1003 JUMP JUMPDEST PUSH3 0x36C PUSH1 0x20 SHL PUSH1 0x20 SHR JUMP JUMPDEST PUSH1 0x0 PUSH1 0x8 DUP2 SWAP1 SSTORE POP PUSH1 0x0 PUSH1 0x9 DUP2 SWAP1 SSTORE POP PUSH3 0x1D5 PUSH32 0x65D7A28E3265B37A6474929F336521B332C1681B933F6CB9F3376673440D862A PUSH20 0x13C2870C285B2F2F5831E53700B4E5E139E73596 PUSH3 0x4D9 PUSH1 0x20 SHL PUSH1 0x20 SHR JUMP JUMPDEST PUSH3 0x21B PUSH32 0x65D7A28E3265B37A6474929F336521B332C1681B933F6CB9F3376673440D862A PUSH20 0x668F723E961AAB7089CE61FB90989F7BAC49BB5B PUSH3 0x4D9 PUSH1 0x20 SHL PUSH1 0x20 SHR JUMP JUMPDEST PUSH3 0x243 PUSH1 0x7 SLOAD PUSH20 0x13C2870C285B2F2F5831E53700B4E5E139E73596 PUSH3 0x4D9 PUSH1 0x20 SHL PUSH1 0x20 SHR JUMP JUMPDEST PUSH3 0x26B PUSH1 0x7 SLOAD PUSH20 0x668F723E961AAB7089CE61FB90989F7BAC49BB5B PUSH3 0x4D9 PUSH1 0x20 SHL PUSH1 0x20 SHR JUMP JUMPDEST PUSH3 0x1571 JUMP JUMPDEST PUSH3 0x283 DUP3 DUP3 PUSH3 0x512 PUSH1 0x20 SHL PUSH1 0x20 SHR JUMP JUMPDEST PUSH3 0x35F JUMPI PUSH1 0x1 PUSH1 0x6 PUSH1 0x0 DUP5 DUP2 MSTORE PUSH1 0x20 ADD SWAP1 DUP2 MSTORE PUSH1 0x20 ADD PUSH1 0x0 KECCAK256 PUSH1 0x0 ADD PUSH1 0x0 DUP4 PUSH20 0xFFFFFFFFFFFFFFFFFFFFFFFFFFFFFFFFFFFFFFFF AND PUSH20 0xFFFFFFFFFFFFFFFFFFFFFFFFFFFFFFFFFFFFFFFF AND DUP2 MSTORE PUSH1 0x20 ADD SWAP1 DUP2 MSTORE PUSH1 0x20 ADD PUSH1 0x0 KECCAK256 PUSH1 0x0 PUSH2 0x100 EXP DUP2 SLOAD DUP2 PUSH1 0xFF MUL NOT AND SWAP1 DUP4 ISZERO ISZERO MUL OR SWAP1 SSTORE POP PUSH3 0x304 PUSH3 0x57D PUSH1 0x20 SHL PUSH1 0x20 SHR JUMP JUMPDEST PUSH20 0xFFFFFFFFFFFFFFFFFFFFFFFFFFFFFFFFFFFFFFFF AND DUP2 PUSH20 0xFFFFFFFFFFFFFFFFFFFFFFFFFFFFFFFFFFFFFFFF AND DUP4 PUSH32 0x2F8788117E7EFF1D82E926EC794901D17C78024A50270940304540A733656F0D PUSH1 0x40 MLOAD PUSH1 0x40 MLOAD DUP1 SWAP2 SUB SWAP1 LOG4 JUMPDEST POP POP JUMP JUMPDEST PUSH1 0x0 PUSH1 0x12 SWAP1 POP SWAP1 JUMP JUMPDEST PUSH1 0x0 PUSH20 0xFFFFFFFFFFFFFFFFFFFFFFFFFFFFFFFFFFFFFFFF AND DUP3 PUSH20 0xFFFFFFFFFFFFFFFFFFFFFFFFFFFFFFFFFFFFFFFF AND SUB PUSH3 0x3DE JUMPI PUSH1 0x40 MLOAD PUSH32 0x8C379A000000000000000000000000000000000000000000000000000000000 DUP2 MSTORE PUSH1 0x4 ADD PUSH3 0x3D5 SWAP1 PUSH3 0x10AF JUMP JUMPDEST PUSH1 0x40 MLOAD DUP1 SWAP2 SUB SWAP1 REVERT JUMPDEST PUSH3 0x3F2 PUSH1 0x0 DUP4 DUP4 PUSH3 0x585 PUSH1 0x20 SHL PUSH1 0x20 SHR JUMP JUMPDEST DUP1 PUSH1 0x2 PUSH1 0x0 DUP3 DUP3 SLOAD PUSH3 0x406 SWAP2 SWAP1 PUSH3 0x10D1 JUMP JUMPDEST SWAP3 POP POP DUP2 SWAP1 SSTORE POP DUP1 PUSH1 0x0 DUP1 DUP5 PUSH20 0xFFFFFFFFFFFFFFFFFFFFFFFFFFFFFFFFFFFFFFFF AND PUSH20 0xFFFFFFFFFFFFFFFFFFFFFFFFFFFFFFFFFFFFFFFF AND DUP2 MSTORE PUSH1 0x20 ADD SWAP1 DUP2 MSTORE PUSH1 0x20 ADD PUSH1 0x0 KECCAK256 PUSH1 0x0 DUP3 DUP3 SLOAD ADD SWAP3 POP POP DUP2 SWAP1 SSTORE POP DUP2 PUSH20 0xFFFFFFFFFFFFFFFFFFFFFFFFFFFFFFFFFFFFFFFF AND PUSH1 0x0 PUSH20 0xFFFFFFFFFFFFFFFFFFFFFFFFFFFFFFFFFFFFFFFF AND PUSH32 0xDDF252AD1BE2C89B69C2B068FC378DAA952BA7F163C4A11628F55A4DF523B3EF DUP4 PUSH1 0x40 MLOAD PUSH3 0x4B9 SWAP2 SWAP1 PUSH3 0x111D JUMP JUMPDEST PUSH1 0x40 MLOAD DUP1 SWAP2 SUB SWAP1 LOG3 PUSH3 0x4D5 PUSH1 0x0 DUP4 DUP4 PUSH3 0x675 PUSH1 0x20 SHL PUSH1 0x20 SHR JUMP JUMPDEST POP POP JUMP JUMPDEST PUSH3 0x4EA DUP3 PUSH3 0x67A PUSH1 0x20 SHL PUSH1 0x20 SHR JUMP JUMPDEST PUSH3 0x4FB DUP2 PUSH3 0x69A PUSH1 0x20 SHL PUSH1 0x20 SHR JUMP JUMPDEST PUSH3 0x50D DUP4 DUP4 PUSH3 0x271 PUSH1 0x20 SHL PUSH1 0x20 SHR JUMP JUMPDEST POP POP POP JUMP JUMPDEST PUSH1 0x0 PUSH1 0x6 PUSH1 0x0 DUP5 DUP2 MSTORE PUSH1 0x20 ADD SWAP1 DUP2 MSTORE PUSH1 0x20 ADD PUSH1 0x0 KECCAK256 PUSH1 0x0 ADD PUSH1 0x0 DUP4 PUSH20 0xFFFFFFFFFFFFFFFFFFFFFFFFFFFFFFFFFFFFFFFF AND PUSH20 0xFFFFFFFFFFFFFFFFFFFFFFFFFFFFFFFFFFFFFFFF AND DUP2 MSTORE PUSH1 0x20 ADD SWAP1 DUP2 MSTORE PUSH1 0x20 ADD PUSH1 0x0 KECCAK256 PUSH1 0x0 SWAP1 SLOAD SWAP1 PUSH2 0x100 EXP SWAP1 DIV PUSH1 0xFF AND SWAP1 POP SWAP3 SWAP2 POP POP JUMP JUMPDEST PUSH1 0x0 CALLER SWAP1 POP SWAP1 JUMP JUMPDEST PUSH3 0x59A PUSH1 0x0 DUP1 SHL CALLER PUSH3 0x512 PUSH1 0x20 SHL PUSH1 0x20 SHR JUMP JUMPDEST PUSH3 0x5B0 JUMPI PUSH3 0x5AF PUSH3 0x6BE PUSH1 0x20 SHL PUSH1 0x20 SHR JUMP JUMPDEST JUMPDEST PUSH3 0x5C1 DUP3 PUSH3 0x713 PUSH1 0x20 SHL PUSH1 0x20 SHR JUMP JUMPDEST ISZERO PUSH3 0x604 JUMPI PUSH1 0x40 MLOAD PUSH32 0x8C379A000000000000000000000000000000000000000000000000000000000 DUP2 MSTORE PUSH1 0x4 ADD PUSH3 0x5FB SWAP1 PUSH3 0x11B0 JUMP JUMPDEST PUSH1 0x40 MLOAD DUP1 SWAP2 SUB SWAP1 REVERT JUMPDEST PUSH3 0x615 DUP4 PUSH3 0x713 PUSH1 0x20 SHL PUSH1 0x20 SHR JUMP JUMPDEST ISZERO PUSH3 0x658 JUMPI PUSH1 0x40 MLOAD PUSH32 0x8C379A000000000000000000000000000000000000000000000000000000000 DUP2 MSTORE PUSH1 0x4 ADD PUSH3 0x64F SWAP1 PUSH3 0x1248 JUMP JUMPDEST PUSH1 0x40 MLOAD DUP1 SWAP2 SUB SWAP1 REVERT JUMPDEST PUSH3 0x670 DUP4 DUP4 DUP4 PUSH3 0x769 PUSH1 0x20 SHL PUSH3 0xE81 OR PUSH1 0x20 SHR JUMP JUMPDEST POP POP POP JUMP JUMPDEST POP POP POP JUMP JUMPDEST PUSH1 0x0 PUSH1 0x6 PUSH1 0x0 DUP4 DUP2 MSTORE PUSH1 0x20 ADD SWAP1 DUP2 MSTORE PUSH1 0x20 ADD PUSH1 0x0 KECCAK256 PUSH1 0x1 ADD SLOAD SWAP1 POP SWAP2 SWAP1 POP JUMP JUMPDEST PUSH3 0x6BB DUP2 PUSH3 0x6AF PUSH3 0x57D PUSH1 0x20 SHL PUSH1 0x20 SHR JUMP JUMPDEST PUSH3 0x76E PUSH1 0x20 SHL PUSH1 0x20 SHR JUMP JUMPDEST POP JUMP JUMPDEST PUSH3 0x6CE PUSH3 0x81A PUSH1 0x20 SHL PUSH1 0x20 SHR JUMP JUMPDEST ISZERO PUSH3 0x711 JUMPI PUSH1 0x40 MLOAD PUSH32 0x8C379A000000000000000000000000000000000000000000000000000000000 DUP2 MSTORE PUSH1 0x4 ADD PUSH3 0x708 SWAP1 PUSH3 0x12BA JUMP JUMPDEST PUSH1 0x40 MLOAD DUP1 SWAP2 SUB SWAP1 REVERT JUMPDEST JUMP JUMPDEST PUSH1 0x0 PUSH1 0xA PUSH1 0x0 DUP4 PUSH20 0xFFFFFFFFFFFFFFFFFFFFFFFFFFFFFFFFFFFFFFFF AND PUSH20 0xFFFFFFFFFFFFFFFFFFFFFFFFFFFFFFFFFFFFFFFF AND DUP2 MSTORE PUSH1 0x20 ADD SWAP1 DUP2 MSTORE PUSH1 0x20 ADD PUSH1 0x0 KECCAK256 PUSH1 0x0 SWAP1 SLOAD SWAP1 PUSH2 0x100 EXP SWAP1 DIV PUSH1 0xFF AND SWAP1 POP SWAP2 SWAP1 POP JUMP JUMPDEST POP POP POP JUMP JUMPDEST PUSH3 0x780 DUP3 DUP3 PUSH3 0x512 PUSH1 0x20 SHL PUSH1 0x20 SHR JUMP JUMPDEST PUSH3 0x816 JUMPI PUSH3 0x79B DUP2 PUSH3 0x831 PUSH1 0x20 SHL PUSH3 0xE86 OR PUSH1 0x20 SHR JUMP JUMPDEST PUSH3 0x7B6 DUP4 PUSH1 0x0 SHR PUSH1 0x20 PUSH3 0x866 PUSH1 0x20 SHL PUSH3 0xEB3 OR PUSH1 0x20 SHR JUMP JUMPDEST PUSH1 0x40 MLOAD PUSH1 0x20 ADD PUSH3 0x7C9 SWAP3 SWAP2 SWAP1 PUSH3 0x13EA JUMP JUMPDEST PUSH1 0x40 MLOAD PUSH1 0x20 DUP2 DUP4 SUB SUB DUP2 MSTORE SWAP1 PUSH1 0x40 MSTORE PUSH1 0x40 MLOAD PUSH32 0x8C379A000000000000000000000000000000000000000000000000000000000 DUP2 MSTORE PUSH1 0x4 ADD PUSH3 0x80D SWAP2 SWAP1 PUSH3 0x147E JUMP JUMPDEST PUSH1 0x40 MLOAD DUP1 SWAP2 SUB SWAP1 REVERT JUMPDEST POP POP JUMP JUMPDEST PUSH1 0x0 PUSH1 0x5 PUSH1 0x0 SWAP1 SLOAD SWAP1 PUSH2 0x100 EXP SWAP1 DIV PUSH1 0xFF AND SWAP1 POP SWAP1 JUMP JUMPDEST PUSH1 0x60 PUSH3 0x85F DUP3 PUSH20 0xFFFFFFFFFFFFFFFFFFFFFFFFFFFFFFFFFFFFFFFF AND PUSH1 0x14 PUSH1 0xFF AND PUSH3 0x866 PUSH1 0x20 SHL PUSH1 0x20 SHR JUMP JUMPDEST SWAP1 POP SWAP2 SWAP1 POP JUMP JUMPDEST PUSH1 0x60 PUSH1 0x0 PUSH1 0x2 DUP4 PUSH1 0x2 PUSH3 0x87B SWAP2 SWAP1 PUSH3 0x1003 JUMP JUMPDEST PUSH3 0x887 SWAP2 SWAP1 PUSH3 0x10D1 JUMP JUMPDEST PUSH8 0xFFFFFFFFFFFFFFFF DUP2 GT ISZERO PUSH3 0x8A3 JUMPI PUSH3 0x8A2 PUSH3 0xACC JUMP JUMPDEST JUMPDEST PUSH1 0x40 MLOAD SWAP1 DUP1 DUP3 MSTORE DUP1 PUSH1 0x1F ADD PUSH1 0x1F NOT AND PUSH1 0x20 ADD DUP3 ADD PUSH1 0x40 MSTORE DUP1 ISZERO PUSH3 0x8D6 JUMPI DUP2 PUSH1 0x20 ADD PUSH1 0x1 DUP3 MUL DUP1 CALLDATASIZE DUP4 CALLDATACOPY DUP1 DUP3 ADD SWAP2 POP POP SWAP1 POP JUMPDEST POP SWAP1 POP PUSH32 0x3000000000000000000000000000000000000000000000000000000000000000 DUP2 PUSH1 0x0 DUP2 MLOAD DUP2 LT PUSH3 0x911 JUMPI PUSH3 0x910 PUSH3 0x14A2 JUMP JUMPDEST JUMPDEST PUSH1 0x20 ADD ADD SWAP1 PUSH31 0xFFFFFFFFFFFFFFFFFFFFFFFFFFFFFFFFFFFFFFFFFFFFFFFFFFFFFFFFFFFFFF NOT AND SWAP1 DUP2 PUSH1 0x0 BYTE SWAP1 MSTORE8 POP PUSH32 0x7800000000000000000000000000000000000000000000000000000000000000 DUP2 PUSH1 0x1 DUP2 MLOAD DUP2 LT PUSH3 0x978 JUMPI PUSH3 0x977 PUSH3 0x14A2 JUMP JUMPDEST JUMPDEST PUSH1 0x20 ADD ADD SWAP1 PUSH31 0xFFFFFFFFFFFFFFFFFFFFFFFFFFFFFFFFFFFFFFFFFFFFFFFFFFFFFFFFFFFFFF NOT AND SWAP1 DUP2 PUSH1 0x0 BYTE SWAP1 MSTORE8 POP PUSH1 0x0 PUSH1 0x1 DUP5 PUSH1 0x2 PUSH3 0x9BA SWAP2 SWAP1 PUSH3 0x1003 JUMP JUMPDEST PUSH3 0x9C6 SWAP2 SWAP1 PUSH3 0x10D1 JUMP JUMPDEST SWAP1 POP JUMPDEST PUSH1 0x1 DUP2 GT ISZERO PUSH3 0xA70 JUMPI PUSH32 0x3031323334353637383961626364656600000000000000000000000000000000 PUSH1 0xF DUP7 AND PUSH1 0x10 DUP2 LT PUSH3 0xA0C JUMPI PUSH3 0xA0B PUSH3 0x14A2 JUMP JUMPDEST JUMPDEST BYTE PUSH1 0xF8 SHL DUP3 DUP3 DUP2 MLOAD DUP2 LT PUSH3 0xA26 JUMPI PUSH3 0xA25 PUSH3 0x14A2 JUMP JUMPDEST JUMPDEST PUSH1 0x20 ADD ADD SWAP1 PUSH31 0xFFFFFFFFFFFFFFFFFFFFFFFFFFFFFFFFFFFFFFFFFFFFFFFFFFFFFFFFFFFFFF NOT AND SWAP1 DUP2 PUSH1 0x0 BYTE SWAP1 MSTORE8 POP PUSH1 0x4 DUP6 SWAP1 SHR SWAP5 POP DUP1 PUSH3 0xA68 SWAP1 PUSH3 0x14D1 JUMP JUMPDEST SWAP1 POP PUSH3 0x9C9 JUMP JUMPDEST POP PUSH1 0x0 DUP5 EQ PUSH3 0xAB7 JUMPI PUSH1 0x40 MLOAD PUSH32 0x8C379A000000000000000000000000000000000000000000000000000000000 DUP2 MSTORE PUSH1 0x4 ADD PUSH3 0xAAE SWAP1 PUSH3 0x154F JUMP JUMPDEST PUSH1 0x40 MLOAD DUP1 SWAP2 SUB SWAP1 REVERT JUMPDEST DUP1 SWAP2 POP POP SWAP3 SWAP2 POP POP JUMP JUMPDEST PUSH1 0x0 DUP2 MLOAD SWAP1 POP SWAP2 SWAP1 POP JUMP JUMPDEST PUSH32 0x4E487B7100000000000000000000000000000000000000000000000000000000 PUSH1 0x0 MSTORE PUSH1 0x41 PUSH1 0x4 MSTORE PUSH1 0x24 PUSH1 0x0 REVERT JUMPDEST PUSH32 0x4E487B7100000000000000000000000000000000000000000000000000000000 PUSH1 0x0 MSTORE PUSH1 0x22 PUSH1 0x4 MSTORE PUSH1 0x24 PUSH1 0x0 REVERT JUMPDEST PUSH1 0x0 PUSH1 0x2 DUP3 DIV SWAP1 POP PUSH1 0x1 DUP3 AND DUP1 PUSH3 0xB43 JUMPI PUSH1 0x7F DUP3 AND SWAP2 POP JUMPDEST PUSH1 0x20 DUP3 LT DUP2 SUB PUSH3 0xB59 JUMPI PUSH3 0xB58 PUSH3 0xAFB JUMP JUMPDEST JUMPDEST POP SWAP2 SWAP1 POP JUMP JUMPDEST PUSH1 0x0 DUP2 SWAP1 POP DUP2 PUSH1 0x0 MSTORE PUSH1 0x20 PUSH1 0x0 KECCAK256 SWAP1 POP SWAP2 SWAP1 POP JUMP JUMPDEST PUSH1 0x0 PUSH1 0x20 PUSH1 0x1F DUP4 ADD DIV SWAP1 POP SWAP2 SWAP1 POP JUMP JUMPDEST PUSH1 0x0 DUP3 DUP3 SHL SWAP1 POP SWAP3 SWAP2 POP POP JUMP JUMPDEST PUSH1 0x0 PUSH1 0x8 DUP4 MUL PUSH3 0xBC3 PUSH32 0xFFFFFFFFFFFFFFFFFFFFFFFFFFFFFFFFFFFFFFFFFFFFFFFFFFFFFFFFFFFFFFFF DUP3 PUSH3 0xB84 JUMP JUMPDEST PUSH3 0xBCF DUP7 DUP4 PUSH3 0xB84 JUMP JUMPDEST SWAP6 POP DUP1 NOT DUP5 AND SWAP4 POP DUP1 DUP7 AND DUP5 OR SWAP3 POP POP POP SWAP4 SWAP3 POP POP POP JUMP JUMPDEST PUSH1 0x0 DUP2 SWAP1 POP SWAP2 SWAP1 POP JUMP JUMPDEST PUSH1 0x0 DUP2 SWAP1 POP SWAP2 SWAP1 POP JUMP JUMPDEST PUSH1 0x0 PUSH3 0xC1C PUSH3 0xC16 PUSH3 0xC10 DUP5 PUSH3 0xBE7 JUMP JUMPDEST PUSH3 0xBF1 JUMP JUMPDEST PUSH3 0xBE7 JUMP JUMPDEST SWAP1 POP SWAP2 SWAP1 POP JUMP JUMPDEST PUSH1 0x0 DUP2 SWAP1 POP SWAP2 SWAP1 POP JUMP JUMPDEST PUSH3 0xC38 DUP4 PUSH3 0xBFB JUMP JUMPDEST PUSH3 0xC50 PUSH3 0xC47 DUP3 PUSH3 0xC23 JUMP JUMPDEST DUP5 DUP5 SLOAD PUSH3 0xB91 JUMP JUMPDEST DUP3 SSTORE POP POP POP POP JUMP JUMPDEST PUSH1 0x0 SWAP1 JUMP JUMPDEST PUSH3 0xC67 PUSH3 0xC58 JUMP JUMPDEST PUSH3 0xC74 DUP2 DUP5 DUP5 PUSH3 0xC2D JUMP JUMPDEST POP POP POP JUMP JUMPDEST JUMPDEST DUP2 DUP2 LT ISZERO PUSH3 0xC9C JUMPI PUSH3 0xC90 PUSH1 0x0 DUP3 PUSH3 0xC5D JUMP JUMPDEST PUSH1 0x1 DUP2 ADD SWAP1 POP PUSH3 0xC7A JUMP JUMPDEST POP POP JUMP JUMPDEST PUSH1 0x1F DUP3 GT ISZERO PUSH3 0xCEB JUMPI PUSH3 0xCB5 DUP2 PUSH3 0xB5F JUMP JUMPDEST PUSH3 0xCC0 DUP5 PUSH3 0xB74 JUMP JUMPDEST DUP2 ADD PUSH1 0x20 DUP6 LT ISZERO PUSH3 0xCD0 JUMPI DUP2 SWAP1 POP JUMPDEST PUSH3 0xCE8 PUSH3 0xCDF DUP6 PUSH3 0xB74 JUMP JUMPDEST DUP4 ADD DUP3 PUSH3 0xC79 JUMP JUMPDEST POP POP JUMPDEST POP POP POP JUMP JUMPDEST PUSH1 0x0 DUP3 DUP3 SHR SWAP1 POP SWAP3 SWAP2 POP POP JUMP JUMPDEST PUSH1 0x0 PUSH3 0xD10 PUSH1 0x0 NOT DUP5 PUSH1 0x8 MUL PUSH3 0xCF0 JUMP JUMPDEST NOT DUP1 DUP4 AND SWAP2 POP POP SWAP3 SWAP2 POP POP JUMP JUMPDEST PUSH1 0x0 PUSH3 0xD2B DUP4 DUP4 PUSH3 0xCFD JUMP JUMPDEST SWAP2 POP DUP3 PUSH1 0x2 MUL DUP3 OR SWAP1 POP SWAP3 SWAP2 POP POP JUMP JUMPDEST PUSH3 0xD46 DUP3 PUSH3 0xAC1 JUMP JUMPDEST PUSH8 0xFFFFFFFFFFFFFFFF DUP2 GT ISZERO PUSH3 0xD62 JUMPI PUSH3 0xD61 PUSH3 0xACC JUMP JUMPDEST JUMPDEST PUSH3 0xD6E DUP3 SLOAD PUSH3 0xB2A JUMP JUMPDEST PUSH3 0xD7B DUP3 DUP3 DUP6 PUSH3 0xCA0 JUMP JUMPDEST PUSH1 0x0 PUSH1 0x20 SWAP1 POP PUSH1 0x1F DUP4 GT PUSH1 0x1 DUP2 EQ PUSH3 0xDB3 JUMPI PUSH1 0x0 DUP5 ISZERO PUSH3 0xD9E JUMPI DUP3 DUP8 ADD MLOAD SWAP1 POP JUMPDEST PUSH3 0xDAA DUP6 DUP3 PUSH3 0xD1D JUMP JUMPDEST DUP7 SSTORE POP PUSH3 0xE1A JUMP JUMPDEST PUSH1 0x1F NOT DUP5 AND PUSH3 0xDC3 DUP7 PUSH3 0xB5F JUMP JUMPDEST PUSH1 0x0 JUMPDEST DUP3 DUP2 LT ISZERO PUSH3 0xDED JUMPI DUP5 DUP10 ADD MLOAD DUP3 SSTORE PUSH1 0x1 DUP3 ADD SWAP2 POP PUSH1 0x20 DUP6 ADD SWAP5 POP PUSH1 0x20 DUP2 ADD SWAP1 POP PUSH3 0xDC6 JUMP JUMPDEST DUP7 DUP4 LT ISZERO PUSH3 0xE0D JUMPI DUP5 DUP10 ADD MLOAD PUSH3 0xE09 PUSH1 0x1F DUP10 AND DUP3 PUSH3 0xCFD JUMP JUMPDEST DUP4 SSTORE POP JUMPDEST PUSH1 0x1 PUSH1 0x2 DUP9 MUL ADD DUP9 SSTORE POP POP POP JUMPDEST POP POP POP POP POP POP JUMP JUMPDEST PUSH32 0x4E487B7100000000000000000000000000000000000000000000000000000000 PUSH1 0x0 MSTORE PUSH1 0x11 PUSH1 0x4 MSTORE PUSH1 0x24 PUSH1 0x0 REVERT JUMPDEST PUSH1 0x0 DUP2 PUSH1 0x1 SHR SWAP1 POP SWAP2 SWAP1 POP JUMP JUMPDEST PUSH1 0x0 DUP1 DUP3 SWAP2 POP DUP4 SWAP1 POP JUMPDEST PUSH1 0x1 DUP6 GT ISZERO PUSH3 0xEB0 JUMPI DUP1 DUP7 DIV DUP2 GT ISZERO PUSH3 0xE88 JUMPI PUSH3 0xE87 PUSH3 0xE22 JUMP JUMPDEST JUMPDEST PUSH1 0x1 DUP6 AND ISZERO PUSH3 0xE98 JUMPI DUP1 DUP3 MUL SWAP2 POP JUMPDEST DUP1 DUP2 MUL SWAP1 POP PUSH3 0xEA8 DUP6 PUSH3 0xE51 JUMP JUMPDEST SWAP5 POP PUSH3 0xE68 JUMP JUMPDEST SWAP5 POP SWAP5 SWAP3 POP POP POP JUMP JUMPDEST PUSH1 0x0 DUP3 PUSH3 0xECB JUMPI PUSH1 0x1 SWAP1 POP PUSH3 0xF9E JUMP JUMPDEST DUP2 PUSH3 0xEDB JUMPI PUSH1 0x0 SWAP1 POP PUSH3 0xF9E JUMP JUMPDEST DUP2 PUSH1 0x1 DUP2 EQ PUSH3 0xEF4 JUMPI PUSH1 0x2 DUP2 EQ PUSH3 0xEFF JUMPI PUSH3 0xF35 JUMP JUMPDEST PUSH1 0x1 SWAP2 POP POP PUSH3 0xF9E JUMP JUMPDEST PUSH1 0xFF DUP5 GT ISZERO PUSH3 0xF14 JUMPI PUSH3 0xF13 PUSH3 0xE22 JUMP JUMPDEST JUMPDEST DUP4 PUSH1 0x2 EXP SWAP2 POP DUP5 DUP3 GT ISZERO PUSH3 0xF2E JUMPI PUSH3 0xF2D PUSH3 0xE22 JUMP JUMPDEST JUMPDEST POP PUSH3 0xF9E JUMP JUMPDEST POP PUSH1 0x20 DUP4 LT PUSH2 0x133 DUP4 LT AND PUSH1 0x4E DUP5 LT PUSH1 0xB DUP5 LT AND OR ISZERO PUSH3 0xF6F JUMPI DUP3 DUP3 EXP SWAP1 POP DUP4 DUP2 GT ISZERO PUSH3 0xF69 JUMPI PUSH3 0xF68 PUSH3 0xE22 JUMP JUMPDEST JUMPDEST PUSH3 0xF9E JUMP JUMPDEST PUSH3 0xF7E DUP5 DUP5 DUP5 PUSH1 0x1 PUSH3 0xE5E JUMP JUMPDEST SWAP3 POP SWAP1 POP DUP2 DUP5 DIV DUP2 GT ISZERO PUSH3 0xF98 JUMPI PUSH3 0xF97 PUSH3 0xE22 JUMP JUMPDEST JUMPDEST DUP2 DUP2 MUL SWAP1 POP JUMPDEST SWAP4 SWAP3 POP POP POP JUMP JUMPDEST PUSH1 0x0 PUSH1 0xFF DUP3 AND SWAP1 POP SWAP2 SWAP1 POP JUMP JUMPDEST PUSH1 0x0 PUSH3 0xFBF DUP3 PUSH3 0xBE7 JUMP JUMPDEST SWAP2 POP PUSH3 0xFCC DUP4 PUSH3 0xFA5 JUMP JUMPDEST SWAP3 POP PUSH3 0xFFB PUSH32 0xFFFFFFFFFFFFFFFFFFFFFFFFFFFFFFFFFFFFFFFFFFFFFFFFFFFFFFFFFFFFFFFF DUP5 DUP5 PUSH3 0xEB9 JUMP JUMPDEST SWAP1 POP SWAP3 SWAP2 POP POP JUMP JUMPDEST PUSH1 0x0 PUSH3 0x1010 DUP3 PUSH3 0xBE7 JUMP JUMPDEST SWAP2 POP PUSH3 0x101D DUP4 PUSH3 0xBE7 JUMP JUMPDEST SWAP3 POP DUP3 DUP3 MUL PUSH3 0x102D DUP2 PUSH3 0xBE7 JUMP JUMPDEST SWAP2 POP DUP3 DUP3 DIV DUP5 EQ DUP4 ISZERO OR PUSH3 0x1047 JUMPI PUSH3 0x1046 PUSH3 0xE22 JUMP JUMPDEST JUMPDEST POP SWAP3 SWAP2 POP POP JUMP JUMPDEST PUSH1 0x0 DUP3 DUP3 MSTORE PUSH1 0x20 DUP3 ADD SWAP1 POP SWAP3 SWAP2 POP POP JUMP JUMPDEST PUSH32 0x45524332303A206D696E7420746F20746865207A65726F206164647265737300 PUSH1 0x0 DUP3 ADD MSTORE POP JUMP JUMPDEST PUSH1 0x0 PUSH3 0x1097 PUSH1 0x1F DUP4 PUSH3 0x104E JUMP JUMPDEST SWAP2 POP PUSH3 0x10A4 DUP3 PUSH3 0x105F JUMP JUMPDEST PUSH1 0x20 DUP3 ADD SWAP1 POP SWAP2 SWAP1 POP JUMP JUMPDEST PUSH1 0x0 PUSH1 0x20 DUP3 ADD SWAP1 POP DUP2 DUP2 SUB PUSH1 0x0 DUP4 ADD MSTORE PUSH3 0x10CA DUP2 PUSH3 0x1088 JUMP JUMPDEST SWAP1 POP SWAP2 SWAP1 POP JUMP JUMPDEST PUSH1 0x0 PUSH3 0x10DE DUP3 PUSH3 0xBE7 JUMP JUMPDEST SWAP2 POP PUSH3 0x10EB DUP4 PUSH3 0xBE7 JUMP JUMPDEST SWAP3 POP DUP3 DUP3 ADD SWAP1 POP DUP1 DUP3 GT ISZERO PUSH3 0x1106 JUMPI PUSH3 0x1105 PUSH3 0xE22 JUMP JUMPDEST JUMPDEST SWAP3 SWAP2 POP POP JUMP JUMPDEST PUSH3 0x1117 DUP2 PUSH3 0xBE7 JUMP JUMPDEST DUP3 MSTORE POP POP JUMP JUMPDEST PUSH1 0x0 PUSH1 0x20 DUP3 ADD SWAP1 POP PUSH3 0x1134 PUSH1 0x0 DUP4 ADD DUP5 PUSH3 0x110C JUMP JUMPDEST SWAP3 SWAP2 POP POP JUMP JUMPDEST PUSH32 0x546F6B656E207472616E7366657220726566757365642E205265636569766572 PUSH1 0x0 DUP3 ADD MSTORE PUSH32 0x206973206F6E2074686520626C61636B6C697374000000000000000000000000 PUSH1 0x20 DUP3 ADD MSTORE POP JUMP JUMPDEST PUSH1 0x0 PUSH3 0x1198 PUSH1 0x34 DUP4 PUSH3 0x104E JUMP JUMPDEST SWAP2 POP PUSH3 0x11A5 DUP3 PUSH3 0x113A JUMP JUMPDEST PUSH1 0x40 DUP3 ADD SWAP1 POP SWAP2 SWAP1 POP JUMP JUMPDEST PUSH1 0x0 PUSH1 0x20 DUP3 ADD SWAP1 POP DUP2 DUP2 SUB PUSH1 0x0 DUP4 ADD MSTORE PUSH3 0x11CB DUP2 PUSH3 0x1189 JUMP JUMPDEST SWAP1 POP SWAP2 SWAP1 POP JUMP JUMPDEST PUSH32 0x546F6B656E207472616E7366657220726566757365642E20596F752061726520 PUSH1 0x0 DUP3 ADD MSTORE PUSH32 0x6F6E2074686520626C61636B6C69737400000000000000000000000000000000 PUSH1 0x20 DUP3 ADD MSTORE POP JUMP JUMPDEST PUSH1 0x0 PUSH3 0x1230 PUSH1 0x30 DUP4 PUSH3 0x104E JUMP JUMPDEST SWAP2 POP PUSH3 0x123D DUP3 PUSH3 0x11D2 JUMP JUMPDEST PUSH1 0x40 DUP3 ADD SWAP1 POP SWAP2 SWAP1 POP JUMP JUMPDEST PUSH1 0x0 PUSH1 0x20 DUP3 ADD SWAP1 POP DUP2 DUP2 SUB PUSH1 0x0 DUP4 ADD MSTORE PUSH3 0x1263 DUP2 PUSH3 0x1221 JUMP JUMPDEST SWAP1 POP SWAP2 SWAP1 POP JUMP JUMPDEST PUSH32 0x5061757361626C653A2070617573656400000000000000000000000000000000 PUSH1 0x0 DUP3 ADD MSTORE POP JUMP JUMPDEST PUSH1 0x0 PUSH3 0x12A2 PUSH1 0x10 DUP4 PUSH3 0x104E JUMP JUMPDEST SWAP2 POP PUSH3 0x12AF DUP3 PUSH3 0x126A JUMP JUMPDEST PUSH1 0x20 DUP3 ADD SWAP1 POP SWAP2 SWAP1 POP JUMP JUMPDEST PUSH1 0x0 PUSH1 0x20 DUP3 ADD SWAP1 POP DUP2 DUP2 SUB PUSH1 0x0 DUP4 ADD MSTORE PUSH3 0x12D5 DUP2 PUSH3 0x1293 JUMP JUMPDEST SWAP1 POP SWAP2 SWAP1 POP JUMP JUMPDEST PUSH1 0x0 DUP2 SWAP1 POP SWAP3 SWAP2 POP POP JUMP JUMPDEST PUSH32 0x416363657373436F6E74726F6C3A206163636F756E7420000000000000000000 PUSH1 0x0 DUP3 ADD MSTORE POP JUMP JUMPDEST PUSH1 0x0 PUSH3 0x131F PUSH1 0x17 DUP4 PUSH3 0x12DC JUMP JUMPDEST SWAP2 POP PUSH3 0x132C DUP3 PUSH3 0x12E7 JUMP JUMPDEST PUSH1 0x17 DUP3 ADD SWAP1 POP SWAP2 SWAP1 POP JUMP JUMPDEST PUSH1 0x0 JUMPDEST DUP4 DUP2 LT ISZERO PUSH3 0x1357 JUMPI DUP1 DUP3 ADD MLOAD DUP2 DUP5 ADD MSTORE PUSH1 0x20 DUP2 ADD SWAP1 POP PUSH3 0x133A JUMP JUMPDEST PUSH1 0x0 DUP5 DUP5 ADD MSTORE POP POP POP POP JUMP JUMPDEST PUSH1 0x0 PUSH3 0x1370 DUP3 PUSH3 0xAC1 JUMP JUMPDEST PUSH3 0x137C DUP2 DUP6 PUSH3 0x12DC JUMP JUMPDEST SWAP4 POP PUSH3 0x138E DUP2 DUP6 PUSH1 0x20 DUP7 ADD PUSH3 0x1337 JUMP JUMPDEST DUP1 DUP5 ADD SWAP2 POP POP SWAP3 SWAP2 POP POP JUMP JUMPDEST PUSH32 0x206973206D697373696E6720726F6C6520000000000000000000000000000000 PUSH1 0x0 DUP3 ADD MSTORE POP JUMP JUMPDEST PUSH1 0x0 PUSH3 0x13D2 PUSH1 0x11 DUP4 PUSH3 0x12DC JUMP JUMPDEST SWAP2 POP PUSH3 0x13DF DUP3 PUSH3 0x139A JUMP JUMPDEST PUSH1 0x11 DUP3 ADD SWAP1 POP SWAP2 SWAP1 POP JUMP JUMPDEST PUSH1 0x0 PUSH3 0x13F7 DUP3 PUSH3 0x1310 JUMP JUMPDEST SWAP2 POP PUSH3 0x1405 DUP3 DUP6 PUSH3 0x1363 JUMP JUMPDEST SWAP2 POP PUSH3 0x1412 DUP3 PUSH3 0x13C3 JUMP JUMPDEST SWAP2 POP PUSH3 0x1420 DUP3 DUP5 PUSH3 0x1363 JUMP JUMPDEST SWAP2 POP DUP2 SWAP1 POP SWAP4 SWAP3 POP POP POP JUMP JUMPDEST PUSH1 0x0 PUSH1 0x1F NOT PUSH1 0x1F DUP4 ADD AND SWAP1 POP SWAP2 SWAP1 POP JUMP JUMPDEST PUSH1 0x0 PUSH3 0x144A DUP3 PUSH3 0xAC1 JUMP JUMPDEST PUSH3 0x1456 DUP2 DUP6 PUSH3 0x104E JUMP JUMPDEST SWAP4 POP PUSH3 0x1468 DUP2 DUP6 PUSH1 0x20 DUP7 ADD PUSH3 0x1337 JUMP JUMPDEST PUSH3 0x1473 DUP2 PUSH3 0x142C JUMP JUMPDEST DUP5 ADD SWAP2 POP POP SWAP3 SWAP2 POP POP JUMP JUMPDEST PUSH1 0x0 PUSH1 0x20 DUP3 ADD SWAP1 POP DUP2 DUP2 SUB PUSH1 0x0 DUP4 ADD MSTORE PUSH3 0x149A DUP2 DUP5 PUSH3 0x143D JUMP JUMPDEST SWAP1 POP SWAP3 SWAP2 POP POP JUMP JUMPDEST PUSH32 0x4E487B7100000000000000000000000000000000000000000000000000000000 PUSH1 0x0 MSTORE PUSH1 0x32 PUSH1 0x4 MSTORE PUSH1 0x24 PUSH1 0x0 REVERT JUMPDEST PUSH1 0x0 PUSH3 0x14DE DUP3 PUSH3 0xBE7 JUMP JUMPDEST SWAP2 POP PUSH1 0x0 DUP3 SUB PUSH3 0x14F4 JUMPI PUSH3 0x14F3 PUSH3 0xE22 JUMP JUMPDEST JUMPDEST PUSH1 0x1 DUP3 SUB SWAP1 POP SWAP2 SWAP1 POP JUMP JUMPDEST PUSH32 0x537472696E67733A20686578206C656E67746820696E73756666696369656E74 PUSH1 0x0 DUP3 ADD MSTORE POP JUMP JUMPDEST PUSH1 0x0 PUSH3 0x1537 PUSH1 0x20 DUP4 PUSH3 0x104E JUMP JUMPDEST SWAP2 POP PUSH3 0x1544 DUP3 PUSH3 0x14FF JUMP JUMPDEST PUSH1 0x20 DUP3 ADD SWAP1 POP SWAP2 SWAP1 POP JUMP JUMPDEST PUSH1 0x0 PUSH1 0x20 DUP3 ADD SWAP1 POP DUP2 DUP2 SUB PUSH1 0x0 DUP4 ADD MSTORE PUSH3 0x156A DUP2 PUSH3 0x1528 JUMP JUMPDEST SWAP1 POP SWAP2 SWAP1 POP JUMP JUMPDEST PUSH2 0x2D3E DUP1 PUSH3 0x1581 PUSH1 0x0 CODECOPY PUSH1 0x0 RETURN INVALID PUSH1 0x80 PUSH1 0x40 MSTORE CALLVALUE DUP1 ISZERO PUSH2 0x10 JUMPI PUSH1 0x0 DUP1 REVERT JUMPDEST POP PUSH1 0x4 CALLDATASIZE LT PUSH2 0x206 JUMPI PUSH1 0x0 CALLDATALOAD PUSH1 0xE0 SHR DUP1 PUSH4 0x70A08231 GT PUSH2 0x11A JUMPI DUP1 PUSH4 0xA217FDDF GT PUSH2 0xAD JUMPI DUP1 PUSH4 0xD547741F GT PUSH2 0x7C JUMPI DUP1 PUSH4 0xD547741F EQ PUSH2 0x5DD JUMPI DUP1 PUSH4 0xDD62ED3E EQ PUSH2 0x5F9 JUMPI DUP1 PUSH4 0xE3AC03F3 EQ PUSH2 0x629 JUMPI DUP1 PUSH4 0xE47D6060 EQ PUSH2 0x645 JUMPI DUP1 PUSH4 0xE63AB1E9 EQ PUSH2 0x675 JUMPI PUSH2 0x206 JUMP JUMPDEST DUP1 PUSH4 0xA217FDDF EQ PUSH2 0x543 JUMPI DUP1 PUSH4 0xA457C2D7 EQ PUSH2 0x561 JUMPI DUP1 PUSH4 0xA9059CBB EQ PUSH2 0x591 JUMPI DUP1 PUSH4 0xB351DFE8 EQ PUSH2 0x5C1 JUMPI PUSH2 0x206 JUMP JUMPDEST DUP1 PUSH4 0x8E47B88C GT PUSH2 0xE9 JUMPI DUP1 PUSH4 0x8E47B88C EQ PUSH2 0x4BB JUMPI DUP1 PUSH4 0x91D14854 EQ PUSH2 0x4D9 JUMPI DUP1 PUSH4 0x95D89B41 EQ PUSH2 0x509 JUMPI DUP1 PUSH4 0x9DA39DF9 EQ PUSH2 0x527 JUMPI PUSH2 0x206 JUMP JUMPDEST DUP1 PUSH4 0x70A08231 EQ PUSH2 0x447 JUMPI DUP1 PUSH4 0x79CC6790 EQ PUSH2 0x477 JUMPI DUP1 PUSH4 0x7EC502A4 EQ PUSH2 0x493 JUMPI DUP1 PUSH4 0x8456CB59 EQ PUSH2 0x4B1 JUMPI PUSH2 0x206 JUMP JUMPDEST DUP1 PUSH4 0x2F2FF15D GT PUSH2 0x19D JUMPI DUP1 PUSH4 0x3F4BA83A GT PUSH2 0x16C JUMPI DUP1 PUSH4 0x3F4BA83A EQ PUSH2 0x3C7 JUMPI DUP1 PUSH4 0x42966C68 EQ PUSH2 0x3D1 JUMPI DUP1 PUSH4 0x46DBEB2D EQ PUSH2 0x3ED JUMPI DUP1 PUSH4 0x50BA3530 EQ PUSH2 0x40B JUMPI DUP1 PUSH4 0x5C975ABB EQ PUSH2 0x429 JUMPI PUSH2 0x206 JUMP JUMPDEST DUP1 PUSH4 0x2F2FF15D EQ PUSH2 0x341 JUMPI DUP1 PUSH4 0x313CE567 EQ PUSH2 0x35D JUMPI DUP1 PUSH4 0x36568ABE EQ PUSH2 0x37B JUMPI DUP1 PUSH4 0x39509351 EQ PUSH2 0x397 JUMPI PUSH2 0x206 JUMP JUMPDEST DUP1 PUSH4 0x1072CBEA GT PUSH2 0x1D9 JUMPI DUP1 PUSH4 0x1072CBEA EQ PUSH2 0x2A7 JUMPI DUP1 PUSH4 0x18160DDD EQ PUSH2 0x2C3 JUMPI DUP1 PUSH4 0x23B872DD EQ PUSH2 0x2E1 JUMPI DUP1 PUSH4 0x248A9CA3 EQ PUSH2 0x311 JUMPI PUSH2 0x206 JUMP JUMPDEST DUP1 PUSH4 0x1FFC9A7 EQ PUSH2 0x20B JUMPI DUP1 PUSH4 0x6FDDE03 EQ PUSH2 0x23B JUMPI DUP1 PUSH4 0x95EA7B3 EQ PUSH2 0x259 JUMPI DUP1 PUSH4 0x10543EE3 EQ PUSH2 0x289 JUMPI JUMPDEST PUSH1 0x0 DUP1 REVERT JUMPDEST PUSH2 0x225 PUSH1 0x4 DUP1 CALLDATASIZE SUB DUP2 ADD SWAP1 PUSH2 0x220 SWAP2 SWAP1 PUSH2 0x1CCC JUMP JUMPDEST PUSH2 0x693 JUMP JUMPDEST PUSH1 0x40 MLOAD PUSH2 0x232 SWAP2 SWAP1 PUSH2 0x1D14 JUMP JUMPDEST PUSH1 0x40 MLOAD DUP1 SWAP2 SUB SWAP1 RETURN JUMPDEST PUSH2 0x243 PUSH2 0x70D JUMP JUMPDEST PUSH1 0x40 MLOAD PUSH2 0x250 SWAP2 SWAP1 PUSH2 0x1DBF JUMP JUMPDEST PUSH1 0x40 MLOAD DUP1 SWAP2 SUB SWAP1 RETURN JUMPDEST PUSH2 0x273 PUSH1 0x4 DUP1 CALLDATASIZE SUB DUP2 ADD SWAP1 PUSH2 0x26E SWAP2 SWAP1 PUSH2 0x1E75 JUMP JUMPDEST PUSH2 0x79F JUMP JUMPDEST PUSH1 0x40 MLOAD PUSH2 0x280 SWAP2 SWAP1 PUSH2 0x1D14 JUMP JUMPDEST PUSH1 0x40 MLOAD DUP1 SWAP2 SUB SWAP1 RETURN JUMPDEST PUSH2 0x291 PUSH2 0x7C2 JUMP JUMPDEST PUSH1 0x40 MLOAD PUSH2 0x29E SWAP2 SWAP1 PUSH2 0x1EC4 JUMP JUMPDEST PUSH1 0x40 MLOAD DUP1 SWAP2 SUB SWAP1 RETURN JUMPDEST PUSH2 0x2C1 PUSH1 0x4 DUP1 CALLDATASIZE SUB DUP2 ADD SWAP1 PUSH2 0x2BC SWAP2 SWAP1 PUSH2 0x1F1D JUMP JUMPDEST PUSH2 0x7CC JUMP JUMPDEST STOP JUMPDEST PUSH2 0x2CB PUSH2 0x83E JUMP JUMPDEST PUSH1 0x40 MLOAD PUSH2 0x2D8 SWAP2 SWAP1 PUSH2 0x1EC4 JUMP JUMPDEST PUSH1 0x40 MLOAD DUP1 SWAP2 SUB SWAP1 RETURN JUMPDEST PUSH2 0x2FB PUSH1 0x4 DUP1 CALLDATASIZE SUB DUP2 ADD SWAP1 PUSH2 0x2F6 SWAP2 SWAP1 PUSH2 0x1F5D JUMP JUMPDEST PUSH2 0x848 JUMP JUMPDEST PUSH1 0x40 MLOAD PUSH2 0x308 SWAP2 SWAP1 PUSH2 0x1D14 JUMP JUMPDEST PUSH1 0x40 MLOAD DUP1 SWAP2 SUB SWAP1 RETURN JUMPDEST PUSH2 0x32B PUSH1 0x4 DUP1 CALLDATASIZE SUB DUP2 ADD SWAP1 PUSH2 0x326 SWAP2 SWAP1 PUSH2 0x1FE6 JUMP JUMPDEST PUSH2 0x877 JUMP JUMPDEST PUSH1 0x40 MLOAD PUSH2 0x338 SWAP2 SWAP1 PUSH2 0x2022 JUMP JUMPDEST PUSH1 0x40 MLOAD DUP1 SWAP2 SUB SWAP1 RETURN JUMPDEST PUSH2 0x35B PUSH1 0x4 DUP1 CALLDATASIZE SUB DUP2 ADD SWAP1 PUSH2 0x356 SWAP2 SWAP1 PUSH2 0x203D JUMP JUMPDEST PUSH2 0x897 JUMP JUMPDEST STOP JUMPDEST PUSH2 0x365 PUSH2 0x8B8 JUMP JUMPDEST PUSH1 0x40 MLOAD PUSH2 0x372 SWAP2 SWAP1 PUSH2 0x2099 JUMP JUMPDEST PUSH1 0x40 MLOAD DUP1 SWAP2 SUB SWAP1 RETURN JUMPDEST PUSH2 0x395 PUSH1 0x4 DUP1 CALLDATASIZE SUB DUP2 ADD SWAP1 PUSH2 0x390 SWAP2 SWAP1 PUSH2 0x203D JUMP JUMPDEST PUSH2 0x8C1 JUMP JUMPDEST STOP JUMPDEST PUSH2 0x3B1 PUSH1 0x4 DUP1 CALLDATASIZE SUB DUP2 ADD SWAP1 PUSH2 0x3AC SWAP2 SWAP1 PUSH2 0x1E75 JUMP JUMPDEST PUSH2 0x944 JUMP JUMPDEST PUSH1 0x40 MLOAD PUSH2 0x3BE SWAP2 SWAP1 PUSH2 0x1D14 JUMP JUMPDEST PUSH1 0x40 MLOAD DUP1 SWAP2 SUB SWAP1 RETURN JUMPDEST PUSH2 0x3CF PUSH2 0x97B JUMP JUMPDEST STOP JUMPDEST PUSH2 0x3EB PUSH1 0x4 DUP1 CALLDATASIZE SUB DUP2 ADD SWAP1 PUSH2 0x3E6 SWAP2 SWAP1 PUSH2 0x20B4 JUMP JUMPDEST PUSH2 0x9B0 JUMP JUMPDEST STOP JUMPDEST PUSH2 0x3F5 PUSH2 0x9EF JUMP JUMPDEST PUSH1 0x40 MLOAD PUSH2 0x402 SWAP2 SWAP1 PUSH2 0x2022 JUMP JUMPDEST PUSH1 0x40 MLOAD DUP1 SWAP2 SUB SWAP1 RETURN JUMPDEST PUSH2 0x413 PUSH2 0x9F5 JUMP JUMPDEST PUSH1 0x40 MLOAD PUSH2 0x420 SWAP2 SWAP1 PUSH2 0x1EC4 JUMP JUMPDEST PUSH1 0x40 MLOAD DUP1 SWAP2 SUB SWAP1 RETURN JUMPDEST PUSH2 0x431 PUSH2 0x9FF JUMP JUMPDEST PUSH1 0x40 MLOAD PUSH2 0x43E SWAP2 SWAP1 PUSH2 0x1D14 JUMP JUMPDEST PUSH1 0x40 MLOAD DUP1 SWAP2 SUB SWAP1 RETURN JUMPDEST PUSH2 0x461 PUSH1 0x4 DUP1 CALLDATASIZE SUB DUP2 ADD SWAP1 PUSH2 0x45C SWAP2 SWAP1 PUSH2 0x20E1 JUMP JUMPDEST PUSH2 0xA16 JUMP JUMPDEST PUSH1 0x40 MLOAD PUSH2 0x46E SWAP2 SWAP1 PUSH2 0x1EC4 JUMP JUMPDEST PUSH1 0x40 MLOAD DUP1 SWAP2 SUB SWAP1 RETURN JUMPDEST PUSH2 0x491 PUSH1 0x4 DUP1 CALLDATASIZE SUB DUP2 ADD SWAP1 PUSH2 0x48C SWAP2 SWAP1 PUSH2 0x1E75 JUMP JUMPDEST PUSH2 0xA5E JUMP JUMPDEST STOP JUMPDEST PUSH2 0x49B PUSH2 0xA7E JUMP JUMPDEST PUSH1 0x40 MLOAD PUSH2 0x4A8 SWAP2 SWAP1 PUSH2 0x1EC4 JUMP JUMPDEST PUSH1 0x40 MLOAD DUP1 SWAP2 SUB SWAP1 RETURN JUMPDEST PUSH2 0x4B9 PUSH2 0xA84 JUMP JUMPDEST STOP JUMPDEST PUSH2 0x4C3 PUSH2 0xAB9 JUMP JUMPDEST PUSH1 0x40 MLOAD PUSH2 0x4D0 SWAP2 SWAP1 PUSH2 0x1EC4 JUMP JUMPDEST PUSH1 0x40 MLOAD DUP1 SWAP2 SUB SWAP1 RETURN JUMPDEST PUSH2 0x4F3 PUSH1 0x4 DUP1 CALLDATASIZE SUB DUP2 ADD SWAP1 PUSH2 0x4EE SWAP2 SWAP1 PUSH2 0x203D JUMP JUMPDEST PUSH2 0xABF JUMP JUMPDEST PUSH1 0x40 MLOAD PUSH2 0x500 SWAP2 SWAP1 PUSH2 0x1D14 JUMP JUMPDEST PUSH1 0x40 MLOAD DUP1 SWAP2 SUB SWAP1 RETURN JUMPDEST PUSH2 0x511 PUSH2 0xB2A JUMP JUMPDEST PUSH1 0x40 MLOAD PUSH2 0x51E SWAP2 SWAP1 PUSH2 0x1DBF JUMP JUMPDEST PUSH1 0x40 MLOAD DUP1 SWAP2 SUB SWAP1 RETURN JUMPDEST PUSH2 0x541 PUSH1 0x4 DUP1 CALLDATASIZE SUB DUP2 ADD SWAP1 PUSH2 0x53C SWAP2 SWAP1 PUSH2 0x20B4 JUMP JUMPDEST PUSH2 0xBBC JUMP JUMPDEST STOP JUMPDEST PUSH2 0x54B PUSH2 0xBD3 JUMP JUMPDEST PUSH1 0x40 MLOAD PUSH2 0x558 SWAP2 SWAP1 PUSH2 0x2022 JUMP JUMPDEST PUSH1 0x40 MLOAD DUP1 SWAP2 SUB SWAP1 RETURN JUMPDEST PUSH2 0x57B PUSH1 0x4 DUP1 CALLDATASIZE SUB DUP2 ADD SWAP1 PUSH2 0x576 SWAP2 SWAP1 PUSH2 0x1E75 JUMP JUMPDEST PUSH2 0xBDA JUMP JUMPDEST PUSH1 0x40 MLOAD PUSH2 0x588 SWAP2 SWAP1 PUSH2 0x1D14 JUMP JUMPDEST PUSH1 0x40 MLOAD DUP1 SWAP2 SUB SWAP1 RETURN JUMPDEST PUSH2 0x5AB PUSH1 0x4 DUP1 CALLDATASIZE SUB DUP2 ADD SWAP1 PUSH2 0x5A6 SWAP2 SWAP1 PUSH2 0x1E75 JUMP JUMPDEST PUSH2 0xC51 JUMP JUMPDEST PUSH1 0x40 MLOAD PUSH2 0x5B8 SWAP2 SWAP1 PUSH2 0x1D14 JUMP JUMPDEST PUSH1 0x40 MLOAD DUP1 SWAP2 SUB SWAP1 RETURN JUMPDEST PUSH2 0x5DB PUSH1 0x4 DUP1 CALLDATASIZE SUB DUP2 ADD SWAP1 PUSH2 0x5D6 SWAP2 SWAP1 PUSH2 0x213A JUMP JUMPDEST PUSH2 0xC74 JUMP JUMPDEST STOP JUMPDEST PUSH2 0x5F7 PUSH1 0x4 DUP1 CALLDATASIZE SUB DUP2 ADD SWAP1 PUSH2 0x5F2 SWAP2 SWAP1 PUSH2 0x203D JUMP JUMPDEST PUSH2 0xD48 JUMP JUMPDEST STOP JUMPDEST PUSH2 0x613 PUSH1 0x4 DUP1 CALLDATASIZE SUB DUP2 ADD SWAP1 PUSH2 0x60E SWAP2 SWAP1 PUSH2 0x217A JUMP JUMPDEST PUSH2 0xD69 JUMP JUMPDEST PUSH1 0x40 MLOAD PUSH2 0x620 SWAP2 SWAP1 PUSH2 0x1EC4 JUMP JUMPDEST PUSH1 0x40 MLOAD DUP1 SWAP2 SUB SWAP1 RETURN JUMPDEST PUSH2 0x643 PUSH1 0x4 DUP1 CALLDATASIZE SUB DUP2 ADD SWAP1 PUSH2 0x63E SWAP2 SWAP1 PUSH2 0x20B4 JUMP JUMPDEST PUSH2 0xDF0 JUMP JUMPDEST STOP JUMPDEST PUSH2 0x65F PUSH1 0x4 DUP1 CALLDATASIZE SUB DUP2 ADD SWAP1 PUSH2 0x65A SWAP2 SWAP1 PUSH2 0x20E1 JUMP JUMPDEST PUSH2 0xE07 JUMP JUMPDEST PUSH1 0x40 MLOAD PUSH2 0x66C SWAP2 SWAP1 PUSH2 0x1D14 JUMP JUMPDEST PUSH1 0x40 MLOAD DUP1 SWAP2 SUB SWAP1 RETURN JUMPDEST PUSH2 0x67D PUSH2 0xE5D JUMP JUMPDEST PUSH1 0x40 MLOAD PUSH2 0x68A SWAP2 SWAP1 PUSH2 0x2022 JUMP JUMPDEST PUSH1 0x40 MLOAD DUP1 SWAP2 SUB SWAP1 RETURN JUMPDEST PUSH1 0x0 PUSH32 0x7965DB0B00000000000000000000000000000000000000000000000000000000 PUSH28 0xFFFFFFFFFFFFFFFFFFFFFFFFFFFFFFFFFFFFFFFFFFFFFFFFFFFFFFFF NOT AND DUP3 PUSH28 0xFFFFFFFFFFFFFFFFFFFFFFFFFFFFFFFFFFFFFFFFFFFFFFFFFFFFFFFF NOT AND EQ DUP1 PUSH2 0x706 JUMPI POP PUSH2 0x705 DUP3 PUSH2 0x10EF JUMP JUMPDEST JUMPDEST SWAP1 POP SWAP2 SWAP1 POP JUMP JUMPDEST PUSH1 0x60 PUSH1 0x3 DUP1 SLOAD PUSH2 0x71C SWAP1 PUSH2 0x21E9 JUMP JUMPDEST DUP1 PUSH1 0x1F ADD PUSH1 0x20 DUP1 SWAP2 DIV MUL PUSH1 0x20 ADD PUSH1 0x40 MLOAD SWAP1 DUP2 ADD PUSH1 0x40 MSTORE DUP1 SWAP3 SWAP2 SWAP1 DUP2 DUP2 MSTORE PUSH1 0x20 ADD DUP3 DUP1 SLOAD PUSH2 0x748 SWAP1 PUSH2 0x21E9 JUMP JUMPDEST DUP1 ISZERO PUSH2 0x795 JUMPI DUP1 PUSH1 0x1F LT PUSH2 0x76A JUMPI PUSH2 0x100 DUP1 DUP4 SLOAD DIV MUL DUP4 MSTORE SWAP2 PUSH1 0x20 ADD SWAP2 PUSH2 0x795 JUMP JUMPDEST DUP3 ADD SWAP2 SWAP1 PUSH1 0x0 MSTORE PUSH1 0x20 PUSH1 0x0 KECCAK256 SWAP1 JUMPDEST DUP2 SLOAD DUP2 MSTORE SWAP1 PUSH1 0x1 ADD SWAP1 PUSH1 0x20 ADD DUP1 DUP4 GT PUSH2 0x778 JUMPI DUP3 SWAP1 SUB PUSH1 0x1F AND DUP3 ADD SWAP2 JUMPDEST POP POP POP POP POP SWAP1 POP SWAP1 JUMP JUMPDEST PUSH1 0x0 DUP1 PUSH2 0x7AA PUSH2 0x1159 JUMP JUMPDEST SWAP1 POP PUSH2 0x7B7 DUP2 DUP6 DUP6 PUSH2 0x1161 JUMP JUMPDEST PUSH1 0x1 SWAP2 POP POP SWAP3 SWAP2 POP POP JUMP JUMPDEST PUSH1 0x0 PUSH1 0x8 SLOAD SWAP1 POP SWAP1 JUMP JUMPDEST PUSH1 0x64 PUSH1 0x8 SLOAD PUSH2 0x7DB SWAP2 SWAP1 PUSH2 0x2278 JUMP JUMPDEST DUP2 PUSH2 0x7E6 SWAP2 SWAP1 PUSH2 0x22A9 JUMP JUMPDEST DUP2 PUSH2 0x7F1 SWAP2 SWAP1 PUSH2 0x22EB JUMP JUMPDEST SWAP1 POP DUP2 PUSH20 0xFFFFFFFFFFFFFFFFFFFFFFFFFFFFFFFFFFFFFFFF AND PUSH2 0x8FC DUP3 SWAP1 DUP2 ISZERO MUL SWAP1 PUSH1 0x40 MLOAD PUSH1 0x0 PUSH1 0x40 MLOAD DUP1 DUP4 SUB DUP2 DUP6 DUP9 DUP9 CALL SWAP4 POP POP POP POP ISZERO DUP1 ISZERO PUSH2 0x839 JUMPI RETURNDATASIZE PUSH1 0x0 DUP1 RETURNDATACOPY RETURNDATASIZE PUSH1 0x0 REVERT JUMPDEST POP POP POP JUMP JUMPDEST PUSH1 0x0 PUSH1 0x2 SLOAD SWAP1 POP SWAP1 JUMP JUMPDEST PUSH1 0x0 DUP1 PUSH2 0x853 PUSH2 0x1159 JUMP JUMPDEST SWAP1 POP PUSH2 0x860 DUP6 DUP3 DUP6 PUSH2 0x132A JUMP JUMPDEST PUSH2 0x86B DUP6 DUP6 DUP6 PUSH2 0x13B6 JUMP JUMPDEST PUSH1 0x1 SWAP2 POP POP SWAP4 SWAP3 POP POP POP JUMP JUMPDEST PUSH1 0x0 PUSH1 0x6 PUSH1 0x0 DUP4 DUP2 MSTORE PUSH1 0x20 ADD SWAP1 DUP2 MSTORE PUSH1 0x20 ADD PUSH1 0x0 KECCAK256 PUSH1 0x1 ADD SLOAD SWAP1 POP SWAP2 SWAP1 POP JUMP JUMPDEST PUSH2 0x8A0 DUP3 PUSH2 0x877 JUMP JUMPDEST PUSH2 0x8A9 DUP2 PUSH2 0x162C JUMP JUMPDEST PUSH2 0x8B3 DUP4 DUP4 PUSH2 0x1640 JUMP JUMPDEST POP POP POP JUMP JUMPDEST PUSH1 0x0 PUSH1 0x12 SWAP1 POP SWAP1 JUMP JUMPDEST PUSH2 0x8C9 PUSH2 0x1159 JUMP JUMPDEST PUSH20 0xFFFFFFFFFFFFFFFFFFFFFFFFFFFFFFFFFFFFFFFF AND DUP2 PUSH20 0xFFFFFFFFFFFFFFFFFFFFFFFFFFFFFFFFFFFFFFFF AND EQ PUSH2 0x936 JUMPI PUSH1 0x40 MLOAD PUSH32 0x8C379A000000000000000000000000000000000000000000000000000000000 DUP2 MSTORE PUSH1 0x4 ADD PUSH2 0x92D SWAP1 PUSH2 0x2391 JUMP JUMPDEST PUSH1 0x40 MLOAD DUP1 SWAP2 SUB SWAP1 REVERT JUMPDEST PUSH2 0x940 DUP3 DUP3 PUSH2 0x1721 JUMP JUMPDEST POP POP JUMP JUMPDEST PUSH1 0x0 DUP1 PUSH2 0x94F PUSH2 0x1159 JUMP JUMPDEST SWAP1 POP PUSH2 0x970 DUP2 DUP6 DUP6 PUSH2 0x961 DUP6 DUP10 PUSH2 0xD69 JUMP JUMPDEST PUSH2 0x96B SWAP2 SWAP1 PUSH2 0x23B1 JUMP JUMPDEST PUSH2 0x1161 JUMP JUMPDEST PUSH1 0x1 SWAP2 POP POP SWAP3 SWAP2 POP POP JUMP JUMPDEST PUSH32 0x65D7A28E3265B37A6474929F336521B332C1681B933F6CB9F3376673440D862A PUSH2 0x9A5 DUP2 PUSH2 0x162C JUMP JUMPDEST PUSH2 0x9AD PUSH2 0x1803 JUMP JUMPDEST POP JUMP JUMPDEST PUSH32 0x65D7A28E3265B37A6474929F336521B332C1681B933F6CB9F3376673440D862A PUSH2 0x9DA DUP2 PUSH2 0x162C JUMP JUMPDEST PUSH2 0x9EB PUSH2 0x9E5 PUSH2 0x1159 JUMP JUMPDEST DUP4 PUSH2 0x1866 JUMP JUMPDEST POP POP JUMP JUMPDEST PUSH1 0x7 SLOAD DUP2 JUMP JUMPDEST PUSH1 0x0 PUSH1 0x9 SLOAD SWAP1 POP SWAP1 JUMP JUMPDEST PUSH1 0x0 PUSH1 0x5 PUSH1 0x0 SWAP1 SLOAD SWAP1 PUSH2 0x100 EXP SWAP1 DIV PUSH1 0xFF AND SWAP1 POP SWAP1 JUMP JUMPDEST PUSH1 0x0 DUP1 PUSH1 0x0 DUP4 PUSH20 0xFFFFFFFFFFFFFFFFFFFFFFFFFFFFFFFFFFFFFFFF AND PUSH20 0xFFFFFFFFFFFFFFFFFFFFFFFFFFFFFFFFFFFFFFFF AND DUP2 MSTORE PUSH1 0x20 ADD SWAP1 DUP2 MSTORE PUSH1 0x20 ADD PUSH1 0x0 KECCAK256 SLOAD SWAP1 POP SWAP2 SWAP1 POP JUMP JUMPDEST PUSH2 0xA70 DUP3 PUSH2 0xA6A PUSH2 0x1159 JUMP JUMPDEST DUP4 PUSH2 0x132A JUMP JUMPDEST PUSH2 0xA7A DUP3 DUP3 PUSH2 0x1866 JUMP JUMPDEST POP POP JUMP JUMPDEST PUSH1 0x9 SLOAD DUP2 JUMP JUMPDEST PUSH32 0x65D7A28E3265B37A6474929F336521B332C1681B933F6CB9F3376673440D862A PUSH2 0xAAE DUP2 PUSH2 0x162C JUMP JUMPDEST PUSH2 0xAB6 PUSH2 0x1A33 JUMP JUMPDEST POP JUMP JUMPDEST PUSH1 0x8 SLOAD DUP2 JUMP JUMPDEST PUSH1 0x0 PUSH1 0x6 PUSH1 0x0 DUP5 DUP2 MSTORE PUSH1 0x20 ADD SWAP1 DUP2 MSTORE PUSH1 0x20 ADD PUSH1 0x0 KECCAK256 PUSH1 0x0 ADD PUSH1 0x0 DUP4 PUSH20 0xFFFFFFFFFFFFFFFFFFFFFFFFFFFFFFFFFFFFFFFF AND PUSH20 0xFFFFFFFFFFFFFFFFFFFFFFFFFFFFFFFFFFFFFFFF AND DUP2 MSTORE PUSH1 0x20 ADD SWAP1 DUP2 MSTORE PUSH1 0x20 ADD PUSH1 0x0 KECCAK256 PUSH1 0x0 SWAP1 SLOAD SWAP1 PUSH2 0x100 EXP SWAP1 DIV PUSH1 0xFF AND SWAP1 POP SWAP3 SWAP2 POP POP JUMP JUMPDEST PUSH1 0x60 PUSH1 0x4 DUP1 SLOAD PUSH2 0xB39 SWAP1 PUSH2 0x21E9 JUMP JUMPDEST DUP1 PUSH1 0x1F ADD PUSH1 0x20 DUP1 SWAP2 DIV MUL PUSH1 0x20 ADD PUSH1 0x40 MLOAD SWAP1 DUP2 ADD PUSH1 0x40 MSTORE DUP1 SWAP3 SWAP2 SWAP1 DUP2 DUP2 MSTORE PUSH1 0x20 ADD DUP3 DUP1 SLOAD PUSH2 0xB65 SWAP1 PUSH2 0x21E9 JUMP JUMPDEST DUP1 ISZERO PUSH2 0xBB2 JUMPI DUP1 PUSH1 0x1F LT PUSH2 0xB87 JUMPI PUSH2 0x100 DUP1 DUP4 SLOAD DIV MUL DUP4 MSTORE SWAP2 PUSH1 0x20 ADD SWAP2 PUSH2 0xBB2 JUMP JUMPDEST DUP3 ADD SWAP2 SWAP1 PUSH1 0x0 MSTORE PUSH1 0x20 PUSH1 0x0 KECCAK256 SWAP1 JUMPDEST DUP2 SLOAD DUP2 MSTORE SWAP1 PUSH1 0x1 ADD SWAP1 PUSH1 0x20 ADD DUP1 DUP4 GT PUSH2 0xB95 JUMPI DUP3 SWAP1 SUB PUSH1 0x1F AND DUP3 ADD SWAP2 JUMPDEST POP POP POP POP POP SWAP1 POP SWAP1 JUMP JUMPDEST PUSH1 0x7 SLOAD PUSH2 0xBC8 DUP2 PUSH2 0x162C JUMP JUMPDEST DUP2 PUSH1 0x9 DUP2 SWAP1 SSTORE POP POP POP JUMP JUMPDEST PUSH1 0x0 DUP1 SHL DUP2 JUMP JUMPDEST PUSH1 0x0 DUP1 PUSH2 0xBE5 PUSH2 0x1159 JUMP JUMPDEST SWAP1 POP PUSH1 0x0 PUSH2 0xBF3 DUP3 DUP7 PUSH2 0xD69 JUMP JUMPDEST SWAP1 POP DUP4 DUP2 LT ISZERO PUSH2 0xC38 JUMPI PUSH1 0x40 MLOAD PUSH32 0x8C379A000000000000000000000000000000000000000000000000000000000 DUP2 MSTORE PUSH1 0x4 ADD PUSH2 0xC2F SWAP1 PUSH2 0x2457 JUMP JUMPDEST PUSH1 0x40 MLOAD DUP1 SWAP2 SUB SWAP1 REVERT JUMPDEST PUSH2 0xC45 DUP3 DUP7 DUP7 DUP5 SUB PUSH2 0x1161 JUMP JUMPDEST PUSH1 0x1 SWAP3 POP POP POP SWAP3 SWAP2 POP POP JUMP JUMPDEST PUSH1 0x0 DUP1 PUSH2 0xC5C PUSH2 0x1159 JUMP JUMPDEST SWAP1 POP PUSH2 0xC69 DUP2 DUP6 DUP6 PUSH2 0x13B6 JUMP JUMPDEST PUSH1 0x1 SWAP2 POP POP SWAP3 SWAP2 POP POP JUMP JUMPDEST PUSH32 0x65D7A28E3265B37A6474929F336521B332C1681B933F6CB9F3376673440D862A PUSH2 0xC9E DUP2 PUSH2 0x162C JUMP JUMPDEST DUP2 PUSH1 0xA PUSH1 0x0 DUP6 PUSH20 0xFFFFFFFFFFFFFFFFFFFFFFFFFFFFFFFFFFFFFFFF AND PUSH20 0xFFFFFFFFFFFFFFFFFFFFFFFFFFFFFFFFFFFFFFFF AND DUP2 MSTORE PUSH1 0x20 ADD SWAP1 DUP2 MSTORE PUSH1 0x20 ADD PUSH1 0x0 KECCAK256 PUSH1 0x0 PUSH2 0x100 EXP DUP2 SLOAD DUP2 PUSH1 0xFF MUL NOT AND SWAP1 DUP4 ISZERO ISZERO MUL OR SWAP1 SSTORE POP DUP3 PUSH20 0xFFFFFFFFFFFFFFFFFFFFFFFFFFFFFFFFFFFFFFFF AND PUSH32 0x6A12B3DF6CBA4203BD7FD06B816789F87DE8C594299AED5717AE070FAC781BAC DUP4 PUSH1 0x40 MLOAD PUSH2 0xD3B SWAP2 SWAP1 PUSH2 0x1D14 JUMP JUMPDEST PUSH1 0x40 MLOAD DUP1 SWAP2 SUB SWAP1 LOG2 POP POP POP JUMP JUMPDEST PUSH2 0xD51 DUP3 PUSH2 0x877 JUMP JUMPDEST PUSH2 0xD5A DUP2 PUSH2 0x162C JUMP JUMPDEST PUSH2 0xD64 DUP4 DUP4 PUSH2 0x1721 JUMP JUMPDEST POP POP POP JUMP JUMPDEST PUSH1 0x0 PUSH1 0x1 PUSH1 0x0 DUP5 PUSH20 0xFFFFFFFFFFFFFFFFFFFFFFFFFFFFFFFFFFFFFFFF AND PUSH20 0xFFFFFFFFFFFFFFFFFFFFFFFFFFFFFFFFFFFFFFFF AND DUP2 MSTORE PUSH1 0x20 ADD SWAP1 DUP2 MSTORE PUSH1 0x20 ADD PUSH1 0x0 KECCAK256 PUSH1 0x0 DUP4 PUSH20 0xFFFFFFFFFFFFFFFFFFFFFFFFFFFFFFFFFFFFFFFF AND PUSH20 0xFFFFFFFFFFFFFFFFFFFFFFFFFFFFFFFFFFFFFFFF AND DUP2 MSTORE PUSH1 0x20 ADD SWAP1 DUP2 MSTORE PUSH1 0x20 ADD PUSH1 0x0 KECCAK256 SLOAD SWAP1 POP SWAP3 SWAP2 POP POP JUMP JUMPDEST PUSH1 0x7 SLOAD PUSH2 0xDFC DUP2 PUSH2 0x162C JUMP JUMPDEST DUP2 PUSH1 0x8 DUP2 SWAP1 SSTORE POP POP POP JUMP JUMPDEST PUSH1 0x0 PUSH1 0xA PUSH1 0x0 DUP4 PUSH20 0xFFFFFFFFFFFFFFFFFFFFFFFFFFFFFFFFFFFFFFFF AND PUSH20 0xFFFFFFFFFFFFFFFFFFFFFFFFFFFFFFFFFFFFFFFF AND DUP2 MSTORE PUSH1 0x20 ADD SWAP1 DUP2 MSTORE PUSH1 0x20 ADD PUSH1 0x0 KECCAK256 PUSH1 0x0 SWAP1 SLOAD SWAP1 PUSH2 0x100 EXP SWAP1 DIV PUSH1 0xFF AND SWAP1 POP SWAP2 SWAP1 POP JUMP JUMPDEST PUSH32 0x65D7A28E3265B37A6474929F336521B332C1681B933F6CB9F3376673440D862A DUP2 JUMP JUMPDEST POP POP POP JUMP JUMPDEST PUSH1 0x60 PUSH2 0xEAC DUP3 PUSH20 0xFFFFFFFFFFFFFFFFFFFFFFFFFFFFFFFFFFFFFFFF AND PUSH1 0x14 PUSH1 0xFF AND PUSH2 0xEB3 JUMP JUMPDEST SWAP1 POP SWAP2 SWAP1 POP JUMP JUMPDEST PUSH1 0x60 PUSH1 0x0 PUSH1 0x2 DUP4 PUSH1 0x2 PUSH2 0xEC6 SWAP2 SWAP1 PUSH2 0x22A9 JUMP JUMPDEST PUSH2 0xED0 SWAP2 SWAP1 PUSH2 0x23B1 JUMP JUMPDEST PUSH8 0xFFFFFFFFFFFFFFFF DUP2 GT ISZERO PUSH2 0xEE9 JUMPI PUSH2 0xEE8 PUSH2 0x2477 JUMP JUMPDEST JUMPDEST PUSH1 0x40 MLOAD SWAP1 DUP1 DUP3 MSTORE DUP1 PUSH1 0x1F ADD PUSH1 0x1F NOT AND PUSH1 0x20 ADD DUP3 ADD PUSH1 0x40 MSTORE DUP1 ISZERO PUSH2 0xF1B JUMPI DUP2 PUSH1 0x20 ADD PUSH1 0x1 DUP3 MUL DUP1 CALLDATASIZE DUP4 CALLDATACOPY DUP1 DUP3 ADD SWAP2 POP POP SWAP1 POP JUMPDEST POP SWAP1 POP PUSH32 0x3000000000000000000000000000000000000000000000000000000000000000 DUP2 PUSH1 0x0 DUP2 MLOAD DUP2 LT PUSH2 0xF53 JUMPI PUSH2 0xF52 PUSH2 0x24A6 JUMP JUMPDEST JUMPDEST PUSH1 0x20 ADD ADD SWAP1 PUSH31 0xFFFFFFFFFFFFFFFFFFFFFFFFFFFFFFFFFFFFFFFFFFFFFFFFFFFFFFFFFFFFFF NOT AND SWAP1 DUP2 PUSH1 0x0 BYTE SWAP1 MSTORE8 POP PUSH32 0x7800000000000000000000000000000000000000000000000000000000000000 DUP2 PUSH1 0x1 DUP2 MLOAD DUP2 LT PUSH2 0xFB7 JUMPI PUSH2 0xFB6 PUSH2 0x24A6 JUMP JUMPDEST JUMPDEST PUSH1 0x20 ADD ADD SWAP1 PUSH31 0xFFFFFFFFFFFFFFFFFFFFFFFFFFFFFFFFFFFFFFFFFFFFFFFFFFFFFFFFFFFFFF NOT AND SWAP1 DUP2 PUSH1 0x0 BYTE SWAP1 MSTORE8 POP PUSH1 0x0 PUSH1 0x1 DUP5 PUSH1 0x2 PUSH2 0xFF7 SWAP2 SWAP1 PUSH2 0x22A9 JUMP JUMPDEST PUSH2 0x1001 SWAP2 SWAP1 PUSH2 0x23B1 JUMP JUMPDEST SWAP1 POP JUMPDEST PUSH1 0x1 DUP2 GT ISZERO PUSH2 0x10A1 JUMPI PUSH32 0x3031323334353637383961626364656600000000000000000000000000000000 PUSH1 0xF DUP7 AND PUSH1 0x10 DUP2 LT PUSH2 0x1043 JUMPI PUSH2 0x1042 PUSH2 0x24A6 JUMP JUMPDEST JUMPDEST BYTE PUSH1 0xF8 SHL DUP3 DUP3 DUP2 MLOAD DUP2 LT PUSH2 0x105A JUMPI PUSH2 0x1059 PUSH2 0x24A6 JUMP JUMPDEST JUMPDEST PUSH1 0x20 ADD ADD SWAP1 PUSH31 0xFFFFFFFFFFFFFFFFFFFFFFFFFFFFFFFFFFFFFFFFFFFFFFFFFFFFFFFFFFFFFF NOT AND SWAP1 DUP2 PUSH1 0x0 BYTE SWAP1 MSTORE8 POP PUSH1 0x4 DUP6 SWAP1 SHR SWAP5 POP DUP1 PUSH2 0x109A SWAP1 PUSH2 0x24D5 JUMP JUMPDEST SWAP1 POP PUSH2 0x1004 JUMP JUMPDEST POP PUSH1 0x0 DUP5 EQ PUSH2 0x10E5 JUMPI PUSH1 0x40 MLOAD PUSH32 0x8C379A000000000000000000000000000000000000000000000000000000000 DUP2 MSTORE PUSH1 0x4 ADD PUSH2 0x10DC SWAP1 PUSH2 0x254A JUMP JUMPDEST PUSH1 0x40 MLOAD DUP1 SWAP2 SUB SWAP1 REVERT JUMPDEST DUP1 SWAP2 POP POP SWAP3 SWAP2 POP POP JUMP JUMPDEST PUSH1 0x0 PUSH32 0x1FFC9A700000000000000000000000000000000000000000000000000000000 PUSH28 0xFFFFFFFFFFFFFFFFFFFFFFFFFFFFFFFFFFFFFFFFFFFFFFFFFFFFFFFF NOT AND DUP3 PUSH28 0xFFFFFFFFFFFFFFFFFFFFFFFFFFFFFFFFFFFFFFFFFFFFFFFFFFFFFFFF NOT AND EQ SWAP1 POP SWAP2 SWAP1 POP JUMP JUMPDEST PUSH1 0x0 CALLER SWAP1 POP SWAP1 JUMP JUMPDEST PUSH1 0x0 PUSH20 0xFFFFFFFFFFFFFFFFFFFFFFFFFFFFFFFFFFFFFFFF AND DUP4 PUSH20 0xFFFFFFFFFFFFFFFFFFFFFFFFFFFFFFFFFFFFFFFF AND SUB PUSH2 0x11D0 JUMPI PUSH1 0x40 MLOAD PUSH32 0x8C379A000000000000000000000000000000000000000000000000000000000 DUP2 MSTORE PUSH1 0x4 ADD PUSH2 0x11C7 SWAP1 PUSH2 0x25DC JUMP JUMPDEST PUSH1 0x40 MLOAD DUP1 SWAP2 SUB SWAP1 REVERT JUMPDEST PUSH1 0x0 PUSH20 0xFFFFFFFFFFFFFFFFFFFFFFFFFFFFFFFFFFFFFFFF AND DUP3 PUSH20 0xFFFFFFFFFFFFFFFFFFFFFFFFFFFFFFFFFFFFFFFF AND SUB PUSH2 0x123F JUMPI PUSH1 0x40 MLOAD PUSH32 0x8C379A000000000000000000000000000000000000000000000000000000000 DUP2 MSTORE PUSH1 0x4 ADD PUSH2 0x1236 SWAP1 PUSH2 0x266E JUMP JUMPDEST PUSH1 0x40 MLOAD DUP1 SWAP2 SUB SWAP1 REVERT JUMPDEST DUP1 PUSH1 0x1 PUSH1 0x0 DUP6 PUSH20 0xFFFFFFFFFFFFFFFFFFFFFFFFFFFFFFFFFFFFFFFF AND PUSH20 0xFFFFFFFFFFFFFFFFFFFFFFFFFFFFFFFFFFFFFFFF AND DUP2 MSTORE PUSH1 0x20 ADD SWAP1 DUP2 MSTORE PUSH1 0x20 ADD PUSH1 0x0 KECCAK256 PUSH1 0x0 DUP5 PUSH20 0xFFFFFFFFFFFFFFFFFFFFFFFFFFFFFFFFFFFFFFFF AND PUSH20 0xFFFFFFFFFFFFFFFFFFFFFFFFFFFFFFFFFFFFFFFF AND DUP2 MSTORE PUSH1 0x20 ADD SWAP1 DUP2 MSTORE PUSH1 0x20 ADD PUSH1 0x0 KECCAK256 DUP2 SWAP1 SSTORE POP DUP2 PUSH20 0xFFFFFFFFFFFFFFFFFFFFFFFFFFFFFFFFFFFFFFFF AND DUP4 PUSH20 0xFFFFFFFFFFFFFFFFFFFFFFFFFFFFFFFFFFFFFFFF AND PUSH32 0x8C5BE1E5EBEC7D5BD14F71427D1E84F3DD0314C0F7B2291E5B200AC8C7C3B925 DUP4 PUSH1 0x40 MLOAD PUSH2 0x131D SWAP2 SWAP1 PUSH2 0x1EC4 JUMP JUMPDEST PUSH1 0x40 MLOAD DUP1 SWAP2 SUB SWAP1 LOG3 POP POP POP JUMP JUMPDEST PUSH1 0x0 PUSH2 0x1336 DUP5 DUP5 PUSH2 0xD69 JUMP JUMPDEST SWAP1 POP PUSH32 0xFFFFFFFFFFFFFFFFFFFFFFFFFFFFFFFFFFFFFFFFFFFFFFFFFFFFFFFFFFFFFFFF DUP2 EQ PUSH2 0x13B0 JUMPI DUP2 DUP2 LT ISZERO PUSH2 0x13A2 JUMPI PUSH1 0x40 MLOAD PUSH32 0x8C379A000000000000000000000000000000000000000000000000000000000 DUP2 MSTORE PUSH1 0x4 ADD PUSH2 0x1399 SWAP1 PUSH2 0x26DA JUMP JUMPDEST PUSH1 0x40 MLOAD DUP1 SWAP2 SUB SWAP1 REVERT JUMPDEST PUSH2 0x13AF DUP5 DUP5 DUP5 DUP5 SUB PUSH2 0x1161 JUMP JUMPDEST JUMPDEST POP POP POP POP JUMP JUMPDEST PUSH1 0x0 PUSH20 0xFFFFFFFFFFFFFFFFFFFFFFFFFFFFFFFFFFFFFFFF AND DUP4 PUSH20 0xFFFFFFFFFFFFFFFFFFFFFFFFFFFFFFFFFFFFFFFF AND SUB PUSH2 0x1425 JUMPI PUSH1 0x40 MLOAD PUSH32 0x8C379A000000000000000000000000000000000000000000000000000000000 DUP2 MSTORE PUSH1 0x4 ADD PUSH2 0x141C SWAP1 PUSH2 0x276C JUMP JUMPDEST PUSH1 0x40 MLOAD DUP1 SWAP2 SUB SWAP1 REVERT JUMPDEST PUSH1 0x0 PUSH20 0xFFFFFFFFFFFFFFFFFFFFFFFFFFFFFFFFFFFFFFFF AND DUP3 PUSH20 0xFFFFFFFFFFFFFFFFFFFFFFFFFFFFFFFFFFFFFFFF AND SUB PUSH2 0x1494 JUMPI PUSH1 0x40 MLOAD PUSH32 0x8C379A000000000000000000000000000000000000000000000000000000000 DUP2 MSTORE PUSH1 0x4 ADD PUSH2 0x148B SWAP1 PUSH2 0x27FE JUMP JUMPDEST PUSH1 0x40 MLOAD DUP1 SWAP2 SUB SWAP1 REVERT JUMPDEST PUSH2 0x149F DUP4 DUP4 DUP4 PUSH2 0x1A96 JUMP JUMPDEST PUSH1 0x0 DUP1 PUSH1 0x0 DUP6 PUSH20 0xFFFFFFFFFFFFFFFFFFFFFFFFFFFFFFFFFFFFFFFF AND PUSH20 0xFFFFFFFFFFFFFFFFFFFFFFFFFFFFFFFFFFFFFFFF AND DUP2 MSTORE PUSH1 0x20 ADD SWAP1 DUP2 MSTORE PUSH1 0x20 ADD PUSH1 0x0 KECCAK256 SLOAD SWAP1 POP DUP2 DUP2 LT ISZERO PUSH2 0x1525 JUMPI PUSH1 0x40 MLOAD PUSH32 0x8C379A000000000000000000000000000000000000000000000000000000000 DUP2 MSTORE PUSH1 0x4 ADD PUSH2 0x151C SWAP1 PUSH2 0x2890 JUMP JUMPDEST PUSH1 0x40 MLOAD DUP1 SWAP2 SUB SWAP1 REVERT JUMPDEST DUP2 DUP2 SUB PUSH1 0x0 DUP1 DUP7 PUSH20 0xFFFFFFFFFFFFFFFFFFFFFFFFFFFFFFFFFFFFFFFF AND PUSH20 0xFFFFFFFFFFFFFFFFFFFFFFFFFFFFFFFFFFFFFFFF AND DUP2 MSTORE PUSH1 0x20 ADD SWAP1 DUP2 MSTORE PUSH1 0x20 ADD PUSH1 0x0 KECCAK256 DUP2 SWAP1 SSTORE POP DUP2 PUSH1 0x0 DUP1 DUP6 PUSH20 0xFFFFFFFFFFFFFFFFFFFFFFFFFFFFFFFFFFFFFFFF AND PUSH20 0xFFFFFFFFFFFFFFFFFFFFFFFFFFFFFFFFFFFFFFFF AND DUP2 MSTORE PUSH1 0x20 ADD SWAP1 DUP2 MSTORE PUSH1 0x20 ADD PUSH1 0x0 KECCAK256 PUSH1 0x0 DUP3 DUP3 SLOAD ADD SWAP3 POP POP DUP2 SWAP1 SSTORE POP DUP3 PUSH20 0xFFFFFFFFFFFFFFFFFFFFFFFFFFFFFFFFFFFFFFFF AND DUP5 PUSH20 0xFFFFFFFFFFFFFFFFFFFFFFFFFFFFFFFFFFFFFFFF AND PUSH32 0xDDF252AD1BE2C89B69C2B068FC378DAA952BA7F163C4A11628F55A4DF523B3EF DUP5 PUSH1 0x40 MLOAD PUSH2 0x1613 SWAP2 SWAP1 PUSH2 0x1EC4 JUMP JUMPDEST PUSH1 0x40 MLOAD DUP1 SWAP2 SUB SWAP1 LOG3 PUSH2 0x1626 DUP5 DUP5 DUP5 PUSH2 0x1B52 JUMP JUMPDEST POP POP POP POP JUMP JUMPDEST PUSH2 0x163D DUP2 PUSH2 0x1638 PUSH2 0x1159 JUMP JUMPDEST PUSH2 0x1B57 JUMP JUMPDEST POP JUMP JUMPDEST PUSH2 0x164A DUP3 DUP3 PUSH2 0xABF JUMP JUMPDEST PUSH2 0x171D JUMPI PUSH1 0x1 PUSH1 0x6 PUSH1 0x0 DUP5 DUP2 MSTORE PUSH1 0x20 ADD SWAP1 DUP2 MSTORE PUSH1 0x20 ADD PUSH1 0x0 KECCAK256 PUSH1 0x0 ADD PUSH1 0x0 DUP4 PUSH20 0xFFFFFFFFFFFFFFFFFFFFFFFFFFFFFFFFFFFFFFFF AND PUSH20 0xFFFFFFFFFFFFFFFFFFFFFFFFFFFFFFFFFFFFFFFF AND DUP2 MSTORE PUSH1 0x20 ADD SWAP1 DUP2 MSTORE PUSH1 0x20 ADD PUSH1 0x0 KECCAK256 PUSH1 0x0 PUSH2 0x100 EXP DUP2 SLOAD DUP2 PUSH1 0xFF MUL NOT AND SWAP1 DUP4 ISZERO ISZERO MUL OR SWAP1 SSTORE POP PUSH2 0x16C2 PUSH2 0x1159 JUMP JUMPDEST PUSH20 0xFFFFFFFFFFFFFFFFFFFFFFFFFFFFFFFFFFFFFFFF AND DUP2 PUSH20 0xFFFFFFFFFFFFFFFFFFFFFFFFFFFFFFFFFFFFFFFF AND DUP4 PUSH32 0x2F8788117E7EFF1D82E926EC794901D17C78024A50270940304540A733656F0D PUSH1 0x40 MLOAD PUSH1 0x40 MLOAD DUP1 SWAP2 SUB SWAP1 LOG4 JUMPDEST POP POP JUMP JUMPDEST PUSH2 0x172B DUP3 DUP3 PUSH2 0xABF JUMP JUMPDEST ISZERO PUSH2 0x17FF JUMPI PUSH1 0x0 PUSH1 0x6 PUSH1 0x0 DUP5 DUP2 MSTORE PUSH1 0x20 ADD SWAP1 DUP2 MSTORE PUSH1 0x20 ADD PUSH1 0x0 KECCAK256 PUSH1 0x0 ADD PUSH1 0x0 DUP4 PUSH20 0xFFFFFFFFFFFFFFFFFFFFFFFFFFFFFFFFFFFFFFFF AND PUSH20 0xFFFFFFFFFFFFFFFFFFFFFFFFFFFFFFFFFFFFFFFF AND DUP2 MSTORE PUSH1 0x20 ADD SWAP1 DUP2 MSTORE PUSH1 0x20 ADD PUSH1 0x0 KECCAK256 PUSH1 0x0 PUSH2 0x100 EXP DUP2 SLOAD DUP2 PUSH1 0xFF MUL NOT AND SWAP1 DUP4 ISZERO ISZERO MUL OR SWAP1 SSTORE POP PUSH2 0x17A4 PUSH2 0x1159 JUMP JUMPDEST PUSH20 0xFFFFFFFFFFFFFFFFFFFFFFFFFFFFFFFFFFFFFFFF AND DUP2 PUSH20 0xFFFFFFFFFFFFFFFFFFFFFFFFFFFFFFFFFFFFFFFF AND DUP4 PUSH32 0xF6391F5C32D9C69D2A47EA670B442974B53935D1EDC7FD64EB21E047A839171B PUSH1 0x40 MLOAD PUSH1 0x40 MLOAD DUP1 SWAP2 SUB SWAP1 LOG4 JUMPDEST POP POP JUMP JUMPDEST PUSH2 0x180B PUSH2 0x1BDC JUMP JUMPDEST PUSH1 0x0 PUSH1 0x5 PUSH1 0x0 PUSH2 0x100 EXP DUP2 SLOAD DUP2 PUSH1 0xFF MUL NOT AND SWAP1 DUP4 ISZERO ISZERO MUL OR SWAP1 SSTORE POP PUSH32 0x5DB9EE0A495BF2E6FF9C91A7834C1BA4FDD244A5E8AA4E537BD38AEAE4B073AA PUSH2 0x184F PUSH2 0x1159 JUMP JUMPDEST PUSH1 0x40 MLOAD PUSH2 0x185C SWAP2 SWAP1 PUSH2 0x28BF JUMP JUMPDEST PUSH1 0x40 MLOAD DUP1 SWAP2 SUB SWAP1 LOG1 JUMP JUMPDEST PUSH1 0x0 PUSH20 0xFFFFFFFFFFFFFFFFFFFFFFFFFFFFFFFFFFFFFFFF AND DUP3 PUSH20 0xFFFFFFFFFFFFFFFFFFFFFFFFFFFFFFFFFFFFFFFF AND SUB PUSH2 0x18D5 JUMPI PUSH1 0x40 MLOAD PUSH32 0x8C379A000000000000000000000000000000000000000000000000000000000 DUP2 MSTORE PUSH1 0x4 ADD PUSH2 0x18CC SWAP1 PUSH2 0x294C JUMP JUMPDEST PUSH1 0x40 MLOAD DUP1 SWAP2 SUB SWAP1 REVERT JUMPDEST PUSH2 0x18E1 DUP3 PUSH1 0x0 DUP4 PUSH2 0x1A96 JUMP JUMPDEST PUSH1 0x0 DUP1 PUSH1 0x0 DUP5 PUSH20 0xFFFFFFFFFFFFFFFFFFFFFFFFFFFFFFFFFFFFFFFF AND PUSH20 0xFFFFFFFFFFFFFFFFFFFFFFFFFFFFFFFFFFFFFFFF AND DUP2 MSTORE PUSH1 0x20 ADD SWAP1 DUP2 MSTORE PUSH1 0x20 ADD PUSH1 0x0 KECCAK256 SLOAD SWAP1 POP DUP2 DUP2 LT ISZERO PUSH2 0x1967 JUMPI PUSH1 0x40 MLOAD PUSH32 0x8C379A000000000000000000000000000000000000000000000000000000000 DUP2 MSTORE PUSH1 0x4 ADD PUSH2 0x195E SWAP1 PUSH2 0x29DE JUMP JUMPDEST PUSH1 0x40 MLOAD DUP1 SWAP2 SUB SWAP1 REVERT JUMPDEST DUP2 DUP2 SUB PUSH1 0x0 DUP1 DUP6 PUSH20 0xFFFFFFFFFFFFFFFFFFFFFFFFFFFFFFFFFFFFFFFF AND PUSH20 0xFFFFFFFFFFFFFFFFFFFFFFFFFFFFFFFFFFFFFFFF AND DUP2 MSTORE PUSH1 0x20 ADD SWAP1 DUP2 MSTORE PUSH1 0x20 ADD PUSH1 0x0 KECCAK256 DUP2 SWAP1 SSTORE POP DUP2 PUSH1 0x2 PUSH1 0x0 DUP3 DUP3 SLOAD SUB SWAP3 POP POP DUP2 SWAP1 SSTORE POP PUSH1 0x0 PUSH20 0xFFFFFFFFFFFFFFFFFFFFFFFFFFFFFFFFFFFFFFFF AND DUP4 PUSH20 0xFFFFFFFFFFFFFFFFFFFFFFFFFFFFFFFFFFFFFFFF AND PUSH32 0xDDF252AD1BE2C89B69C2B068FC378DAA952BA7F163C4A11628F55A4DF523B3EF DUP5 PUSH1 0x40 MLOAD PUSH2 0x1A1A SWAP2 SWAP1 PUSH2 0x1EC4 JUMP JUMPDEST PUSH1 0x40 MLOAD DUP1 SWAP2 SUB SWAP1 LOG3 PUSH2 0x1A2E DUP4 PUSH1 0x0 DUP5 PUSH2 0x1B52 JUMP JUMPDEST POP POP POP JUMP JUMPDEST PUSH2 0x1A3B PUSH2 0x1C25 JUMP JUMPDEST PUSH1 0x1 PUSH1 0x5 PUSH1 0x0 PUSH2 0x100 EXP DUP2 SLOAD DUP2 PUSH1 0xFF MUL NOT AND SWAP1 DUP4 ISZERO ISZERO MUL OR SWAP1 SSTORE POP PUSH32 0x62E78CEA01BEE320CD4E420270B5EA74000D11B0C9F74754EBDBFC544B05A258 PUSH2 0x1A7F PUSH2 0x1159 JUMP JUMPDEST PUSH1 0x40 MLOAD PUSH2 0x1A8C SWAP2 SWAP1 PUSH2 0x28BF JUMP JUMPDEST PUSH1 0x40 MLOAD DUP1 SWAP2 SUB SWAP1 LOG1 JUMP JUMPDEST PUSH2 0x1AA3 PUSH1 0x0 DUP1 SHL CALLER PUSH2 0xABF JUMP JUMPDEST PUSH2 0x1AB0 JUMPI PUSH2 0x1AAF PUSH2 0x1C25 JUMP JUMPDEST JUMPDEST PUSH2 0x1AB9 DUP3 PUSH2 0xE07 JUMP JUMPDEST ISZERO PUSH2 0x1AF9 JUMPI PUSH1 0x40 MLOAD PUSH32 0x8C379A000000000000000000000000000000000000000000000000000000000 DUP2 MSTORE PUSH1 0x4 ADD PUSH2 0x1AF0 SWAP1 PUSH2 0x2A70 JUMP JUMPDEST PUSH1 0x40 MLOAD DUP1 SWAP2 SUB SWAP1 REVERT JUMPDEST PUSH2 0x1B02 DUP4 PUSH2 0xE07 JUMP JUMPDEST ISZERO PUSH2 0x1B42 JUMPI PUSH1 0x40 MLOAD PUSH32 0x8C379A000000000000000000000000000000000000000000000000000000000 DUP2 MSTORE PUSH1 0x4 ADD PUSH2 0x1B39 SWAP1 PUSH2 0x2B02 JUMP JUMPDEST PUSH1 0x40 MLOAD DUP1 SWAP2 SUB SWAP1 REVERT JUMPDEST PUSH2 0x1B4D DUP4 DUP4 DUP4 PUSH2 0xE81 JUMP JUMPDEST POP POP POP JUMP JUMPDEST POP POP POP JUMP JUMPDEST PUSH2 0x1B61 DUP3 DUP3 PUSH2 0xABF JUMP JUMPDEST PUSH2 0x1BD8 JUMPI PUSH2 0x1B6E DUP2 PUSH2 0xE86 JUMP JUMPDEST PUSH2 0x1B7C DUP4 PUSH1 0x0 SHR PUSH1 0x20 PUSH2 0xEB3 JUMP JUMPDEST PUSH1 0x40 MLOAD PUSH1 0x20 ADD PUSH2 0x1B8D SWAP3 SWAP2 SWAP1 PUSH2 0x2BF6 JUMP JUMPDEST PUSH1 0x40 MLOAD PUSH1 0x20 DUP2 DUP4 SUB SUB DUP2 MSTORE SWAP1 PUSH1 0x40 MSTORE PUSH1 0x40 MLOAD PUSH32 0x8C379A000000000000000000000000000000000000000000000000000000000 DUP2 MSTORE PUSH1 0x4 ADD PUSH2 0x1BCF SWAP2 SWAP1 PUSH2 0x1DBF JUMP JUMPDEST PUSH1 0x40 MLOAD DUP1 SWAP2 SUB SWAP1 REVERT JUMPDEST POP POP JUMP JUMPDEST PUSH2 0x1BE4 PUSH2 0x9FF JUMP JUMPDEST PUSH2 0x1C23 JUMPI PUSH1 0x40 MLOAD PUSH32 0x8C379A000000000000000000000000000000000000000000000000000000000 DUP2 MSTORE PUSH1 0x4 ADD PUSH2 0x1C1A SWAP1 PUSH2 0x2C7C JUMP JUMPDEST PUSH1 0x40 MLOAD DUP1 SWAP2 SUB SWAP1 REVERT JUMPDEST JUMP JUMPDEST PUSH2 0x1C2D PUSH2 0x9FF JUMP JUMPDEST ISZERO PUSH2 0x1C6D JUMPI PUSH1 0x40 MLOAD PUSH32 0x8C379A000000000000000000000000000000000000000000000000000000000 DUP2 MSTORE PUSH1 0x4 ADD PUSH2 0x1C64 SWAP1 PUSH2 0x2CE8 JUMP JUMPDEST PUSH1 0x40 MLOAD DUP1 SWAP2 SUB SWAP1 REVERT JUMPDEST JUMP JUMPDEST PUSH1 0x0 DUP1 REVERT JUMPDEST PUSH1 0x0 PUSH32 0xFFFFFFFF00000000000000000000000000000000000000000000000000000000 DUP3 AND SWAP1 POP SWAP2 SWAP1 POP JUMP JUMPDEST PUSH2 0x1CA9 DUP2 PUSH2 0x1C74 JUMP JUMPDEST DUP2 EQ PUSH2 0x1CB4 JUMPI PUSH1 0x0 DUP1 REVERT JUMPDEST POP JUMP JUMPDEST PUSH1 0x0 DUP2 CALLDATALOAD SWAP1 POP PUSH2 0x1CC6 DUP2 PUSH2 0x1CA0 JUMP JUMPDEST SWAP3 SWAP2 POP POP JUMP JUMPDEST PUSH1 0x0 PUSH1 0x20 DUP3 DUP5 SUB SLT ISZERO PUSH2 0x1CE2 JUMPI PUSH2 0x1CE1 PUSH2 0x1C6F JUMP JUMPDEST JUMPDEST PUSH1 0x0 PUSH2 0x1CF0 DUP5 DUP3 DUP6 ADD PUSH2 0x1CB7 JUMP JUMPDEST SWAP2 POP POP SWAP3 SWAP2 POP POP JUMP JUMPDEST PUSH1 0x0 DUP2 ISZERO ISZERO SWAP1 POP SWAP2 SWAP1 POP JUMP JUMPDEST PUSH2 0x1D0E DUP2 PUSH2 0x1CF9 JUMP JUMPDEST DUP3 MSTORE POP POP JUMP JUMPDEST PUSH1 0x0 PUSH1 0x20 DUP3 ADD SWAP1 POP PUSH2 0x1D29 PUSH1 0x0 DUP4 ADD DUP5 PUSH2 0x1D05 JUMP JUMPDEST SWAP3 SWAP2 POP POP JUMP JUMPDEST PUSH1 0x0 DUP2 MLOAD SWAP1 POP SWAP2 SWAP1 POP JUMP JUMPDEST PUSH1 0x0 DUP3 DUP3 MSTORE PUSH1 0x20 DUP3 ADD SWAP1 POP SWAP3 SWAP2 POP POP JUMP JUMPDEST PUSH1 0x0 JUMPDEST DUP4 DUP2 LT ISZERO PUSH2 0x1D69 JUMPI DUP1 DUP3 ADD MLOAD DUP2 DUP5 ADD MSTORE PUSH1 0x20 DUP2 ADD SWAP1 POP PUSH2 0x1D4E JUMP JUMPDEST PUSH1 0x0 DUP5 DUP5 ADD MSTORE POP POP POP POP JUMP JUMPDEST PUSH1 0x0 PUSH1 0x1F NOT PUSH1 0x1F DUP4 ADD AND SWAP1 POP SWAP2 SWAP1 POP JUMP JUMPDEST PUSH1 0x0 PUSH2 0x1D91 DUP3 PUSH2 0x1D2F JUMP JUMPDEST PUSH2 0x1D9B DUP2 DUP6 PUSH2 0x1D3A JUMP JUMPDEST SWAP4 POP PUSH2 0x1DAB DUP2 DUP6 PUSH1 0x20 DUP7 ADD PUSH2 0x1D4B JUMP JUMPDEST PUSH2 0x1DB4 DUP2 PUSH2 0x1D75 JUMP JUMPDEST DUP5 ADD SWAP2 POP POP SWAP3 SWAP2 POP POP JUMP JUMPDEST PUSH1 0x0 PUSH1 0x20 DUP3 ADD SWAP1 POP DUP2 DUP2 SUB PUSH1 0x0 DUP4 ADD MSTORE PUSH2 0x1DD9 DUP2 DUP5 PUSH2 0x1D86 JUMP JUMPDEST SWAP1 POP SWAP3 SWAP2 POP POP JUMP JUMPDEST PUSH1 0x0 PUSH20 0xFFFFFFFFFFFFFFFFFFFFFFFFFFFFFFFFFFFFFFFF DUP3 AND SWAP1 POP SWAP2 SWAP1 POP JUMP JUMPDEST PUSH1 0x0 PUSH2 0x1E0C DUP3 PUSH2 0x1DE1 JUMP JUMPDEST SWAP1 POP SWAP2 SWAP1 POP JUMP JUMPDEST PUSH2 0x1E1C DUP2 PUSH2 0x1E01 JUMP JUMPDEST DUP2 EQ PUSH2 0x1E27 JUMPI PUSH1 0x0 DUP1 REVERT JUMPDEST POP JUMP JUMPDEST PUSH1 0x0 DUP2 CALLDATALOAD SWAP1 POP PUSH2 0x1E39 DUP2 PUSH2 0x1E13 JUMP JUMPDEST SWAP3 SWAP2 POP POP JUMP JUMPDEST PUSH1 0x0 DUP2 SWAP1 POP SWAP2 SWAP1 POP JUMP JUMPDEST PUSH2 0x1E52 DUP2 PUSH2 0x1E3F JUMP JUMPDEST DUP2 EQ PUSH2 0x1E5D JUMPI PUSH1 0x0 DUP1 REVERT JUMPDEST POP JUMP JUMPDEST PUSH1 0x0 DUP2 CALLDATALOAD SWAP1 POP PUSH2 0x1E6F DUP2 PUSH2 0x1E49 JUMP JUMPDEST SWAP3 SWAP2 POP POP JUMP JUMPDEST PUSH1 0x0 DUP1 PUSH1 0x40 DUP4 DUP6 SUB SLT ISZERO PUSH2 0x1E8C JUMPI PUSH2 0x1E8B PUSH2 0x1C6F JUMP JUMPDEST JUMPDEST PUSH1 0x0 PUSH2 0x1E9A DUP6 DUP3 DUP7 ADD PUSH2 0x1E2A JUMP JUMPDEST SWAP3 POP POP PUSH1 0x20 PUSH2 0x1EAB DUP6 DUP3 DUP7 ADD PUSH2 0x1E60 JUMP JUMPDEST SWAP2 POP POP SWAP3 POP SWAP3 SWAP1 POP JUMP JUMPDEST PUSH2 0x1EBE DUP2 PUSH2 0x1E3F JUMP JUMPDEST DUP3 MSTORE POP POP JUMP JUMPDEST PUSH1 0x0 PUSH1 0x20 DUP3 ADD SWAP1 POP PUSH2 0x1ED9 PUSH1 0x0 DUP4 ADD DUP5 PUSH2 0x1EB5 JUMP JUMPDEST SWAP3 SWAP2 POP POP JUMP JUMPDEST PUSH1 0x0 PUSH2 0x1EEA DUP3 PUSH2 0x1DE1 JUMP JUMPDEST SWAP1 POP SWAP2 SWAP1 POP JUMP JUMPDEST PUSH2 0x1EFA DUP2 PUSH2 0x1EDF JUMP JUMPDEST DUP2 EQ PUSH2 0x1F05 JUMPI PUSH1 0x0 DUP1 REVERT JUMPDEST POP JUMP JUMPDEST PUSH1 0x0 DUP2 CALLDATALOAD SWAP1 POP PUSH2 0x1F17 DUP2 PUSH2 0x1EF1 JUMP JUMPDEST SWAP3 SWAP2 POP POP JUMP JUMPDEST PUSH1 0x0 DUP1 PUSH1 0x40 DUP4 DUP6 SUB SLT ISZERO PUSH2 0x1F34 JUMPI PUSH2 0x1F33 PUSH2 0x1C6F JUMP JUMPDEST JUMPDEST PUSH1 0x0 PUSH2 0x1F42 DUP6 DUP3 DUP7 ADD PUSH2 0x1F08 JUMP JUMPDEST SWAP3 POP POP PUSH1 0x20 PUSH2 0x1F53 DUP6 DUP3 DUP7 ADD PUSH2 0x1E60 JUMP JUMPDEST SWAP2 POP POP SWAP3 POP SWAP3 SWAP1 POP JUMP JUMPDEST PUSH1 0x0 DUP1 PUSH1 0x0 PUSH1 0x60 DUP5 DUP7 SUB SLT ISZERO PUSH2 0x1F76 JUMPI PUSH2 0x1F75 PUSH2 0x1C6F JUMP JUMPDEST JUMPDEST PUSH1 0x0 PUSH2 0x1F84 DUP7 DUP3 DUP8 ADD PUSH2 0x1E2A JUMP JUMPDEST SWAP4 POP POP PUSH1 0x20 PUSH2 0x1F95 DUP7 DUP3 DUP8 ADD PUSH2 0x1E2A JUMP JUMPDEST SWAP3 POP POP PUSH1 0x40 PUSH2 0x1FA6 DUP7 DUP3 DUP8 ADD PUSH2 0x1E60 JUMP JUMPDEST SWAP2 POP POP SWAP3 POP SWAP3 POP SWAP3 JUMP JUMPDEST PUSH1 0x0 DUP2 SWAP1 POP SWAP2 SWAP1 POP JUMP JUMPDEST PUSH2 0x1FC3 DUP2 PUSH2 0x1FB0 JUMP JUMPDEST DUP2 EQ PUSH2 0x1FCE JUMPI PUSH1 0x0 DUP1 REVERT JUMPDEST POP JUMP JUMPDEST PUSH1 0x0 DUP2 CALLDATALOAD SWAP1 POP PUSH2 0x1FE0 DUP2 PUSH2 0x1FBA JUMP JUMPDEST SWAP3 SWAP2 POP POP JUMP JUMPDEST PUSH1 0x0 PUSH1 0x20 DUP3 DUP5 SUB SLT ISZERO PUSH2 0x1FFC JUMPI PUSH2 0x1FFB PUSH2 0x1C6F JUMP JUMPDEST JUMPDEST PUSH1 0x0 PUSH2 0x200A DUP5 DUP3 DUP6 ADD PUSH2 0x1FD1 JUMP JUMPDEST SWAP2 POP POP SWAP3 SWAP2 POP POP JUMP JUMPDEST PUSH2 0x201C DUP2 PUSH2 0x1FB0 JUMP JUMPDEST DUP3 MSTORE POP POP JUMP JUMPDEST PUSH1 0x0 PUSH1 0x20 DUP3 ADD SWAP1 POP PUSH2 0x2037 PUSH1 0x0 DUP4 ADD DUP5 PUSH2 0x2013 JUMP JUMPDEST SWAP3 SWAP2 POP POP JUMP JUMPDEST PUSH1 0x0 DUP1 PUSH1 0x40 DUP4 DUP6 SUB SLT ISZERO PUSH2 0x2054 JUMPI PUSH2 0x2053 PUSH2 0x1C6F JUMP JUMPDEST JUMPDEST PUSH1 0x0 PUSH2 0x2062 DUP6 DUP3 DUP7 ADD PUSH2 0x1FD1 JUMP JUMPDEST SWAP3 POP POP PUSH1 0x20 PUSH2 0x2073 DUP6 DUP3 DUP7 ADD PUSH2 0x1E2A JUMP JUMPDEST SWAP2 POP POP SWAP3 POP SWAP3 SWAP1 POP JUMP JUMPDEST PUSH1 0x0 PUSH1 0xFF DUP3 AND SWAP1 POP SWAP2 SWAP1 POP JUMP JUMPDEST PUSH2 0x2093 DUP2 PUSH2 0x207D JUMP JUMPDEST DUP3 MSTORE POP POP JUMP JUMPDEST PUSH1 0x0 PUSH1 0x20 DUP3 ADD SWAP1 POP PUSH2 0x20AE PUSH1 0x0 DUP4 ADD DUP5 PUSH2 0x208A JUMP JUMPDEST SWAP3 SWAP2 POP POP JUMP JUMPDEST PUSH1 0x0 PUSH1 0x20 DUP3 DUP5 SUB SLT ISZERO PUSH2 0x20CA JUMPI PUSH2 0x20C9 PUSH2 0x1C6F JUMP JUMPDEST JUMPDEST PUSH1 0x0 PUSH2 0x20D8 DUP5 DUP3 DUP6 ADD PUSH2 0x1E60 JUMP JUMPDEST SWAP2 POP POP SWAP3 SWAP2 POP POP JUMP JUMPDEST PUSH1 0x0 PUSH1 0x20 DUP3 DUP5 SUB SLT ISZERO PUSH2 0x20F7 JUMPI PUSH2 0x20F6 PUSH2 0x1C6F JUMP JUMPDEST JUMPDEST PUSH1 0x0 PUSH2 0x2105 DUP5 DUP3 DUP6 ADD PUSH2 0x1E2A JUMP JUMPDEST SWAP2 POP POP SWAP3 SWAP2 POP POP JUMP JUMPDEST PUSH2 0x2117 DUP2 PUSH2 0x1CF9 JUMP JUMPDEST DUP2 EQ PUSH2 0x2122 JUMPI PUSH1 0x0 DUP1 REVERT JUMPDEST POP JUMP JUMPDEST PUSH1 0x0 DUP2 CALLDATALOAD SWAP1 POP PUSH2 0x2134 DUP2 PUSH2 0x210E JUMP JUMPDEST SWAP3 SWAP2 POP POP JUMP JUMPDEST PUSH1 0x0 DUP1 PUSH1 0x40 DUP4 DUP6 SUB SLT ISZERO PUSH2 0x2151 JUMPI PUSH2 0x2150 PUSH2 0x1C6F JUMP JUMPDEST JUMPDEST PUSH1 0x0 PUSH2 0x215F DUP6 DUP3 DUP7 ADD PUSH2 0x1E2A JUMP JUMPDEST SWAP3 POP POP PUSH1 0x20 PUSH2 0x2170 DUP6 DUP3 DUP7 ADD PUSH2 0x2125 JUMP JUMPDEST SWAP2 POP POP SWAP3 POP SWAP3 SWAP1 POP JUMP JUMPDEST PUSH1 0x0 DUP1 PUSH1 0x40 DUP4 DUP6 SUB SLT ISZERO PUSH2 0x2191 JUMPI PUSH2 0x2190 PUSH2 0x1C6F JUMP JUMPDEST JUMPDEST PUSH1 0x0 PUSH2 0x219F DUP6 DUP3 DUP7 ADD PUSH2 0x1E2A JUMP JUMPDEST SWAP3 POP POP PUSH1 0x20 PUSH2 0x21B0 DUP6 DUP3 DUP7 ADD PUSH2 0x1E2A JUMP JUMPDEST SWAP2 POP POP SWAP3 POP SWAP3 SWAP1 POP JUMP JUMPDEST PUSH32 0x4E487B7100000000000000000000000000000000000000000000000000000000 PUSH1 0x0 MSTORE PUSH1 0x22 PUSH1 0x4 MSTORE PUSH1 0x24 PUSH1 0x0 REVERT JUMPDEST PUSH1 0x0 PUSH1 0x2 DUP3 DIV SWAP1 POP PUSH1 0x1 DUP3 AND DUP1 PUSH2 0x2201 JUMPI PUSH1 0x7F DUP3 AND SWAP2 POP JUMPDEST PUSH1 0x20 DUP3 LT DUP2 SUB PUSH2 0x2214 JUMPI PUSH2 0x2213 PUSH2 0x21BA JUMP JUMPDEST JUMPDEST POP SWAP2 SWAP1 POP JUMP JUMPDEST PUSH32 0x4E487B7100000000000000000000000000000000000000000000000000000000 PUSH1 0x0 MSTORE PUSH1 0x12 PUSH1 0x4 MSTORE PUSH1 0x24 PUSH1 0x0 REVERT JUMPDEST PUSH32 0x4E487B7100000000000000000000000000000000000000000000000000000000 PUSH1 0x0 MSTORE PUSH1 0x11 PUSH1 0x4 MSTORE PUSH1 0x24 PUSH1 0x0 REVERT JUMPDEST PUSH1 0x0 PUSH2 0x2283 DUP3 PUSH2 0x1E3F JUMP JUMPDEST SWAP2 POP PUSH2 0x228E DUP4 PUSH2 0x1E3F JUMP JUMPDEST SWAP3 POP DUP3 PUSH2 0x229E JUMPI PUSH2 0x229D PUSH2 0x221A JUMP JUMPDEST JUMPDEST DUP3 DUP3 DIV SWAP1 POP SWAP3 SWAP2 POP POP JUMP JUMPDEST PUSH1 0x0 PUSH2 0x22B4 DUP3 PUSH2 0x1E3F JUMP JUMPDEST SWAP2 POP PUSH2 0x22BF DUP4 PUSH2 0x1E3F JUMP JUMPDEST SWAP3 POP DUP3 DUP3 MUL PUSH2 0x22CD DUP2 PUSH2 0x1E3F JUMP JUMPDEST SWAP2 POP DUP3 DUP3 DIV DUP5 EQ DUP4 ISZERO OR PUSH2 0x22E4 JUMPI PUSH2 0x22E3 PUSH2 0x2249 JUMP JUMPDEST JUMPDEST POP SWAP3 SWAP2 POP POP JUMP JUMPDEST PUSH1 0x0 PUSH2 0x22F6 DUP3 PUSH2 0x1E3F JUMP JUMPDEST SWAP2 POP PUSH2 0x2301 DUP4 PUSH2 0x1E3F JUMP JUMPDEST SWAP3 POP DUP3 DUP3 SUB SWAP1 POP DUP2 DUP2 GT ISZERO PUSH2 0x2319 JUMPI PUSH2 0x2318 PUSH2 0x2249 JUMP JUMPDEST JUMPDEST SWAP3 SWAP2 POP POP JUMP JUMPDEST PUSH32 0x416363657373436F6E74726F6C3A2063616E206F6E6C792072656E6F756E6365 PUSH1 0x0 DUP3 ADD MSTORE PUSH32 0x20726F6C657320666F722073656C660000000000000000000000000000000000 PUSH1 0x20 DUP3 ADD MSTORE POP JUMP JUMPDEST PUSH1 0x0 PUSH2 0x237B PUSH1 0x2F DUP4 PUSH2 0x1D3A JUMP JUMPDEST SWAP2 POP PUSH2 0x2386 DUP3 PUSH2 0x231F JUMP JUMPDEST PUSH1 0x40 DUP3 ADD SWAP1 POP SWAP2 SWAP1 POP JUMP JUMPDEST PUSH1 0x0 PUSH1 0x20 DUP3 ADD SWAP1 POP DUP2 DUP2 SUB PUSH1 0x0 DUP4 ADD MSTORE PUSH2 0x23AA DUP2 PUSH2 0x236E JUMP JUMPDEST SWAP1 POP SWAP2 SWAP1 POP JUMP JUMPDEST PUSH1 0x0 PUSH2 0x23BC DUP3 PUSH2 0x1E3F JUMP JUMPDEST SWAP2 POP PUSH2 0x23C7 DUP4 PUSH2 0x1E3F JUMP JUMPDEST SWAP3 POP DUP3 DUP3 ADD SWAP1 POP DUP1 DUP3 GT ISZERO PUSH2 0x23DF JUMPI PUSH2 0x23DE PUSH2 0x2249 JUMP JUMPDEST JUMPDEST SWAP3 SWAP2 POP POP JUMP JUMPDEST PUSH32 0x45524332303A2064656372656173656420616C6C6F77616E63652062656C6F77 PUSH1 0x0 DUP3 ADD MSTORE PUSH32 0x207A65726F000000000000000000000000000000000000000000000000000000 PUSH1 0x20 DUP3 ADD MSTORE POP JUMP JUMPDEST PUSH1 0x0 PUSH2 0x2441 PUSH1 0x25 DUP4 PUSH2 0x1D3A JUMP JUMPDEST SWAP2 POP PUSH2 0x244C DUP3 PUSH2 0x23E5 JUMP JUMPDEST PUSH1 0x40 DUP3 ADD SWAP1 POP SWAP2 SWAP1 POP JUMP JUMPDEST PUSH1 0x0 PUSH1 0x20 DUP3 ADD SWAP1 POP DUP2 DUP2 SUB PUSH1 0x0 DUP4 ADD MSTORE PUSH2 0x2470 DUP2 PUSH2 0x2434 JUMP JUMPDEST SWAP1 POP SWAP2 SWAP1 POP JUMP JUMPDEST PUSH32 0x4E487B7100000000000000000000000000000000000000000000000000000000 PUSH1 0x0 MSTORE PUSH1 0x41 PUSH1 0x4 MSTORE PUSH1 0x24 PUSH1 0x0 REVERT JUMPDEST PUSH32 0x4E487B7100000000000000000000000000000000000000000000000000000000 PUSH1 0x0 MSTORE PUSH1 0x32 PUSH1 0x4 MSTORE PUSH1 0x24 PUSH1 0x0 REVERT JUMPDEST PUSH1 0x0 PUSH2 0x24E0 DUP3 PUSH2 0x1E3F JUMP JUMPDEST SWAP2 POP PUSH1 0x0 DUP3 SUB PUSH2 0x24F3 JUMPI PUSH2 0x24F2 PUSH2 0x2249 JUMP JUMPDEST JUMPDEST PUSH1 0x1 DUP3 SUB SWAP1 POP SWAP2 SWAP1 POP JUMP JUMPDEST PUSH32 0x537472696E67733A20686578206C656E67746820696E73756666696369656E74 PUSH1 0x0 DUP3 ADD MSTORE POP JUMP JUMPDEST PUSH1 0x0 PUSH2 0x2534 PUSH1 0x20 DUP4 PUSH2 0x1D3A JUMP JUMPDEST SWAP2 POP PUSH2 0x253F DUP3 PUSH2 0x24FE JUMP JUMPDEST PUSH1 0x20 DUP3 ADD SWAP1 POP SWAP2 SWAP1 POP JUMP JUMPDEST PUSH1 0x0 PUSH1 0x20 DUP3 ADD SWAP1 POP DUP2 DUP2 SUB PUSH1 0x0 DUP4 ADD MSTORE PUSH2 0x2563 DUP2 PUSH2 0x2527 JUMP JUMPDEST SWAP1 POP SWAP2 SWAP1 POP JUMP JUMPDEST PUSH32 0x45524332303A20617070726F76652066726F6D20746865207A65726F20616464 PUSH1 0x0 DUP3 ADD MSTORE PUSH32 0x7265737300000000000000000000000000000000000000000000000000000000 PUSH1 0x20 DUP3 ADD MSTORE POP JUMP JUMPDEST PUSH1 0x0 PUSH2 0x25C6 PUSH1 0x24 DUP4 PUSH2 0x1D3A JUMP JUMPDEST SWAP2 POP PUSH2 0x25D1 DUP3 PUSH2 0x256A JUMP JUMPDEST PUSH1 0x40 DUP3 ADD SWAP1 POP SWAP2 SWAP1 POP JUMP JUMPDEST PUSH1 0x0 PUSH1 0x20 DUP3 ADD SWAP1 POP DUP2 DUP2 SUB PUSH1 0x0 DUP4 ADD MSTORE PUSH2 0x25F5 DUP2 PUSH2 0x25B9 JUMP JUMPDEST SWAP1 POP SWAP2 SWAP1 POP JUMP JUMPDEST PUSH32 0x45524332303A20617070726F766520746F20746865207A65726F206164647265 PUSH1 0x0 DUP3 ADD MSTORE PUSH32 0x7373000000000000000000000000000000000000000000000000000000000000 PUSH1 0x20 DUP3 ADD MSTORE POP JUMP JUMPDEST PUSH1 0x0 PUSH2 0x2658 PUSH1 0x22 DUP4 PUSH2 0x1D3A JUMP JUMPDEST SWAP2 POP PUSH2 0x2663 DUP3 PUSH2 0x25FC JUMP JUMPDEST PUSH1 0x40 DUP3 ADD SWAP1 POP SWAP2 SWAP1 POP JUMP JUMPDEST PUSH1 0x0 PUSH1 0x20 DUP3 ADD SWAP1 POP DUP2 DUP2 SUB PUSH1 0x0 DUP4 ADD MSTORE PUSH2 0x2687 DUP2 PUSH2 0x264B JUMP JUMPDEST SWAP1 POP SWAP2 SWAP1 POP JUMP JUMPDEST PUSH32 0x45524332303A20696E73756666696369656E7420616C6C6F77616E6365000000 PUSH1 0x0 DUP3 ADD MSTORE POP JUMP JUMPDEST PUSH1 0x0 PUSH2 0x26C4 PUSH1 0x1D DUP4 PUSH2 0x1D3A JUMP JUMPDEST SWAP2 POP PUSH2 0x26CF DUP3 PUSH2 0x268E JUMP JUMPDEST PUSH1 0x20 DUP3 ADD SWAP1 POP SWAP2 SWAP1 POP JUMP JUMPDEST PUSH1 0x0 PUSH1 0x20 DUP3 ADD SWAP1 POP DUP2 DUP2 SUB PUSH1 0x0 DUP4 ADD MSTORE PUSH2 0x26F3 DUP2 PUSH2 0x26B7 JUMP JUMPDEST SWAP1 POP SWAP2 SWAP1 POP JUMP JUMPDEST PUSH32 0x45524332303A207472616E736665722066726F6D20746865207A65726F206164 PUSH1 0x0 DUP3 ADD MSTORE PUSH32 0x6472657373000000000000000000000000000000000000000000000000000000 PUSH1 0x20 DUP3 ADD MSTORE POP JUMP JUMPDEST PUSH1 0x0 PUSH2 0x2756 PUSH1 0x25 DUP4 PUSH2 0x1D3A JUMP JUMPDEST SWAP2 POP PUSH2 0x2761 DUP3 PUSH2 0x26FA JUMP JUMPDEST PUSH1 0x40 DUP3 ADD SWAP1 POP SWAP2 SWAP1 POP JUMP JUMPDEST PUSH1 0x0 PUSH1 0x20 DUP3 ADD SWAP1 POP DUP2 DUP2 SUB PUSH1 0x0 DUP4 ADD MSTORE PUSH2 0x2785 DUP2 PUSH2 0x2749 JUMP JUMPDEST SWAP1 POP SWAP2 SWAP1 POP JUMP JUMPDEST PUSH32 0x45524332303A207472616E7366657220746F20746865207A65726F2061646472 PUSH1 0x0 DUP3 ADD MSTORE PUSH32 0x6573730000000000000000000000000000000000000000000000000000000000 PUSH1 0x20 DUP3 ADD MSTORE POP JUMP JUMPDEST PUSH1 0x0 PUSH2 0x27E8 PUSH1 0x23 DUP4 PUSH2 0x1D3A JUMP JUMPDEST SWAP2 POP PUSH2 0x27F3 DUP3 PUSH2 0x278C JUMP JUMPDEST PUSH1 0x40 DUP3 ADD SWAP1 POP SWAP2 SWAP1 POP JUMP JUMPDEST PUSH1 0x0 PUSH1 0x20 DUP3 ADD SWAP1 POP DUP2 DUP2 SUB PUSH1 0x0 DUP4 ADD MSTORE PUSH2 0x2817 DUP2 PUSH2 0x27DB JUMP JUMPDEST SWAP1 POP SWAP2 SWAP1 POP JUMP JUMPDEST PUSH32 0x45524332303A207472616E7366657220616D6F756E7420657863656564732062 PUSH1 0x0 DUP3 ADD MSTORE PUSH32 0x616C616E63650000000000000000000000000000000000000000000000000000 PUSH1 0x20 DUP3 ADD MSTORE POP JUMP JUMPDEST PUSH1 0x0 PUSH2 0x287A PUSH1 0x26 DUP4 PUSH2 0x1D3A JUMP JUMPDEST SWAP2 POP PUSH2 0x2885 DUP3 PUSH2 0x281E JUMP JUMPDEST PUSH1 0x40 DUP3 ADD SWAP1 POP SWAP2 SWAP1 POP JUMP JUMPDEST PUSH1 0x0 PUSH1 0x20 DUP3 ADD SWAP1 POP DUP2 DUP2 SUB PUSH1 0x0 DUP4 ADD MSTORE PUSH2 0x28A9 DUP2 PUSH2 0x286D JUMP JUMPDEST SWAP1 POP SWAP2 SWAP1 POP JUMP JUMPDEST PUSH2 0x28B9 DUP2 PUSH2 0x1E01 JUMP JUMPDEST DUP3 MSTORE POP POP JUMP JUMPDEST PUSH1 0x0 PUSH1 0x20 DUP3 ADD SWAP1 POP PUSH2 0x28D4 PUSH1 0x0 DUP4 ADD DUP5 PUSH2 0x28B0 JUMP JUMPDEST SWAP3 SWAP2 POP POP JUMP JUMPDEST PUSH32 0x45524332303A206275726E2066726F6D20746865207A65726F20616464726573 PUSH1 0x0 DUP3 ADD MSTORE PUSH32 0x7300000000000000000000000000000000000000000000000000000000000000 PUSH1 0x20 DUP3 ADD MSTORE POP JUMP JUMPDEST PUSH1 0x0 PUSH2 0x2936 PUSH1 0x21 DUP4 PUSH2 0x1D3A JUMP JUMPDEST SWAP2 POP PUSH2 0x2941 DUP3 PUSH2 0x28DA JUMP JUMPDEST PUSH1 0x40 DUP3 ADD SWAP1 POP SWAP2 SWAP1 POP JUMP JUMPDEST PUSH1 0x0 PUSH1 0x20 DUP3 ADD SWAP1 POP DUP2 DUP2 SUB PUSH1 0x0 DUP4 ADD MSTORE PUSH2 0x2965 DUP2 PUSH2 0x2929 JUMP JUMPDEST SWAP1 POP SWAP2 SWAP1 POP JUMP JUMPDEST PUSH32 0x45524332303A206275726E20616D6F756E7420657863656564732062616C616E PUSH1 0x0 DUP3 ADD MSTORE PUSH32 0x6365000000000000000000000000000000000000000000000000000000000000 PUSH1 0x20 DUP3 ADD MSTORE POP JUMP JUMPDEST PUSH1 0x0 PUSH2 0x29C8 PUSH1 0x22 DUP4 PUSH2 0x1D3A JUMP JUMPDEST SWAP2 POP PUSH2 0x29D3 DUP3 PUSH2 0x296C JUMP JUMPDEST PUSH1 0x40 DUP3 ADD SWAP1 POP SWAP2 SWAP1 POP JUMP JUMPDEST PUSH1 0x0 PUSH1 0x20 DUP3 ADD SWAP1 POP DUP2 DUP2 SUB PUSH1 0x0 DUP4 ADD MSTORE PUSH2 0x29F7 DUP2 PUSH2 0x29BB JUMP JUMPDEST SWAP1 POP SWAP2 SWAP1 POP JUMP JUMPDEST PUSH32 0x546F6B656E207472616E7366657220726566757365642E205265636569766572 PUSH1 0x0 DUP3 ADD MSTORE PUSH32 0x206973206F6E2074686520626C61636B6C697374000000000000000000000000 PUSH1 0x20 DUP3 ADD MSTORE POP JUMP JUMPDEST PUSH1 0x0 PUSH2 0x2A5A PUSH1 0x34 DUP4 PUSH2 0x1D3A JUMP JUMPDEST SWAP2 POP PUSH2 0x2A65 DUP3 PUSH2 0x29FE JUMP JUMPDEST PUSH1 0x40 DUP3 ADD SWAP1 POP SWAP2 SWAP1 POP JUMP JUMPDEST PUSH1 0x0 PUSH1 0x20 DUP3 ADD SWAP1 POP DUP2 DUP2 SUB PUSH1 0x0 DUP4 ADD MSTORE PUSH2 0x2A89 DUP2 PUSH2 0x2A4D JUMP JUMPDEST SWAP1 POP SWAP2 SWAP1 POP JUMP JUMPDEST PUSH32 0x546F6B656E207472616E7366657220726566757365642E20596F752061726520 PUSH1 0x0 DUP3 ADD MSTORE PUSH32 0x6F6E2074686520626C61636B6C69737400000000000000000000000000000000 PUSH1 0x20 DUP3 ADD MSTORE POP JUMP JUMPDEST PUSH1 0x0 PUSH2 0x2AEC PUSH1 0x30 DUP4 PUSH2 0x1D3A JUMP JUMPDEST SWAP2 POP PUSH2 0x2AF7 DUP3 PUSH2 0x2A90 JUMP JUMPDEST PUSH1 0x40 DUP3 ADD SWAP1 POP SWAP2 SWAP1 POP JUMP JUMPDEST PUSH1 0x0 PUSH1 0x20 DUP3 ADD SWAP1 POP DUP2 DUP2 SUB PUSH1 0x0 DUP4 ADD MSTORE PUSH2 0x2B1B DUP2 PUSH2 0x2ADF JUMP JUMPDEST SWAP1 POP SWAP2 SWAP1 POP JUMP JUMPDEST PUSH1 0x0 DUP2 SWAP1 POP SWAP3 SWAP2 POP POP JUMP JUMPDEST PUSH32 0x416363657373436F6E74726F6C3A206163636F756E7420000000000000000000 PUSH1 0x0 DUP3 ADD MSTORE POP JUMP JUMPDEST PUSH1 0x0 PUSH2 0x2B63 PUSH1 0x17 DUP4 PUSH2 0x2B22 JUMP JUMPDEST SWAP2 POP PUSH2 0x2B6E DUP3 PUSH2 0x2B2D JUMP JUMPDEST PUSH1 0x17 DUP3 ADD SWAP1 POP SWAP2 SWAP1 POP JUMP JUMPDEST PUSH1 0x0 PUSH2 0x2B84 DUP3 PUSH2 0x1D2F JUMP JUMPDEST PUSH2 0x2B8E DUP2 DUP6 PUSH2 0x2B22 JUMP JUMPDEST SWAP4 POP PUSH2 0x2B9E DUP2 DUP6 PUSH1 0x20 DUP7 ADD PUSH2 0x1D4B JUMP JUMPDEST DUP1 DUP5 ADD SWAP2 POP POP SWAP3 SWAP2 POP POP JUMP JUMPDEST PUSH32 0x206973206D697373696E6720726F6C6520000000000000000000000000000000 PUSH1 0x0 DUP3 ADD MSTORE POP JUMP JUMPDEST PUSH1 0x0 PUSH2 0x2BE0 PUSH1 0x11 DUP4 PUSH2 0x2B22 JUMP JUMPDEST SWAP2 POP PUSH2 0x2BEB DUP3 PUSH2 0x2BAA JUMP JUMPDEST PUSH1 0x11 DUP3 ADD SWAP1 POP SWAP2 SWAP1 POP JUMP JUMPDEST PUSH1 0x0 PUSH2 0x2C01 DUP3 PUSH2 0x2B56 JUMP JUMPDEST SWAP2 POP PUSH2 0x2C0D DUP3 DUP6 PUSH2 0x2B79 JUMP JUMPDEST SWAP2 POP PUSH2 0x2C18 DUP3 PUSH2 0x2BD3 JUMP JUMPDEST SWAP2 POP PUSH2 0x2C24 DUP3 DUP5 PUSH2 0x2B79 JUMP JUMPDEST SWAP2 POP DUP2 SWAP1 POP SWAP4 SWAP3 POP POP POP JUMP JUMPDEST PUSH32 0x5061757361626C653A206E6F7420706175736564000000000000000000000000 PUSH1 0x0 DUP3 ADD MSTORE POP JUMP JUMPDEST PUSH1 0x0 PUSH2 0x2C66 PUSH1 0x14 DUP4 PUSH2 0x1D3A JUMP JUMPDEST SWAP2 POP PUSH2 0x2C71 DUP3 PUSH2 0x2C30 JUMP JUMPDEST PUSH1 0x20 DUP3 ADD SWAP1 POP SWAP2 SWAP1 POP JUMP JUMPDEST PUSH1 0x0 PUSH1 0x20 DUP3 ADD SWAP1 POP DUP2 DUP2 SUB PUSH1 0x0 DUP4 ADD MSTORE PUSH2 0x2C95 DUP2 PUSH2 0x2C59 JUMP JUMPDEST SWAP1 POP SWAP2 SWAP1 POP JUMP JUMPDEST PUSH32 0x5061757361626C653A2070617573656400000000000000000000000000000000 PUSH1 0x0 DUP3 ADD MSTORE POP JUMP JUMPDEST PUSH1 0x0 PUSH2 0x2CD2 PUSH1 0x10 DUP4 PUSH2 0x1D3A JUMP JUMPDEST SWAP2 POP PUSH2 0x2CDD DUP3 PUSH2 0x2C9C JUMP JUMPDEST PUSH1 0x20 DUP3 ADD SWAP1 POP SWAP2 SWAP1 POP JUMP JUMPDEST PUSH1 0x0 PUSH1 0x20 DUP3 ADD SWAP1 POP DUP2 DUP2 SUB PUSH1 0x0 DUP4 ADD MSTORE PUSH2 0x2D01 DUP2 PUSH2 0x2CC5 JUMP JUMPDEST SWAP1 POP SWAP2 SWAP1 POP JUMP INVALID LOG2 PUSH5 0x6970667358 0x22 SLT KECCAK256 0x4A 0x2B 0xD7 0x26 0xC0 0xDE DUP14 0xE 0xF 0xB9 0x23 0xC5 DUP10 0xCB PC SWAP9 0x2D 0x4C DUP10 0xE4 PUSH28 0xF85CB017826D7C918DC0F664736F6C63430008120033000000000000 "
		},
		"gasEstimates": {
			"creation": {
				"codeDepositCost": "2316400",
				"executionCost": "infinite",
				"totalCost": "infinite"
			},
			"external": {
				"DEFAULT_ADMIN_ROLE()": "380",
				"FEE_RATIO_CHANGER_ROLE()": "2518",
				"PAUSER_ROLE()": "461",
				"_buyFeeRatio()": "2519",
				"_sellFeeRatio()": "2474",
				"allowance(address,address)": "infinite",
				"approve(address,uint256)": "infinite",
				"balanceOf(address)": "2887",
				"blacklistUpdate(address,bool)": "infinite",
				"burn(uint256)": "infinite",
				"burnFrom(address,uint256)": "infinite",
				"decimals()": "411",
				"decreaseAllowance(address,uint256)": "infinite",
				"getBuyFeeRatio()": "2548",
				"getRoleAdmin(bytes32)": "infinite",
				"getSellFeeRatio()": "2550",
				"grantRole(bytes32,address)": "infinite",
				"hasRole(bytes32,address)": "3207",
				"increaseAllowance(address,uint256)": "infinite",
				"isBlackListed(address)": "2993",
				"name()": "infinite",
				"pause()": "infinite",
				"paused()": "2612",
				"renounceRole(bytes32,address)": "infinite",
				"revokeRole(bytes32,address)": "infinite",
				"setBuyFeeRatio(uint256)": "infinite",
				"setSellFeeRatio(uint256)": "infinite",
				"supportsInterface(bytes4)": "774",
				"symbol()": "infinite",
				"totalSupply()": "2505",
				"transfer(address,uint256)": "infinite",
				"transferFrom(address,address,uint256)": "infinite",
				"transferToken(address,uint256)": "infinite",
				"unpause()": "infinite"
			},
			"internal": {
				"_beforeTokenTransfer(address,address,uint256)": "infinite"
			}
		},
		"methodIdentifiers": {
			"DEFAULT_ADMIN_ROLE()": "a217fddf",
			"FEE_RATIO_CHANGER_ROLE()": "46dbeb2d",
			"PAUSER_ROLE()": "e63ab1e9",
			"_buyFeeRatio()": "7ec502a4",
			"_sellFeeRatio()": "8e47b88c",
			"allowance(address,address)": "dd62ed3e",
			"approve(address,uint256)": "095ea7b3",
			"balanceOf(address)": "70a08231",
			"blacklistUpdate(address,bool)": "b351dfe8",
			"burn(uint256)": "42966c68",
			"burnFrom(address,uint256)": "79cc6790",
			"decimals()": "313ce567",
			"decreaseAllowance(address,uint256)": "a457c2d7",
			"getBuyFeeRatio()": "50ba3530",
			"getRoleAdmin(bytes32)": "248a9ca3",
			"getSellFeeRatio()": "10543ee3",
			"grantRole(bytes32,address)": "2f2ff15d",
			"hasRole(bytes32,address)": "91d14854",
			"increaseAllowance(address,uint256)": "39509351",
			"isBlackListed(address)": "e47d6060",
			"name()": "06fdde03",
			"pause()": "8456cb59",
			"paused()": "5c975abb",
			"renounceRole(bytes32,address)": "36568abe",
			"revokeRole(bytes32,address)": "d547741f",
			"setBuyFeeRatio(uint256)": "9da39df9",
			"setSellFeeRatio(uint256)": "e3ac03f3",
			"supportsInterface(bytes4)": "01ffc9a7",
			"symbol()": "95d89b41",
			"totalSupply()": "18160ddd",
			"transfer(address,uint256)": "a9059cbb",
			"transferFrom(address,address,uint256)": "23b872dd",
			"transferToken(address,uint256)": "1072cbea",
			"unpause()": "3f4ba83a"
		}
	},
	"abi": [
		{
			"inputs": [],
			"stateMutability": "nonpayable",
			"type": "constructor"
		},
		{
			"anonymous": false,
			"inputs": [
				{
					"indexed": true,
					"internalType": "address",
					"name": "owner",
					"type": "address"
				},
				{
					"indexed": true,
					"internalType": "address",
					"name": "spender",
					"type": "address"
				},
				{
					"indexed": false,
					"internalType": "uint256",
					"name": "value",
					"type": "uint256"
				}
			],
			"name": "Approval",
			"type": "event"
		},
		{
			"anonymous": false,
			"inputs": [
				{
					"indexed": true,
					"internalType": "address",
					"name": "user",
					"type": "address"
				},
				{
					"indexed": false,
					"internalType": "bool",
					"name": "value",
					"type": "bool"
				}
			],
			"name": "BlacklistUpdated",
			"type": "event"
		},
		{
			"anonymous": false,
			"inputs": [
				{
					"indexed": false,
					"internalType": "address",
					"name": "account",
					"type": "address"
				}
			],
			"name": "Paused",
			"type": "event"
		},
		{
			"anonymous": false,
			"inputs": [
				{
					"indexed": true,
					"internalType": "bytes32",
					"name": "role",
					"type": "bytes32"
				},
				{
					"indexed": true,
					"internalType": "bytes32",
					"name": "previousAdminRole",
					"type": "bytes32"
				},
				{
					"indexed": true,
					"internalType": "bytes32",
					"name": "newAdminRole",
					"type": "bytes32"
				}
			],
			"name": "RoleAdminChanged",
			"type": "event"
		},
		{
			"anonymous": false,
			"inputs": [
				{
					"indexed": true,
					"internalType": "bytes32",
					"name": "role",
					"type": "bytes32"
				},
				{
					"indexed": true,
					"internalType": "address",
					"name": "account",
					"type": "address"
				},
				{
					"indexed": true,
					"internalType": "address",
					"name": "sender",
					"type": "address"
				}
			],
			"name": "RoleGranted",
			"type": "event"
		},
		{
			"anonymous": false,
			"inputs": [
				{
					"indexed": true,
					"internalType": "bytes32",
					"name": "role",
					"type": "bytes32"
				},
				{
					"indexed": true,
					"internalType": "address",
					"name": "account",
					"type": "address"
				},
				{
					"indexed": true,
					"internalType": "address",
					"name": "sender",
					"type": "address"
				}
			],
			"name": "RoleRevoked",
			"type": "event"
		},
		{
			"anonymous": false,
			"inputs": [
				{
					"indexed": true,
					"internalType": "address",
					"name": "from",
					"type": "address"
				},
				{
					"indexed": true,
					"internalType": "address",
					"name": "to",
					"type": "address"
				},
				{
					"indexed": false,
					"internalType": "uint256",
					"name": "value",
					"type": "uint256"
				}
			],
			"name": "Transfer",
			"type": "event"
		},
		{
			"anonymous": false,
			"inputs": [
				{
					"indexed": false,
					"internalType": "address",
					"name": "account",
					"type": "address"
				}
			],
			"name": "Unpaused",
			"type": "event"
		},
		{
			"inputs": [],
			"name": "DEFAULT_ADMIN_ROLE",
			"outputs": [
				{
					"internalType": "bytes32",
					"name": "",
					"type": "bytes32"
				}
			],
			"stateMutability": "view",
			"type": "function"
		},
		{
			"inputs": [],
			"name": "FEE_RATIO_CHANGER_ROLE",
			"outputs": [
				{
					"internalType": "bytes32",
					"name": "",
					"type": "bytes32"
				}
			],
			"stateMutability": "view",
			"type": "function"
		},
		{
			"inputs": [],
			"name": "PAUSER_ROLE",
			"outputs": [
				{
					"internalType": "bytes32",
					"name": "",
					"type": "bytes32"
				}
			],
			"stateMutability": "view",
			"type": "function"
		},
		{
			"inputs": [],
			"name": "_buyFeeRatio",
			"outputs": [
				{
					"internalType": "uint256",
					"name": "",
					"type": "uint256"
				}
			],
			"stateMutability": "view",
			"type": "function"
		},
		{
			"inputs": [],
			"name": "_sellFeeRatio",
			"outputs": [
				{
					"internalType": "uint256",
					"name": "",
					"type": "uint256"
				}
			],
			"stateMutability": "view",
			"type": "function"
		},
		{
			"inputs": [
				{
					"internalType": "address",
					"name": "owner",
					"type": "address"
				},
				{
					"internalType": "address",
					"name": "spender",
					"type": "address"
				}
			],
			"name": "allowance",
			"outputs": [
				{
					"internalType": "uint256",
					"name": "",
					"type": "uint256"
				}
			],
			"stateMutability": "view",
			"type": "function"
		},
		{
			"inputs": [
				{
					"internalType": "address",
					"name": "spender",
					"type": "address"
				},
				{
					"internalType": "uint256",
					"name": "amount",
					"type": "uint256"
				}
			],
			"name": "approve",
			"outputs": [
				{
					"internalType": "bool",
					"name": "",
					"type": "bool"
				}
			],
			"stateMutability": "nonpayable",
			"type": "function"
		},
		{
			"inputs": [
				{
					"internalType": "address",
					"name": "account",
					"type": "address"
				}
			],
			"name": "balanceOf",
			"outputs": [
				{
					"internalType": "uint256",
					"name": "",
					"type": "uint256"
				}
			],
			"stateMutability": "view",
			"type": "function"
		},
		{
			"inputs": [
				{
					"internalType": "address",
					"name": "user",
					"type": "address"
				},
				{
					"internalType": "bool",
					"name": "value",
					"type": "bool"
				}
			],
			"name": "blacklistUpdate",
			"outputs": [],
			"stateMutability": "nonpayable",
			"type": "function"
		},
		{
			"inputs": [
				{
					"internalType": "uint256",
					"name": "amount",
					"type": "uint256"
				}
			],
			"name": "burn",
			"outputs": [],
			"stateMutability": "nonpayable",
			"type": "function"
		},
		{
			"inputs": [
				{
					"internalType": "address",
					"name": "account",
					"type": "address"
				},
				{
					"internalType": "uint256",
					"name": "amount",
					"type": "uint256"
				}
			],
			"name": "burnFrom",
			"outputs": [],
			"stateMutability": "nonpayable",
			"type": "function"
		},
		{
			"inputs": [],
			"name": "decimals",
			"outputs": [
				{
					"internalType": "uint8",
					"name": "",
					"type": "uint8"
				}
			],
			"stateMutability": "view",
			"type": "function"
		},
		{
			"inputs": [
				{
					"internalType": "address",
					"name": "spender",
					"type": "address"
				},
				{
					"internalType": "uint256",
					"name": "subtractedValue",
					"type": "uint256"
				}
			],
			"name": "decreaseAllowance",
			"outputs": [
				{
					"internalType": "bool",
					"name": "",
					"type": "bool"
				}
			],
			"stateMutability": "nonpayable",
			"type": "function"
		},
		{
			"inputs": [],
			"name": "getBuyFeeRatio",
			"outputs": [
				{
					"internalType": "uint256",
					"name": "",
					"type": "uint256"
				}
			],
			"stateMutability": "view",
			"type": "function"
		},
		{
			"inputs": [
				{
					"internalType": "bytes32",
					"name": "role",
					"type": "bytes32"
				}
			],
			"name": "getRoleAdmin",
			"outputs": [
				{
					"internalType": "bytes32",
					"name": "",
					"type": "bytes32"
				}
			],
			"stateMutability": "view",
			"type": "function"
		},
		{
			"inputs": [],
			"name": "getSellFeeRatio",
			"outputs": [
				{
					"internalType": "uint256",
					"name": "",
					"type": "uint256"
				}
			],
			"stateMutability": "view",
			"type": "function"
		},
		{
			"inputs": [
				{
					"internalType": "bytes32",
					"name": "role",
					"type": "bytes32"
				},
				{
					"internalType": "address",
					"name": "account",
					"type": "address"
				}
			],
			"name": "grantRole",
			"outputs": [],
			"stateMutability": "nonpayable",
			"type": "function"
		},
		{
			"inputs": [
				{
					"internalType": "bytes32",
					"name": "role",
					"type": "bytes32"
				},
				{
					"internalType": "address",
					"name": "account",
					"type": "address"
				}
			],
			"name": "hasRole",
			"outputs": [
				{
					"internalType": "bool",
					"name": "",
					"type": "bool"
				}
			],
			"stateMutability": "view",
			"type": "function"
		},
		{
			"inputs": [
				{
					"internalType": "address",
					"name": "spender",
					"type": "address"
				},
				{
					"internalType": "uint256",
					"name": "addedValue",
					"type": "uint256"
				}
			],
			"name": "increaseAllowance",
			"outputs": [
				{
					"internalType": "bool",
					"name": "",
					"type": "bool"
				}
			],
			"stateMutability": "nonpayable",
			"type": "function"
		},
		{
			"inputs": [
				{
					"internalType": "address",
					"name": "user",
					"type": "address"
				}
			],
			"name": "isBlackListed",
			"outputs": [
				{
					"internalType": "bool",
					"name": "",
					"type": "bool"
				}
			],
			"stateMutability": "view",
			"type": "function"
		},
		{
			"inputs": [],
			"name": "name",
			"outputs": [
				{
					"internalType": "string",
					"name": "",
					"type": "string"
				}
			],
			"stateMutability": "view",
			"type": "function"
		},
		{
			"inputs": [],
			"name": "pause",
			"outputs": [],
			"stateMutability": "nonpayable",
			"type": "function"
		},
		{
			"inputs": [],
			"name": "paused",
			"outputs": [
				{
					"internalType": "bool",
					"name": "",
					"type": "bool"
				}
			],
			"stateMutability": "view",
			"type": "function"
		},
		{
			"inputs": [
				{
					"internalType": "bytes32",
					"name": "role",
					"type": "bytes32"
				},
				{
					"internalType": "address",
					"name": "account",
					"type": "address"
				}
			],
			"name": "renounceRole",
			"outputs": [],
			"stateMutability": "nonpayable",
			"type": "function"
		},
		{
			"inputs": [
				{
					"internalType": "bytes32",
					"name": "role",
					"type": "bytes32"
				},
				{
					"internalType": "address",
					"name": "account",
					"type": "address"
				}
			],
			"name": "revokeRole",
			"outputs": [],
			"stateMutability": "nonpayable",
			"type": "function"
		},
		{
			"inputs": [
				{
					"internalType": "uint256",
					"name": "feeRatio",
					"type": "uint256"
				}
			],
			"name": "setBuyFeeRatio",
			"outputs": [],
			"stateMutability": "nonpayable",
			"type": "function"
		},
		{
			"inputs": [
				{
					"internalType": "uint256",
					"name": "feeRatio",
					"type": "uint256"
				}
			],
			"name": "setSellFeeRatio",
			"outputs": [],
			"stateMutability": "nonpayable",
			"type": "function"
		},
		{
			"inputs": [
				{
					"internalType": "bytes4",
					"name": "interfaceId",
					"type": "bytes4"
				}
			],
			"name": "supportsInterface",
			"outputs": [
				{
					"internalType": "bool",
					"name": "",
					"type": "bool"
				}
			],
			"stateMutability": "view",
			"type": "function"
		},
		{
			"inputs": [],
			"name": "symbol",
			"outputs": [
				{
					"internalType": "string",
					"name": "",
					"type": "string"
				}
			],
			"stateMutability": "view",
			"type": "function"
		},
		{
			"inputs": [],
			"name": "totalSupply",
			"outputs": [
				{
					"internalType": "uint256",
					"name": "",
					"type": "uint256"
				}
			],
			"stateMutability": "view",
			"type": "function"
		},
		{
			"inputs": [
				{
					"internalType": "address",
					"name": "to",
					"type": "address"
				},
				{
					"internalType": "uint256",
					"name": "amount",
					"type": "uint256"
				}
			],
			"name": "transfer",
			"outputs": [
				{
					"internalType": "bool",
					"name": "",
					"type": "bool"
				}
			],
			"stateMutability": "nonpayable",
			"type": "function"
		},
		{
			"inputs": [
				{
					"internalType": "address",
					"name": "from",
					"type": "address"
				},
				{
					"internalType": "address",
					"name": "to",
					"type": "address"
				},
				{
					"internalType": "uint256",
					"name": "amount",
					"type": "uint256"
				}
			],
			"name": "transferFrom",
			"outputs": [
				{
					"internalType": "bool",
					"name": "",
					"type": "bool"
				}
			],
			"stateMutability": "nonpayable",
			"type": "function"
		},
		{
			"inputs": [
				{
					"internalType": "address payable",
					"name": "recepient",
					"type": "address"
				},
				{
					"internalType": "uint256",
					"name": "_amount",
					"type": "uint256"
				}
			],
			"name": "transferToken",
			"outputs": [],
			"stateMutability": "nonpayable",
			"type": "function"
		},
		{
			"inputs": [],
			"name": "unpause",
			"outputs": [],
			"stateMutability": "nonpayable",
			"type": "function"
		}
	]
}